
my_printf.elf:     file format elf32-littlearm


Disassembly of section .text:

80100000 <_start>:
80100000:	e59fd028 	ldr	sp, [pc, #40]	; 80100030 <clean+0x14>
80100004:	eb000001 	bl	80100010 <clean_bss>
80100008:	fb000068 	blx	801001b2 <main>

8010000c <halt>:
8010000c:	eafffffe 	b	8010000c <halt>

80100010 <clean_bss>:
80100010:	e59f101c 	ldr	r1, [pc, #28]	; 80100034 <clean+0x18>
80100014:	e59f201c 	ldr	r2, [pc, #28]	; 80100038 <clean+0x1c>
80100018:	e3a03000 	mov	r3, #0

8010001c <clean>:
8010001c:	e5813000 	str	r3, [r1]
80100020:	e2811004 	add	r1, r1, #4
80100024:	e1510002 	cmp	r1, r2
80100028:	1afffffb 	bne	8010001c <clean>
8010002c:	e1a0f00e 	mov	pc, lr
80100030:	80200000 	eorhi	r0, r0, r0
80100034:	8010093c 	andshi	r0, r0, ip, lsr r9
80100038:	80100944 	andshi	r0, r0, r4, asr #18

8010003c <Uart_Init>:
8010003c:	b480      	push	{r7}
8010003e:	af00      	add	r7, sp, #0
80100040:	f640 123c 	movw	r2, #2364	; 0x93c
80100044:	f2c8 0210 	movt	r2, #32784	; 0x8010
80100048:	2384      	movs	r3, #132	; 0x84
8010004a:	f2c0 230e 	movt	r3, #526	; 0x20e
8010004e:	6013      	str	r3, [r2, #0]
80100050:	f640 1240 	movw	r2, #2368	; 0x940
80100054:	f2c8 0210 	movt	r2, #32784	; 0x8010
80100058:	2388      	movs	r3, #136	; 0x88
8010005a:	f2c0 230e 	movt	r3, #526	; 0x20e
8010005e:	6013      	str	r3, [r2, #0]
80100060:	f640 1340 	movw	r3, #2368	; 0x940
80100064:	f2c8 0310 	movt	r3, #32784	; 0x8010
80100068:	681b      	ldr	r3, [r3, #0]
8010006a:	2200      	movs	r2, #0
8010006c:	601a      	str	r2, [r3, #0]
8010006e:	f640 133c 	movw	r3, #2364	; 0x93c
80100072:	f2c8 0310 	movt	r3, #32784	; 0x8010
80100076:	681b      	ldr	r3, [r3, #0]
80100078:	2200      	movs	r2, #0
8010007a:	601a      	str	r2, [r3, #0]
8010007c:	2300      	movs	r3, #0
8010007e:	f2c0 2302 	movt	r3, #514	; 0x202
80100082:	2200      	movs	r2, #0
80100084:	f2c0 2202 	movt	r2, #514	; 0x202
80100088:	f8d2 2080 	ldr.w	r2, [r2, #128]	; 0x80
8010008c:	f042 0201 	orr.w	r2, r2, #1
80100090:	f8c3 2080 	str.w	r2, [r3, #128]	; 0x80
80100094:	2200      	movs	r2, #0
80100096:	f2c0 2202 	movt	r2, #514	; 0x202
8010009a:	2300      	movs	r3, #0
8010009c:	f2c0 2302 	movt	r3, #514	; 0x202
801000a0:	f8d3 3084 	ldr.w	r3, [r3, #132]	; 0x84
801000a4:	f443 4380 	orr.w	r3, r3, #16384	; 0x4000
801000a8:	f043 0326 	orr.w	r3, r3, #38	; 0x26
801000ac:	f8c2 3084 	str.w	r3, [r2, #132]	; 0x84
801000b0:	2300      	movs	r3, #0
801000b2:	f2c0 2302 	movt	r3, #514	; 0x202
801000b6:	2200      	movs	r2, #0
801000b8:	f2c0 2202 	movt	r2, #514	; 0x202
801000bc:	f8d2 2088 	ldr.w	r2, [r2, #136]	; 0x88
801000c0:	f042 0204 	orr.w	r2, r2, #4
801000c4:	f8c3 2088 	str.w	r2, [r3, #136]	; 0x88
801000c8:	2300      	movs	r3, #0
801000ca:	f2c0 2302 	movt	r3, #514	; 0x202
801000ce:	f44f 7220 	mov.w	r2, #640	; 0x280
801000d2:	f8c3 2090 	str.w	r2, [r3, #144]	; 0x90
801000d6:	2300      	movs	r3, #0
801000d8:	f2c0 2302 	movt	r3, #514	; 0x202
801000dc:	2247      	movs	r2, #71	; 0x47
801000de:	f8c3 20a4 	str.w	r2, [r3, #164]	; 0xa4
801000e2:	2300      	movs	r3, #0
801000e4:	f2c0 2302 	movt	r3, #514	; 0x202
801000e8:	f640 4234 	movw	r2, #3124	; 0xc34
801000ec:	f8c3 20a8 	str.w	r2, [r3, #168]	; 0xa8
801000f0:	2300      	movs	r3, #0
801000f2:	f2c0 2302 	movt	r3, #514	; 0x202
801000f6:	2200      	movs	r2, #0
801000f8:	f2c0 2202 	movt	r2, #514	; 0x202
801000fc:	f8d2 2080 	ldr.w	r2, [r2, #128]	; 0x80
80100100:	f042 0201 	orr.w	r2, r2, #1
80100104:	f8c3 2080 	str.w	r2, [r3, #128]	; 0x80
80100108:	bf00      	nop
8010010a:	46bd      	mov	sp, r7
8010010c:	f85d 7b04 	ldr.w	r7, [sp], #4
80100110:	4770      	bx	lr

80100112 <PutChar>:
80100112:	b480      	push	{r7}
80100114:	b083      	sub	sp, #12
80100116:	af00      	add	r7, sp, #0
80100118:	6078      	str	r0, [r7, #4]
8010011a:	bf00      	nop
8010011c:	2300      	movs	r3, #0
8010011e:	f2c0 2302 	movt	r3, #514	; 0x202
80100122:	f8d3 3098 	ldr.w	r3, [r3, #152]	; 0x98
80100126:	f003 0308 	and.w	r3, r3, #8
8010012a:	2b00      	cmp	r3, #0
8010012c:	d0f6      	beq.n	8010011c <PutChar+0xa>
8010012e:	2300      	movs	r3, #0
80100130:	f2c0 2302 	movt	r3, #514	; 0x202
80100134:	687a      	ldr	r2, [r7, #4]
80100136:	b2d2      	uxtb	r2, r2
80100138:	641a      	str	r2, [r3, #64]	; 0x40
8010013a:	bf00      	nop
8010013c:	370c      	adds	r7, #12
8010013e:	46bd      	mov	sp, r7
80100140:	f85d 7b04 	ldr.w	r7, [sp], #4
80100144:	4770      	bx	lr

80100146 <GetChar>:
80100146:	b480      	push	{r7}
80100148:	af00      	add	r7, sp, #0
8010014a:	bf00      	nop
8010014c:	2300      	movs	r3, #0
8010014e:	f2c0 2302 	movt	r3, #514	; 0x202
80100152:	f8d3 3098 	ldr.w	r3, [r3, #152]	; 0x98
80100156:	f003 0301 	and.w	r3, r3, #1
8010015a:	2b00      	cmp	r3, #0
8010015c:	d0f6      	beq.n	8010014c <GetChar+0x6>
8010015e:	2300      	movs	r3, #0
80100160:	f2c0 2302 	movt	r3, #514	; 0x202
80100164:	681b      	ldr	r3, [r3, #0]
80100166:	b2db      	uxtb	r3, r3
80100168:	4618      	mov	r0, r3
8010016a:	46bd      	mov	sp, r7
8010016c:	f85d 7b04 	ldr.w	r7, [sp], #4
80100170:	4770      	bx	lr

80100172 <PutStr>:
80100172:	b580      	push	{r7, lr}
80100174:	b082      	sub	sp, #8
80100176:	af00      	add	r7, sp, #0
80100178:	6078      	str	r0, [r7, #4]
8010017a:	e007      	b.n	8010018c <PutStr+0x1a>
8010017c:	687b      	ldr	r3, [r7, #4]
8010017e:	781b      	ldrb	r3, [r3, #0]
80100180:	4618      	mov	r0, r3
80100182:	f7ff ffc6 	bl	80100112 <PutChar>
80100186:	687b      	ldr	r3, [r7, #4]
80100188:	3301      	adds	r3, #1
8010018a:	607b      	str	r3, [r7, #4]
8010018c:	687b      	ldr	r3, [r7, #4]
8010018e:	781b      	ldrb	r3, [r3, #0]
80100190:	2b00      	cmp	r3, #0
80100192:	d1f3      	bne.n	8010017c <PutStr+0xa>
80100194:	bf00      	nop
80100196:	3708      	adds	r7, #8
80100198:	46bd      	mov	sp, r7
8010019a:	bd80      	pop	{r7, pc}

8010019c <raise>:
8010019c:	b480      	push	{r7}
8010019e:	b083      	sub	sp, #12
801001a0:	af00      	add	r7, sp, #0
801001a2:	6078      	str	r0, [r7, #4]
801001a4:	2300      	movs	r3, #0
801001a6:	4618      	mov	r0, r3
801001a8:	370c      	adds	r7, #12
801001aa:	46bd      	mov	sp, r7
801001ac:	f85d 7b04 	ldr.w	r7, [sp], #4
801001b0:	4770      	bx	lr

801001b2 <main>:
801001b2:	b580      	push	{r7, lr}
801001b4:	af00      	add	r7, sp, #0
801001b6:	f7ff ff41 	bl	8010003c <Uart_Init>
801001ba:	f000 f96d 	bl	80100498 <my_printf_test>
801001be:	2300      	movs	r3, #0
801001c0:	4618      	mov	r0, r3
801001c2:	bd80      	pop	{r7, pc}

801001c4 <outc>:
801001c4:	b580      	push	{r7, lr}
801001c6:	b082      	sub	sp, #8
801001c8:	af00      	add	r7, sp, #0
801001ca:	6078      	str	r0, [r7, #4]
801001cc:	6878      	ldr	r0, [r7, #4]
801001ce:	f7ff ffa0 	bl	80100112 <PutChar>
801001d2:	2300      	movs	r3, #0
801001d4:	4618      	mov	r0, r3
801001d6:	3708      	adds	r7, #8
801001d8:	46bd      	mov	sp, r7
801001da:	bd80      	pop	{r7, pc}

801001dc <outs>:
801001dc:	b580      	push	{r7, lr}
801001de:	b082      	sub	sp, #8
801001e0:	af00      	add	r7, sp, #0
801001e2:	6078      	str	r0, [r7, #4]
801001e4:	e006      	b.n	801001f4 <outs+0x18>
801001e6:	687b      	ldr	r3, [r7, #4]
801001e8:	1c5a      	adds	r2, r3, #1
801001ea:	607a      	str	r2, [r7, #4]
801001ec:	781b      	ldrb	r3, [r3, #0]
801001ee:	4618      	mov	r0, r3
801001f0:	f7ff ff8f 	bl	80100112 <PutChar>
801001f4:	687b      	ldr	r3, [r7, #4]
801001f6:	781b      	ldrb	r3, [r3, #0]
801001f8:	2b00      	cmp	r3, #0
801001fa:	d1f4      	bne.n	801001e6 <outs+0xa>
801001fc:	2300      	movs	r3, #0
801001fe:	4618      	mov	r0, r3
80100200:	3708      	adds	r7, #8
80100202:	46bd      	mov	sp, r7
80100204:	bd80      	pop	{r7, pc}

80100206 <out_num>:
80100206:	b580      	push	{r7, lr}
80100208:	b098      	sub	sp, #96	; 0x60
8010020a:	af00      	add	r7, sp, #0
8010020c:	60f8      	str	r0, [r7, #12]
8010020e:	60b9      	str	r1, [r7, #8]
80100210:	603b      	str	r3, [r7, #0]
80100212:	4613      	mov	r3, r2
80100214:	71fb      	strb	r3, [r7, #7]
80100216:	2300      	movs	r3, #0
80100218:	65fb      	str	r3, [r7, #92]	; 0x5c
8010021a:	f107 0310 	add.w	r3, r7, #16
8010021e:	3340      	adds	r3, #64	; 0x40
80100220:	65bb      	str	r3, [r7, #88]	; 0x58
80100222:	2300      	movs	r3, #0
80100224:	657b      	str	r3, [r7, #84]	; 0x54
80100226:	2300      	movs	r3, #0
80100228:	653b      	str	r3, [r7, #80]	; 0x50
8010022a:	6dbb      	ldr	r3, [r7, #88]	; 0x58
8010022c:	3b01      	subs	r3, #1
8010022e:	65bb      	str	r3, [r7, #88]	; 0x58
80100230:	6dbb      	ldr	r3, [r7, #88]	; 0x58
80100232:	2200      	movs	r2, #0
80100234:	701a      	strb	r2, [r3, #0]
80100236:	68fb      	ldr	r3, [r7, #12]
80100238:	2b00      	cmp	r3, #0
8010023a:	da03      	bge.n	80100244 <out_num+0x3e>
8010023c:	68fb      	ldr	r3, [r7, #12]
8010023e:	425b      	negs	r3, r3
80100240:	65fb      	str	r3, [r7, #92]	; 0x5c
80100242:	e001      	b.n	80100248 <out_num+0x42>
80100244:	68fb      	ldr	r3, [r7, #12]
80100246:	65fb      	str	r3, [r7, #92]	; 0x5c
80100248:	6dbb      	ldr	r3, [r7, #88]	; 0x58
8010024a:	3b01      	subs	r3, #1
8010024c:	65bb      	str	r3, [r7, #88]	; 0x58
8010024e:	68ba      	ldr	r2, [r7, #8]
80100250:	6dfb      	ldr	r3, [r7, #92]	; 0x5c
80100252:	4611      	mov	r1, r2
80100254:	4618      	mov	r0, r3
80100256:	f000 fac9 	bl	801007ec <__aeabi_uidivmod>
8010025a:	460b      	mov	r3, r1
8010025c:	461a      	mov	r2, r3
8010025e:	f640 132c 	movw	r3, #2348	; 0x92c
80100262:	f2c8 0310 	movt	r3, #32784	; 0x8010
80100266:	5c9a      	ldrb	r2, [r3, r2]
80100268:	6dbb      	ldr	r3, [r7, #88]	; 0x58
8010026a:	701a      	strb	r2, [r3, #0]
8010026c:	6d7b      	ldr	r3, [r7, #84]	; 0x54
8010026e:	3301      	adds	r3, #1
80100270:	657b      	str	r3, [r7, #84]	; 0x54
80100272:	68bb      	ldr	r3, [r7, #8]
80100274:	4619      	mov	r1, r3
80100276:	6df8      	ldr	r0, [r7, #92]	; 0x5c
80100278:	f000 f98a 	bl	80100590 <__aeabi_uidiv>
8010027c:	4603      	mov	r3, r0
8010027e:	65fb      	str	r3, [r7, #92]	; 0x5c
80100280:	6dfb      	ldr	r3, [r7, #92]	; 0x5c
80100282:	2b00      	cmp	r3, #0
80100284:	d1e0      	bne.n	80100248 <out_num+0x42>
80100286:	683b      	ldr	r3, [r7, #0]
80100288:	2b00      	cmp	r3, #0
8010028a:	d014      	beq.n	801002b6 <out_num+0xb0>
8010028c:	6d7a      	ldr	r2, [r7, #84]	; 0x54
8010028e:	683b      	ldr	r3, [r7, #0]
80100290:	429a      	cmp	r2, r3
80100292:	da10      	bge.n	801002b6 <out_num+0xb0>
80100294:	683a      	ldr	r2, [r7, #0]
80100296:	6d7b      	ldr	r3, [r7, #84]	; 0x54
80100298:	1ad3      	subs	r3, r2, r3
8010029a:	653b      	str	r3, [r7, #80]	; 0x50
8010029c:	e008      	b.n	801002b0 <out_num+0xaa>
8010029e:	6dbb      	ldr	r3, [r7, #88]	; 0x58
801002a0:	3b01      	subs	r3, #1
801002a2:	65bb      	str	r3, [r7, #88]	; 0x58
801002a4:	6dbb      	ldr	r3, [r7, #88]	; 0x58
801002a6:	79fa      	ldrb	r2, [r7, #7]
801002a8:	701a      	strb	r2, [r3, #0]
801002aa:	6d3b      	ldr	r3, [r7, #80]	; 0x50
801002ac:	3b01      	subs	r3, #1
801002ae:	653b      	str	r3, [r7, #80]	; 0x50
801002b0:	6d3b      	ldr	r3, [r7, #80]	; 0x50
801002b2:	2b00      	cmp	r3, #0
801002b4:	d1f3      	bne.n	8010029e <out_num+0x98>
801002b6:	68fb      	ldr	r3, [r7, #12]
801002b8:	2b00      	cmp	r3, #0
801002ba:	da05      	bge.n	801002c8 <out_num+0xc2>
801002bc:	6dbb      	ldr	r3, [r7, #88]	; 0x58
801002be:	3b01      	subs	r3, #1
801002c0:	65bb      	str	r3, [r7, #88]	; 0x58
801002c2:	6dbb      	ldr	r3, [r7, #88]	; 0x58
801002c4:	222d      	movs	r2, #45	; 0x2d
801002c6:	701a      	strb	r2, [r3, #0]
801002c8:	6db8      	ldr	r0, [r7, #88]	; 0x58
801002ca:	f7ff ff87 	bl	801001dc <outs>
801002ce:	4603      	mov	r3, r0
801002d0:	4618      	mov	r0, r3
801002d2:	3760      	adds	r7, #96	; 0x60
801002d4:	46bd      	mov	sp, r7
801002d6:	bd80      	pop	{r7, pc}

801002d8 <my_vprintf>:
801002d8:	b580      	push	{r7, lr}
801002da:	b084      	sub	sp, #16
801002dc:	af00      	add	r7, sp, #0
801002de:	6078      	str	r0, [r7, #4]
801002e0:	6039      	str	r1, [r7, #0]
801002e2:	2320      	movs	r3, #32
801002e4:	73fb      	strb	r3, [r7, #15]
801002e6:	2300      	movs	r3, #0
801002e8:	60bb      	str	r3, [r7, #8]
801002ea:	e0b5      	b.n	80100458 <my_vprintf+0x180>
801002ec:	687b      	ldr	r3, [r7, #4]
801002ee:	781b      	ldrb	r3, [r3, #0]
801002f0:	2b25      	cmp	r3, #37	; 0x25
801002f2:	d005      	beq.n	80100300 <my_vprintf+0x28>
801002f4:	687b      	ldr	r3, [r7, #4]
801002f6:	781b      	ldrb	r3, [r3, #0]
801002f8:	4618      	mov	r0, r3
801002fa:	f7ff ff63 	bl	801001c4 <outc>
801002fe:	e0a8      	b.n	80100452 <my_vprintf+0x17a>
80100300:	2320      	movs	r3, #32
80100302:	73fb      	strb	r3, [r7, #15]
80100304:	2300      	movs	r3, #0
80100306:	60bb      	str	r3, [r7, #8]
80100308:	687b      	ldr	r3, [r7, #4]
8010030a:	3301      	adds	r3, #1
8010030c:	607b      	str	r3, [r7, #4]
8010030e:	687b      	ldr	r3, [r7, #4]
80100310:	781b      	ldrb	r3, [r3, #0]
80100312:	2b30      	cmp	r3, #48	; 0x30
80100314:	d114      	bne.n	80100340 <my_vprintf+0x68>
80100316:	2330      	movs	r3, #48	; 0x30
80100318:	73fb      	strb	r3, [r7, #15]
8010031a:	687b      	ldr	r3, [r7, #4]
8010031c:	3301      	adds	r3, #1
8010031e:	607b      	str	r3, [r7, #4]
80100320:	e00e      	b.n	80100340 <my_vprintf+0x68>
80100322:	68ba      	ldr	r2, [r7, #8]
80100324:	4613      	mov	r3, r2
80100326:	009b      	lsls	r3, r3, #2
80100328:	4413      	add	r3, r2
8010032a:	005b      	lsls	r3, r3, #1
8010032c:	60bb      	str	r3, [r7, #8]
8010032e:	687b      	ldr	r3, [r7, #4]
80100330:	781b      	ldrb	r3, [r3, #0]
80100332:	3b30      	subs	r3, #48	; 0x30
80100334:	68ba      	ldr	r2, [r7, #8]
80100336:	4413      	add	r3, r2
80100338:	60bb      	str	r3, [r7, #8]
8010033a:	687b      	ldr	r3, [r7, #4]
8010033c:	3301      	adds	r3, #1
8010033e:	607b      	str	r3, [r7, #4]
80100340:	687b      	ldr	r3, [r7, #4]
80100342:	781b      	ldrb	r3, [r3, #0]
80100344:	2b2f      	cmp	r3, #47	; 0x2f
80100346:	d903      	bls.n	80100350 <my_vprintf+0x78>
80100348:	687b      	ldr	r3, [r7, #4]
8010034a:	781b      	ldrb	r3, [r3, #0]
8010034c:	2b39      	cmp	r3, #57	; 0x39
8010034e:	d9e8      	bls.n	80100322 <my_vprintf+0x4a>
80100350:	687b      	ldr	r3, [r7, #4]
80100352:	781b      	ldrb	r3, [r3, #0]
80100354:	3b63      	subs	r3, #99	; 0x63
80100356:	2b15      	cmp	r3, #21
80100358:	d875      	bhi.n	80100446 <my_vprintf+0x16e>
8010035a:	a201      	add	r2, pc, #4	; (adr r2, 80100360 <my_vprintf+0x88>)
8010035c:	f852 f023 	ldr.w	pc, [r2, r3, lsl #2]
80100360:	8010041f 	andshi	r0, r0, pc, lsl r4
80100364:	801003b9 			; <UNDEFINED> instruction: 0x801003b9
80100368:	80100447 	andshi	r0, r0, r7, asr #8
8010036c:	80100447 	andshi	r0, r0, r7, asr #8
80100370:	80100447 	andshi	r0, r0, r7, asr #8
80100374:	80100447 	andshi	r0, r0, r7, asr #8
80100378:	80100447 	andshi	r0, r0, r7, asr #8
8010037c:	80100447 	andshi	r0, r0, r7, asr #8
80100380:	80100447 	andshi	r0, r0, r7, asr #8
80100384:	80100447 	andshi	r0, r0, r7, asr #8
80100388:	80100447 	andshi	r0, r0, r7, asr #8
8010038c:	80100447 	andshi	r0, r0, r7, asr #8
80100390:	801003d1 			; <UNDEFINED> instruction: 0x801003d1
80100394:	80100447 	andshi	r0, r0, r7, asr #8
80100398:	80100447 	andshi	r0, r0, r7, asr #8
8010039c:	80100447 	andshi	r0, r0, r7, asr #8
801003a0:	80100433 	andshi	r0, r0, r3, lsr r4
801003a4:	80100447 	andshi	r0, r0, r7, asr #8
801003a8:	801003eb 	andshi	r0, r0, fp, ror #7
801003ac:	80100447 	andshi	r0, r0, r7, asr #8
801003b0:	80100447 	andshi	r0, r0, r7, asr #8
801003b4:	80100405 	andshi	r0, r0, r5, lsl #8
801003b8:	683b      	ldr	r3, [r7, #0]
801003ba:	3304      	adds	r3, #4
801003bc:	603b      	str	r3, [r7, #0]
801003be:	683b      	ldr	r3, [r7, #0]
801003c0:	3b04      	subs	r3, #4
801003c2:	6818      	ldr	r0, [r3, #0]
801003c4:	7bfa      	ldrb	r2, [r7, #15]
801003c6:	68bb      	ldr	r3, [r7, #8]
801003c8:	210a      	movs	r1, #10
801003ca:	f7ff ff1c 	bl	80100206 <out_num>
801003ce:	e040      	b.n	80100452 <my_vprintf+0x17a>
801003d0:	683b      	ldr	r3, [r7, #0]
801003d2:	3304      	adds	r3, #4
801003d4:	603b      	str	r3, [r7, #0]
801003d6:	683b      	ldr	r3, [r7, #0]
801003d8:	3b04      	subs	r3, #4
801003da:	681b      	ldr	r3, [r3, #0]
801003dc:	4618      	mov	r0, r3
801003de:	7bfa      	ldrb	r2, [r7, #15]
801003e0:	68bb      	ldr	r3, [r7, #8]
801003e2:	2108      	movs	r1, #8
801003e4:	f7ff ff0f 	bl	80100206 <out_num>
801003e8:	e033      	b.n	80100452 <my_vprintf+0x17a>
801003ea:	683b      	ldr	r3, [r7, #0]
801003ec:	3304      	adds	r3, #4
801003ee:	603b      	str	r3, [r7, #0]
801003f0:	683b      	ldr	r3, [r7, #0]
801003f2:	3b04      	subs	r3, #4
801003f4:	681b      	ldr	r3, [r3, #0]
801003f6:	4618      	mov	r0, r3
801003f8:	7bfa      	ldrb	r2, [r7, #15]
801003fa:	68bb      	ldr	r3, [r7, #8]
801003fc:	210a      	movs	r1, #10
801003fe:	f7ff ff02 	bl	80100206 <out_num>
80100402:	e026      	b.n	80100452 <my_vprintf+0x17a>
80100404:	683b      	ldr	r3, [r7, #0]
80100406:	3304      	adds	r3, #4
80100408:	603b      	str	r3, [r7, #0]
8010040a:	683b      	ldr	r3, [r7, #0]
8010040c:	3b04      	subs	r3, #4
8010040e:	681b      	ldr	r3, [r3, #0]
80100410:	4618      	mov	r0, r3
80100412:	7bfa      	ldrb	r2, [r7, #15]
80100414:	68bb      	ldr	r3, [r7, #8]
80100416:	2110      	movs	r1, #16
80100418:	f7ff fef5 	bl	80100206 <out_num>
8010041c:	e019      	b.n	80100452 <my_vprintf+0x17a>
8010041e:	683b      	ldr	r3, [r7, #0]
80100420:	3304      	adds	r3, #4
80100422:	603b      	str	r3, [r7, #0]
80100424:	683b      	ldr	r3, [r7, #0]
80100426:	3b04      	subs	r3, #4
80100428:	681b      	ldr	r3, [r3, #0]
8010042a:	4618      	mov	r0, r3
8010042c:	f7ff feca 	bl	801001c4 <outc>
80100430:	e00f      	b.n	80100452 <my_vprintf+0x17a>
80100432:	683b      	ldr	r3, [r7, #0]
80100434:	3304      	adds	r3, #4
80100436:	603b      	str	r3, [r7, #0]
80100438:	683b      	ldr	r3, [r7, #0]
8010043a:	3b04      	subs	r3, #4
8010043c:	681b      	ldr	r3, [r3, #0]
8010043e:	4618      	mov	r0, r3
80100440:	f7ff fecc 	bl	801001dc <outs>
80100444:	e005      	b.n	80100452 <my_vprintf+0x17a>
80100446:	687b      	ldr	r3, [r7, #4]
80100448:	781b      	ldrb	r3, [r3, #0]
8010044a:	4618      	mov	r0, r3
8010044c:	f7ff feba 	bl	801001c4 <outc>
80100450:	bf00      	nop
80100452:	687b      	ldr	r3, [r7, #4]
80100454:	3301      	adds	r3, #1
80100456:	607b      	str	r3, [r7, #4]
80100458:	687b      	ldr	r3, [r7, #4]
8010045a:	781b      	ldrb	r3, [r3, #0]
8010045c:	2b00      	cmp	r3, #0
8010045e:	f47f af45 	bne.w	801002ec <my_vprintf+0x14>
80100462:	2300      	movs	r3, #0
80100464:	4618      	mov	r0, r3
80100466:	3710      	adds	r7, #16
80100468:	46bd      	mov	sp, r7
8010046a:	bd80      	pop	{r7, pc}

8010046c <printf>:
8010046c:	b40f      	push	{r0, r1, r2, r3}
8010046e:	b580      	push	{r7, lr}
80100470:	b082      	sub	sp, #8
80100472:	af00      	add	r7, sp, #0
80100474:	f107 0314 	add.w	r3, r7, #20
80100478:	607b      	str	r3, [r7, #4]
8010047a:	693b      	ldr	r3, [r7, #16]
8010047c:	6879      	ldr	r1, [r7, #4]
8010047e:	4618      	mov	r0, r3
80100480:	f7ff ff2a 	bl	801002d8 <my_vprintf>
80100484:	2300      	movs	r3, #0
80100486:	607b      	str	r3, [r7, #4]
80100488:	2300      	movs	r3, #0
8010048a:	4618      	mov	r0, r3
8010048c:	3708      	adds	r7, #8
8010048e:	46bd      	mov	sp, r7
80100490:	e8bd 4080 	ldmia.w	sp!, {r7, lr}
80100494:	b004      	add	sp, #16
80100496:	4770      	bx	lr

80100498 <my_printf_test>:
80100498:	b580      	push	{r7, lr}
8010049a:	af00      	add	r7, sp, #0
8010049c:	f640 0014 	movw	r0, #2068	; 0x814
801004a0:	f2c8 0010 	movt	r0, #32784	; 0x8010
801004a4:	f7ff ffe2 	bl	8010046c <printf>
801004a8:	2261      	movs	r2, #97	; 0x61
801004aa:	2141      	movs	r1, #65	; 0x41
801004ac:	f640 0040 	movw	r0, #2112	; 0x840
801004b0:	f2c8 0010 	movt	r0, #32784	; 0x8010
801004b4:	f7ff ffda 	bl	8010046c <printf>
801004b8:	f24e 2140 	movw	r1, #57920	; 0xe240
801004bc:	f2c0 0101 	movt	r1, #1
801004c0:	f640 0060 	movw	r0, #2144	; 0x860
801004c4:	f2c8 0010 	movt	r0, #32784	; 0x8010
801004c8:	f7ff ffd0 	bl	8010046c <printf>
801004cc:	f44f 51ee 	mov.w	r1, #7616	; 0x1dc0
801004d0:	f6cf 71fe 	movt	r1, #65534	; 0xfffe
801004d4:	f640 0060 	movw	r0, #2144	; 0x860
801004d8:	f2c8 0010 	movt	r0, #32784	; 0x8010
801004dc:	f7ff ffc6 	bl	8010046c <printf>
801004e0:	f245 51aa 	movw	r1, #21930	; 0x55aa
801004e4:	f2c5 51aa 	movt	r1, #21930	; 0x55aa
801004e8:	f640 007c 	movw	r0, #2172	; 0x87c
801004ec:	f2c8 0010 	movt	r0, #32784	; 0x8010
801004f0:	f7ff ffbc 	bl	8010046c <printf>
801004f4:	f640 0198 	movw	r1, #2200	; 0x898
801004f8:	f2c8 0110 	movt	r1, #32784	; 0x8010
801004fc:	f640 00a8 	movw	r0, #2216	; 0x8a8
80100500:	f2c8 0010 	movt	r0, #32784	; 0x8010
80100504:	f7ff ffb2 	bl	8010046c <printf>
80100508:	f243 0139 	movw	r1, #12345	; 0x3039
8010050c:	f640 00c4 	movw	r0, #2244	; 0x8c4
80100510:	f2c8 0010 	movt	r0, #32784	; 0x8010
80100514:	f7ff ffaa 	bl	8010046c <printf>
80100518:	f243 0139 	movw	r1, #12345	; 0x3039
8010051c:	f640 00d0 	movw	r0, #2256	; 0x8d0
80100520:	f2c8 0010 	movt	r0, #32784	; 0x8010
80100524:	f7ff ffa2 	bl	8010046c <printf>
80100528:	f242 3145 	movw	r1, #9029	; 0x2345
8010052c:	f2c0 0101 	movt	r1, #1
80100530:	f640 00dc 	movw	r0, #2268	; 0x8dc
80100534:	f2c8 0010 	movt	r0, #32784	; 0x8010
80100538:	f7ff ff98 	bl	8010046c <printf>
8010053c:	f242 3145 	movw	r1, #9029	; 0x2345
80100540:	f2c0 0101 	movt	r1, #1
80100544:	f640 00ec 	movw	r0, #2284	; 0x8ec
80100548:	f2c8 0010 	movt	r0, #32784	; 0x8010
8010054c:	f7ff ff8e 	bl	8010046c <printf>
80100550:	2101      	movs	r1, #1
80100552:	f640 00f8 	movw	r0, #2296	; 0x8f8
80100556:	f2c8 0010 	movt	r0, #32784	; 0x8010
8010055a:	f7ff ff87 	bl	8010046c <printf>
8010055e:	2101      	movs	r1, #1
80100560:	f640 1008 	movw	r0, #2312	; 0x908
80100564:	f2c8 0010 	movt	r0, #32784	; 0x8010
80100568:	f7ff ff80 	bl	8010046c <printf>
8010056c:	2101      	movs	r1, #1
8010056e:	f640 1014 	movw	r0, #2324	; 0x914
80100572:	f2c8 0010 	movt	r0, #32784	; 0x8010
80100576:	f7ff ff79 	bl	8010046c <printf>
8010057a:	2101      	movs	r1, #1
8010057c:	f640 1020 	movw	r0, #2336	; 0x920
80100580:	f2c8 0010 	movt	r0, #32784	; 0x8010
80100584:	f7ff ff72 	bl	8010046c <printf>
80100588:	2300      	movs	r3, #0
8010058a:	4618      	mov	r0, r3
8010058c:	bd80      	pop	{r7, pc}
8010058e:	bf00      	nop

80100590 <__aeabi_uidiv>:
80100590:	1e4a      	subs	r2, r1, #1
80100592:	bf08      	it	eq
80100594:	4770      	bxeq	lr
80100596:	f0c0 8124 	bcc.w	801007e2 <__aeabi_uidiv+0x252>
8010059a:	4288      	cmp	r0, r1
8010059c:	f240 8116 	bls.w	801007cc <__aeabi_uidiv+0x23c>
801005a0:	4211      	tst	r1, r2
801005a2:	f000 8117 	beq.w	801007d4 <__aeabi_uidiv+0x244>
801005a6:	fab0 f380 	clz	r3, r0
801005aa:	fab1 f281 	clz	r2, r1
801005ae:	eba2 0303 	sub.w	r3, r2, r3
801005b2:	f1c3 031f 	rsb	r3, r3, #31
801005b6:	a204      	add	r2, pc, #16	; (adr r2, 801005c8 <__aeabi_uidiv+0x38>)
801005b8:	eb02 1303 	add.w	r3, r2, r3, lsl #4
801005bc:	f04f 0200 	mov.w	r2, #0
801005c0:	469f      	mov	pc, r3
801005c2:	bf00      	nop
801005c4:	f3af 8000 	nop.w
801005c8:	ebb0 7fc1 	cmp.w	r0, r1, lsl #31
801005cc:	bf00      	nop
801005ce:	eb42 0202 	adc.w	r2, r2, r2
801005d2:	bf28      	it	cs
801005d4:	eba0 70c1 	subcs.w	r0, r0, r1, lsl #31
801005d8:	ebb0 7f81 	cmp.w	r0, r1, lsl #30
801005dc:	bf00      	nop
801005de:	eb42 0202 	adc.w	r2, r2, r2
801005e2:	bf28      	it	cs
801005e4:	eba0 7081 	subcs.w	r0, r0, r1, lsl #30
801005e8:	ebb0 7f41 	cmp.w	r0, r1, lsl #29
801005ec:	bf00      	nop
801005ee:	eb42 0202 	adc.w	r2, r2, r2
801005f2:	bf28      	it	cs
801005f4:	eba0 7041 	subcs.w	r0, r0, r1, lsl #29
801005f8:	ebb0 7f01 	cmp.w	r0, r1, lsl #28
801005fc:	bf00      	nop
801005fe:	eb42 0202 	adc.w	r2, r2, r2
80100602:	bf28      	it	cs
80100604:	eba0 7001 	subcs.w	r0, r0, r1, lsl #28
80100608:	ebb0 6fc1 	cmp.w	r0, r1, lsl #27
8010060c:	bf00      	nop
8010060e:	eb42 0202 	adc.w	r2, r2, r2
80100612:	bf28      	it	cs
80100614:	eba0 60c1 	subcs.w	r0, r0, r1, lsl #27
80100618:	ebb0 6f81 	cmp.w	r0, r1, lsl #26
8010061c:	bf00      	nop
8010061e:	eb42 0202 	adc.w	r2, r2, r2
80100622:	bf28      	it	cs
80100624:	eba0 6081 	subcs.w	r0, r0, r1, lsl #26
80100628:	ebb0 6f41 	cmp.w	r0, r1, lsl #25
8010062c:	bf00      	nop
8010062e:	eb42 0202 	adc.w	r2, r2, r2
80100632:	bf28      	it	cs
80100634:	eba0 6041 	subcs.w	r0, r0, r1, lsl #25
80100638:	ebb0 6f01 	cmp.w	r0, r1, lsl #24
8010063c:	bf00      	nop
8010063e:	eb42 0202 	adc.w	r2, r2, r2
80100642:	bf28      	it	cs
80100644:	eba0 6001 	subcs.w	r0, r0, r1, lsl #24
80100648:	ebb0 5fc1 	cmp.w	r0, r1, lsl #23
8010064c:	bf00      	nop
8010064e:	eb42 0202 	adc.w	r2, r2, r2
80100652:	bf28      	it	cs
80100654:	eba0 50c1 	subcs.w	r0, r0, r1, lsl #23
80100658:	ebb0 5f81 	cmp.w	r0, r1, lsl #22
8010065c:	bf00      	nop
8010065e:	eb42 0202 	adc.w	r2, r2, r2
80100662:	bf28      	it	cs
80100664:	eba0 5081 	subcs.w	r0, r0, r1, lsl #22
80100668:	ebb0 5f41 	cmp.w	r0, r1, lsl #21
8010066c:	bf00      	nop
8010066e:	eb42 0202 	adc.w	r2, r2, r2
80100672:	bf28      	it	cs
80100674:	eba0 5041 	subcs.w	r0, r0, r1, lsl #21
80100678:	ebb0 5f01 	cmp.w	r0, r1, lsl #20
8010067c:	bf00      	nop
8010067e:	eb42 0202 	adc.w	r2, r2, r2
80100682:	bf28      	it	cs
80100684:	eba0 5001 	subcs.w	r0, r0, r1, lsl #20
80100688:	ebb0 4fc1 	cmp.w	r0, r1, lsl #19
8010068c:	bf00      	nop
8010068e:	eb42 0202 	adc.w	r2, r2, r2
80100692:	bf28      	it	cs
80100694:	eba0 40c1 	subcs.w	r0, r0, r1, lsl #19
80100698:	ebb0 4f81 	cmp.w	r0, r1, lsl #18
8010069c:	bf00      	nop
8010069e:	eb42 0202 	adc.w	r2, r2, r2
801006a2:	bf28      	it	cs
801006a4:	eba0 4081 	subcs.w	r0, r0, r1, lsl #18
801006a8:	ebb0 4f41 	cmp.w	r0, r1, lsl #17
801006ac:	bf00      	nop
801006ae:	eb42 0202 	adc.w	r2, r2, r2
801006b2:	bf28      	it	cs
801006b4:	eba0 4041 	subcs.w	r0, r0, r1, lsl #17
801006b8:	ebb0 4f01 	cmp.w	r0, r1, lsl #16
801006bc:	bf00      	nop
801006be:	eb42 0202 	adc.w	r2, r2, r2
801006c2:	bf28      	it	cs
801006c4:	eba0 4001 	subcs.w	r0, r0, r1, lsl #16
801006c8:	ebb0 3fc1 	cmp.w	r0, r1, lsl #15
801006cc:	bf00      	nop
801006ce:	eb42 0202 	adc.w	r2, r2, r2
801006d2:	bf28      	it	cs
801006d4:	eba0 30c1 	subcs.w	r0, r0, r1, lsl #15
801006d8:	ebb0 3f81 	cmp.w	r0, r1, lsl #14
801006dc:	bf00      	nop
801006de:	eb42 0202 	adc.w	r2, r2, r2
801006e2:	bf28      	it	cs
801006e4:	eba0 3081 	subcs.w	r0, r0, r1, lsl #14
801006e8:	ebb0 3f41 	cmp.w	r0, r1, lsl #13
801006ec:	bf00      	nop
801006ee:	eb42 0202 	adc.w	r2, r2, r2
801006f2:	bf28      	it	cs
801006f4:	eba0 3041 	subcs.w	r0, r0, r1, lsl #13
801006f8:	ebb0 3f01 	cmp.w	r0, r1, lsl #12
801006fc:	bf00      	nop
801006fe:	eb42 0202 	adc.w	r2, r2, r2
80100702:	bf28      	it	cs
80100704:	eba0 3001 	subcs.w	r0, r0, r1, lsl #12
80100708:	ebb0 2fc1 	cmp.w	r0, r1, lsl #11
8010070c:	bf00      	nop
8010070e:	eb42 0202 	adc.w	r2, r2, r2
80100712:	bf28      	it	cs
80100714:	eba0 20c1 	subcs.w	r0, r0, r1, lsl #11
80100718:	ebb0 2f81 	cmp.w	r0, r1, lsl #10
8010071c:	bf00      	nop
8010071e:	eb42 0202 	adc.w	r2, r2, r2
80100722:	bf28      	it	cs
80100724:	eba0 2081 	subcs.w	r0, r0, r1, lsl #10
80100728:	ebb0 2f41 	cmp.w	r0, r1, lsl #9
8010072c:	bf00      	nop
8010072e:	eb42 0202 	adc.w	r2, r2, r2
80100732:	bf28      	it	cs
80100734:	eba0 2041 	subcs.w	r0, r0, r1, lsl #9
80100738:	ebb0 2f01 	cmp.w	r0, r1, lsl #8
8010073c:	bf00      	nop
8010073e:	eb42 0202 	adc.w	r2, r2, r2
80100742:	bf28      	it	cs
80100744:	eba0 2001 	subcs.w	r0, r0, r1, lsl #8
80100748:	ebb0 1fc1 	cmp.w	r0, r1, lsl #7
8010074c:	bf00      	nop
8010074e:	eb42 0202 	adc.w	r2, r2, r2
80100752:	bf28      	it	cs
80100754:	eba0 10c1 	subcs.w	r0, r0, r1, lsl #7
80100758:	ebb0 1f81 	cmp.w	r0, r1, lsl #6
8010075c:	bf00      	nop
8010075e:	eb42 0202 	adc.w	r2, r2, r2
80100762:	bf28      	it	cs
80100764:	eba0 1081 	subcs.w	r0, r0, r1, lsl #6
80100768:	ebb0 1f41 	cmp.w	r0, r1, lsl #5
8010076c:	bf00      	nop
8010076e:	eb42 0202 	adc.w	r2, r2, r2
80100772:	bf28      	it	cs
80100774:	eba0 1041 	subcs.w	r0, r0, r1, lsl #5
80100778:	ebb0 1f01 	cmp.w	r0, r1, lsl #4
8010077c:	bf00      	nop
8010077e:	eb42 0202 	adc.w	r2, r2, r2
80100782:	bf28      	it	cs
80100784:	eba0 1001 	subcs.w	r0, r0, r1, lsl #4
80100788:	ebb0 0fc1 	cmp.w	r0, r1, lsl #3
8010078c:	bf00      	nop
8010078e:	eb42 0202 	adc.w	r2, r2, r2
80100792:	bf28      	it	cs
80100794:	eba0 00c1 	subcs.w	r0, r0, r1, lsl #3
80100798:	ebb0 0f81 	cmp.w	r0, r1, lsl #2
8010079c:	bf00      	nop
8010079e:	eb42 0202 	adc.w	r2, r2, r2
801007a2:	bf28      	it	cs
801007a4:	eba0 0081 	subcs.w	r0, r0, r1, lsl #2
801007a8:	ebb0 0f41 	cmp.w	r0, r1, lsl #1
801007ac:	bf00      	nop
801007ae:	eb42 0202 	adc.w	r2, r2, r2
801007b2:	bf28      	it	cs
801007b4:	eba0 0041 	subcs.w	r0, r0, r1, lsl #1
801007b8:	ebb0 0f01 	cmp.w	r0, r1
801007bc:	bf00      	nop
801007be:	eb42 0202 	adc.w	r2, r2, r2
801007c2:	bf28      	it	cs
801007c4:	eba0 0001 	subcs.w	r0, r0, r1
801007c8:	4610      	mov	r0, r2
801007ca:	4770      	bx	lr
801007cc:	bf0c      	ite	eq
801007ce:	2001      	moveq	r0, #1
801007d0:	2000      	movne	r0, #0
801007d2:	4770      	bx	lr
801007d4:	fab1 f281 	clz	r2, r1
801007d8:	f1c2 021f 	rsb	r2, r2, #31
801007dc:	fa20 f002 	lsr.w	r0, r0, r2
801007e0:	4770      	bx	lr
801007e2:	b108      	cbz	r0, 801007e8 <__aeabi_uidiv+0x258>
801007e4:	f04f 30ff 	mov.w	r0, #4294967295	; 0xffffffff
801007e8:	f000 b80e 	b.w	80100808 <__aeabi_idiv0>

801007ec <__aeabi_uidivmod>:
801007ec:	2900      	cmp	r1, #0
801007ee:	d0f8      	beq.n	801007e2 <__aeabi_uidiv+0x252>
801007f0:	e92d 4003 	stmdb	sp!, {r0, r1, lr}
801007f4:	f7ff fecc 	bl	80100590 <__aeabi_uidiv>
801007f8:	e8bd 4006 	ldmia.w	sp!, {r1, r2, lr}
801007fc:	fb02 f300 	mul.w	r3, r2, r0
80100800:	eba1 0103 	sub.w	r1, r1, r3
80100804:	4770      	bx	lr
80100806:	bf00      	nop

80100808 <__aeabi_idiv0>:
80100808:	b502      	push	{r1, lr}
8010080a:	f04f 0008 	mov.w	r0, #8
8010080e:	f7ff fcc5 	bl	8010019c <raise>
80100812:	bd02      	pop	{r1, pc}

Disassembly of section .rodata:

80100814 <.LC0>:
80100814:	73696854 	cmnvc	r9, #84, 16	; 0x540000
80100818:	20736920 	rsbscs	r6, r3, r0, lsr #18
8010081c:	2e777777 	mrccs	7, 3, r7, cr7, cr7, {3}
80100820:	61303031 	teqvs	r0, r1, lsr r0
80100824:	6f2e6b73 	svcvs	0x002e6b73
80100828:	20206772 	eorcs	r6, r0, r2, ror r7
8010082c:	5f796d20 	svcpl	0x00796d20
80100830:	6e697270 	mcrvs	2, 3, r7, cr9, cr0, {3}
80100834:	74206674 	strtvc	r6, [r0], #-1652	; 0xfffff98c
80100838:	0a747365 	beq	81e1d5d4 <__bss_end+0x1d1cc90>
8010083c:	0000000d 	andeq	r0, r0, sp

80100840 <.LC1>:
80100840:	74736574 	ldrbtvc	r6, [r3], #-1396	; 0xfffffa8c
80100844:	61686320 	cmnvs	r8, r0, lsr #6
80100848:	20202072 	eorcs	r2, r0, r2, ror r0
8010084c:	20202020 	eorcs	r2, r0, r0, lsr #32
80100850:	20202020 	eorcs	r2, r0, r0, lsr #32
80100854:	2c63253d 	cfstr64cs	mvdx2, [r3], #-244	; 0xffffff0c
80100858:	0d0a6325 	stceq	3, cr6, [sl, #-148]	; 0xffffff6c
8010085c:	00000000 	andeq	r0, r0, r0

80100860 <.LC2>:
80100860:	74736574 	ldrbtvc	r6, [r3], #-1396	; 0xfffffa8c
80100864:	63656420 	cmnvs	r5, #32, 8	; 0x20000000
80100868:	6c616d69 	stclvs	13, cr6, [r1], #-420	; 0xfffffe5c
8010086c:	6d756e20 	ldclvs	14, cr6, [r5, #-128]!	; 0xffffff80
80100870:	20726562 	rsbscs	r6, r2, r2, ror #10
80100874:	0a64253d 	beq	81a09d70 <__bss_end+0x190942c>
80100878:	0000000d 	andeq	r0, r0, sp

8010087c <.LC3>:
8010087c:	74736574 	ldrbtvc	r6, [r3], #-1396	; 0xfffffa8c
80100880:	78656820 	stmdavc	r5!, {r5, fp, sp, lr}^
80100884:	20202020 	eorcs	r2, r0, r0, lsr #32
80100888:	6d756e20 	ldclvs	14, cr6, [r5, #-128]!	; 0xffffff80
8010088c:	20726562 	rsbscs	r6, r2, r2, ror #10
80100890:	2578303d 	ldrbcs	r3, [r8, #-61]!	; 0xffffffc3
80100894:	000d0a78 	andeq	r0, sp, r8, ror sl

80100898 <.LC4>:
80100898:	2e777777 	mrccs	7, 3, r7, cr7, cr7, {3}
8010089c:	61303031 	teqvs	r0, r1, lsr r0
801008a0:	6f2e6b73 	svcvs	0x002e6b73
801008a4:	00006772 	andeq	r6, r0, r2, ror r7

801008a8 <.LC5>:
801008a8:	74736574 	ldrbtvc	r6, [r3], #-1396	; 0xfffffa8c
801008ac:	72747320 	rsbsvc	r7, r4, #32, 6	; 0x80000000
801008b0:	20676e69 	rsbcs	r6, r7, r9, ror #28
801008b4:	20202020 	eorcs	r2, r0, r0, lsr #32
801008b8:	20202020 	eorcs	r2, r0, r0, lsr #32
801008bc:	0a73253d 	beq	81dc9db8 <__bss_end+0x1cc9474>
801008c0:	0000000d 	andeq	r0, r0, sp

801008c4 <.LC6>:
801008c4:	3d6d756e 	cfstr64cc	mvdx7, [sp, #-440]!	; 0xfffffe48
801008c8:	64383025 	ldrtvs	r3, [r8], #-37	; 0xffffffdb
801008cc:	00000d0a 	andeq	r0, r0, sl, lsl #26

801008d0 <.LC7>:
801008d0:	3d6d756e 	cfstr64cc	mvdx7, [sp, #-440]!	; 0xfffffe48
801008d4:	0a643825 	beq	81a0e970 <__bss_end+0x190e02c>
801008d8:	0000000d 	andeq	r0, r0, sp

801008dc <.LC8>:
801008dc:	3d6d756e 	cfstr64cc	mvdx7, [sp, #-440]!	; 0xfffffe48
801008e0:	30257830 	eorcc	r7, r5, r0, lsr r8
801008e4:	0d0a7838 	stceq	8, cr7, [sl, #-224]	; 0xffffff20
801008e8:	00000000 	andeq	r0, r0, r0

801008ec <.LC9>:
801008ec:	3d6d756e 	cfstr64cc	mvdx7, [sp, #-440]!	; 0xfffffe48
801008f0:	38257830 	stmdacc	r5!, {r4, r5, fp, ip, sp, lr}
801008f4:	000d0a78 	andeq	r0, sp, r8, ror sl

801008f8 <.LC10>:
801008f8:	3d6d756e 	cfstr64cc	mvdx7, [sp, #-440]!	; 0xfffffe48
801008fc:	30257830 	eorcc	r7, r5, r0, lsr r8
80100900:	0d0a7832 	stceq	8, cr7, [sl, #-200]	; 0xffffff38
80100904:	00000000 	andeq	r0, r0, r0

80100908 <.LC11>:
80100908:	3d6d756e 	cfstr64cc	mvdx7, [sp, #-440]!	; 0xfffffe48
8010090c:	32257830 	eorcc	r7, r5, #48, 16	; 0x300000
80100910:	000d0a78 	andeq	r0, sp, r8, ror sl

80100914 <.LC12>:
80100914:	3d6d756e 	cfstr64cc	mvdx7, [sp, #-440]!	; 0xfffffe48
80100918:	64353025 	ldrtvs	r3, [r5], #-37	; 0xffffffdb
8010091c:	00000d0a 	andeq	r0, r0, sl, lsl #26

80100920 <.LC13>:
80100920:	3d6d756e 	cfstr64cc	mvdx7, [sp, #-440]!	; 0xfffffe48
80100924:	0a643525 	beq	81a0ddc0 <__bss_end+0x190d47c>
80100928:	Address 0x0000000080100928 is out of bounds.


Disassembly of section .data:

8010092c <hex_tab>:
8010092c:	33323130 	teqcc	r2, #48, 2
80100930:	37363534 			; <UNDEFINED> instruction: 0x37363534
80100934:	62613938 	rsbvs	r3, r1, #56, 18	; 0xe0000
80100938:	66656463 	strbtvs	r6, [r5], -r3, ror #8

Disassembly of section .bss:

8010093c <__bss_start>:
8010093c:	00000000 	andeq	r0, r0, r0

80100940 <IOMUXC_SW_MUX_CTL_PAD_UART1_RX_DATA>:
80100940:	00000000 	andeq	r0, r0, r0

