
except.elf:     file format elf32-littlearm


Disassembly of section .text:

80100000 <_start>:
80100000:	e59ff0b8 	ldr	pc, [pc, #184]	; 801000c0 <clean+0x14>
80100004:	e59ff0b8 	ldr	pc, [pc, #184]	; 801000c4 <clean+0x18>
80100008:	ea000023 	b	8010009c <halt>
8010000c:	ea000022 	b	8010009c <halt>
80100010:	ea000021 	b	8010009c <halt>
80100014:	00000000 	andeq	r0, r0, r0
80100018:	ea00001f 	b	8010009c <halt>
8010001c:	ea00001e 	b	8010009c <halt>

80100020 <Undefined_Handler>:
80100020:	e92d5fff 	push	{r0, r1, r2, r3, r4, r5, r6, r7, r8, r9, sl, fp, ip, lr}
80100024:	e10f0000 	mrs	r0, CPSR
80100028:	e59f1098 	ldr	r1, [pc, #152]	; 801000c8 <clean+0x1c>
8010002c:	fa000130 	blx	801004f4 <printException>
80100030:	e8fd9fff 	ldm	sp!, {r0, r1, r2, r3, r4, r5, r6, r7, r8, r9, sl, fp, ip, pc}^

80100034 <und_string>:
80100034:	65646e75 	strbvs	r6, [r4, #-3701]!	; 0xfffff18b
80100038:	656e6966 	strbvs	r6, [lr, #-2406]!	; 0xfffff69a
8010003c:	6e692064 	cdpvs	0, 6, cr2, cr9, cr4, {3}
80100040:	75727473 	ldrbvc	r7, [r2, #-1139]!	; 0xfffffb8d
80100044:	6f697463 	svcvs	0x00697463
80100048:	7865206e 	stmdavc	r5!, {r1, r2, r3, r5, r6, sp}^
8010004c:	74706563 	ldrbtvc	r6, [r0], #-1379	; 0xfffffa9d
80100050:	006e6f69 	rsbeq	r6, lr, r9, ror #30

80100054 <Reset_Handler>:
80100054:	ee110f10 	mrc	15, 0, r0, cr1, cr0, {0}
80100058:	e3c00a02 	bic	r0, r0, #8192	; 0x2000
8010005c:	e3c00a01 	bic	r0, r0, #4096	; 0x1000
80100060:	e3c00004 	bic	r0, r0, #4
80100064:	e3c00004 	bic	r0, r0, #4
80100068:	e3c00b02 	bic	r0, r0, #2048	; 0x800
8010006c:	e3c00001 	bic	r0, r0, #1
80100070:	ee010f10 	mcr	15, 0, r0, cr1, cr0, {0}
80100074:	f102001b 	cps	#27
80100078:	e59fd04c 	ldr	sp, [pc, #76]	; 801000cc <clean+0x20>
8010007c:	f1020013 	cps	#19
80100080:	e59fd048 	ldr	sp, [pc, #72]	; 801000d0 <clean+0x24>
80100084:	e59f0048 	ldr	r0, [pc, #72]	; 801000d4 <clean+0x28>
80100088:	ee0c0f10 	mcr	15, 0, r0, cr12, cr0, {0}
8010008c:	eb000003 	bl	801000a0 <clean_bss>
80100090:	fb000122 	blx	80100522 <system_init>

80100094 <und_code>:
80100094:	deadc0de 	mcrle	0, 5, ip, cr13, cr14, {6}
80100098:	fa00012c 	blx	80100550 <main>

8010009c <halt>:
8010009c:	eafffffe 	b	8010009c <halt>

801000a0 <clean_bss>:
801000a0:	e59f1030 	ldr	r1, [pc, #48]	; 801000d8 <clean+0x2c>
801000a4:	e59f2030 	ldr	r2, [pc, #48]	; 801000dc <clean+0x30>
801000a8:	e3a03000 	mov	r3, #0

801000ac <clean>:
801000ac:	e1510002 	cmp	r1, r2
801000b0:	b5813000 	strlt	r3, [r1]
801000b4:	e2811004 	add	r1, r1, #4
801000b8:	bafffffb 	blt	801000ac <clean>
801000bc:	e1a0f00e 	mov	pc, lr
801000c0:	80100054 	andshi	r0, r0, r4, asr r0
801000c4:	80100020 	andshi	r0, r0, r0, lsr #32
801000c8:	80100034 	andshi	r0, r0, r4, lsr r0
801000cc:	80300000 	eorshi	r0, r0, r0
801000d0:	80200000 	eorhi	r0, r0, r0
801000d4:	80100000 	andshi	r0, r0, r0
801000d8:	801013d0 			; <UNDEFINED> instruction: 0x801013d0
801000dc:	801013d0 			; <UNDEFINED> instruction: 0x801013d0

801000e0 <IOMUXC_SetPinMux>:
801000e0:	b480      	push	{r7}
801000e2:	b085      	sub	sp, #20
801000e4:	af00      	add	r7, sp, #0
801000e6:	60f8      	str	r0, [r7, #12]
801000e8:	60b9      	str	r1, [r7, #8]
801000ea:	607a      	str	r2, [r7, #4]
801000ec:	603b      	str	r3, [r7, #0]
801000ee:	68fb      	ldr	r3, [r7, #12]
801000f0:	68ba      	ldr	r2, [r7, #8]
801000f2:	f002 010f 	and.w	r1, r2, #15
801000f6:	69fa      	ldr	r2, [r7, #28]
801000f8:	0112      	lsls	r2, r2, #4
801000fa:	f002 0210 	and.w	r2, r2, #16
801000fe:	430a      	orrs	r2, r1
80100100:	601a      	str	r2, [r3, #0]
80100102:	687b      	ldr	r3, [r7, #4]
80100104:	2b00      	cmp	r3, #0
80100106:	d004      	beq.n	80100112 <IOMUXC_SetPinMux+0x32>
80100108:	687b      	ldr	r3, [r7, #4]
8010010a:	683a      	ldr	r2, [r7, #0]
8010010c:	f002 0207 	and.w	r2, r2, #7
80100110:	601a      	str	r2, [r3, #0]
80100112:	bf00      	nop
80100114:	3714      	adds	r7, #20
80100116:	46bd      	mov	sp, r7
80100118:	f85d 7b04 	ldr.w	r7, [sp], #4
8010011c:	4770      	bx	lr

8010011e <IOMUXC_SetPinConfig>:
8010011e:	b480      	push	{r7}
80100120:	b085      	sub	sp, #20
80100122:	af00      	add	r7, sp, #0
80100124:	60f8      	str	r0, [r7, #12]
80100126:	60b9      	str	r1, [r7, #8]
80100128:	607a      	str	r2, [r7, #4]
8010012a:	603b      	str	r3, [r7, #0]
8010012c:	69bb      	ldr	r3, [r7, #24]
8010012e:	2b00      	cmp	r3, #0
80100130:	d002      	beq.n	80100138 <IOMUXC_SetPinConfig+0x1a>
80100132:	69bb      	ldr	r3, [r7, #24]
80100134:	69fa      	ldr	r2, [r7, #28]
80100136:	601a      	str	r2, [r3, #0]
80100138:	bf00      	nop
8010013a:	3714      	adds	r7, #20
8010013c:	46bd      	mov	sp, r7
8010013e:	f85d 7b04 	ldr.w	r7, [sp], #4
80100142:	4770      	bx	lr

80100144 <init_pins>:
80100144:	b580      	push	{r7, lr}
80100146:	b082      	sub	sp, #8
80100148:	af02      	add	r7, sp, #8
8010014a:	2300      	movs	r3, #0
8010014c:	9301      	str	r3, [sp, #4]
8010014e:	2358      	movs	r3, #88	; 0x58
80100150:	f2c0 2329 	movt	r3, #553	; 0x229
80100154:	9300      	str	r3, [sp, #0]
80100156:	2300      	movs	r3, #0
80100158:	2200      	movs	r2, #0
8010015a:	2105      	movs	r1, #5
8010015c:	2014      	movs	r0, #20
8010015e:	f2c0 2029 	movt	r0, #553	; 0x229
80100162:	f7ff ffbd 	bl	801000e0 <IOMUXC_SetPinMux>
80100166:	2309      	movs	r3, #9
80100168:	f2c0 0301 	movt	r3, #1
8010016c:	9301      	str	r3, [sp, #4]
8010016e:	2358      	movs	r3, #88	; 0x58
80100170:	f2c0 2329 	movt	r3, #553	; 0x229
80100174:	9300      	str	r3, [sp, #0]
80100176:	2300      	movs	r3, #0
80100178:	2200      	movs	r2, #0
8010017a:	2105      	movs	r1, #5
8010017c:	2014      	movs	r0, #20
8010017e:	f2c0 2029 	movt	r0, #553	; 0x229
80100182:	f7ff ffcc 	bl	8010011e <IOMUXC_SetPinConfig>
80100186:	2300      	movs	r3, #0
80100188:	9301      	str	r3, [sp, #4]
8010018a:	f44f 7345 	mov.w	r3, #788	; 0x314
8010018e:	f2c0 230e 	movt	r3, #526	; 0x20e
80100192:	9300      	str	r3, [sp, #0]
80100194:	2303      	movs	r3, #3
80100196:	f240 6224 	movw	r2, #1572	; 0x624
8010019a:	f2c0 220e 	movt	r2, #526	; 0x20e
8010019e:	2100      	movs	r1, #0
801001a0:	2088      	movs	r0, #136	; 0x88
801001a2:	f2c0 200e 	movt	r0, #526	; 0x20e
801001a6:	f7ff ff9b 	bl	801000e0 <IOMUXC_SetPinMux>
801001aa:	f241 0390 	movw	r3, #4240	; 0x1090
801001ae:	9301      	str	r3, [sp, #4]
801001b0:	f44f 7345 	mov.w	r3, #788	; 0x314
801001b4:	f2c0 230e 	movt	r3, #526	; 0x20e
801001b8:	9300      	str	r3, [sp, #0]
801001ba:	2303      	movs	r3, #3
801001bc:	f240 6224 	movw	r2, #1572	; 0x624
801001c0:	f2c0 220e 	movt	r2, #526	; 0x20e
801001c4:	2100      	movs	r1, #0
801001c6:	2088      	movs	r0, #136	; 0x88
801001c8:	f2c0 200e 	movt	r0, #526	; 0x20e
801001cc:	f7ff ffa7 	bl	8010011e <IOMUXC_SetPinConfig>
801001d0:	2300      	movs	r3, #0
801001d2:	9301      	str	r3, [sp, #4]
801001d4:	f44f 7344 	mov.w	r3, #784	; 0x310
801001d8:	f2c0 230e 	movt	r3, #526	; 0x20e
801001dc:	9300      	str	r3, [sp, #0]
801001de:	2300      	movs	r3, #0
801001e0:	2200      	movs	r2, #0
801001e2:	2100      	movs	r1, #0
801001e4:	2084      	movs	r0, #132	; 0x84
801001e6:	f2c0 200e 	movt	r0, #526	; 0x20e
801001ea:	f7ff ff79 	bl	801000e0 <IOMUXC_SetPinMux>
801001ee:	f241 0390 	movw	r3, #4240	; 0x1090
801001f2:	9301      	str	r3, [sp, #4]
801001f4:	f44f 7344 	mov.w	r3, #784	; 0x310
801001f8:	f2c0 230e 	movt	r3, #526	; 0x20e
801001fc:	9300      	str	r3, [sp, #0]
801001fe:	2300      	movs	r3, #0
80100200:	2200      	movs	r2, #0
80100202:	2100      	movs	r1, #0
80100204:	2084      	movs	r0, #132	; 0x84
80100206:	f2c0 200e 	movt	r0, #526	; 0x20e
8010020a:	f7ff ff88 	bl	8010011e <IOMUXC_SetPinConfig>
8010020e:	bf00      	nop
80100210:	46bd      	mov	sp, r7
80100212:	bd80      	pop	{r7, pc}

80100214 <delay>:
80100214:	b480      	push	{r7}
80100216:	b083      	sub	sp, #12
80100218:	af00      	add	r7, sp, #0
8010021a:	6078      	str	r0, [r7, #4]
8010021c:	bf00      	nop
8010021e:	687b      	ldr	r3, [r7, #4]
80100220:	1e5a      	subs	r2, r3, #1
80100222:	607a      	str	r2, [r7, #4]
80100224:	2b00      	cmp	r3, #0
80100226:	d1fa      	bne.n	8010021e <delay+0xa>
80100228:	bf00      	nop
8010022a:	370c      	adds	r7, #12
8010022c:	46bd      	mov	sp, r7
8010022e:	f85d 7b04 	ldr.w	r7, [sp], #4
80100232:	4770      	bx	lr

80100234 <boot_clk_gate_init>:
80100234:	b480      	push	{r7}
80100236:	af00      	add	r7, sp, #0
80100238:	f44f 4380 	mov.w	r3, #16384	; 0x4000
8010023c:	f2c0 230c 	movt	r3, #524	; 0x20c
80100240:	f04f 32ff 	mov.w	r2, #4294967295	; 0xffffffff
80100244:	669a      	str	r2, [r3, #104]	; 0x68
80100246:	f44f 4380 	mov.w	r3, #16384	; 0x4000
8010024a:	f2c0 230c 	movt	r3, #524	; 0x20c
8010024e:	f04f 32ff 	mov.w	r2, #4294967295	; 0xffffffff
80100252:	66da      	str	r2, [r3, #108]	; 0x6c
80100254:	f44f 4380 	mov.w	r3, #16384	; 0x4000
80100258:	f2c0 230c 	movt	r3, #524	; 0x20c
8010025c:	f04f 32ff 	mov.w	r2, #4294967295	; 0xffffffff
80100260:	671a      	str	r2, [r3, #112]	; 0x70
80100262:	f44f 4380 	mov.w	r3, #16384	; 0x4000
80100266:	f2c0 230c 	movt	r3, #524	; 0x20c
8010026a:	f04f 32ff 	mov.w	r2, #4294967295	; 0xffffffff
8010026e:	675a      	str	r2, [r3, #116]	; 0x74
80100270:	f44f 4380 	mov.w	r3, #16384	; 0x4000
80100274:	f2c0 230c 	movt	r3, #524	; 0x20c
80100278:	f04f 32ff 	mov.w	r2, #4294967295	; 0xffffffff
8010027c:	679a      	str	r2, [r3, #120]	; 0x78
8010027e:	f44f 4380 	mov.w	r3, #16384	; 0x4000
80100282:	f2c0 230c 	movt	r3, #524	; 0x20c
80100286:	f04f 32ff 	mov.w	r2, #4294967295	; 0xffffffff
8010028a:	67da      	str	r2, [r3, #124]	; 0x7c
8010028c:	f44f 4380 	mov.w	r3, #16384	; 0x4000
80100290:	f2c0 230c 	movt	r3, #524	; 0x20c
80100294:	f04f 32ff 	mov.w	r2, #4294967295	; 0xffffffff
80100298:	f8c3 2080 	str.w	r2, [r3, #128]	; 0x80
8010029c:	bf00      	nop
8010029e:	46bd      	mov	sp, r7
801002a0:	f85d 7b04 	ldr.w	r7, [sp], #4
801002a4:	4770      	bx	lr

801002a6 <boot_clk_init>:
801002a6:	b480      	push	{r7}
801002a8:	af00      	add	r7, sp, #0
801002aa:	f44f 4380 	mov.w	r3, #16384	; 0x4000
801002ae:	f2c0 230c 	movt	r3, #524	; 0x20c
801002b2:	68db      	ldr	r3, [r3, #12]
801002b4:	f003 0304 	and.w	r3, r3, #4
801002b8:	2b00      	cmp	r3, #0
801002ba:	d117      	bne.n	801002ec <boot_clk_init+0x46>
801002bc:	f44f 4380 	mov.w	r3, #16384	; 0x4000
801002c0:	f2c0 230c 	movt	r3, #524	; 0x20c
801002c4:	f44f 4280 	mov.w	r2, #16384	; 0x4000
801002c8:	f2c0 220c 	movt	r2, #524	; 0x20c
801002cc:	68d2      	ldr	r2, [r2, #12]
801002ce:	f422 7280 	bic.w	r2, r2, #256	; 0x100
801002d2:	60da      	str	r2, [r3, #12]
801002d4:	f44f 4380 	mov.w	r3, #16384	; 0x4000
801002d8:	f2c0 230c 	movt	r3, #524	; 0x20c
801002dc:	f44f 4280 	mov.w	r2, #16384	; 0x4000
801002e0:	f2c0 220c 	movt	r2, #524	; 0x20c
801002e4:	68d2      	ldr	r2, [r2, #12]
801002e6:	f042 0204 	orr.w	r2, r2, #4
801002ea:	60da      	str	r2, [r3, #12]
801002ec:	f44f 4300 	mov.w	r3, #32768	; 0x8000
801002f0:	f2c0 230c 	movt	r3, #524	; 0x20c
801002f4:	f242 0258 	movw	r2, #8280	; 0x2058
801002f8:	601a      	str	r2, [r3, #0]
801002fa:	f44f 4380 	mov.w	r3, #16384	; 0x4000
801002fe:	f2c0 230c 	movt	r3, #524	; 0x20c
80100302:	f44f 4280 	mov.w	r2, #16384	; 0x4000
80100306:	f2c0 220c 	movt	r2, #524	; 0x20c
8010030a:	68d2      	ldr	r2, [r2, #12]
8010030c:	f022 0204 	bic.w	r2, r2, #4
80100310:	60da      	str	r2, [r3, #12]
80100312:	f44f 4380 	mov.w	r3, #16384	; 0x4000
80100316:	f2c0 230c 	movt	r3, #524	; 0x20c
8010031a:	2201      	movs	r2, #1
8010031c:	611a      	str	r2, [r3, #16]
8010031e:	f44f 4300 	mov.w	r3, #32768	; 0x8000
80100322:	f2c0 230c 	movt	r3, #524	; 0x20c
80100326:	f44f 4200 	mov.w	r2, #32768	; 0x8000
8010032a:	f2c0 220c 	movt	r2, #524	; 0x20c
8010032e:	f8d2 2100 	ldr.w	r2, [r2, #256]	; 0x100
80100332:	f002 32c0 	and.w	r2, r2, #3233857728	; 0xc0c0c0c0
80100336:	f8c3 2100 	str.w	r2, [r3, #256]	; 0x100
8010033a:	f44f 4200 	mov.w	r2, #32768	; 0x8000
8010033e:	f2c0 220c 	movt	r2, #524	; 0x20c
80100342:	f44f 4300 	mov.w	r3, #32768	; 0x8000
80100346:	f2c0 230c 	movt	r3, #524	; 0x20c
8010034a:	f8d3 1100 	ldr.w	r1, [r3, #256]	; 0x100
8010034e:	f241 031b 	movw	r3, #4123	; 0x101b
80100352:	f2c3 0318 	movt	r3, #12312	; 0x3018
80100356:	430b      	orrs	r3, r1
80100358:	f8c2 3100 	str.w	r3, [r2, #256]	; 0x100
8010035c:	f44f 4300 	mov.w	r3, #32768	; 0x8000
80100360:	f2c0 230c 	movt	r3, #524	; 0x20c
80100364:	f44f 4200 	mov.w	r2, #32768	; 0x8000
80100368:	f2c0 220c 	movt	r2, #524	; 0x20c
8010036c:	f8d2 20f0 	ldr.w	r2, [r2, #240]	; 0xf0
80100370:	f002 32c0 	and.w	r2, r2, #3233857728	; 0xc0c0c0c0
80100374:	f8c3 20f0 	str.w	r2, [r3, #240]	; 0xf0
80100378:	f44f 4200 	mov.w	r2, #32768	; 0x8000
8010037c:	f2c0 220c 	movt	r2, #524	; 0x20c
80100380:	f44f 4300 	mov.w	r3, #32768	; 0x8000
80100384:	f2c0 230c 	movt	r3, #524	; 0x20c
80100388:	f8d3 10f0 	ldr.w	r1, [r3, #240]	; 0xf0
8010038c:	f241 030c 	movw	r3, #4108	; 0x100c
80100390:	f2c1 3311 	movt	r3, #4881	; 0x1311
80100394:	430b      	orrs	r3, r1
80100396:	f8c2 30f0 	str.w	r3, [r2, #240]	; 0xf0
8010039a:	f44f 4380 	mov.w	r3, #16384	; 0x4000
8010039e:	f2c0 230c 	movt	r3, #524	; 0x20c
801003a2:	f44f 4280 	mov.w	r2, #16384	; 0x4000
801003a6:	f2c0 220c 	movt	r2, #524	; 0x20c
801003aa:	6992      	ldr	r2, [r2, #24]
801003ac:	f422 02d8 	bic.w	r2, r2, #7077888	; 0x6c0000
801003b0:	619a      	str	r2, [r3, #24]
801003b2:	f44f 4380 	mov.w	r3, #16384	; 0x4000
801003b6:	f2c0 230c 	movt	r3, #524	; 0x20c
801003ba:	f44f 4280 	mov.w	r2, #16384	; 0x4000
801003be:	f2c0 220c 	movt	r2, #524	; 0x20c
801003c2:	6992      	ldr	r2, [r2, #24]
801003c4:	f442 1210 	orr.w	r2, r2, #2359296	; 0x240000
801003c8:	619a      	str	r2, [r3, #24]
801003ca:	f44f 4380 	mov.w	r3, #16384	; 0x4000
801003ce:	f2c0 230c 	movt	r3, #524	; 0x20c
801003d2:	f44f 4280 	mov.w	r2, #16384	; 0x4000
801003d6:	f2c0 220c 	movt	r2, #524	; 0x20c
801003da:	6952      	ldr	r2, [r2, #20]
801003dc:	f022 62c0 	bic.w	r2, r2, #100663296	; 0x6000000
801003e0:	615a      	str	r2, [r3, #20]
801003e2:	f44f 4380 	mov.w	r3, #16384	; 0x4000
801003e6:	f2c0 230c 	movt	r3, #524	; 0x20c
801003ea:	f44f 4280 	mov.w	r2, #16384	; 0x4000
801003ee:	f2c0 220c 	movt	r2, #524	; 0x20c
801003f2:	6952      	ldr	r2, [r2, #20]
801003f4:	615a      	str	r2, [r3, #20]
801003f6:	f44f 4280 	mov.w	r2, #16384	; 0x4000
801003fa:	f2c0 220c 	movt	r2, #524	; 0x20c
801003fe:	f44f 4380 	mov.w	r3, #16384	; 0x4000
80100402:	f2c0 230c 	movt	r3, #524	; 0x20c
80100406:	695b      	ldr	r3, [r3, #20]
80100408:	f423 23e0 	bic.w	r3, r3, #458752	; 0x70000
8010040c:	f423 7340 	bic.w	r3, r3, #768	; 0x300
80100410:	6153      	str	r3, [r2, #20]
80100412:	f44f 4280 	mov.w	r2, #16384	; 0x4000
80100416:	f2c0 220c 	movt	r2, #524	; 0x20c
8010041a:	f44f 4380 	mov.w	r3, #16384	; 0x4000
8010041e:	f2c0 230c 	movt	r3, #524	; 0x20c
80100422:	695b      	ldr	r3, [r3, #20]
80100424:	f443 3380 	orr.w	r3, r3, #65536	; 0x10000
80100428:	f443 7380 	orr.w	r3, r3, #256	; 0x100
8010042c:	6153      	str	r3, [r2, #20]
8010042e:	f44f 4280 	mov.w	r2, #16384	; 0x4000
80100432:	f2c0 220c 	movt	r2, #524	; 0x20c
80100436:	f44f 4380 	mov.w	r3, #16384	; 0x4000
8010043a:	f2c0 230c 	movt	r3, #524	; 0x20c
8010043e:	695b      	ldr	r3, [r3, #20]
80100440:	f023 5360 	bic.w	r3, r3, #939524096	; 0x38000000
80100444:	f023 0387 	bic.w	r3, r3, #135	; 0x87
80100448:	6153      	str	r3, [r2, #20]
8010044a:	f44f 4380 	mov.w	r3, #16384	; 0x4000
8010044e:	f2c0 230c 	movt	r3, #524	; 0x20c
80100452:	f44f 4280 	mov.w	r2, #16384	; 0x4000
80100456:	f2c0 220c 	movt	r2, #524	; 0x20c
8010045a:	6952      	ldr	r2, [r2, #20]
8010045c:	615a      	str	r2, [r3, #20]
8010045e:	bf00      	nop
80100460:	f44f 4380 	mov.w	r3, #16384	; 0x4000
80100464:	f2c0 230c 	movt	r3, #524	; 0x20c
80100468:	6c9b      	ldr	r3, [r3, #72]	; 0x48
8010046a:	f003 032f 	and.w	r3, r3, #47	; 0x2f
8010046e:	2b00      	cmp	r3, #0
80100470:	d1f6      	bne.n	80100460 <boot_clk_init+0x1ba>
80100472:	f44f 4380 	mov.w	r3, #16384	; 0x4000
80100476:	f2c0 230c 	movt	r3, #524	; 0x20c
8010047a:	f44f 4280 	mov.w	r2, #16384	; 0x4000
8010047e:	f2c0 220c 	movt	r2, #524	; 0x20c
80100482:	68d2      	ldr	r2, [r2, #12]
80100484:	f022 0201 	bic.w	r2, r2, #1
80100488:	60da      	str	r2, [r3, #12]
8010048a:	f44f 4380 	mov.w	r3, #16384	; 0x4000
8010048e:	f2c0 230c 	movt	r3, #524	; 0x20c
80100492:	f44f 4280 	mov.w	r2, #16384	; 0x4000
80100496:	f2c0 220c 	movt	r2, #524	; 0x20c
8010049a:	6a52      	ldr	r2, [r2, #36]	; 0x24
8010049c:	f022 0240 	bic.w	r2, r2, #64	; 0x40
801004a0:	625a      	str	r2, [r3, #36]	; 0x24
801004a2:	f44f 4380 	mov.w	r3, #16384	; 0x4000
801004a6:	f2c0 230c 	movt	r3, #524	; 0x20c
801004aa:	f44f 4280 	mov.w	r2, #16384	; 0x4000
801004ae:	f2c0 220c 	movt	r2, #524	; 0x20c
801004b2:	6a52      	ldr	r2, [r2, #36]	; 0x24
801004b4:	f022 023f 	bic.w	r2, r2, #63	; 0x3f
801004b8:	625a      	str	r2, [r3, #36]	; 0x24
801004ba:	f44f 4380 	mov.w	r3, #16384	; 0x4000
801004be:	f2c0 230c 	movt	r3, #524	; 0x20c
801004c2:	f44f 4280 	mov.w	r2, #16384	; 0x4000
801004c6:	f2c0 220c 	movt	r2, #524	; 0x20c
801004ca:	69d2      	ldr	r2, [r2, #28]
801004cc:	f022 0240 	bic.w	r2, r2, #64	; 0x40
801004d0:	61da      	str	r2, [r3, #28]
801004d2:	f44f 4380 	mov.w	r3, #16384	; 0x4000
801004d6:	f2c0 230c 	movt	r3, #524	; 0x20c
801004da:	f44f 4280 	mov.w	r2, #16384	; 0x4000
801004de:	f2c0 220c 	movt	r2, #524	; 0x20c
801004e2:	69d2      	ldr	r2, [r2, #28]
801004e4:	f022 023f 	bic.w	r2, r2, #63	; 0x3f
801004e8:	61da      	str	r2, [r3, #28]
801004ea:	bf00      	nop
801004ec:	46bd      	mov	sp, r7
801004ee:	f85d 7b04 	ldr.w	r7, [sp], #4
801004f2:	4770      	bx	lr

801004f4 <printException>:
801004f4:	b580      	push	{r7, lr}
801004f6:	b082      	sub	sp, #8
801004f8:	af00      	add	r7, sp, #0
801004fa:	6078      	str	r0, [r7, #4]
801004fc:	6039      	str	r1, [r7, #0]
801004fe:	6879      	ldr	r1, [r7, #4]
80100500:	f241 206c 	movw	r0, #4716	; 0x126c
80100504:	f2c8 0010 	movt	r0, #32784	; 0x8010
80100508:	f000 fc37 	bl	80100d7a <printf>
8010050c:	6839      	ldr	r1, [r7, #0]
8010050e:	f241 2088 	movw	r0, #4744	; 0x1288
80100512:	f2c8 0010 	movt	r0, #32784	; 0x8010
80100516:	f000 fc30 	bl	80100d7a <printf>
8010051a:	bf00      	nop
8010051c:	3708      	adds	r7, #8
8010051e:	46bd      	mov	sp, r7
80100520:	bd80      	pop	{r7, pc}

80100522 <system_init>:
80100522:	b580      	push	{r7, lr}
80100524:	af00      	add	r7, sp, #0
80100526:	f7ff fe0d 	bl	80100144 <init_pins>
8010052a:	f000 f829 	bl	80100580 <led_gpio_init>
8010052e:	2000      	movs	r0, #0
80100530:	f000 f839 	bl	801005a6 <led_ctl>
80100534:	f7ff fe7e 	bl	80100234 <boot_clk_gate_init>
80100538:	f7ff feb5 	bl	801002a6 <boot_clk_init>
8010053c:	f000 f9c1 	bl	801008c2 <uart1_init>
80100540:	f241 2090 	movw	r0, #4752	; 0x1290
80100544:	f2c8 0010 	movt	r0, #32784	; 0x8010
80100548:	f000 fa8a 	bl	80100a60 <puts>
8010054c:	bf00      	nop
8010054e:	bd80      	pop	{r7, pc}

80100550 <main>:
80100550:	b580      	push	{r7, lr}
80100552:	b082      	sub	sp, #8
80100554:	af00      	add	r7, sp, #0
80100556:	f000 fa6d 	bl	80100a34 <getchar>
8010055a:	4603      	mov	r3, r0
8010055c:	71fb      	strb	r3, [r7, #7]
8010055e:	79fb      	ldrb	r3, [r7, #7]
80100560:	2b0d      	cmp	r3, #13
80100562:	d102      	bne.n	8010056a <main+0x1a>
80100564:	200a      	movs	r0, #10
80100566:	f000 fa4b 	bl	80100a00 <putchar>
8010056a:	79fb      	ldrb	r3, [r7, #7]
8010056c:	2b0a      	cmp	r3, #10
8010056e:	d102      	bne.n	80100576 <main+0x26>
80100570:	200d      	movs	r0, #13
80100572:	f000 fa45 	bl	80100a00 <putchar>
80100576:	79fb      	ldrb	r3, [r7, #7]
80100578:	4618      	mov	r0, r3
8010057a:	f000 fa41 	bl	80100a00 <putchar>
8010057e:	e7ea      	b.n	80100556 <main+0x6>

80100580 <led_gpio_init>:
80100580:	b480      	push	{r7}
80100582:	af00      	add	r7, sp, #0
80100584:	f44f 4340 	mov.w	r3, #49152	; 0xc000
80100588:	f2c0 230a 	movt	r3, #522	; 0x20a
8010058c:	f44f 4240 	mov.w	r2, #49152	; 0xc000
80100590:	f2c0 220a 	movt	r2, #522	; 0x20a
80100594:	6852      	ldr	r2, [r2, #4]
80100596:	f042 0208 	orr.w	r2, r2, #8
8010059a:	605a      	str	r2, [r3, #4]
8010059c:	bf00      	nop
8010059e:	46bd      	mov	sp, r7
801005a0:	f85d 7b04 	ldr.w	r7, [sp], #4
801005a4:	4770      	bx	lr

801005a6 <led_ctl>:
801005a6:	b480      	push	{r7}
801005a8:	b083      	sub	sp, #12
801005aa:	af00      	add	r7, sp, #0
801005ac:	6078      	str	r0, [r7, #4]
801005ae:	687b      	ldr	r3, [r7, #4]
801005b0:	2b00      	cmp	r3, #0
801005b2:	d00c      	beq.n	801005ce <led_ctl+0x28>
801005b4:	f44f 4340 	mov.w	r3, #49152	; 0xc000
801005b8:	f2c0 230a 	movt	r3, #522	; 0x20a
801005bc:	f44f 4240 	mov.w	r2, #49152	; 0xc000
801005c0:	f2c0 220a 	movt	r2, #522	; 0x20a
801005c4:	6812      	ldr	r2, [r2, #0]
801005c6:	f022 0208 	bic.w	r2, r2, #8
801005ca:	601a      	str	r2, [r3, #0]
801005cc:	e00b      	b.n	801005e6 <led_ctl+0x40>
801005ce:	f44f 4340 	mov.w	r3, #49152	; 0xc000
801005d2:	f2c0 230a 	movt	r3, #522	; 0x20a
801005d6:	f44f 4240 	mov.w	r2, #49152	; 0xc000
801005da:	f2c0 220a 	movt	r2, #522	; 0x20a
801005de:	6812      	ldr	r2, [r2, #0]
801005e0:	f042 0208 	orr.w	r2, r2, #8
801005e4:	601a      	str	r2, [r3, #0]
801005e6:	bf00      	nop
801005e8:	370c      	adds	r7, #12
801005ea:	46bd      	mov	sp, r7
801005ec:	f85d 7b04 	ldr.w	r7, [sp], #4
801005f0:	4770      	bx	lr
	...

801005f4 <UART_SetBaudRate>:
801005f4:	b590      	push	{r4, r7, lr}
801005f6:	b091      	sub	sp, #68	; 0x44
801005f8:	af00      	add	r7, sp, #0
801005fa:	6078      	str	r0, [r7, #4]
801005fc:	6039      	str	r1, [r7, #0]
801005fe:	2300      	movs	r3, #0
80100600:	63fb      	str	r3, [r7, #60]	; 0x3c
80100602:	2300      	movs	r3, #0
80100604:	63bb      	str	r3, [r7, #56]	; 0x38
80100606:	2300      	movs	r3, #0
80100608:	637b      	str	r3, [r7, #52]	; 0x34
8010060a:	2300      	movs	r3, #0
8010060c:	633b      	str	r3, [r7, #48]	; 0x30
8010060e:	2301      	movs	r3, #1
80100610:	623b      	str	r3, [r7, #32]
80100612:	f04f 0300 	mov.w	r3, #0
80100616:	f04f 0400 	mov.w	r4, #0
8010061a:	e9c7 3406 	strd	r3, r4, [r7, #24]
8010061e:	f04f 0300 	mov.w	r3, #0
80100622:	f04f 0400 	mov.w	r4, #0
80100626:	e9c7 340a 	strd	r3, r4, [r7, #40]	; 0x28
8010062a:	2300      	movs	r3, #0
8010062c:	627b      	str	r3, [r7, #36]	; 0x24
8010062e:	683b      	ldr	r3, [r7, #0]
80100630:	63fb      	str	r3, [r7, #60]	; 0x3c
80100632:	687b      	ldr	r3, [r7, #4]
80100634:	011b      	lsls	r3, r3, #4
80100636:	63bb      	str	r3, [r7, #56]	; 0x38
80100638:	2301      	movs	r3, #1
8010063a:	637b      	str	r3, [r7, #52]	; 0x34
8010063c:	e00a      	b.n	80100654 <UART_SetBaudRate+0x60>
8010063e:	6bbb      	ldr	r3, [r7, #56]	; 0x38
80100640:	637b      	str	r3, [r7, #52]	; 0x34
80100642:	6bfb      	ldr	r3, [r7, #60]	; 0x3c
80100644:	6bb9      	ldr	r1, [r7, #56]	; 0x38
80100646:	4618      	mov	r0, r3
80100648:	f000 fd58 	bl	801010fc <__aeabi_uidivmod>
8010064c:	460b      	mov	r3, r1
8010064e:	63bb      	str	r3, [r7, #56]	; 0x38
80100650:	6b7b      	ldr	r3, [r7, #52]	; 0x34
80100652:	63fb      	str	r3, [r7, #60]	; 0x3c
80100654:	6bbb      	ldr	r3, [r7, #56]	; 0x38
80100656:	2b00      	cmp	r3, #0
80100658:	d1f1      	bne.n	8010063e <UART_SetBaudRate+0x4a>
8010065a:	6b79      	ldr	r1, [r7, #52]	; 0x34
8010065c:	6838      	ldr	r0, [r7, #0]
8010065e:	f000 fc1f 	bl	80100ea0 <__aeabi_uidiv>
80100662:	4603      	mov	r3, r0
80100664:	63fb      	str	r3, [r7, #60]	; 0x3c
80100666:	687b      	ldr	r3, [r7, #4]
80100668:	011b      	lsls	r3, r3, #4
8010066a:	6b79      	ldr	r1, [r7, #52]	; 0x34
8010066c:	4618      	mov	r0, r3
8010066e:	f000 fc17 	bl	80100ea0 <__aeabi_uidiv>
80100672:	4603      	mov	r3, r0
80100674:	63bb      	str	r3, [r7, #56]	; 0x38
80100676:	6bfa      	ldr	r2, [r7, #60]	; 0x3c
80100678:	f64f 73f9 	movw	r3, #65529	; 0xfff9
8010067c:	f2c0 0306 	movt	r3, #6
80100680:	429a      	cmp	r2, r3
80100682:	d803      	bhi.n	8010068c <UART_SetBaudRate+0x98>
80100684:	6bbb      	ldr	r3, [r7, #56]	; 0x38
80100686:	f5b3 3f80 	cmp.w	r3, #65536	; 0x10000
8010068a:	d334      	bcc.n	801006f6 <UART_SetBaudRate+0x102>
8010068c:	6bfb      	ldr	r3, [r7, #60]	; 0x3c
8010068e:	1e5a      	subs	r2, r3, #1
80100690:	f646 53b9 	movw	r3, #28089	; 0x6db9
80100694:	f2c2 4393 	movt	r3, #9363	; 0x2493
80100698:	fba2 3403 	umull	r3, r4, r2, r3
8010069c:	1b12      	subs	r2, r2, r4
8010069e:	0852      	lsrs	r2, r2, #1
801006a0:	1913      	adds	r3, r2, r4
801006a2:	0c9b      	lsrs	r3, r3, #18
801006a4:	3301      	adds	r3, #1
801006a6:	617b      	str	r3, [r7, #20]
801006a8:	6bbb      	ldr	r3, [r7, #56]	; 0x38
801006aa:	1e5a      	subs	r2, r3, #1
801006ac:	f248 0301 	movw	r3, #32769	; 0x8001
801006b0:	f2c8 0300 	movt	r3, #32768	; 0x8000
801006b4:	fba2 3403 	umull	r3, r4, r2, r3
801006b8:	0be3      	lsrs	r3, r4, #15
801006ba:	3301      	adds	r3, #1
801006bc:	613b      	str	r3, [r7, #16]
801006be:	693a      	ldr	r2, [r7, #16]
801006c0:	697b      	ldr	r3, [r7, #20]
801006c2:	4293      	cmp	r3, r2
801006c4:	bf38      	it	cc
801006c6:	4613      	movcc	r3, r2
801006c8:	60fb      	str	r3, [r7, #12]
801006ca:	68f9      	ldr	r1, [r7, #12]
801006cc:	6bf8      	ldr	r0, [r7, #60]	; 0x3c
801006ce:	f000 fbe7 	bl	80100ea0 <__aeabi_uidiv>
801006d2:	4603      	mov	r3, r0
801006d4:	63fb      	str	r3, [r7, #60]	; 0x3c
801006d6:	68f9      	ldr	r1, [r7, #12]
801006d8:	6bb8      	ldr	r0, [r7, #56]	; 0x38
801006da:	f000 fbe1 	bl	80100ea0 <__aeabi_uidiv>
801006de:	4603      	mov	r3, r0
801006e0:	63bb      	str	r3, [r7, #56]	; 0x38
801006e2:	6bfb      	ldr	r3, [r7, #60]	; 0x3c
801006e4:	2b00      	cmp	r3, #0
801006e6:	d101      	bne.n	801006ec <UART_SetBaudRate+0xf8>
801006e8:	2301      	movs	r3, #1
801006ea:	63fb      	str	r3, [r7, #60]	; 0x3c
801006ec:	6bbb      	ldr	r3, [r7, #56]	; 0x38
801006ee:	2b00      	cmp	r3, #0
801006f0:	d101      	bne.n	801006f6 <UART_SetBaudRate+0x102>
801006f2:	2301      	movs	r3, #1
801006f4:	63bb      	str	r3, [r7, #56]	; 0x38
801006f6:	6bfb      	ldr	r3, [r7, #60]	; 0x3c
801006f8:	1e5a      	subs	r2, r3, #1
801006fa:	f248 0301 	movw	r3, #32769	; 0x8001
801006fe:	f2c8 0300 	movt	r3, #32768	; 0x8000
80100702:	fba2 3403 	umull	r3, r4, r2, r3
80100706:	0be3      	lsrs	r3, r4, #15
80100708:	3301      	adds	r3, #1
8010070a:	623b      	str	r3, [r7, #32]
8010070c:	6a3b      	ldr	r3, [r7, #32]
8010070e:	3b01      	subs	r3, #1
80100710:	2b06      	cmp	r3, #6
80100712:	d826      	bhi.n	80100762 <UART_SetBaudRate+0x16e>
80100714:	a201      	add	r2, pc, #4	; (adr r2, 8010071c <UART_SetBaudRate+0x128>)
80100716:	f852 f023 	ldr.w	pc, [r2, r3, lsl #2]
8010071a:	bf00      	nop
8010071c:	80100739 	andshi	r0, r0, r9, lsr r7
80100720:	8010073f 	andshi	r0, r0, pc, lsr r7
80100724:	80100745 	andshi	r0, r0, r5, asr #14
80100728:	8010074b 	andshi	r0, r0, fp, asr #14
8010072c:	80100751 	andshi	r0, r0, r1, asr r7
80100730:	80100757 	andshi	r0, r0, r7, asr r7
80100734:	8010075d 	andshi	r0, r0, sp, asr r7
80100738:	2305      	movs	r3, #5
8010073a:	633b      	str	r3, [r7, #48]	; 0x30
8010073c:	e014      	b.n	80100768 <UART_SetBaudRate+0x174>
8010073e:	2304      	movs	r3, #4
80100740:	633b      	str	r3, [r7, #48]	; 0x30
80100742:	e011      	b.n	80100768 <UART_SetBaudRate+0x174>
80100744:	2303      	movs	r3, #3
80100746:	633b      	str	r3, [r7, #48]	; 0x30
80100748:	e00e      	b.n	80100768 <UART_SetBaudRate+0x174>
8010074a:	2302      	movs	r3, #2
8010074c:	633b      	str	r3, [r7, #48]	; 0x30
8010074e:	e00b      	b.n	80100768 <UART_SetBaudRate+0x174>
80100750:	2301      	movs	r3, #1
80100752:	633b      	str	r3, [r7, #48]	; 0x30
80100754:	e008      	b.n	80100768 <UART_SetBaudRate+0x174>
80100756:	2300      	movs	r3, #0
80100758:	633b      	str	r3, [r7, #48]	; 0x30
8010075a:	e005      	b.n	80100768 <UART_SetBaudRate+0x174>
8010075c:	2306      	movs	r3, #6
8010075e:	633b      	str	r3, [r7, #48]	; 0x30
80100760:	e002      	b.n	80100768 <UART_SetBaudRate+0x174>
80100762:	2305      	movs	r3, #5
80100764:	633b      	str	r3, [r7, #48]	; 0x30
80100766:	bf00      	nop
80100768:	683b      	ldr	r3, [r7, #0]
8010076a:	f04f 0400 	mov.w	r4, #0
8010076e:	e9c7 340a 	strd	r3, r4, [r7, #40]	; 0x28
80100772:	6bfb      	ldr	r3, [r7, #60]	; 0x3c
80100774:	011b      	lsls	r3, r3, #4
80100776:	627b      	str	r3, [r7, #36]	; 0x24
80100778:	2301      	movs	r3, #1
8010077a:	637b      	str	r3, [r7, #52]	; 0x34
8010077c:	e012      	b.n	801007a4 <UART_SetBaudRate+0x1b0>
8010077e:	6a7b      	ldr	r3, [r7, #36]	; 0x24
80100780:	637b      	str	r3, [r7, #52]	; 0x34
80100782:	6a7b      	ldr	r3, [r7, #36]	; 0x24
80100784:	f04f 0400 	mov.w	r4, #0
80100788:	e9d7 010a 	ldrd	r0, r1, [r7, #40]	; 0x28
8010078c:	461a      	mov	r2, r3
8010078e:	4623      	mov	r3, r4
80100790:	f000 fcc2 	bl	80101118 <__aeabi_uldivmod>
80100794:	461c      	mov	r4, r3
80100796:	4613      	mov	r3, r2
80100798:	627b      	str	r3, [r7, #36]	; 0x24
8010079a:	6b7b      	ldr	r3, [r7, #52]	; 0x34
8010079c:	f04f 0400 	mov.w	r4, #0
801007a0:	e9c7 340a 	strd	r3, r4, [r7, #40]	; 0x28
801007a4:	6a7b      	ldr	r3, [r7, #36]	; 0x24
801007a6:	2b00      	cmp	r3, #0
801007a8:	d1e9      	bne.n	8010077e <UART_SetBaudRate+0x18a>
801007aa:	6b79      	ldr	r1, [r7, #52]	; 0x34
801007ac:	6838      	ldr	r0, [r7, #0]
801007ae:	f000 fb77 	bl	80100ea0 <__aeabi_uidiv>
801007b2:	4603      	mov	r3, r0
801007b4:	f04f 0400 	mov.w	r4, #0
801007b8:	e9c7 340a 	strd	r3, r4, [r7, #40]	; 0x28
801007bc:	6bfb      	ldr	r3, [r7, #60]	; 0x3c
801007be:	011b      	lsls	r3, r3, #4
801007c0:	6b79      	ldr	r1, [r7, #52]	; 0x34
801007c2:	4618      	mov	r0, r3
801007c4:	f000 fb6c 	bl	80100ea0 <__aeabi_uidiv>
801007c8:	4603      	mov	r3, r0
801007ca:	627b      	str	r3, [r7, #36]	; 0x24
801007cc:	6bbb      	ldr	r3, [r7, #56]	; 0x38
801007ce:	f04f 0400 	mov.w	r4, #0
801007d2:	6aba      	ldr	r2, [r7, #40]	; 0x28
801007d4:	fb04 f102 	mul.w	r1, r4, r2
801007d8:	6afa      	ldr	r2, [r7, #44]	; 0x2c
801007da:	fb03 f202 	mul.w	r2, r3, r2
801007de:	440a      	add	r2, r1
801007e0:	6ab9      	ldr	r1, [r7, #40]	; 0x28
801007e2:	fba1 0103 	umull	r0, r1, r1, r3
801007e6:	1853      	adds	r3, r2, r1
801007e8:	4619      	mov	r1, r3
801007ea:	6a7b      	ldr	r3, [r7, #36]	; 0x24
801007ec:	f04f 0400 	mov.w	r4, #0
801007f0:	461a      	mov	r2, r3
801007f2:	4623      	mov	r3, r4
801007f4:	f000 fc90 	bl	80101118 <__aeabi_uldivmod>
801007f8:	4603      	mov	r3, r0
801007fa:	460c      	mov	r4, r1
801007fc:	e9c7 3406 	strd	r3, r4, [r7, #24]
80100800:	687b      	ldr	r3, [r7, #4]
80100802:	f04f 0400 	mov.w	r4, #0
80100806:	e9d7 1206 	ldrd	r1, r2, [r7, #24]
8010080a:	42a2      	cmp	r2, r4
8010080c:	bf08      	it	eq
8010080e:	4299      	cmpeq	r1, r3
80100810:	d308      	bcc.n	80100824 <UART_SetBaudRate+0x230>
80100812:	687b      	ldr	r3, [r7, #4]
80100814:	f04f 0400 	mov.w	r4, #0
80100818:	e9d7 1206 	ldrd	r1, r2, [r7, #24]
8010081c:	1acb      	subs	r3, r1, r3
8010081e:	eb62 0404 	sbc.w	r4, r2, r4
80100822:	e008      	b.n	80100836 <UART_SetBaudRate+0x242>
80100824:	687b      	ldr	r3, [r7, #4]
80100826:	4619      	mov	r1, r3
80100828:	f04f 0200 	mov.w	r2, #0
8010082c:	e9d7 3406 	ldrd	r3, r4, [r7, #24]
80100830:	1acb      	subs	r3, r1, r3
80100832:	eb62 0404 	sbc.w	r4, r2, r4
80100836:	e9c7 3406 	strd	r3, r4, [r7, #24]
8010083a:	2300      	movs	r3, #0
8010083c:	f2c0 2302 	movt	r3, #514	; 0x202
80100840:	2200      	movs	r2, #0
80100842:	f2c0 2202 	movt	r2, #514	; 0x202
80100846:	f8d2 2090 	ldr.w	r2, [r2, #144]	; 0x90
8010084a:	f422 7260 	bic.w	r2, r2, #896	; 0x380
8010084e:	f8c3 2090 	str.w	r2, [r3, #144]	; 0x90
80100852:	2300      	movs	r3, #0
80100854:	f2c0 2302 	movt	r3, #514	; 0x202
80100858:	2200      	movs	r2, #0
8010085a:	f2c0 2202 	movt	r2, #514	; 0x202
8010085e:	f8d2 1090 	ldr.w	r1, [r2, #144]	; 0x90
80100862:	6b3a      	ldr	r2, [r7, #48]	; 0x30
80100864:	01d2      	lsls	r2, r2, #7
80100866:	f402 7260 	and.w	r2, r2, #896	; 0x380
8010086a:	430a      	orrs	r2, r1
8010086c:	f8c3 2090 	str.w	r2, [r3, #144]	; 0x90
80100870:	2300      	movs	r3, #0
80100872:	f2c0 2302 	movt	r3, #514	; 0x202
80100876:	6bba      	ldr	r2, [r7, #56]	; 0x38
80100878:	3a01      	subs	r2, #1
8010087a:	b292      	uxth	r2, r2
8010087c:	f8c3 20a4 	str.w	r2, [r3, #164]	; 0xa4
80100880:	2400      	movs	r4, #0
80100882:	f2c0 2402 	movt	r4, #514	; 0x202
80100886:	6a39      	ldr	r1, [r7, #32]
80100888:	6bf8      	ldr	r0, [r7, #60]	; 0x3c
8010088a:	f000 fb09 	bl	80100ea0 <__aeabi_uidiv>
8010088e:	4603      	mov	r3, r0
80100890:	3b01      	subs	r3, #1
80100892:	b29b      	uxth	r3, r3
80100894:	f8c4 30a8 	str.w	r3, [r4, #168]	; 0xa8
80100898:	2400      	movs	r4, #0
8010089a:	f2c0 2402 	movt	r4, #514	; 0x202
8010089e:	6a3b      	ldr	r3, [r7, #32]
801008a0:	f44f 727a 	mov.w	r2, #1000	; 0x3e8
801008a4:	fb02 f303 	mul.w	r3, r2, r3
801008a8:	4619      	mov	r1, r3
801008aa:	6838      	ldr	r0, [r7, #0]
801008ac:	f000 faf8 	bl	80100ea0 <__aeabi_uidiv>
801008b0:	4603      	mov	r3, r0
801008b2:	f023 437f 	bic.w	r3, r3, #4278190080	; 0xff000000
801008b6:	f8c4 30b0 	str.w	r3, [r4, #176]	; 0xb0
801008ba:	bf00      	nop
801008bc:	3744      	adds	r7, #68	; 0x44
801008be:	46bd      	mov	sp, r7
801008c0:	bd90      	pop	{r4, r7, pc}

801008c2 <uart1_init>:
801008c2:	b580      	push	{r7, lr}
801008c4:	af00      	add	r7, sp, #0
801008c6:	2300      	movs	r3, #0
801008c8:	f2c0 2302 	movt	r3, #514	; 0x202
801008cc:	2200      	movs	r2, #0
801008ce:	f2c0 2202 	movt	r2, #514	; 0x202
801008d2:	f8d2 2080 	ldr.w	r2, [r2, #128]	; 0x80
801008d6:	f022 0201 	bic.w	r2, r2, #1
801008da:	f8c3 2080 	str.w	r2, [r3, #128]	; 0x80
801008de:	2300      	movs	r3, #0
801008e0:	f2c0 2302 	movt	r3, #514	; 0x202
801008e4:	2200      	movs	r2, #0
801008e6:	f2c0 2202 	movt	r2, #514	; 0x202
801008ea:	f8d2 2084 	ldr.w	r2, [r2, #132]	; 0x84
801008ee:	f022 0201 	bic.w	r2, r2, #1
801008f2:	f8c3 2084 	str.w	r2, [r3, #132]	; 0x84
801008f6:	bf00      	nop
801008f8:	2300      	movs	r3, #0
801008fa:	f2c0 2302 	movt	r3, #514	; 0x202
801008fe:	f8d3 3084 	ldr.w	r3, [r3, #132]	; 0x84
80100902:	f003 0301 	and.w	r3, r3, #1
80100906:	2b00      	cmp	r3, #0
80100908:	d0f6      	beq.n	801008f8 <uart1_init+0x36>
8010090a:	2300      	movs	r3, #0
8010090c:	f2c0 2302 	movt	r3, #514	; 0x202
80100910:	2200      	movs	r2, #0
80100912:	f8c3 2080 	str.w	r2, [r3, #128]	; 0x80
80100916:	2300      	movs	r3, #0
80100918:	f2c0 2302 	movt	r3, #514	; 0x202
8010091c:	2201      	movs	r2, #1
8010091e:	f8c3 2084 	str.w	r2, [r3, #132]	; 0x84
80100922:	2300      	movs	r3, #0
80100924:	f2c0 2302 	movt	r3, #514	; 0x202
80100928:	f44f 62e0 	mov.w	r2, #1792	; 0x700
8010092c:	f8c3 2088 	str.w	r2, [r3, #136]	; 0x88
80100930:	2300      	movs	r3, #0
80100932:	f2c0 2302 	movt	r3, #514	; 0x202
80100936:	f44f 4200 	mov.w	r2, #32768	; 0x8000
8010093a:	f8c3 208c 	str.w	r2, [r3, #140]	; 0x8c
8010093e:	2300      	movs	r3, #0
80100940:	f2c0 2302 	movt	r3, #514	; 0x202
80100944:	f640 0201 	movw	r2, #2049	; 0x801
80100948:	f8c3 2090 	str.w	r2, [r3, #144]	; 0x90
8010094c:	2300      	movs	r3, #0
8010094e:	f2c0 2302 	movt	r3, #514	; 0x202
80100952:	222b      	movs	r2, #43	; 0x2b
80100954:	f8c3 209c 	str.w	r2, [r3, #156]	; 0x9c
80100958:	2300      	movs	r3, #0
8010095a:	f2c0 2302 	movt	r3, #514	; 0x202
8010095e:	2200      	movs	r2, #0
80100960:	f8c3 20a0 	str.w	r2, [r3, #160]	; 0xa0
80100964:	2300      	movs	r3, #0
80100966:	f2c0 2302 	movt	r3, #514	; 0x202
8010096a:	2200      	movs	r2, #0
8010096c:	f8c3 20b0 	str.w	r2, [r3, #176]	; 0xb0
80100970:	2300      	movs	r3, #0
80100972:	f2c0 2302 	movt	r3, #514	; 0x202
80100976:	2260      	movs	r2, #96	; 0x60
80100978:	f8c3 20b4 	str.w	r2, [r3, #180]	; 0xb4
8010097c:	2300      	movs	r3, #0
8010097e:	f2c0 2302 	movt	r3, #514	; 0x202
80100982:	2200      	movs	r2, #0
80100984:	f8c3 20b8 	str.w	r2, [r3, #184]	; 0xb8
80100988:	2200      	movs	r2, #0
8010098a:	f2c0 2202 	movt	r2, #514	; 0x202
8010098e:	2300      	movs	r3, #0
80100990:	f2c0 2302 	movt	r3, #514	; 0x202
80100994:	f8d3 3084 	ldr.w	r3, [r3, #132]	; 0x84
80100998:	f443 4380 	orr.w	r3, r3, #16384	; 0x4000
8010099c:	f043 0366 	orr.w	r3, r3, #102	; 0x66
801009a0:	f8c2 3084 	str.w	r3, [r2, #132]	; 0x84
801009a4:	2300      	movs	r3, #0
801009a6:	f2c0 2302 	movt	r3, #514	; 0x202
801009aa:	2200      	movs	r2, #0
801009ac:	f2c0 2202 	movt	r2, #514	; 0x202
801009b0:	f8d2 2088 	ldr.w	r2, [r2, #136]	; 0x88
801009b4:	f042 0204 	orr.w	r2, r2, #4
801009b8:	f8c3 2088 	str.w	r2, [r3, #136]	; 0x88
801009bc:	2300      	movs	r3, #0
801009be:	f2c0 2302 	movt	r3, #514	; 0x202
801009c2:	2200      	movs	r2, #0
801009c4:	f2c0 2202 	movt	r2, #514	; 0x202
801009c8:	f8d2 2080 	ldr.w	r2, [r2, #128]	; 0x80
801009cc:	f422 4280 	bic.w	r2, r2, #16384	; 0x4000
801009d0:	f8c3 2080 	str.w	r2, [r3, #128]	; 0x80
801009d4:	f44f 4134 	mov.w	r1, #46080	; 0xb400
801009d8:	f2c0 41c4 	movt	r1, #1220	; 0x4c4
801009dc:	f44f 30e1 	mov.w	r0, #115200	; 0x1c200
801009e0:	f7ff fe08 	bl	801005f4 <UART_SetBaudRate>
801009e4:	2300      	movs	r3, #0
801009e6:	f2c0 2302 	movt	r3, #514	; 0x202
801009ea:	2200      	movs	r2, #0
801009ec:	f2c0 2202 	movt	r2, #514	; 0x202
801009f0:	f8d2 2080 	ldr.w	r2, [r2, #128]	; 0x80
801009f4:	f042 0201 	orr.w	r2, r2, #1
801009f8:	f8c3 2080 	str.w	r2, [r3, #128]	; 0x80
801009fc:	bf00      	nop
801009fe:	bd80      	pop	{r7, pc}

80100a00 <putchar>:
80100a00:	b480      	push	{r7}
80100a02:	b083      	sub	sp, #12
80100a04:	af00      	add	r7, sp, #0
80100a06:	6078      	str	r0, [r7, #4]
80100a08:	bf00      	nop
80100a0a:	2300      	movs	r3, #0
80100a0c:	f2c0 2302 	movt	r3, #514	; 0x202
80100a10:	f8d3 3098 	ldr.w	r3, [r3, #152]	; 0x98
80100a14:	f003 0308 	and.w	r3, r3, #8
80100a18:	2b00      	cmp	r3, #0
80100a1a:	d0f6      	beq.n	80100a0a <putchar+0xa>
80100a1c:	2300      	movs	r3, #0
80100a1e:	f2c0 2302 	movt	r3, #514	; 0x202
80100a22:	687a      	ldr	r2, [r7, #4]
80100a24:	b2d2      	uxtb	r2, r2
80100a26:	641a      	str	r2, [r3, #64]	; 0x40
80100a28:	bf00      	nop
80100a2a:	370c      	adds	r7, #12
80100a2c:	46bd      	mov	sp, r7
80100a2e:	f85d 7b04 	ldr.w	r7, [sp], #4
80100a32:	4770      	bx	lr

80100a34 <getchar>:
80100a34:	b480      	push	{r7}
80100a36:	af00      	add	r7, sp, #0
80100a38:	bf00      	nop
80100a3a:	2300      	movs	r3, #0
80100a3c:	f2c0 2302 	movt	r3, #514	; 0x202
80100a40:	f8d3 3098 	ldr.w	r3, [r3, #152]	; 0x98
80100a44:	f003 0301 	and.w	r3, r3, #1
80100a48:	2b00      	cmp	r3, #0
80100a4a:	d0f6      	beq.n	80100a3a <getchar+0x6>
80100a4c:	2300      	movs	r3, #0
80100a4e:	f2c0 2302 	movt	r3, #514	; 0x202
80100a52:	681b      	ldr	r3, [r3, #0]
80100a54:	b2db      	uxtb	r3, r3
80100a56:	4618      	mov	r0, r3
80100a58:	46bd      	mov	sp, r7
80100a5a:	f85d 7b04 	ldr.w	r7, [sp], #4
80100a5e:	4770      	bx	lr

80100a60 <puts>:
80100a60:	b580      	push	{r7, lr}
80100a62:	b082      	sub	sp, #8
80100a64:	af00      	add	r7, sp, #0
80100a66:	6078      	str	r0, [r7, #4]
80100a68:	e007      	b.n	80100a7a <puts+0x1a>
80100a6a:	687b      	ldr	r3, [r7, #4]
80100a6c:	781b      	ldrb	r3, [r3, #0]
80100a6e:	4618      	mov	r0, r3
80100a70:	f7ff ffc6 	bl	80100a00 <putchar>
80100a74:	687b      	ldr	r3, [r7, #4]
80100a76:	3301      	adds	r3, #1
80100a78:	607b      	str	r3, [r7, #4]
80100a7a:	687b      	ldr	r3, [r7, #4]
80100a7c:	781b      	ldrb	r3, [r3, #0]
80100a7e:	2b00      	cmp	r3, #0
80100a80:	d1f3      	bne.n	80100a6a <puts+0xa>
80100a82:	bf00      	nop
80100a84:	3708      	adds	r7, #8
80100a86:	46bd      	mov	sp, r7
80100a88:	bd80      	pop	{r7, pc}
80100a8a:	bf00      	nop

80100a8c <raise>:
80100a8c:	b480      	push	{r7}
80100a8e:	b083      	sub	sp, #12
80100a90:	af00      	add	r7, sp, #0
80100a92:	6078      	str	r0, [r7, #4]
80100a94:	2300      	movs	r3, #0
80100a96:	4618      	mov	r0, r3
80100a98:	370c      	adds	r7, #12
80100a9a:	46bd      	mov	sp, r7
80100a9c:	f85d 7b04 	ldr.w	r7, [sp], #4
80100aa0:	4770      	bx	lr
	...

80100aa4 <outc>:
80100aa4:	b580      	push	{r7, lr}
80100aa6:	b082      	sub	sp, #8
80100aa8:	af00      	add	r7, sp, #0
80100aaa:	6078      	str	r0, [r7, #4]
80100aac:	6878      	ldr	r0, [r7, #4]
80100aae:	f7ff ffa7 	bl	80100a00 <putchar>
80100ab2:	2300      	movs	r3, #0
80100ab4:	4618      	mov	r0, r3
80100ab6:	3708      	adds	r7, #8
80100ab8:	46bd      	mov	sp, r7
80100aba:	bd80      	pop	{r7, pc}

80100abc <outs>:
80100abc:	b580      	push	{r7, lr}
80100abe:	b082      	sub	sp, #8
80100ac0:	af00      	add	r7, sp, #0
80100ac2:	6078      	str	r0, [r7, #4]
80100ac4:	e006      	b.n	80100ad4 <outs+0x18>
80100ac6:	687b      	ldr	r3, [r7, #4]
80100ac8:	1c5a      	adds	r2, r3, #1
80100aca:	607a      	str	r2, [r7, #4]
80100acc:	781b      	ldrb	r3, [r3, #0]
80100ace:	4618      	mov	r0, r3
80100ad0:	f7ff ff96 	bl	80100a00 <putchar>
80100ad4:	687b      	ldr	r3, [r7, #4]
80100ad6:	781b      	ldrb	r3, [r3, #0]
80100ad8:	2b00      	cmp	r3, #0
80100ada:	d1f4      	bne.n	80100ac6 <outs+0xa>
80100adc:	2300      	movs	r3, #0
80100ade:	4618      	mov	r0, r3
80100ae0:	3708      	adds	r7, #8
80100ae2:	46bd      	mov	sp, r7
80100ae4:	bd80      	pop	{r7, pc}

80100ae6 <out_num>:
80100ae6:	b590      	push	{r4, r7, lr}
80100ae8:	b099      	sub	sp, #100	; 0x64
80100aea:	af00      	add	r7, sp, #0
80100aec:	e9c7 0102 	strd	r0, r1, [r7, #8]
80100af0:	607a      	str	r2, [r7, #4]
80100af2:	70fb      	strb	r3, [r7, #3]
80100af4:	2300      	movs	r3, #0
80100af6:	65fb      	str	r3, [r7, #92]	; 0x5c
80100af8:	f107 0310 	add.w	r3, r7, #16
80100afc:	3340      	adds	r3, #64	; 0x40
80100afe:	65bb      	str	r3, [r7, #88]	; 0x58
80100b00:	2300      	movs	r3, #0
80100b02:	657b      	str	r3, [r7, #84]	; 0x54
80100b04:	2300      	movs	r3, #0
80100b06:	653b      	str	r3, [r7, #80]	; 0x50
80100b08:	6dbb      	ldr	r3, [r7, #88]	; 0x58
80100b0a:	3b01      	subs	r3, #1
80100b0c:	65bb      	str	r3, [r7, #88]	; 0x58
80100b0e:	6dbb      	ldr	r3, [r7, #88]	; 0x58
80100b10:	2200      	movs	r2, #0
80100b12:	701a      	strb	r2, [r3, #0]
80100b14:	e9d7 3402 	ldrd	r3, r4, [r7, #8]
80100b18:	2b00      	cmp	r3, #0
80100b1a:	f174 0300 	sbcs.w	r3, r4, #0
80100b1e:	da03      	bge.n	80100b28 <out_num+0x42>
80100b20:	68bb      	ldr	r3, [r7, #8]
80100b22:	425b      	negs	r3, r3
80100b24:	65fb      	str	r3, [r7, #92]	; 0x5c
80100b26:	e001      	b.n	80100b2c <out_num+0x46>
80100b28:	68bb      	ldr	r3, [r7, #8]
80100b2a:	65fb      	str	r3, [r7, #92]	; 0x5c
80100b2c:	6dbb      	ldr	r3, [r7, #88]	; 0x58
80100b2e:	3b01      	subs	r3, #1
80100b30:	65bb      	str	r3, [r7, #88]	; 0x58
80100b32:	687a      	ldr	r2, [r7, #4]
80100b34:	6dfb      	ldr	r3, [r7, #92]	; 0x5c
80100b36:	4611      	mov	r1, r2
80100b38:	4618      	mov	r0, r3
80100b3a:	f000 fadf 	bl	801010fc <__aeabi_uidivmod>
80100b3e:	460b      	mov	r3, r1
80100b40:	461a      	mov	r2, r3
80100b42:	f241 33c0 	movw	r3, #5056	; 0x13c0
80100b46:	f2c8 0310 	movt	r3, #32784	; 0x8010
80100b4a:	5c9a      	ldrb	r2, [r3, r2]
80100b4c:	6dbb      	ldr	r3, [r7, #88]	; 0x58
80100b4e:	701a      	strb	r2, [r3, #0]
80100b50:	6d7b      	ldr	r3, [r7, #84]	; 0x54
80100b52:	3301      	adds	r3, #1
80100b54:	657b      	str	r3, [r7, #84]	; 0x54
80100b56:	687b      	ldr	r3, [r7, #4]
80100b58:	4619      	mov	r1, r3
80100b5a:	6df8      	ldr	r0, [r7, #92]	; 0x5c
80100b5c:	f000 f9a0 	bl	80100ea0 <__aeabi_uidiv>
80100b60:	4603      	mov	r3, r0
80100b62:	65fb      	str	r3, [r7, #92]	; 0x5c
80100b64:	6dfb      	ldr	r3, [r7, #92]	; 0x5c
80100b66:	2b00      	cmp	r3, #0
80100b68:	d1e0      	bne.n	80100b2c <out_num+0x46>
80100b6a:	6f3b      	ldr	r3, [r7, #112]	; 0x70
80100b6c:	2b00      	cmp	r3, #0
80100b6e:	d014      	beq.n	80100b9a <out_num+0xb4>
80100b70:	6d7a      	ldr	r2, [r7, #84]	; 0x54
80100b72:	6f3b      	ldr	r3, [r7, #112]	; 0x70
80100b74:	429a      	cmp	r2, r3
80100b76:	da10      	bge.n	80100b9a <out_num+0xb4>
80100b78:	6f3a      	ldr	r2, [r7, #112]	; 0x70
80100b7a:	6d7b      	ldr	r3, [r7, #84]	; 0x54
80100b7c:	1ad3      	subs	r3, r2, r3
80100b7e:	653b      	str	r3, [r7, #80]	; 0x50
80100b80:	e008      	b.n	80100b94 <out_num+0xae>
80100b82:	6dbb      	ldr	r3, [r7, #88]	; 0x58
80100b84:	3b01      	subs	r3, #1
80100b86:	65bb      	str	r3, [r7, #88]	; 0x58
80100b88:	6dbb      	ldr	r3, [r7, #88]	; 0x58
80100b8a:	78fa      	ldrb	r2, [r7, #3]
80100b8c:	701a      	strb	r2, [r3, #0]
80100b8e:	6d3b      	ldr	r3, [r7, #80]	; 0x50
80100b90:	3b01      	subs	r3, #1
80100b92:	653b      	str	r3, [r7, #80]	; 0x50
80100b94:	6d3b      	ldr	r3, [r7, #80]	; 0x50
80100b96:	2b00      	cmp	r3, #0
80100b98:	d1f3      	bne.n	80100b82 <out_num+0x9c>
80100b9a:	e9d7 3402 	ldrd	r3, r4, [r7, #8]
80100b9e:	2b00      	cmp	r3, #0
80100ba0:	f174 0300 	sbcs.w	r3, r4, #0
80100ba4:	da05      	bge.n	80100bb2 <out_num+0xcc>
80100ba6:	6dbb      	ldr	r3, [r7, #88]	; 0x58
80100ba8:	3b01      	subs	r3, #1
80100baa:	65bb      	str	r3, [r7, #88]	; 0x58
80100bac:	6dbb      	ldr	r3, [r7, #88]	; 0x58
80100bae:	222d      	movs	r2, #45	; 0x2d
80100bb0:	701a      	strb	r2, [r3, #0]
80100bb2:	6db8      	ldr	r0, [r7, #88]	; 0x58
80100bb4:	f7ff ff82 	bl	80100abc <outs>
80100bb8:	4603      	mov	r3, r0
80100bba:	4618      	mov	r0, r3
80100bbc:	3764      	adds	r7, #100	; 0x64
80100bbe:	46bd      	mov	sp, r7
80100bc0:	bd90      	pop	{r4, r7, pc}

80100bc2 <my_vprintf>:
80100bc2:	b580      	push	{r7, lr}
80100bc4:	b086      	sub	sp, #24
80100bc6:	af02      	add	r7, sp, #8
80100bc8:	6078      	str	r0, [r7, #4]
80100bca:	6039      	str	r1, [r7, #0]
80100bcc:	2320      	movs	r3, #32
80100bce:	72fb      	strb	r3, [r7, #11]
80100bd0:	2300      	movs	r3, #0
80100bd2:	60fb      	str	r3, [r7, #12]
80100bd4:	e0c7      	b.n	80100d66 <my_vprintf+0x1a4>
80100bd6:	687b      	ldr	r3, [r7, #4]
80100bd8:	781b      	ldrb	r3, [r3, #0]
80100bda:	2b25      	cmp	r3, #37	; 0x25
80100bdc:	d005      	beq.n	80100bea <my_vprintf+0x28>
80100bde:	687b      	ldr	r3, [r7, #4]
80100be0:	781b      	ldrb	r3, [r3, #0]
80100be2:	4618      	mov	r0, r3
80100be4:	f7ff ff5e 	bl	80100aa4 <outc>
80100be8:	e0ba      	b.n	80100d60 <my_vprintf+0x19e>
80100bea:	687b      	ldr	r3, [r7, #4]
80100bec:	3301      	adds	r3, #1
80100bee:	607b      	str	r3, [r7, #4]
80100bf0:	687b      	ldr	r3, [r7, #4]
80100bf2:	781b      	ldrb	r3, [r3, #0]
80100bf4:	2b30      	cmp	r3, #48	; 0x30
80100bf6:	d104      	bne.n	80100c02 <my_vprintf+0x40>
80100bf8:	2330      	movs	r3, #48	; 0x30
80100bfa:	72fb      	strb	r3, [r7, #11]
80100bfc:	687b      	ldr	r3, [r7, #4]
80100bfe:	3301      	adds	r3, #1
80100c00:	607b      	str	r3, [r7, #4]
80100c02:	2320      	movs	r3, #32
80100c04:	72fb      	strb	r3, [r7, #11]
80100c06:	2300      	movs	r3, #0
80100c08:	60fb      	str	r3, [r7, #12]
80100c0a:	e00e      	b.n	80100c2a <my_vprintf+0x68>
80100c0c:	68fa      	ldr	r2, [r7, #12]
80100c0e:	4613      	mov	r3, r2
80100c10:	009b      	lsls	r3, r3, #2
80100c12:	4413      	add	r3, r2
80100c14:	005b      	lsls	r3, r3, #1
80100c16:	60fb      	str	r3, [r7, #12]
80100c18:	687b      	ldr	r3, [r7, #4]
80100c1a:	781b      	ldrb	r3, [r3, #0]
80100c1c:	3b30      	subs	r3, #48	; 0x30
80100c1e:	68fa      	ldr	r2, [r7, #12]
80100c20:	4413      	add	r3, r2
80100c22:	60fb      	str	r3, [r7, #12]
80100c24:	687b      	ldr	r3, [r7, #4]
80100c26:	3301      	adds	r3, #1
80100c28:	607b      	str	r3, [r7, #4]
80100c2a:	687b      	ldr	r3, [r7, #4]
80100c2c:	781b      	ldrb	r3, [r3, #0]
80100c2e:	2b2f      	cmp	r3, #47	; 0x2f
80100c30:	d903      	bls.n	80100c3a <my_vprintf+0x78>
80100c32:	687b      	ldr	r3, [r7, #4]
80100c34:	781b      	ldrb	r3, [r3, #0]
80100c36:	2b39      	cmp	r3, #57	; 0x39
80100c38:	d9e8      	bls.n	80100c0c <my_vprintf+0x4a>
80100c3a:	687b      	ldr	r3, [r7, #4]
80100c3c:	781b      	ldrb	r3, [r3, #0]
80100c3e:	3b63      	subs	r3, #99	; 0x63
80100c40:	2b15      	cmp	r3, #21
80100c42:	f200 8087 	bhi.w	80100d54 <my_vprintf+0x192>
80100c46:	a201      	add	r2, pc, #4	; (adr r2, 80100c4c <my_vprintf+0x8a>)
80100c48:	f852 f023 	ldr.w	pc, [r2, r3, lsl #2]
80100c4c:	80100d2d 	andshi	r0, r0, sp, lsr #26
80100c50:	80100ca5 	andshi	r0, r0, r5, lsr #25
80100c54:	80100d55 	andshi	r0, r0, r5, asr sp
80100c58:	80100d55 	andshi	r0, r0, r5, asr sp
80100c5c:	80100d55 	andshi	r0, r0, r5, asr sp
80100c60:	80100d55 	andshi	r0, r0, r5, asr sp
80100c64:	80100d55 	andshi	r0, r0, r5, asr sp
80100c68:	80100d55 	andshi	r0, r0, r5, asr sp
80100c6c:	80100d55 	andshi	r0, r0, r5, asr sp
80100c70:	80100d55 	andshi	r0, r0, r5, asr sp
80100c74:	80100d55 	andshi	r0, r0, r5, asr sp
80100c78:	80100d55 	andshi	r0, r0, r5, asr sp
80100c7c:	80100cc7 	andshi	r0, r0, r7, asr #25
80100c80:	80100d55 	andshi	r0, r0, r5, asr sp
80100c84:	80100d55 	andshi	r0, r0, r5, asr sp
80100c88:	80100d55 	andshi	r0, r0, r5, asr sp
80100c8c:	80100d41 	andshi	r0, r0, r1, asr #26
80100c90:	80100d55 	andshi	r0, r0, r5, asr sp
80100c94:	80100ce9 	andshi	r0, r0, r9, ror #25
80100c98:	80100d55 	andshi	r0, r0, r5, asr sp
80100c9c:	80100d55 	andshi	r0, r0, r5, asr sp
80100ca0:	80100d0b 	andshi	r0, r0, fp, lsl #26
80100ca4:	683b      	ldr	r3, [r7, #0]
80100ca6:	3304      	adds	r3, #4
80100ca8:	603b      	str	r3, [r7, #0]
80100caa:	683b      	ldr	r3, [r7, #0]
80100cac:	3b04      	subs	r3, #4
80100cae:	681b      	ldr	r3, [r3, #0]
80100cb0:	4618      	mov	r0, r3
80100cb2:	ea4f 71e0 	mov.w	r1, r0, asr #31
80100cb6:	7afa      	ldrb	r2, [r7, #11]
80100cb8:	68fb      	ldr	r3, [r7, #12]
80100cba:	9300      	str	r3, [sp, #0]
80100cbc:	4613      	mov	r3, r2
80100cbe:	220a      	movs	r2, #10
80100cc0:	f7ff ff11 	bl	80100ae6 <out_num>
80100cc4:	e04c      	b.n	80100d60 <my_vprintf+0x19e>
80100cc6:	683b      	ldr	r3, [r7, #0]
80100cc8:	3304      	adds	r3, #4
80100cca:	603b      	str	r3, [r7, #0]
80100ccc:	683b      	ldr	r3, [r7, #0]
80100cce:	3b04      	subs	r3, #4
80100cd0:	681b      	ldr	r3, [r3, #0]
80100cd2:	4618      	mov	r0, r3
80100cd4:	f04f 0100 	mov.w	r1, #0
80100cd8:	7afa      	ldrb	r2, [r7, #11]
80100cda:	68fb      	ldr	r3, [r7, #12]
80100cdc:	9300      	str	r3, [sp, #0]
80100cde:	4613      	mov	r3, r2
80100ce0:	2208      	movs	r2, #8
80100ce2:	f7ff ff00 	bl	80100ae6 <out_num>
80100ce6:	e03b      	b.n	80100d60 <my_vprintf+0x19e>
80100ce8:	683b      	ldr	r3, [r7, #0]
80100cea:	3304      	adds	r3, #4
80100cec:	603b      	str	r3, [r7, #0]
80100cee:	683b      	ldr	r3, [r7, #0]
80100cf0:	3b04      	subs	r3, #4
80100cf2:	681b      	ldr	r3, [r3, #0]
80100cf4:	4618      	mov	r0, r3
80100cf6:	f04f 0100 	mov.w	r1, #0
80100cfa:	7afa      	ldrb	r2, [r7, #11]
80100cfc:	68fb      	ldr	r3, [r7, #12]
80100cfe:	9300      	str	r3, [sp, #0]
80100d00:	4613      	mov	r3, r2
80100d02:	220a      	movs	r2, #10
80100d04:	f7ff feef 	bl	80100ae6 <out_num>
80100d08:	e02a      	b.n	80100d60 <my_vprintf+0x19e>
80100d0a:	683b      	ldr	r3, [r7, #0]
80100d0c:	3304      	adds	r3, #4
80100d0e:	603b      	str	r3, [r7, #0]
80100d10:	683b      	ldr	r3, [r7, #0]
80100d12:	3b04      	subs	r3, #4
80100d14:	681b      	ldr	r3, [r3, #0]
80100d16:	4618      	mov	r0, r3
80100d18:	f04f 0100 	mov.w	r1, #0
80100d1c:	7afa      	ldrb	r2, [r7, #11]
80100d1e:	68fb      	ldr	r3, [r7, #12]
80100d20:	9300      	str	r3, [sp, #0]
80100d22:	4613      	mov	r3, r2
80100d24:	2210      	movs	r2, #16
80100d26:	f7ff fede 	bl	80100ae6 <out_num>
80100d2a:	e019      	b.n	80100d60 <my_vprintf+0x19e>
80100d2c:	683b      	ldr	r3, [r7, #0]
80100d2e:	3304      	adds	r3, #4
80100d30:	603b      	str	r3, [r7, #0]
80100d32:	683b      	ldr	r3, [r7, #0]
80100d34:	3b04      	subs	r3, #4
80100d36:	681b      	ldr	r3, [r3, #0]
80100d38:	4618      	mov	r0, r3
80100d3a:	f7ff feb3 	bl	80100aa4 <outc>
80100d3e:	e00f      	b.n	80100d60 <my_vprintf+0x19e>
80100d40:	683b      	ldr	r3, [r7, #0]
80100d42:	3304      	adds	r3, #4
80100d44:	603b      	str	r3, [r7, #0]
80100d46:	683b      	ldr	r3, [r7, #0]
80100d48:	3b04      	subs	r3, #4
80100d4a:	681b      	ldr	r3, [r3, #0]
80100d4c:	4618      	mov	r0, r3
80100d4e:	f7ff feb5 	bl	80100abc <outs>
80100d52:	e005      	b.n	80100d60 <my_vprintf+0x19e>
80100d54:	687b      	ldr	r3, [r7, #4]
80100d56:	781b      	ldrb	r3, [r3, #0]
80100d58:	4618      	mov	r0, r3
80100d5a:	f7ff fea3 	bl	80100aa4 <outc>
80100d5e:	bf00      	nop
80100d60:	687b      	ldr	r3, [r7, #4]
80100d62:	3301      	adds	r3, #1
80100d64:	607b      	str	r3, [r7, #4]
80100d66:	687b      	ldr	r3, [r7, #4]
80100d68:	781b      	ldrb	r3, [r3, #0]
80100d6a:	2b00      	cmp	r3, #0
80100d6c:	f47f af33 	bne.w	80100bd6 <my_vprintf+0x14>
80100d70:	2300      	movs	r3, #0
80100d72:	4618      	mov	r0, r3
80100d74:	3710      	adds	r7, #16
80100d76:	46bd      	mov	sp, r7
80100d78:	bd80      	pop	{r7, pc}

80100d7a <printf>:
80100d7a:	b40f      	push	{r0, r1, r2, r3}
80100d7c:	b580      	push	{r7, lr}
80100d7e:	b082      	sub	sp, #8
80100d80:	af00      	add	r7, sp, #0
80100d82:	f107 0314 	add.w	r3, r7, #20
80100d86:	607b      	str	r3, [r7, #4]
80100d88:	693b      	ldr	r3, [r7, #16]
80100d8a:	6879      	ldr	r1, [r7, #4]
80100d8c:	4618      	mov	r0, r3
80100d8e:	f7ff ff18 	bl	80100bc2 <my_vprintf>
80100d92:	2300      	movs	r3, #0
80100d94:	607b      	str	r3, [r7, #4]
80100d96:	2300      	movs	r3, #0
80100d98:	4618      	mov	r0, r3
80100d9a:	3708      	adds	r7, #8
80100d9c:	46bd      	mov	sp, r7
80100d9e:	e8bd 4080 	ldmia.w	sp!, {r7, lr}
80100da2:	b004      	add	sp, #16
80100da4:	4770      	bx	lr

80100da6 <my_printf_test>:
80100da6:	b580      	push	{r7, lr}
80100da8:	af00      	add	r7, sp, #0
80100daa:	f241 20a0 	movw	r0, #4768	; 0x12a0
80100dae:	f2c8 0010 	movt	r0, #32784	; 0x8010
80100db2:	f7ff ffe2 	bl	80100d7a <printf>
80100db6:	2261      	movs	r2, #97	; 0x61
80100db8:	2141      	movs	r1, #65	; 0x41
80100dba:	f241 20cc 	movw	r0, #4812	; 0x12cc
80100dbe:	f2c8 0010 	movt	r0, #32784	; 0x8010
80100dc2:	f7ff ffda 	bl	80100d7a <printf>
80100dc6:	f24e 2140 	movw	r1, #57920	; 0xe240
80100dca:	f2c0 0101 	movt	r1, #1
80100dce:	f241 20ec 	movw	r0, #4844	; 0x12ec
80100dd2:	f2c8 0010 	movt	r0, #32784	; 0x8010
80100dd6:	f7ff ffd0 	bl	80100d7a <printf>
80100dda:	f44f 51ee 	mov.w	r1, #7616	; 0x1dc0
80100dde:	f6cf 71fe 	movt	r1, #65534	; 0xfffe
80100de2:	f241 20ec 	movw	r0, #4844	; 0x12ec
80100de6:	f2c8 0010 	movt	r0, #32784	; 0x8010
80100dea:	f7ff ffc6 	bl	80100d7a <printf>
80100dee:	f245 51aa 	movw	r1, #21930	; 0x55aa
80100df2:	f2c5 51aa 	movt	r1, #21930	; 0x55aa
80100df6:	f241 3008 	movw	r0, #4872	; 0x1308
80100dfa:	f2c8 0010 	movt	r0, #32784	; 0x8010
80100dfe:	f7ff ffbc 	bl	80100d7a <printf>
80100e02:	f241 3124 	movw	r1, #4900	; 0x1324
80100e06:	f2c8 0110 	movt	r1, #32784	; 0x8010
80100e0a:	f241 3034 	movw	r0, #4916	; 0x1334
80100e0e:	f2c8 0010 	movt	r0, #32784	; 0x8010
80100e12:	f7ff ffb2 	bl	80100d7a <printf>
80100e16:	f243 0139 	movw	r1, #12345	; 0x3039
80100e1a:	f241 3050 	movw	r0, #4944	; 0x1350
80100e1e:	f2c8 0010 	movt	r0, #32784	; 0x8010
80100e22:	f7ff ffaa 	bl	80100d7a <printf>
80100e26:	f243 0139 	movw	r1, #12345	; 0x3039
80100e2a:	f241 305c 	movw	r0, #4956	; 0x135c
80100e2e:	f2c8 0010 	movt	r0, #32784	; 0x8010
80100e32:	f7ff ffa2 	bl	80100d7a <printf>
80100e36:	f242 3145 	movw	r1, #9029	; 0x2345
80100e3a:	f2c0 0101 	movt	r1, #1
80100e3e:	f241 3068 	movw	r0, #4968	; 0x1368
80100e42:	f2c8 0010 	movt	r0, #32784	; 0x8010
80100e46:	f7ff ff98 	bl	80100d7a <printf>
80100e4a:	f242 3145 	movw	r1, #9029	; 0x2345
80100e4e:	f2c0 0101 	movt	r1, #1
80100e52:	f241 3078 	movw	r0, #4984	; 0x1378
80100e56:	f2c8 0010 	movt	r0, #32784	; 0x8010
80100e5a:	f7ff ff8e 	bl	80100d7a <printf>
80100e5e:	2101      	movs	r1, #1
80100e60:	f241 3084 	movw	r0, #4996	; 0x1384
80100e64:	f2c8 0010 	movt	r0, #32784	; 0x8010
80100e68:	f7ff ff87 	bl	80100d7a <printf>
80100e6c:	2101      	movs	r1, #1
80100e6e:	f241 3094 	movw	r0, #5012	; 0x1394
80100e72:	f2c8 0010 	movt	r0, #32784	; 0x8010
80100e76:	f7ff ff80 	bl	80100d7a <printf>
80100e7a:	2101      	movs	r1, #1
80100e7c:	f241 30a0 	movw	r0, #5024	; 0x13a0
80100e80:	f2c8 0010 	movt	r0, #32784	; 0x8010
80100e84:	f7ff ff79 	bl	80100d7a <printf>
80100e88:	2101      	movs	r1, #1
80100e8a:	f241 30ac 	movw	r0, #5036	; 0x13ac
80100e8e:	f2c8 0010 	movt	r0, #32784	; 0x8010
80100e92:	f7ff ff72 	bl	80100d7a <printf>
80100e96:	2300      	movs	r3, #0
80100e98:	4618      	mov	r0, r3
80100e9a:	bd80      	pop	{r7, pc}
80100e9c:	0000      	movs	r0, r0
	...

80100ea0 <__aeabi_uidiv>:
80100ea0:	1e4a      	subs	r2, r1, #1
80100ea2:	bf08      	it	eq
80100ea4:	4770      	bxeq	lr
80100ea6:	f0c0 8124 	bcc.w	801010f2 <__aeabi_uidiv+0x252>
80100eaa:	4288      	cmp	r0, r1
80100eac:	f240 8116 	bls.w	801010dc <__aeabi_uidiv+0x23c>
80100eb0:	4211      	tst	r1, r2
80100eb2:	f000 8117 	beq.w	801010e4 <__aeabi_uidiv+0x244>
80100eb6:	fab0 f380 	clz	r3, r0
80100eba:	fab1 f281 	clz	r2, r1
80100ebe:	eba2 0303 	sub.w	r3, r2, r3
80100ec2:	f1c3 031f 	rsb	r3, r3, #31
80100ec6:	a204      	add	r2, pc, #16	; (adr r2, 80100ed8 <__aeabi_uidiv+0x38>)
80100ec8:	eb02 1303 	add.w	r3, r2, r3, lsl #4
80100ecc:	f04f 0200 	mov.w	r2, #0
80100ed0:	469f      	mov	pc, r3
80100ed2:	bf00      	nop
80100ed4:	f3af 8000 	nop.w
80100ed8:	ebb0 7fc1 	cmp.w	r0, r1, lsl #31
80100edc:	bf00      	nop
80100ede:	eb42 0202 	adc.w	r2, r2, r2
80100ee2:	bf28      	it	cs
80100ee4:	eba0 70c1 	subcs.w	r0, r0, r1, lsl #31
80100ee8:	ebb0 7f81 	cmp.w	r0, r1, lsl #30
80100eec:	bf00      	nop
80100eee:	eb42 0202 	adc.w	r2, r2, r2
80100ef2:	bf28      	it	cs
80100ef4:	eba0 7081 	subcs.w	r0, r0, r1, lsl #30
80100ef8:	ebb0 7f41 	cmp.w	r0, r1, lsl #29
80100efc:	bf00      	nop
80100efe:	eb42 0202 	adc.w	r2, r2, r2
80100f02:	bf28      	it	cs
80100f04:	eba0 7041 	subcs.w	r0, r0, r1, lsl #29
80100f08:	ebb0 7f01 	cmp.w	r0, r1, lsl #28
80100f0c:	bf00      	nop
80100f0e:	eb42 0202 	adc.w	r2, r2, r2
80100f12:	bf28      	it	cs
80100f14:	eba0 7001 	subcs.w	r0, r0, r1, lsl #28
80100f18:	ebb0 6fc1 	cmp.w	r0, r1, lsl #27
80100f1c:	bf00      	nop
80100f1e:	eb42 0202 	adc.w	r2, r2, r2
80100f22:	bf28      	it	cs
80100f24:	eba0 60c1 	subcs.w	r0, r0, r1, lsl #27
80100f28:	ebb0 6f81 	cmp.w	r0, r1, lsl #26
80100f2c:	bf00      	nop
80100f2e:	eb42 0202 	adc.w	r2, r2, r2
80100f32:	bf28      	it	cs
80100f34:	eba0 6081 	subcs.w	r0, r0, r1, lsl #26
80100f38:	ebb0 6f41 	cmp.w	r0, r1, lsl #25
80100f3c:	bf00      	nop
80100f3e:	eb42 0202 	adc.w	r2, r2, r2
80100f42:	bf28      	it	cs
80100f44:	eba0 6041 	subcs.w	r0, r0, r1, lsl #25
80100f48:	ebb0 6f01 	cmp.w	r0, r1, lsl #24
80100f4c:	bf00      	nop
80100f4e:	eb42 0202 	adc.w	r2, r2, r2
80100f52:	bf28      	it	cs
80100f54:	eba0 6001 	subcs.w	r0, r0, r1, lsl #24
80100f58:	ebb0 5fc1 	cmp.w	r0, r1, lsl #23
80100f5c:	bf00      	nop
80100f5e:	eb42 0202 	adc.w	r2, r2, r2
80100f62:	bf28      	it	cs
80100f64:	eba0 50c1 	subcs.w	r0, r0, r1, lsl #23
80100f68:	ebb0 5f81 	cmp.w	r0, r1, lsl #22
80100f6c:	bf00      	nop
80100f6e:	eb42 0202 	adc.w	r2, r2, r2
80100f72:	bf28      	it	cs
80100f74:	eba0 5081 	subcs.w	r0, r0, r1, lsl #22
80100f78:	ebb0 5f41 	cmp.w	r0, r1, lsl #21
80100f7c:	bf00      	nop
80100f7e:	eb42 0202 	adc.w	r2, r2, r2
80100f82:	bf28      	it	cs
80100f84:	eba0 5041 	subcs.w	r0, r0, r1, lsl #21
80100f88:	ebb0 5f01 	cmp.w	r0, r1, lsl #20
80100f8c:	bf00      	nop
80100f8e:	eb42 0202 	adc.w	r2, r2, r2
80100f92:	bf28      	it	cs
80100f94:	eba0 5001 	subcs.w	r0, r0, r1, lsl #20
80100f98:	ebb0 4fc1 	cmp.w	r0, r1, lsl #19
80100f9c:	bf00      	nop
80100f9e:	eb42 0202 	adc.w	r2, r2, r2
80100fa2:	bf28      	it	cs
80100fa4:	eba0 40c1 	subcs.w	r0, r0, r1, lsl #19
80100fa8:	ebb0 4f81 	cmp.w	r0, r1, lsl #18
80100fac:	bf00      	nop
80100fae:	eb42 0202 	adc.w	r2, r2, r2
80100fb2:	bf28      	it	cs
80100fb4:	eba0 4081 	subcs.w	r0, r0, r1, lsl #18
80100fb8:	ebb0 4f41 	cmp.w	r0, r1, lsl #17
80100fbc:	bf00      	nop
80100fbe:	eb42 0202 	adc.w	r2, r2, r2
80100fc2:	bf28      	it	cs
80100fc4:	eba0 4041 	subcs.w	r0, r0, r1, lsl #17
80100fc8:	ebb0 4f01 	cmp.w	r0, r1, lsl #16
80100fcc:	bf00      	nop
80100fce:	eb42 0202 	adc.w	r2, r2, r2
80100fd2:	bf28      	it	cs
80100fd4:	eba0 4001 	subcs.w	r0, r0, r1, lsl #16
80100fd8:	ebb0 3fc1 	cmp.w	r0, r1, lsl #15
80100fdc:	bf00      	nop
80100fde:	eb42 0202 	adc.w	r2, r2, r2
80100fe2:	bf28      	it	cs
80100fe4:	eba0 30c1 	subcs.w	r0, r0, r1, lsl #15
80100fe8:	ebb0 3f81 	cmp.w	r0, r1, lsl #14
80100fec:	bf00      	nop
80100fee:	eb42 0202 	adc.w	r2, r2, r2
80100ff2:	bf28      	it	cs
80100ff4:	eba0 3081 	subcs.w	r0, r0, r1, lsl #14
80100ff8:	ebb0 3f41 	cmp.w	r0, r1, lsl #13
80100ffc:	bf00      	nop
80100ffe:	eb42 0202 	adc.w	r2, r2, r2
80101002:	bf28      	it	cs
80101004:	eba0 3041 	subcs.w	r0, r0, r1, lsl #13
80101008:	ebb0 3f01 	cmp.w	r0, r1, lsl #12
8010100c:	bf00      	nop
8010100e:	eb42 0202 	adc.w	r2, r2, r2
80101012:	bf28      	it	cs
80101014:	eba0 3001 	subcs.w	r0, r0, r1, lsl #12
80101018:	ebb0 2fc1 	cmp.w	r0, r1, lsl #11
8010101c:	bf00      	nop
8010101e:	eb42 0202 	adc.w	r2, r2, r2
80101022:	bf28      	it	cs
80101024:	eba0 20c1 	subcs.w	r0, r0, r1, lsl #11
80101028:	ebb0 2f81 	cmp.w	r0, r1, lsl #10
8010102c:	bf00      	nop
8010102e:	eb42 0202 	adc.w	r2, r2, r2
80101032:	bf28      	it	cs
80101034:	eba0 2081 	subcs.w	r0, r0, r1, lsl #10
80101038:	ebb0 2f41 	cmp.w	r0, r1, lsl #9
8010103c:	bf00      	nop
8010103e:	eb42 0202 	adc.w	r2, r2, r2
80101042:	bf28      	it	cs
80101044:	eba0 2041 	subcs.w	r0, r0, r1, lsl #9
80101048:	ebb0 2f01 	cmp.w	r0, r1, lsl #8
8010104c:	bf00      	nop
8010104e:	eb42 0202 	adc.w	r2, r2, r2
80101052:	bf28      	it	cs
80101054:	eba0 2001 	subcs.w	r0, r0, r1, lsl #8
80101058:	ebb0 1fc1 	cmp.w	r0, r1, lsl #7
8010105c:	bf00      	nop
8010105e:	eb42 0202 	adc.w	r2, r2, r2
80101062:	bf28      	it	cs
80101064:	eba0 10c1 	subcs.w	r0, r0, r1, lsl #7
80101068:	ebb0 1f81 	cmp.w	r0, r1, lsl #6
8010106c:	bf00      	nop
8010106e:	eb42 0202 	adc.w	r2, r2, r2
80101072:	bf28      	it	cs
80101074:	eba0 1081 	subcs.w	r0, r0, r1, lsl #6
80101078:	ebb0 1f41 	cmp.w	r0, r1, lsl #5
8010107c:	bf00      	nop
8010107e:	eb42 0202 	adc.w	r2, r2, r2
80101082:	bf28      	it	cs
80101084:	eba0 1041 	subcs.w	r0, r0, r1, lsl #5
80101088:	ebb0 1f01 	cmp.w	r0, r1, lsl #4
8010108c:	bf00      	nop
8010108e:	eb42 0202 	adc.w	r2, r2, r2
80101092:	bf28      	it	cs
80101094:	eba0 1001 	subcs.w	r0, r0, r1, lsl #4
80101098:	ebb0 0fc1 	cmp.w	r0, r1, lsl #3
8010109c:	bf00      	nop
8010109e:	eb42 0202 	adc.w	r2, r2, r2
801010a2:	bf28      	it	cs
801010a4:	eba0 00c1 	subcs.w	r0, r0, r1, lsl #3
801010a8:	ebb0 0f81 	cmp.w	r0, r1, lsl #2
801010ac:	bf00      	nop
801010ae:	eb42 0202 	adc.w	r2, r2, r2
801010b2:	bf28      	it	cs
801010b4:	eba0 0081 	subcs.w	r0, r0, r1, lsl #2
801010b8:	ebb0 0f41 	cmp.w	r0, r1, lsl #1
801010bc:	bf00      	nop
801010be:	eb42 0202 	adc.w	r2, r2, r2
801010c2:	bf28      	it	cs
801010c4:	eba0 0041 	subcs.w	r0, r0, r1, lsl #1
801010c8:	ebb0 0f01 	cmp.w	r0, r1
801010cc:	bf00      	nop
801010ce:	eb42 0202 	adc.w	r2, r2, r2
801010d2:	bf28      	it	cs
801010d4:	eba0 0001 	subcs.w	r0, r0, r1
801010d8:	4610      	mov	r0, r2
801010da:	4770      	bx	lr
801010dc:	bf0c      	ite	eq
801010de:	2001      	moveq	r0, #1
801010e0:	2000      	movne	r0, #0
801010e2:	4770      	bx	lr
801010e4:	fab1 f281 	clz	r2, r1
801010e8:	f1c2 021f 	rsb	r2, r2, #31
801010ec:	fa20 f002 	lsr.w	r0, r0, r2
801010f0:	4770      	bx	lr
801010f2:	b108      	cbz	r0, 801010f8 <__aeabi_uidiv+0x258>
801010f4:	f04f 30ff 	mov.w	r0, #4294967295	; 0xffffffff
801010f8:	f000 b826 	b.w	80101148 <__aeabi_idiv0>

801010fc <__aeabi_uidivmod>:
801010fc:	2900      	cmp	r1, #0
801010fe:	d0f8      	beq.n	801010f2 <__aeabi_uidiv+0x252>
80101100:	e92d 4003 	stmdb	sp!, {r0, r1, lr}
80101104:	f7ff fecc 	bl	80100ea0 <__aeabi_uidiv>
80101108:	e8bd 4006 	ldmia.w	sp!, {r1, r2, lr}
8010110c:	fb02 f300 	mul.w	r3, r2, r0
80101110:	eba1 0103 	sub.w	r1, r1, r3
80101114:	4770      	bx	lr
80101116:	bf00      	nop

80101118 <__aeabi_uldivmod>:
80101118:	b953      	cbnz	r3, 80101130 <__aeabi_uldivmod+0x18>
8010111a:	b94a      	cbnz	r2, 80101130 <__aeabi_uldivmod+0x18>
8010111c:	2900      	cmp	r1, #0
8010111e:	bf08      	it	eq
80101120:	2800      	cmpeq	r0, #0
80101122:	bf1c      	itt	ne
80101124:	f04f 31ff 	movne.w	r1, #4294967295	; 0xffffffff
80101128:	f04f 30ff 	movne.w	r0, #4294967295	; 0xffffffff
8010112c:	f000 b80c 	b.w	80101148 <__aeabi_idiv0>
80101130:	f1ad 0c08 	sub.w	ip, sp, #8
80101134:	e96d ce04 	strd	ip, lr, [sp, #-16]!
80101138:	f000 f80c 	bl	80101154 <__udivmoddi4>
8010113c:	f8dd e004 	ldr.w	lr, [sp, #4]
80101140:	e9dd 2302 	ldrd	r2, r3, [sp, #8]
80101144:	b004      	add	sp, #16
80101146:	4770      	bx	lr

80101148 <__aeabi_idiv0>:
80101148:	b502      	push	{r1, lr}
8010114a:	f04f 0008 	mov.w	r0, #8
8010114e:	f7ff fc9d 	bl	80100a8c <raise>
80101152:	bd02      	pop	{r1, pc}

80101154 <__udivmoddi4>:
80101154:	4299      	cmp	r1, r3
80101156:	e92d 47f0 	stmdb	sp!, {r4, r5, r6, r7, r8, r9, sl, lr}
8010115a:	bf08      	it	eq
8010115c:	4290      	cmpeq	r0, r2
8010115e:	4604      	mov	r4, r0
80101160:	460d      	mov	r5, r1
80101162:	bf38      	it	cc
80101164:	2000      	movcc	r0, #0
80101166:	f8dd a020 	ldr.w	sl, [sp, #32]
8010116a:	bf38      	it	cc
8010116c:	2100      	movcc	r1, #0
8010116e:	d369      	bcc.n	80101244 <__udivmoddi4+0xf0>
80101170:	fab3 f683 	clz	r6, r3
80101174:	2b00      	cmp	r3, #0
80101176:	d070      	beq.n	8010125a <__udivmoddi4+0x106>
80101178:	fab5 f185 	clz	r1, r5
8010117c:	2d00      	cmp	r5, #0
8010117e:	d068      	beq.n	80101252 <__udivmoddi4+0xfe>
80101180:	1a76      	subs	r6, r6, r1
80101182:	f1a6 0e20 	sub.w	lr, r6, #32
80101186:	fa03 f906 	lsl.w	r9, r3, r6
8010118a:	fa02 f10e 	lsl.w	r1, r2, lr
8010118e:	f1c6 0720 	rsb	r7, r6, #32
80101192:	fa22 f307 	lsr.w	r3, r2, r7
80101196:	fa02 f806 	lsl.w	r8, r2, r6
8010119a:	ea49 0901 	orr.w	r9, r9, r1
8010119e:	ea49 0903 	orr.w	r9, r9, r3
801011a2:	454d      	cmp	r5, r9
801011a4:	bf08      	it	eq
801011a6:	4544      	cmpeq	r4, r8
801011a8:	bf3c      	itt	cc
801011aa:	2000      	movcc	r0, #0
801011ac:	2100      	movcc	r1, #0
801011ae:	d30c      	bcc.n	801011ca <__udivmoddi4+0x76>
801011b0:	2301      	movs	r3, #1
801011b2:	ebb4 0408 	subs.w	r4, r4, r8
801011b6:	fa03 f10e 	lsl.w	r1, r3, lr
801011ba:	fa23 f207 	lsr.w	r2, r3, r7
801011be:	fa03 f006 	lsl.w	r0, r3, r6
801011c2:	ea41 0102 	orr.w	r1, r1, r2
801011c6:	eb65 0509 	sbc.w	r5, r5, r9
801011ca:	2e00      	cmp	r6, #0
801011cc:	d03a      	beq.n	80101244 <__udivmoddi4+0xf0>
801011ce:	ea5f 0959 	movs.w	r9, r9, lsr #1
801011d2:	ea4f 0838 	mov.w	r8, r8, rrx
801011d6:	46b4      	mov	ip, r6
801011d8:	e00b      	b.n	801011f2 <__udivmoddi4+0x9e>
801011da:	ebb4 0408 	subs.w	r4, r4, r8
801011de:	eb65 0509 	sbc.w	r5, r5, r9
801011e2:	1924      	adds	r4, r4, r4
801011e4:	416d      	adcs	r5, r5
801011e6:	3401      	adds	r4, #1
801011e8:	f145 0500 	adc.w	r5, r5, #0
801011ec:	f1bc 0c01 	subs.w	ip, ip, #1
801011f0:	d008      	beq.n	80101204 <__udivmoddi4+0xb0>
801011f2:	454d      	cmp	r5, r9
801011f4:	bf08      	it	eq
801011f6:	4544      	cmpeq	r4, r8
801011f8:	d2ef      	bcs.n	801011da <__udivmoddi4+0x86>
801011fa:	1924      	adds	r4, r4, r4
801011fc:	416d      	adcs	r5, r5
801011fe:	f1bc 0c01 	subs.w	ip, ip, #1
80101202:	d1f6      	bne.n	801011f2 <__udivmoddi4+0x9e>
80101204:	fa05 f707 	lsl.w	r7, r5, r7
80101208:	fa24 f306 	lsr.w	r3, r4, r6
8010120c:	fa25 fe0e 	lsr.w	lr, r5, lr
80101210:	fa25 fc06 	lsr.w	ip, r5, r6
80101214:	433b      	orrs	r3, r7
80101216:	1900      	adds	r0, r0, r4
80101218:	ea43 040e 	orr.w	r4, r3, lr
8010121c:	f1a6 0e20 	sub.w	lr, r6, #32
80101220:	fa0c f306 	lsl.w	r3, ip, r6
80101224:	fa04 fe0e 	lsl.w	lr, r4, lr
80101228:	fa04 f206 	lsl.w	r2, r4, r6
8010122c:	f1c6 0720 	rsb	r7, r6, #32
80101230:	fa24 f707 	lsr.w	r7, r4, r7
80101234:	ea43 030e 	orr.w	r3, r3, lr
80101238:	4169      	adcs	r1, r5
8010123a:	433b      	orrs	r3, r7
8010123c:	1a80      	subs	r0, r0, r2
8010123e:	4665      	mov	r5, ip
80101240:	eb61 0103 	sbc.w	r1, r1, r3
80101244:	f1ba 0f00 	cmp.w	sl, #0
80101248:	d001      	beq.n	8010124e <__udivmoddi4+0xfa>
8010124a:	e9ca 4500 	strd	r4, r5, [sl]
8010124e:	e8bd 87f0 	ldmia.w	sp!, {r4, r5, r6, r7, r8, r9, sl, pc}
80101252:	fab4 f184 	clz	r1, r4
80101256:	3120      	adds	r1, #32
80101258:	e792      	b.n	80101180 <__udivmoddi4+0x2c>
8010125a:	fab2 f682 	clz	r6, r2
8010125e:	fab5 f185 	clz	r1, r5
80101262:	3620      	adds	r6, #32
80101264:	2d00      	cmp	r5, #0
80101266:	d18b      	bne.n	80101180 <__udivmoddi4+0x2c>
80101268:	e7f3      	b.n	80101252 <__udivmoddi4+0xfe>
8010126a:	bf00      	nop

Disassembly of section .rodata:

8010126c <.LC0>:
8010126c:	65637845 	strbvs	r7, [r3, #-2117]!	; 0xfffff7bb
80101270:	6f697470 	svcvs	0x00697470
80101274:	6320216e 			; <UNDEFINED> instruction: 0x6320216e
80101278:	20727370 	rsbscs	r7, r2, r0, ror r3
8010127c:	30207369 	eorcc	r7, r0, r9, ror #6
80101280:	0d782578 	cfldr64eq	mvdx2, [r8, #-480]!	; 0xfffffe20
80101284:	0000000a 	andeq	r0, r0, sl

80101288 <.LC1>:
80101288:	0a0d7325 	beq	8045df24 <__bss_end+0x35cb54>
8010128c:	00000000 	andeq	r0, r0, r0

80101290 <.LC2>:
80101290:	6c6c6568 	cfstr64vs	mvdx6, [ip], #-416	; 0xfffffe60
80101294:	6f77206f 	svcvs	0x0077206f
80101298:	0d646c72 	stcleq	12, cr6, [r4, #-456]!	; 0xfffffe38
8010129c:	0000000a 	andeq	r0, r0, sl

801012a0 <.LC0>:
801012a0:	73696854 	cmnvc	r9, #84, 16	; 0x540000
801012a4:	20736920 	rsbscs	r6, r3, r0, lsr #18
801012a8:	2e777777 	mrccs	7, 3, r7, cr7, cr7, {3}
801012ac:	61303031 	teqvs	r0, r1, lsr r0
801012b0:	6f2e6b73 	svcvs	0x002e6b73
801012b4:	20206772 	eorcs	r6, r0, r2, ror r7
801012b8:	5f796d20 	svcpl	0x00796d20
801012bc:	6e697270 	mcrvs	2, 3, r7, cr9, cr0, {3}
801012c0:	74206674 	strtvc	r6, [r0], #-1652	; 0xfffff98c
801012c4:	0a747365 	beq	81e1e060 <__bss_end+0x1d1cc90>
801012c8:	0000000d 	andeq	r0, r0, sp

801012cc <.LC1>:
801012cc:	74736574 	ldrbtvc	r6, [r3], #-1396	; 0xfffffa8c
801012d0:	61686320 	cmnvs	r8, r0, lsr #6
801012d4:	20202072 	eorcs	r2, r0, r2, ror r0
801012d8:	20202020 	eorcs	r2, r0, r0, lsr #32
801012dc:	20202020 	eorcs	r2, r0, r0, lsr #32
801012e0:	2c63253d 	cfstr64cs	mvdx2, [r3], #-244	; 0xffffff0c
801012e4:	0d0a6325 	stceq	3, cr6, [sl, #-148]	; 0xffffff6c
801012e8:	00000000 	andeq	r0, r0, r0

801012ec <.LC2>:
801012ec:	74736574 	ldrbtvc	r6, [r3], #-1396	; 0xfffffa8c
801012f0:	63656420 	cmnvs	r5, #32, 8	; 0x20000000
801012f4:	6c616d69 	stclvs	13, cr6, [r1], #-420	; 0xfffffe5c
801012f8:	6d756e20 	ldclvs	14, cr6, [r5, #-128]!	; 0xffffff80
801012fc:	20726562 	rsbscs	r6, r2, r2, ror #10
80101300:	0a64253d 	beq	81a0a7fc <__bss_end+0x190942c>
80101304:	0000000d 	andeq	r0, r0, sp

80101308 <.LC3>:
80101308:	74736574 	ldrbtvc	r6, [r3], #-1396	; 0xfffffa8c
8010130c:	78656820 	stmdavc	r5!, {r5, fp, sp, lr}^
80101310:	20202020 	eorcs	r2, r0, r0, lsr #32
80101314:	6d756e20 	ldclvs	14, cr6, [r5, #-128]!	; 0xffffff80
80101318:	20726562 	rsbscs	r6, r2, r2, ror #10
8010131c:	2578303d 	ldrbcs	r3, [r8, #-61]!	; 0xffffffc3
80101320:	000d0a78 	andeq	r0, sp, r8, ror sl

80101324 <.LC4>:
80101324:	2e777777 	mrccs	7, 3, r7, cr7, cr7, {3}
80101328:	61303031 	teqvs	r0, r1, lsr r0
8010132c:	6f2e6b73 	svcvs	0x002e6b73
80101330:	00006772 	andeq	r6, r0, r2, ror r7

80101334 <.LC5>:
80101334:	74736574 	ldrbtvc	r6, [r3], #-1396	; 0xfffffa8c
80101338:	72747320 	rsbsvc	r7, r4, #32, 6	; 0x80000000
8010133c:	20676e69 	rsbcs	r6, r7, r9, ror #28
80101340:	20202020 	eorcs	r2, r0, r0, lsr #32
80101344:	20202020 	eorcs	r2, r0, r0, lsr #32
80101348:	0a73253d 	beq	81dca844 <__bss_end+0x1cc9474>
8010134c:	0000000d 	andeq	r0, r0, sp

80101350 <.LC6>:
80101350:	3d6d756e 	cfstr64cc	mvdx7, [sp, #-440]!	; 0xfffffe48
80101354:	64383025 	ldrtvs	r3, [r8], #-37	; 0xffffffdb
80101358:	00000d0a 	andeq	r0, r0, sl, lsl #26

8010135c <.LC7>:
8010135c:	3d6d756e 	cfstr64cc	mvdx7, [sp, #-440]!	; 0xfffffe48
80101360:	0a643825 	beq	81a0f3fc <__bss_end+0x190e02c>
80101364:	0000000d 	andeq	r0, r0, sp

80101368 <.LC8>:
80101368:	3d6d756e 	cfstr64cc	mvdx7, [sp, #-440]!	; 0xfffffe48
8010136c:	30257830 	eorcc	r7, r5, r0, lsr r8
80101370:	0d0a7838 	stceq	8, cr7, [sl, #-224]	; 0xffffff20
80101374:	00000000 	andeq	r0, r0, r0

80101378 <.LC9>:
80101378:	3d6d756e 	cfstr64cc	mvdx7, [sp, #-440]!	; 0xfffffe48
8010137c:	38257830 	stmdacc	r5!, {r4, r5, fp, ip, sp, lr}
80101380:	000d0a78 	andeq	r0, sp, r8, ror sl

80101384 <.LC10>:
80101384:	3d6d756e 	cfstr64cc	mvdx7, [sp, #-440]!	; 0xfffffe48
80101388:	30257830 	eorcc	r7, r5, r0, lsr r8
8010138c:	0d0a7832 	stceq	8, cr7, [sl, #-200]	; 0xffffff38
80101390:	00000000 	andeq	r0, r0, r0

80101394 <.LC11>:
80101394:	3d6d756e 	cfstr64cc	mvdx7, [sp, #-440]!	; 0xfffffe48
80101398:	32257830 	eorcc	r7, r5, #48, 16	; 0x300000
8010139c:	000d0a78 	andeq	r0, sp, r8, ror sl

801013a0 <.LC12>:
801013a0:	3d6d756e 	cfstr64cc	mvdx7, [sp, #-440]!	; 0xfffffe48
801013a4:	64353025 	ldrtvs	r3, [r5], #-37	; 0xffffffdb
801013a8:	00000d0a 	andeq	r0, r0, sl, lsl #26

801013ac <.LC13>:
801013ac:	3d6d756e 	cfstr64cc	mvdx7, [sp, #-440]!	; 0xfffffe48
801013b0:	0a643525 	beq	81a0e84c <__bss_end+0x190d47c>
801013b4:	Address 0x00000000801013b4 is out of bounds.


Disassembly of section .ARM.exidx:

801013b8 <.ARM.exidx>:
801013b8:	7ffffd9c 	svcvc	0x00fffd9c
801013bc:	00000001 	andeq	r0, r0, r1

Disassembly of section .data:

801013c0 <hex_tab>:
801013c0:	33323130 	teqcc	r2, #48, 2
801013c4:	37363534 			; <UNDEFINED> instruction: 0x37363534
801013c8:	62613938 	rsbvs	r3, r1, #56, 18	; 0xe0000
801013cc:	66656463 	strbtvs	r6, [r5], -r3, ror #8

