
except.elf:     file format elf32-littlearm


Disassembly of section .text:

80100000 <_start>:
80100000:	e59ff114 	ldr	pc, [pc, #276]	; 8010011c <clean+0x14>
80100004:	e59ff114 	ldr	pc, [pc, #276]	; 80100120 <clean+0x18>
80100008:	e59ff114 	ldr	pc, [pc, #276]	; 80100124 <clean+0x1c>
8010000c:	ea000039 	b	801000f8 <halt>
80100010:	ea000038 	b	801000f8 <halt>
80100014:	00000000 	andeq	r0, r0, r0
80100018:	e59ff108 	ldr	pc, [pc, #264]	; 80100128 <clean+0x20>
8010001c:	ea000035 	b	801000f8 <halt>

80100020 <Undefined_Handler>:
80100020:	e92d5fff 	push	{r0, r1, r2, r3, r4, r5, r6, r7, r8, r9, sl, fp, ip, lr}
80100024:	e10f0000 	mrs	r0, CPSR
80100028:	e59f10fc 	ldr	r1, [pc, #252]	; 8010012c <clean+0x24>
8010002c:	fa00016c 	blx	801005e4 <printException>
80100030:	e8fd9fff 	ldm	sp!, {r0, r1, r2, r3, r4, r5, r6, r7, r8, r9, sl, fp, ip, pc}^

80100034 <und_string>:
80100034:	65646e75 	strbvs	r6, [r4, #-3701]!	; 0xfffff18b
80100038:	656e6966 	strbvs	r6, [lr, #-2406]!	; 0xfffff69a
8010003c:	6e692064 	cdpvs	0, 6, cr2, cr9, cr4, {3}
80100040:	75727473 	ldrbvc	r7, [r2, #-1139]!	; 0xfffffb8d
80100044:	6f697463 	svcvs	0x00697463
80100048:	7865206e 	stmdavc	r5!, {r1, r2, r3, r5, r6, sp}^
8010004c:	74706563 	ldrbtvc	r6, [r0], #-1379	; 0xfffffa9d
80100050:	006e6f69 	rsbeq	r6, lr, r9, ror #30

80100054 <SVC_Handler>:
80100054:	e92d5fff 	push	{r0, r1, r2, r3, r4, r5, r6, r7, r8, r9, sl, fp, ip, lr}
80100058:	e1a0400e 	mov	r4, lr
8010005c:	e10f0000 	mrs	r0, CPSR
80100060:	e59f10c8 	ldr	r1, [pc, #200]	; 80100130 <clean+0x28>
80100064:	fa00015e 	blx	801005e4 <printException>
80100068:	e2440004 	sub	r0, r4, #4
8010006c:	fb000167 	blx	80100612 <printSWIVal>
80100070:	e8fd9fff 	ldm	sp!, {r0, r1, r2, r3, r4, r5, r6, r7, r8, r9, sl, fp, ip, pc}^

80100074 <swi_string>:
80100074:	20697773 	rsbcs	r7, r9, r3, ror r7
80100078:	65637865 	strbvs	r7, [r3, #-2149]!	; 0xfffff79b
8010007c:	6f697470 	svcvs	0x00697470
80100080:	0000006e 	andeq	r0, r0, lr, rrx

80100084 <IRQ_Handler>:
80100084:	e24ee004 	sub	lr, lr, #4
80100088:	e92d5fff 	push	{r0, r1, r2, r3, r4, r5, r6, r7, r8, r9, sl, fp, ip, lr}
8010008c:	fa000423 	blx	80101120 <handle_irq_c>
80100090:	e8fd9fff 	ldm	sp!, {r0, r1, r2, r3, r4, r5, r6, r7, r8, r9, sl, fp, ip, pc}^

80100094 <Reset_Handler>:
80100094:	ee110f10 	mrc	15, 0, r0, cr1, cr0, {0}
80100098:	e3c00a02 	bic	r0, r0, #8192	; 0x2000
8010009c:	e3c00a01 	bic	r0, r0, #4096	; 0x1000
801000a0:	e3c00004 	bic	r0, r0, #4
801000a4:	e3c00004 	bic	r0, r0, #4
801000a8:	e3c00b02 	bic	r0, r0, #2048	; 0x800
801000ac:	e3c00001 	bic	r0, r0, #1
801000b0:	ee010f10 	mcr	15, 0, r0, cr1, cr0, {0}
801000b4:	f102001b 	cps	#27
801000b8:	e59fd074 	ldr	sp, [pc, #116]	; 80100134 <clean+0x2c>
801000bc:	f1020012 	cps	#18
801000c0:	e59fd070 	ldr	sp, [pc, #112]	; 80100138 <clean+0x30>
801000c4:	f1020013 	cps	#19
801000c8:	e59fd06c 	ldr	sp, [pc, #108]	; 8010013c <clean+0x34>
801000cc:	e59f006c 	ldr	r0, [pc, #108]	; 80100140 <clean+0x38>
801000d0:	ee0c0f10 	mcr	15, 0, r0, cr12, cr0, {0}
801000d4:	eb000008 	bl	801000fc <clean_bss>
801000d8:	fb000171 	blx	801006a6 <system_init>
801000dc:	f1080080 	cpsie	i

801000e0 <und_code>:
801000e0:	deadc0de 	mcrle	0, 5, ip, cr13, cr14, {6}

801000e4 <swi_code>:
801000e4:	ef000123 	svc	0x00000123
801000e8:	ee9f0f10 	mrc	15, 4, r0, cr15, cr0, {0}
801000ec:	e59f103c 	ldr	r1, [pc, #60]	; 80100130 <clean+0x28>
801000f0:	fa00013b 	blx	801005e4 <printException>
801000f4:	fa00017b 	blx	801006e8 <main>

801000f8 <halt>:
801000f8:	eafffffe 	b	801000f8 <halt>

801000fc <clean_bss>:
801000fc:	e59f1040 	ldr	r1, [pc, #64]	; 80100144 <clean+0x3c>
80100100:	e59f2040 	ldr	r2, [pc, #64]	; 80100148 <clean+0x40>
80100104:	e3a03000 	mov	r3, #0

80100108 <clean>:
80100108:	e1510002 	cmp	r1, r2
8010010c:	b5813000 	strlt	r3, [r1]
80100110:	e2811004 	add	r1, r1, #4
80100114:	bafffffb 	blt	80100108 <clean>
80100118:	e1a0f00e 	mov	pc, lr
8010011c:	80100094 	mulshi	r0, r4, r0
80100120:	80100020 	andshi	r0, r0, r0, lsr #32
80100124:	80100054 	andshi	r0, r0, r4, asr r0
80100128:	80100084 	andshi	r0, r0, r4, lsl #1
8010012c:	80100034 	andshi	r0, r0, r4, lsr r0
80100130:	80100074 	andshi	r0, r0, r4, ror r0
80100134:	80300000 	eorshi	r0, r0, r0
80100138:	80400000 	subhi	r0, r0, r0
8010013c:	80200000 	eorhi	r0, r0, r0
80100140:	80100000 	andshi	r0, r0, r0
80100144:	801017d4 			; <UNDEFINED> instruction: 0x801017d4
80100148:	801017d4 			; <UNDEFINED> instruction: 0x801017d4

8010014c <IOMUXC_SetPinMux>:
8010014c:	b480      	push	{r7}
8010014e:	b085      	sub	sp, #20
80100150:	af00      	add	r7, sp, #0
80100152:	60f8      	str	r0, [r7, #12]
80100154:	60b9      	str	r1, [r7, #8]
80100156:	607a      	str	r2, [r7, #4]
80100158:	603b      	str	r3, [r7, #0]
8010015a:	68fb      	ldr	r3, [r7, #12]
8010015c:	68ba      	ldr	r2, [r7, #8]
8010015e:	f002 010f 	and.w	r1, r2, #15
80100162:	69fa      	ldr	r2, [r7, #28]
80100164:	0112      	lsls	r2, r2, #4
80100166:	f002 0210 	and.w	r2, r2, #16
8010016a:	430a      	orrs	r2, r1
8010016c:	601a      	str	r2, [r3, #0]
8010016e:	687b      	ldr	r3, [r7, #4]
80100170:	2b00      	cmp	r3, #0
80100172:	d004      	beq.n	8010017e <IOMUXC_SetPinMux+0x32>
80100174:	687b      	ldr	r3, [r7, #4]
80100176:	683a      	ldr	r2, [r7, #0]
80100178:	f002 0207 	and.w	r2, r2, #7
8010017c:	601a      	str	r2, [r3, #0]
8010017e:	bf00      	nop
80100180:	3714      	adds	r7, #20
80100182:	46bd      	mov	sp, r7
80100184:	f85d 7b04 	ldr.w	r7, [sp], #4
80100188:	4770      	bx	lr

8010018a <IOMUXC_SetPinConfig>:
8010018a:	b480      	push	{r7}
8010018c:	b085      	sub	sp, #20
8010018e:	af00      	add	r7, sp, #0
80100190:	60f8      	str	r0, [r7, #12]
80100192:	60b9      	str	r1, [r7, #8]
80100194:	607a      	str	r2, [r7, #4]
80100196:	603b      	str	r3, [r7, #0]
80100198:	69bb      	ldr	r3, [r7, #24]
8010019a:	2b00      	cmp	r3, #0
8010019c:	d002      	beq.n	801001a4 <IOMUXC_SetPinConfig+0x1a>
8010019e:	69bb      	ldr	r3, [r7, #24]
801001a0:	69fa      	ldr	r2, [r7, #28]
801001a2:	601a      	str	r2, [r3, #0]
801001a4:	bf00      	nop
801001a6:	3714      	adds	r7, #20
801001a8:	46bd      	mov	sp, r7
801001aa:	f85d 7b04 	ldr.w	r7, [sp], #4
801001ae:	4770      	bx	lr

801001b0 <init_pins>:
801001b0:	b580      	push	{r7, lr}
801001b2:	b082      	sub	sp, #8
801001b4:	af02      	add	r7, sp, #8
801001b6:	2300      	movs	r3, #0
801001b8:	9301      	str	r3, [sp, #4]
801001ba:	2358      	movs	r3, #88	; 0x58
801001bc:	f2c0 2329 	movt	r3, #553	; 0x229
801001c0:	9300      	str	r3, [sp, #0]
801001c2:	2300      	movs	r3, #0
801001c4:	2200      	movs	r2, #0
801001c6:	2105      	movs	r1, #5
801001c8:	2014      	movs	r0, #20
801001ca:	f2c0 2029 	movt	r0, #553	; 0x229
801001ce:	f7ff ffbd 	bl	8010014c <IOMUXC_SetPinMux>
801001d2:	2309      	movs	r3, #9
801001d4:	f2c0 0301 	movt	r3, #1
801001d8:	9301      	str	r3, [sp, #4]
801001da:	2358      	movs	r3, #88	; 0x58
801001dc:	f2c0 2329 	movt	r3, #553	; 0x229
801001e0:	9300      	str	r3, [sp, #0]
801001e2:	2300      	movs	r3, #0
801001e4:	2200      	movs	r2, #0
801001e6:	2105      	movs	r1, #5
801001e8:	2014      	movs	r0, #20
801001ea:	f2c0 2029 	movt	r0, #553	; 0x229
801001ee:	f7ff ffcc 	bl	8010018a <IOMUXC_SetPinConfig>
801001f2:	2300      	movs	r3, #0
801001f4:	9301      	str	r3, [sp, #4]
801001f6:	f44f 7345 	mov.w	r3, #788	; 0x314
801001fa:	f2c0 230e 	movt	r3, #526	; 0x20e
801001fe:	9300      	str	r3, [sp, #0]
80100200:	2303      	movs	r3, #3
80100202:	f240 6224 	movw	r2, #1572	; 0x624
80100206:	f2c0 220e 	movt	r2, #526	; 0x20e
8010020a:	2100      	movs	r1, #0
8010020c:	2088      	movs	r0, #136	; 0x88
8010020e:	f2c0 200e 	movt	r0, #526	; 0x20e
80100212:	f7ff ff9b 	bl	8010014c <IOMUXC_SetPinMux>
80100216:	f241 0390 	movw	r3, #4240	; 0x1090
8010021a:	9301      	str	r3, [sp, #4]
8010021c:	f44f 7345 	mov.w	r3, #788	; 0x314
80100220:	f2c0 230e 	movt	r3, #526	; 0x20e
80100224:	9300      	str	r3, [sp, #0]
80100226:	2303      	movs	r3, #3
80100228:	f240 6224 	movw	r2, #1572	; 0x624
8010022c:	f2c0 220e 	movt	r2, #526	; 0x20e
80100230:	2100      	movs	r1, #0
80100232:	2088      	movs	r0, #136	; 0x88
80100234:	f2c0 200e 	movt	r0, #526	; 0x20e
80100238:	f7ff ffa7 	bl	8010018a <IOMUXC_SetPinConfig>
8010023c:	2300      	movs	r3, #0
8010023e:	9301      	str	r3, [sp, #4]
80100240:	f44f 7344 	mov.w	r3, #784	; 0x310
80100244:	f2c0 230e 	movt	r3, #526	; 0x20e
80100248:	9300      	str	r3, [sp, #0]
8010024a:	2300      	movs	r3, #0
8010024c:	2200      	movs	r2, #0
8010024e:	2100      	movs	r1, #0
80100250:	2084      	movs	r0, #132	; 0x84
80100252:	f2c0 200e 	movt	r0, #526	; 0x20e
80100256:	f7ff ff79 	bl	8010014c <IOMUXC_SetPinMux>
8010025a:	f241 0390 	movw	r3, #4240	; 0x1090
8010025e:	9301      	str	r3, [sp, #4]
80100260:	f44f 7344 	mov.w	r3, #784	; 0x310
80100264:	f2c0 230e 	movt	r3, #526	; 0x20e
80100268:	9300      	str	r3, [sp, #0]
8010026a:	2300      	movs	r3, #0
8010026c:	2200      	movs	r2, #0
8010026e:	2100      	movs	r1, #0
80100270:	2084      	movs	r0, #132	; 0x84
80100272:	f2c0 200e 	movt	r0, #526	; 0x20e
80100276:	f7ff ff88 	bl	8010018a <IOMUXC_SetPinConfig>
8010027a:	2300      	movs	r3, #0
8010027c:	9301      	str	r3, [sp, #4]
8010027e:	2350      	movs	r3, #80	; 0x50
80100280:	f2c0 2329 	movt	r3, #553	; 0x229
80100284:	9300      	str	r3, [sp, #0]
80100286:	2300      	movs	r3, #0
80100288:	2200      	movs	r2, #0
8010028a:	2105      	movs	r1, #5
8010028c:	200c      	movs	r0, #12
8010028e:	f2c0 2029 	movt	r0, #553	; 0x229
80100292:	f7ff ff5b 	bl	8010014c <IOMUXC_SetPinMux>
80100296:	f241 03b0 	movw	r3, #4272	; 0x10b0
8010029a:	f2c0 0301 	movt	r3, #1
8010029e:	9301      	str	r3, [sp, #4]
801002a0:	2350      	movs	r3, #80	; 0x50
801002a2:	f2c0 2329 	movt	r3, #553	; 0x229
801002a6:	9300      	str	r3, [sp, #0]
801002a8:	2300      	movs	r3, #0
801002aa:	2200      	movs	r2, #0
801002ac:	2105      	movs	r1, #5
801002ae:	200c      	movs	r0, #12
801002b0:	f2c0 2029 	movt	r0, #553	; 0x229
801002b4:	f7ff ff69 	bl	8010018a <IOMUXC_SetPinConfig>
801002b8:	2300      	movs	r3, #0
801002ba:	9301      	str	r3, [sp, #4]
801002bc:	f240 433c 	movw	r3, #1084	; 0x43c
801002c0:	f2c0 230e 	movt	r3, #526	; 0x20e
801002c4:	9300      	str	r3, [sp, #0]
801002c6:	2300      	movs	r3, #0
801002c8:	2200      	movs	r2, #0
801002ca:	2105      	movs	r1, #5
801002cc:	f44f 70d8 	mov.w	r0, #432	; 0x1b0
801002d0:	f2c0 200e 	movt	r0, #526	; 0x20e
801002d4:	f7ff ff3a 	bl	8010014c <IOMUXC_SetPinMux>
801002d8:	f241 03b0 	movw	r3, #4272	; 0x10b0
801002dc:	f2c0 0301 	movt	r3, #1
801002e0:	9301      	str	r3, [sp, #4]
801002e2:	f240 433c 	movw	r3, #1084	; 0x43c
801002e6:	f2c0 230e 	movt	r3, #526	; 0x20e
801002ea:	9300      	str	r3, [sp, #0]
801002ec:	2300      	movs	r3, #0
801002ee:	2200      	movs	r2, #0
801002f0:	2105      	movs	r1, #5
801002f2:	f44f 70d8 	mov.w	r0, #432	; 0x1b0
801002f6:	f2c0 200e 	movt	r0, #526	; 0x20e
801002fa:	f7ff ff46 	bl	8010018a <IOMUXC_SetPinConfig>
801002fe:	bf00      	nop
80100300:	46bd      	mov	sp, r7
80100302:	bd80      	pop	{r7, pc}

80100304 <delay>:
80100304:	b480      	push	{r7}
80100306:	b083      	sub	sp, #12
80100308:	af00      	add	r7, sp, #0
8010030a:	6078      	str	r0, [r7, #4]
8010030c:	bf00      	nop
8010030e:	687b      	ldr	r3, [r7, #4]
80100310:	1e5a      	subs	r2, r3, #1
80100312:	607a      	str	r2, [r7, #4]
80100314:	2b00      	cmp	r3, #0
80100316:	d1fa      	bne.n	8010030e <delay+0xa>
80100318:	bf00      	nop
8010031a:	370c      	adds	r7, #12
8010031c:	46bd      	mov	sp, r7
8010031e:	f85d 7b04 	ldr.w	r7, [sp], #4
80100322:	4770      	bx	lr

80100324 <boot_clk_gate_init>:
80100324:	b480      	push	{r7}
80100326:	af00      	add	r7, sp, #0
80100328:	f44f 4380 	mov.w	r3, #16384	; 0x4000
8010032c:	f2c0 230c 	movt	r3, #524	; 0x20c
80100330:	f04f 32ff 	mov.w	r2, #4294967295	; 0xffffffff
80100334:	669a      	str	r2, [r3, #104]	; 0x68
80100336:	f44f 4380 	mov.w	r3, #16384	; 0x4000
8010033a:	f2c0 230c 	movt	r3, #524	; 0x20c
8010033e:	f04f 32ff 	mov.w	r2, #4294967295	; 0xffffffff
80100342:	66da      	str	r2, [r3, #108]	; 0x6c
80100344:	f44f 4380 	mov.w	r3, #16384	; 0x4000
80100348:	f2c0 230c 	movt	r3, #524	; 0x20c
8010034c:	f04f 32ff 	mov.w	r2, #4294967295	; 0xffffffff
80100350:	671a      	str	r2, [r3, #112]	; 0x70
80100352:	f44f 4380 	mov.w	r3, #16384	; 0x4000
80100356:	f2c0 230c 	movt	r3, #524	; 0x20c
8010035a:	f04f 32ff 	mov.w	r2, #4294967295	; 0xffffffff
8010035e:	675a      	str	r2, [r3, #116]	; 0x74
80100360:	f44f 4380 	mov.w	r3, #16384	; 0x4000
80100364:	f2c0 230c 	movt	r3, #524	; 0x20c
80100368:	f04f 32ff 	mov.w	r2, #4294967295	; 0xffffffff
8010036c:	679a      	str	r2, [r3, #120]	; 0x78
8010036e:	f44f 4380 	mov.w	r3, #16384	; 0x4000
80100372:	f2c0 230c 	movt	r3, #524	; 0x20c
80100376:	f04f 32ff 	mov.w	r2, #4294967295	; 0xffffffff
8010037a:	67da      	str	r2, [r3, #124]	; 0x7c
8010037c:	f44f 4380 	mov.w	r3, #16384	; 0x4000
80100380:	f2c0 230c 	movt	r3, #524	; 0x20c
80100384:	f04f 32ff 	mov.w	r2, #4294967295	; 0xffffffff
80100388:	f8c3 2080 	str.w	r2, [r3, #128]	; 0x80
8010038c:	bf00      	nop
8010038e:	46bd      	mov	sp, r7
80100390:	f85d 7b04 	ldr.w	r7, [sp], #4
80100394:	4770      	bx	lr

80100396 <boot_clk_init>:
80100396:	b480      	push	{r7}
80100398:	af00      	add	r7, sp, #0
8010039a:	f44f 4380 	mov.w	r3, #16384	; 0x4000
8010039e:	f2c0 230c 	movt	r3, #524	; 0x20c
801003a2:	68db      	ldr	r3, [r3, #12]
801003a4:	f003 0304 	and.w	r3, r3, #4
801003a8:	2b00      	cmp	r3, #0
801003aa:	d117      	bne.n	801003dc <boot_clk_init+0x46>
801003ac:	f44f 4380 	mov.w	r3, #16384	; 0x4000
801003b0:	f2c0 230c 	movt	r3, #524	; 0x20c
801003b4:	f44f 4280 	mov.w	r2, #16384	; 0x4000
801003b8:	f2c0 220c 	movt	r2, #524	; 0x20c
801003bc:	68d2      	ldr	r2, [r2, #12]
801003be:	f422 7280 	bic.w	r2, r2, #256	; 0x100
801003c2:	60da      	str	r2, [r3, #12]
801003c4:	f44f 4380 	mov.w	r3, #16384	; 0x4000
801003c8:	f2c0 230c 	movt	r3, #524	; 0x20c
801003cc:	f44f 4280 	mov.w	r2, #16384	; 0x4000
801003d0:	f2c0 220c 	movt	r2, #524	; 0x20c
801003d4:	68d2      	ldr	r2, [r2, #12]
801003d6:	f042 0204 	orr.w	r2, r2, #4
801003da:	60da      	str	r2, [r3, #12]
801003dc:	f44f 4300 	mov.w	r3, #32768	; 0x8000
801003e0:	f2c0 230c 	movt	r3, #524	; 0x20c
801003e4:	f242 0258 	movw	r2, #8280	; 0x2058
801003e8:	601a      	str	r2, [r3, #0]
801003ea:	f44f 4380 	mov.w	r3, #16384	; 0x4000
801003ee:	f2c0 230c 	movt	r3, #524	; 0x20c
801003f2:	f44f 4280 	mov.w	r2, #16384	; 0x4000
801003f6:	f2c0 220c 	movt	r2, #524	; 0x20c
801003fa:	68d2      	ldr	r2, [r2, #12]
801003fc:	f022 0204 	bic.w	r2, r2, #4
80100400:	60da      	str	r2, [r3, #12]
80100402:	f44f 4380 	mov.w	r3, #16384	; 0x4000
80100406:	f2c0 230c 	movt	r3, #524	; 0x20c
8010040a:	2201      	movs	r2, #1
8010040c:	611a      	str	r2, [r3, #16]
8010040e:	f44f 4300 	mov.w	r3, #32768	; 0x8000
80100412:	f2c0 230c 	movt	r3, #524	; 0x20c
80100416:	f44f 4200 	mov.w	r2, #32768	; 0x8000
8010041a:	f2c0 220c 	movt	r2, #524	; 0x20c
8010041e:	f8d2 2100 	ldr.w	r2, [r2, #256]	; 0x100
80100422:	f002 32c0 	and.w	r2, r2, #3233857728	; 0xc0c0c0c0
80100426:	f8c3 2100 	str.w	r2, [r3, #256]	; 0x100
8010042a:	f44f 4200 	mov.w	r2, #32768	; 0x8000
8010042e:	f2c0 220c 	movt	r2, #524	; 0x20c
80100432:	f44f 4300 	mov.w	r3, #32768	; 0x8000
80100436:	f2c0 230c 	movt	r3, #524	; 0x20c
8010043a:	f8d3 1100 	ldr.w	r1, [r3, #256]	; 0x100
8010043e:	f241 031b 	movw	r3, #4123	; 0x101b
80100442:	f2c3 0318 	movt	r3, #12312	; 0x3018
80100446:	430b      	orrs	r3, r1
80100448:	f8c2 3100 	str.w	r3, [r2, #256]	; 0x100
8010044c:	f44f 4300 	mov.w	r3, #32768	; 0x8000
80100450:	f2c0 230c 	movt	r3, #524	; 0x20c
80100454:	f44f 4200 	mov.w	r2, #32768	; 0x8000
80100458:	f2c0 220c 	movt	r2, #524	; 0x20c
8010045c:	f8d2 20f0 	ldr.w	r2, [r2, #240]	; 0xf0
80100460:	f002 32c0 	and.w	r2, r2, #3233857728	; 0xc0c0c0c0
80100464:	f8c3 20f0 	str.w	r2, [r3, #240]	; 0xf0
80100468:	f44f 4200 	mov.w	r2, #32768	; 0x8000
8010046c:	f2c0 220c 	movt	r2, #524	; 0x20c
80100470:	f44f 4300 	mov.w	r3, #32768	; 0x8000
80100474:	f2c0 230c 	movt	r3, #524	; 0x20c
80100478:	f8d3 10f0 	ldr.w	r1, [r3, #240]	; 0xf0
8010047c:	f241 030c 	movw	r3, #4108	; 0x100c
80100480:	f2c1 3311 	movt	r3, #4881	; 0x1311
80100484:	430b      	orrs	r3, r1
80100486:	f8c2 30f0 	str.w	r3, [r2, #240]	; 0xf0
8010048a:	f44f 4380 	mov.w	r3, #16384	; 0x4000
8010048e:	f2c0 230c 	movt	r3, #524	; 0x20c
80100492:	f44f 4280 	mov.w	r2, #16384	; 0x4000
80100496:	f2c0 220c 	movt	r2, #524	; 0x20c
8010049a:	6992      	ldr	r2, [r2, #24]
8010049c:	f422 02d8 	bic.w	r2, r2, #7077888	; 0x6c0000
801004a0:	619a      	str	r2, [r3, #24]
801004a2:	f44f 4380 	mov.w	r3, #16384	; 0x4000
801004a6:	f2c0 230c 	movt	r3, #524	; 0x20c
801004aa:	f44f 4280 	mov.w	r2, #16384	; 0x4000
801004ae:	f2c0 220c 	movt	r2, #524	; 0x20c
801004b2:	6992      	ldr	r2, [r2, #24]
801004b4:	f442 1210 	orr.w	r2, r2, #2359296	; 0x240000
801004b8:	619a      	str	r2, [r3, #24]
801004ba:	f44f 4380 	mov.w	r3, #16384	; 0x4000
801004be:	f2c0 230c 	movt	r3, #524	; 0x20c
801004c2:	f44f 4280 	mov.w	r2, #16384	; 0x4000
801004c6:	f2c0 220c 	movt	r2, #524	; 0x20c
801004ca:	6952      	ldr	r2, [r2, #20]
801004cc:	f022 62c0 	bic.w	r2, r2, #100663296	; 0x6000000
801004d0:	615a      	str	r2, [r3, #20]
801004d2:	f44f 4380 	mov.w	r3, #16384	; 0x4000
801004d6:	f2c0 230c 	movt	r3, #524	; 0x20c
801004da:	f44f 4280 	mov.w	r2, #16384	; 0x4000
801004de:	f2c0 220c 	movt	r2, #524	; 0x20c
801004e2:	6952      	ldr	r2, [r2, #20]
801004e4:	615a      	str	r2, [r3, #20]
801004e6:	f44f 4280 	mov.w	r2, #16384	; 0x4000
801004ea:	f2c0 220c 	movt	r2, #524	; 0x20c
801004ee:	f44f 4380 	mov.w	r3, #16384	; 0x4000
801004f2:	f2c0 230c 	movt	r3, #524	; 0x20c
801004f6:	695b      	ldr	r3, [r3, #20]
801004f8:	f423 23e0 	bic.w	r3, r3, #458752	; 0x70000
801004fc:	f423 7340 	bic.w	r3, r3, #768	; 0x300
80100500:	6153      	str	r3, [r2, #20]
80100502:	f44f 4280 	mov.w	r2, #16384	; 0x4000
80100506:	f2c0 220c 	movt	r2, #524	; 0x20c
8010050a:	f44f 4380 	mov.w	r3, #16384	; 0x4000
8010050e:	f2c0 230c 	movt	r3, #524	; 0x20c
80100512:	695b      	ldr	r3, [r3, #20]
80100514:	f443 3380 	orr.w	r3, r3, #65536	; 0x10000
80100518:	f443 7380 	orr.w	r3, r3, #256	; 0x100
8010051c:	6153      	str	r3, [r2, #20]
8010051e:	f44f 4280 	mov.w	r2, #16384	; 0x4000
80100522:	f2c0 220c 	movt	r2, #524	; 0x20c
80100526:	f44f 4380 	mov.w	r3, #16384	; 0x4000
8010052a:	f2c0 230c 	movt	r3, #524	; 0x20c
8010052e:	695b      	ldr	r3, [r3, #20]
80100530:	f023 5360 	bic.w	r3, r3, #939524096	; 0x38000000
80100534:	f023 0387 	bic.w	r3, r3, #135	; 0x87
80100538:	6153      	str	r3, [r2, #20]
8010053a:	f44f 4380 	mov.w	r3, #16384	; 0x4000
8010053e:	f2c0 230c 	movt	r3, #524	; 0x20c
80100542:	f44f 4280 	mov.w	r2, #16384	; 0x4000
80100546:	f2c0 220c 	movt	r2, #524	; 0x20c
8010054a:	6952      	ldr	r2, [r2, #20]
8010054c:	615a      	str	r2, [r3, #20]
8010054e:	bf00      	nop
80100550:	f44f 4380 	mov.w	r3, #16384	; 0x4000
80100554:	f2c0 230c 	movt	r3, #524	; 0x20c
80100558:	6c9b      	ldr	r3, [r3, #72]	; 0x48
8010055a:	f003 032f 	and.w	r3, r3, #47	; 0x2f
8010055e:	2b00      	cmp	r3, #0
80100560:	d1f6      	bne.n	80100550 <boot_clk_init+0x1ba>
80100562:	f44f 4380 	mov.w	r3, #16384	; 0x4000
80100566:	f2c0 230c 	movt	r3, #524	; 0x20c
8010056a:	f44f 4280 	mov.w	r2, #16384	; 0x4000
8010056e:	f2c0 220c 	movt	r2, #524	; 0x20c
80100572:	68d2      	ldr	r2, [r2, #12]
80100574:	f022 0201 	bic.w	r2, r2, #1
80100578:	60da      	str	r2, [r3, #12]
8010057a:	f44f 4380 	mov.w	r3, #16384	; 0x4000
8010057e:	f2c0 230c 	movt	r3, #524	; 0x20c
80100582:	f44f 4280 	mov.w	r2, #16384	; 0x4000
80100586:	f2c0 220c 	movt	r2, #524	; 0x20c
8010058a:	6a52      	ldr	r2, [r2, #36]	; 0x24
8010058c:	f022 0240 	bic.w	r2, r2, #64	; 0x40
80100590:	625a      	str	r2, [r3, #36]	; 0x24
80100592:	f44f 4380 	mov.w	r3, #16384	; 0x4000
80100596:	f2c0 230c 	movt	r3, #524	; 0x20c
8010059a:	f44f 4280 	mov.w	r2, #16384	; 0x4000
8010059e:	f2c0 220c 	movt	r2, #524	; 0x20c
801005a2:	6a52      	ldr	r2, [r2, #36]	; 0x24
801005a4:	f022 023f 	bic.w	r2, r2, #63	; 0x3f
801005a8:	625a      	str	r2, [r3, #36]	; 0x24
801005aa:	f44f 4380 	mov.w	r3, #16384	; 0x4000
801005ae:	f2c0 230c 	movt	r3, #524	; 0x20c
801005b2:	f44f 4280 	mov.w	r2, #16384	; 0x4000
801005b6:	f2c0 220c 	movt	r2, #524	; 0x20c
801005ba:	69d2      	ldr	r2, [r2, #28]
801005bc:	f022 0240 	bic.w	r2, r2, #64	; 0x40
801005c0:	61da      	str	r2, [r3, #28]
801005c2:	f44f 4380 	mov.w	r3, #16384	; 0x4000
801005c6:	f2c0 230c 	movt	r3, #524	; 0x20c
801005ca:	f44f 4280 	mov.w	r2, #16384	; 0x4000
801005ce:	f2c0 220c 	movt	r2, #524	; 0x20c
801005d2:	69d2      	ldr	r2, [r2, #28]
801005d4:	f022 023f 	bic.w	r2, r2, #63	; 0x3f
801005d8:	61da      	str	r2, [r3, #28]
801005da:	bf00      	nop
801005dc:	46bd      	mov	sp, r7
801005de:	f85d 7b04 	ldr.w	r7, [sp], #4
801005e2:	4770      	bx	lr

801005e4 <printException>:
801005e4:	b580      	push	{r7, lr}
801005e6:	b082      	sub	sp, #8
801005e8:	af00      	add	r7, sp, #0
801005ea:	6078      	str	r0, [r7, #4]
801005ec:	6039      	str	r1, [r7, #0]
801005ee:	6879      	ldr	r1, [r7, #4]
801005f0:	f241 50f4 	movw	r0, #5620	; 0x15f4
801005f4:	f2c8 0010 	movt	r0, #32784	; 0x8010
801005f8:	f000 fc8b 	bl	80100f12 <printf>
801005fc:	6839      	ldr	r1, [r7, #0]
801005fe:	f241 6010 	movw	r0, #5648	; 0x1610
80100602:	f2c8 0010 	movt	r0, #32784	; 0x8010
80100606:	f000 fc84 	bl	80100f12 <printf>
8010060a:	bf00      	nop
8010060c:	3708      	adds	r7, #8
8010060e:	46bd      	mov	sp, r7
80100610:	bd80      	pop	{r7, pc}

80100612 <printSWIVal>:
80100612:	b580      	push	{r7, lr}
80100614:	b082      	sub	sp, #8
80100616:	af00      	add	r7, sp, #0
80100618:	6078      	str	r0, [r7, #4]
8010061a:	687b      	ldr	r3, [r7, #4]
8010061c:	681b      	ldr	r3, [r3, #0]
8010061e:	f023 437f 	bic.w	r3, r3, #4278190080	; 0xff000000
80100622:	4619      	mov	r1, r3
80100624:	f241 6018 	movw	r0, #5656	; 0x1618
80100628:	f2c8 0010 	movt	r0, #32784	; 0x8010
8010062c:	f000 fc71 	bl	80100f12 <printf>
80100630:	bf00      	nop
80100632:	3708      	adds	r7, #8
80100634:	46bd      	mov	sp, r7
80100636:	bd80      	pop	{r7, pc}

80100638 <key_irq_init>:
80100638:	b480      	push	{r7}
8010063a:	af00      	add	r7, sp, #0
8010063c:	f44f 4340 	mov.w	r3, #49152	; 0xc000
80100640:	f2c0 230a 	movt	r3, #522	; 0x20a
80100644:	f44f 4240 	mov.w	r2, #49152	; 0xc000
80100648:	f2c0 220a 	movt	r2, #522	; 0x20a
8010064c:	69d2      	ldr	r2, [r2, #28]
8010064e:	f042 0202 	orr.w	r2, r2, #2
80100652:	61da      	str	r2, [r3, #28]
80100654:	f44f 4340 	mov.w	r3, #49152	; 0xc000
80100658:	f2c0 230a 	movt	r3, #522	; 0x20a
8010065c:	f44f 4240 	mov.w	r2, #49152	; 0xc000
80100660:	f2c0 220a 	movt	r2, #522	; 0x20a
80100664:	6952      	ldr	r2, [r2, #20]
80100666:	f042 0202 	orr.w	r2, r2, #2
8010066a:	615a      	str	r2, [r3, #20]
8010066c:	f44f 4300 	mov.w	r3, #32768	; 0x8000
80100670:	f2c0 230a 	movt	r3, #522	; 0x20a
80100674:	f44f 4200 	mov.w	r2, #32768	; 0x8000
80100678:	f2c0 220a 	movt	r2, #522	; 0x20a
8010067c:	69d2      	ldr	r2, [r2, #28]
8010067e:	f442 4280 	orr.w	r2, r2, #16384	; 0x4000
80100682:	61da      	str	r2, [r3, #28]
80100684:	f44f 4300 	mov.w	r3, #32768	; 0x8000
80100688:	f2c0 230a 	movt	r3, #522	; 0x20a
8010068c:	f44f 4200 	mov.w	r2, #32768	; 0x8000
80100690:	f2c0 220a 	movt	r2, #522	; 0x20a
80100694:	6952      	ldr	r2, [r2, #20]
80100696:	f442 4280 	orr.w	r2, r2, #16384	; 0x4000
8010069a:	615a      	str	r2, [r3, #20]
8010069c:	bf00      	nop
8010069e:	46bd      	mov	sp, r7
801006a0:	f85d 7b04 	ldr.w	r7, [sp], #4
801006a4:	4770      	bx	lr

801006a6 <system_init>:
801006a6:	b580      	push	{r7, lr}
801006a8:	af00      	add	r7, sp, #0
801006aa:	f7ff fd81 	bl	801001b0 <init_pins>
801006ae:	f000 f833 	bl	80100718 <led_gpio_init>
801006b2:	2000      	movs	r0, #0
801006b4:	f000 f843 	bl	8010073e <led_ctl>
801006b8:	f7ff fe34 	bl	80100324 <boot_clk_gate_init>
801006bc:	f7ff fe6b 	bl	80100396 <boot_clk_init>
801006c0:	f000 f9cb 	bl	80100a5a <uart1_init>
801006c4:	f241 602c 	movw	r0, #5676	; 0x162c
801006c8:	f2c8 0010 	movt	r0, #32784	; 0x8010
801006cc:	f000 fa94 	bl	80100bf8 <puts>
801006d0:	f7ff ffb2 	bl	80100638 <key_irq_init>
801006d4:	f000 fcbb 	bl	8010104e <gic_init>
801006d8:	206a      	movs	r0, #106	; 0x6a
801006da:	f000 fcf3 	bl	801010c4 <gic_enable_irq>
801006de:	2068      	movs	r0, #104	; 0x68
801006e0:	f000 fcf0 	bl	801010c4 <gic_enable_irq>
801006e4:	bf00      	nop
801006e6:	bd80      	pop	{r7, pc}

801006e8 <main>:
801006e8:	b580      	push	{r7, lr}
801006ea:	b082      	sub	sp, #8
801006ec:	af00      	add	r7, sp, #0
801006ee:	f000 fa6d 	bl	80100bcc <getchar>
801006f2:	4603      	mov	r3, r0
801006f4:	71fb      	strb	r3, [r7, #7]
801006f6:	79fb      	ldrb	r3, [r7, #7]
801006f8:	2b0d      	cmp	r3, #13
801006fa:	d102      	bne.n	80100702 <main+0x1a>
801006fc:	200a      	movs	r0, #10
801006fe:	f000 fa4b 	bl	80100b98 <putchar>
80100702:	79fb      	ldrb	r3, [r7, #7]
80100704:	2b0a      	cmp	r3, #10
80100706:	d102      	bne.n	8010070e <main+0x26>
80100708:	200d      	movs	r0, #13
8010070a:	f000 fa45 	bl	80100b98 <putchar>
8010070e:	79fb      	ldrb	r3, [r7, #7]
80100710:	4618      	mov	r0, r3
80100712:	f000 fa41 	bl	80100b98 <putchar>
80100716:	e7ea      	b.n	801006ee <main+0x6>

80100718 <led_gpio_init>:
80100718:	b480      	push	{r7}
8010071a:	af00      	add	r7, sp, #0
8010071c:	f44f 4340 	mov.w	r3, #49152	; 0xc000
80100720:	f2c0 230a 	movt	r3, #522	; 0x20a
80100724:	f44f 4240 	mov.w	r2, #49152	; 0xc000
80100728:	f2c0 220a 	movt	r2, #522	; 0x20a
8010072c:	6852      	ldr	r2, [r2, #4]
8010072e:	f042 0208 	orr.w	r2, r2, #8
80100732:	605a      	str	r2, [r3, #4]
80100734:	bf00      	nop
80100736:	46bd      	mov	sp, r7
80100738:	f85d 7b04 	ldr.w	r7, [sp], #4
8010073c:	4770      	bx	lr

8010073e <led_ctl>:
8010073e:	b480      	push	{r7}
80100740:	b083      	sub	sp, #12
80100742:	af00      	add	r7, sp, #0
80100744:	6078      	str	r0, [r7, #4]
80100746:	687b      	ldr	r3, [r7, #4]
80100748:	2b00      	cmp	r3, #0
8010074a:	d00c      	beq.n	80100766 <led_ctl+0x28>
8010074c:	f44f 4340 	mov.w	r3, #49152	; 0xc000
80100750:	f2c0 230a 	movt	r3, #522	; 0x20a
80100754:	f44f 4240 	mov.w	r2, #49152	; 0xc000
80100758:	f2c0 220a 	movt	r2, #522	; 0x20a
8010075c:	6812      	ldr	r2, [r2, #0]
8010075e:	f022 0208 	bic.w	r2, r2, #8
80100762:	601a      	str	r2, [r3, #0]
80100764:	e00b      	b.n	8010077e <led_ctl+0x40>
80100766:	f44f 4340 	mov.w	r3, #49152	; 0xc000
8010076a:	f2c0 230a 	movt	r3, #522	; 0x20a
8010076e:	f44f 4240 	mov.w	r2, #49152	; 0xc000
80100772:	f2c0 220a 	movt	r2, #522	; 0x20a
80100776:	6812      	ldr	r2, [r2, #0]
80100778:	f042 0208 	orr.w	r2, r2, #8
8010077c:	601a      	str	r2, [r3, #0]
8010077e:	bf00      	nop
80100780:	370c      	adds	r7, #12
80100782:	46bd      	mov	sp, r7
80100784:	f85d 7b04 	ldr.w	r7, [sp], #4
80100788:	4770      	bx	lr
	...

8010078c <UART_SetBaudRate>:
8010078c:	b590      	push	{r4, r7, lr}
8010078e:	b091      	sub	sp, #68	; 0x44
80100790:	af00      	add	r7, sp, #0
80100792:	6078      	str	r0, [r7, #4]
80100794:	6039      	str	r1, [r7, #0]
80100796:	2300      	movs	r3, #0
80100798:	63fb      	str	r3, [r7, #60]	; 0x3c
8010079a:	2300      	movs	r3, #0
8010079c:	63bb      	str	r3, [r7, #56]	; 0x38
8010079e:	2300      	movs	r3, #0
801007a0:	637b      	str	r3, [r7, #52]	; 0x34
801007a2:	2300      	movs	r3, #0
801007a4:	633b      	str	r3, [r7, #48]	; 0x30
801007a6:	2301      	movs	r3, #1
801007a8:	623b      	str	r3, [r7, #32]
801007aa:	f04f 0300 	mov.w	r3, #0
801007ae:	f04f 0400 	mov.w	r4, #0
801007b2:	e9c7 3406 	strd	r3, r4, [r7, #24]
801007b6:	f04f 0300 	mov.w	r3, #0
801007ba:	f04f 0400 	mov.w	r4, #0
801007be:	e9c7 340a 	strd	r3, r4, [r7, #40]	; 0x28
801007c2:	2300      	movs	r3, #0
801007c4:	627b      	str	r3, [r7, #36]	; 0x24
801007c6:	683b      	ldr	r3, [r7, #0]
801007c8:	63fb      	str	r3, [r7, #60]	; 0x3c
801007ca:	687b      	ldr	r3, [r7, #4]
801007cc:	011b      	lsls	r3, r3, #4
801007ce:	63bb      	str	r3, [r7, #56]	; 0x38
801007d0:	2301      	movs	r3, #1
801007d2:	637b      	str	r3, [r7, #52]	; 0x34
801007d4:	e00a      	b.n	801007ec <UART_SetBaudRate+0x60>
801007d6:	6bbb      	ldr	r3, [r7, #56]	; 0x38
801007d8:	637b      	str	r3, [r7, #52]	; 0x34
801007da:	6bfb      	ldr	r3, [r7, #60]	; 0x3c
801007dc:	6bb9      	ldr	r1, [r7, #56]	; 0x38
801007de:	4618      	mov	r0, r3
801007e0:	f000 fe50 	bl	80101484 <__aeabi_uidivmod>
801007e4:	460b      	mov	r3, r1
801007e6:	63bb      	str	r3, [r7, #56]	; 0x38
801007e8:	6b7b      	ldr	r3, [r7, #52]	; 0x34
801007ea:	63fb      	str	r3, [r7, #60]	; 0x3c
801007ec:	6bbb      	ldr	r3, [r7, #56]	; 0x38
801007ee:	2b00      	cmp	r3, #0
801007f0:	d1f1      	bne.n	801007d6 <UART_SetBaudRate+0x4a>
801007f2:	6b79      	ldr	r1, [r7, #52]	; 0x34
801007f4:	6838      	ldr	r0, [r7, #0]
801007f6:	f000 fd17 	bl	80101228 <__aeabi_uidiv>
801007fa:	4603      	mov	r3, r0
801007fc:	63fb      	str	r3, [r7, #60]	; 0x3c
801007fe:	687b      	ldr	r3, [r7, #4]
80100800:	011b      	lsls	r3, r3, #4
80100802:	6b79      	ldr	r1, [r7, #52]	; 0x34
80100804:	4618      	mov	r0, r3
80100806:	f000 fd0f 	bl	80101228 <__aeabi_uidiv>
8010080a:	4603      	mov	r3, r0
8010080c:	63bb      	str	r3, [r7, #56]	; 0x38
8010080e:	6bfa      	ldr	r2, [r7, #60]	; 0x3c
80100810:	f64f 73f9 	movw	r3, #65529	; 0xfff9
80100814:	f2c0 0306 	movt	r3, #6
80100818:	429a      	cmp	r2, r3
8010081a:	d803      	bhi.n	80100824 <UART_SetBaudRate+0x98>
8010081c:	6bbb      	ldr	r3, [r7, #56]	; 0x38
8010081e:	f5b3 3f80 	cmp.w	r3, #65536	; 0x10000
80100822:	d334      	bcc.n	8010088e <UART_SetBaudRate+0x102>
80100824:	6bfb      	ldr	r3, [r7, #60]	; 0x3c
80100826:	1e5a      	subs	r2, r3, #1
80100828:	f646 53b9 	movw	r3, #28089	; 0x6db9
8010082c:	f2c2 4393 	movt	r3, #9363	; 0x2493
80100830:	fba2 3403 	umull	r3, r4, r2, r3
80100834:	1b12      	subs	r2, r2, r4
80100836:	0852      	lsrs	r2, r2, #1
80100838:	1913      	adds	r3, r2, r4
8010083a:	0c9b      	lsrs	r3, r3, #18
8010083c:	3301      	adds	r3, #1
8010083e:	617b      	str	r3, [r7, #20]
80100840:	6bbb      	ldr	r3, [r7, #56]	; 0x38
80100842:	1e5a      	subs	r2, r3, #1
80100844:	f248 0301 	movw	r3, #32769	; 0x8001
80100848:	f2c8 0300 	movt	r3, #32768	; 0x8000
8010084c:	fba2 3403 	umull	r3, r4, r2, r3
80100850:	0be3      	lsrs	r3, r4, #15
80100852:	3301      	adds	r3, #1
80100854:	613b      	str	r3, [r7, #16]
80100856:	693a      	ldr	r2, [r7, #16]
80100858:	697b      	ldr	r3, [r7, #20]
8010085a:	4293      	cmp	r3, r2
8010085c:	bf38      	it	cc
8010085e:	4613      	movcc	r3, r2
80100860:	60fb      	str	r3, [r7, #12]
80100862:	68f9      	ldr	r1, [r7, #12]
80100864:	6bf8      	ldr	r0, [r7, #60]	; 0x3c
80100866:	f000 fcdf 	bl	80101228 <__aeabi_uidiv>
8010086a:	4603      	mov	r3, r0
8010086c:	63fb      	str	r3, [r7, #60]	; 0x3c
8010086e:	68f9      	ldr	r1, [r7, #12]
80100870:	6bb8      	ldr	r0, [r7, #56]	; 0x38
80100872:	f000 fcd9 	bl	80101228 <__aeabi_uidiv>
80100876:	4603      	mov	r3, r0
80100878:	63bb      	str	r3, [r7, #56]	; 0x38
8010087a:	6bfb      	ldr	r3, [r7, #60]	; 0x3c
8010087c:	2b00      	cmp	r3, #0
8010087e:	d101      	bne.n	80100884 <UART_SetBaudRate+0xf8>
80100880:	2301      	movs	r3, #1
80100882:	63fb      	str	r3, [r7, #60]	; 0x3c
80100884:	6bbb      	ldr	r3, [r7, #56]	; 0x38
80100886:	2b00      	cmp	r3, #0
80100888:	d101      	bne.n	8010088e <UART_SetBaudRate+0x102>
8010088a:	2301      	movs	r3, #1
8010088c:	63bb      	str	r3, [r7, #56]	; 0x38
8010088e:	6bfb      	ldr	r3, [r7, #60]	; 0x3c
80100890:	1e5a      	subs	r2, r3, #1
80100892:	f248 0301 	movw	r3, #32769	; 0x8001
80100896:	f2c8 0300 	movt	r3, #32768	; 0x8000
8010089a:	fba2 3403 	umull	r3, r4, r2, r3
8010089e:	0be3      	lsrs	r3, r4, #15
801008a0:	3301      	adds	r3, #1
801008a2:	623b      	str	r3, [r7, #32]
801008a4:	6a3b      	ldr	r3, [r7, #32]
801008a6:	3b01      	subs	r3, #1
801008a8:	2b06      	cmp	r3, #6
801008aa:	d826      	bhi.n	801008fa <UART_SetBaudRate+0x16e>
801008ac:	a201      	add	r2, pc, #4	; (adr r2, 801008b4 <UART_SetBaudRate+0x128>)
801008ae:	f852 f023 	ldr.w	pc, [r2, r3, lsl #2]
801008b2:	bf00      	nop
801008b4:	801008d1 			; <UNDEFINED> instruction: 0x801008d1
801008b8:	801008d7 			; <UNDEFINED> instruction: 0x801008d7
801008bc:	801008dd 			; <UNDEFINED> instruction: 0x801008dd
801008c0:	801008e3 	andshi	r0, r0, r3, ror #17
801008c4:	801008e9 	andshi	r0, r0, r9, ror #17
801008c8:	801008ef 	andshi	r0, r0, pc, ror #17
801008cc:	801008f5 			; <UNDEFINED> instruction: 0x801008f5
801008d0:	2305      	movs	r3, #5
801008d2:	633b      	str	r3, [r7, #48]	; 0x30
801008d4:	e014      	b.n	80100900 <UART_SetBaudRate+0x174>
801008d6:	2304      	movs	r3, #4
801008d8:	633b      	str	r3, [r7, #48]	; 0x30
801008da:	e011      	b.n	80100900 <UART_SetBaudRate+0x174>
801008dc:	2303      	movs	r3, #3
801008de:	633b      	str	r3, [r7, #48]	; 0x30
801008e0:	e00e      	b.n	80100900 <UART_SetBaudRate+0x174>
801008e2:	2302      	movs	r3, #2
801008e4:	633b      	str	r3, [r7, #48]	; 0x30
801008e6:	e00b      	b.n	80100900 <UART_SetBaudRate+0x174>
801008e8:	2301      	movs	r3, #1
801008ea:	633b      	str	r3, [r7, #48]	; 0x30
801008ec:	e008      	b.n	80100900 <UART_SetBaudRate+0x174>
801008ee:	2300      	movs	r3, #0
801008f0:	633b      	str	r3, [r7, #48]	; 0x30
801008f2:	e005      	b.n	80100900 <UART_SetBaudRate+0x174>
801008f4:	2306      	movs	r3, #6
801008f6:	633b      	str	r3, [r7, #48]	; 0x30
801008f8:	e002      	b.n	80100900 <UART_SetBaudRate+0x174>
801008fa:	2305      	movs	r3, #5
801008fc:	633b      	str	r3, [r7, #48]	; 0x30
801008fe:	bf00      	nop
80100900:	683b      	ldr	r3, [r7, #0]
80100902:	f04f 0400 	mov.w	r4, #0
80100906:	e9c7 340a 	strd	r3, r4, [r7, #40]	; 0x28
8010090a:	6bfb      	ldr	r3, [r7, #60]	; 0x3c
8010090c:	011b      	lsls	r3, r3, #4
8010090e:	627b      	str	r3, [r7, #36]	; 0x24
80100910:	2301      	movs	r3, #1
80100912:	637b      	str	r3, [r7, #52]	; 0x34
80100914:	e012      	b.n	8010093c <UART_SetBaudRate+0x1b0>
80100916:	6a7b      	ldr	r3, [r7, #36]	; 0x24
80100918:	637b      	str	r3, [r7, #52]	; 0x34
8010091a:	6a7b      	ldr	r3, [r7, #36]	; 0x24
8010091c:	f04f 0400 	mov.w	r4, #0
80100920:	e9d7 010a 	ldrd	r0, r1, [r7, #40]	; 0x28
80100924:	461a      	mov	r2, r3
80100926:	4623      	mov	r3, r4
80100928:	f000 fdba 	bl	801014a0 <__aeabi_uldivmod>
8010092c:	461c      	mov	r4, r3
8010092e:	4613      	mov	r3, r2
80100930:	627b      	str	r3, [r7, #36]	; 0x24
80100932:	6b7b      	ldr	r3, [r7, #52]	; 0x34
80100934:	f04f 0400 	mov.w	r4, #0
80100938:	e9c7 340a 	strd	r3, r4, [r7, #40]	; 0x28
8010093c:	6a7b      	ldr	r3, [r7, #36]	; 0x24
8010093e:	2b00      	cmp	r3, #0
80100940:	d1e9      	bne.n	80100916 <UART_SetBaudRate+0x18a>
80100942:	6b79      	ldr	r1, [r7, #52]	; 0x34
80100944:	6838      	ldr	r0, [r7, #0]
80100946:	f000 fc6f 	bl	80101228 <__aeabi_uidiv>
8010094a:	4603      	mov	r3, r0
8010094c:	f04f 0400 	mov.w	r4, #0
80100950:	e9c7 340a 	strd	r3, r4, [r7, #40]	; 0x28
80100954:	6bfb      	ldr	r3, [r7, #60]	; 0x3c
80100956:	011b      	lsls	r3, r3, #4
80100958:	6b79      	ldr	r1, [r7, #52]	; 0x34
8010095a:	4618      	mov	r0, r3
8010095c:	f000 fc64 	bl	80101228 <__aeabi_uidiv>
80100960:	4603      	mov	r3, r0
80100962:	627b      	str	r3, [r7, #36]	; 0x24
80100964:	6bbb      	ldr	r3, [r7, #56]	; 0x38
80100966:	f04f 0400 	mov.w	r4, #0
8010096a:	6aba      	ldr	r2, [r7, #40]	; 0x28
8010096c:	fb04 f102 	mul.w	r1, r4, r2
80100970:	6afa      	ldr	r2, [r7, #44]	; 0x2c
80100972:	fb03 f202 	mul.w	r2, r3, r2
80100976:	440a      	add	r2, r1
80100978:	6ab9      	ldr	r1, [r7, #40]	; 0x28
8010097a:	fba1 0103 	umull	r0, r1, r1, r3
8010097e:	1853      	adds	r3, r2, r1
80100980:	4619      	mov	r1, r3
80100982:	6a7b      	ldr	r3, [r7, #36]	; 0x24
80100984:	f04f 0400 	mov.w	r4, #0
80100988:	461a      	mov	r2, r3
8010098a:	4623      	mov	r3, r4
8010098c:	f000 fd88 	bl	801014a0 <__aeabi_uldivmod>
80100990:	4603      	mov	r3, r0
80100992:	460c      	mov	r4, r1
80100994:	e9c7 3406 	strd	r3, r4, [r7, #24]
80100998:	687b      	ldr	r3, [r7, #4]
8010099a:	f04f 0400 	mov.w	r4, #0
8010099e:	e9d7 1206 	ldrd	r1, r2, [r7, #24]
801009a2:	42a2      	cmp	r2, r4
801009a4:	bf08      	it	eq
801009a6:	4299      	cmpeq	r1, r3
801009a8:	d308      	bcc.n	801009bc <UART_SetBaudRate+0x230>
801009aa:	687b      	ldr	r3, [r7, #4]
801009ac:	f04f 0400 	mov.w	r4, #0
801009b0:	e9d7 1206 	ldrd	r1, r2, [r7, #24]
801009b4:	1acb      	subs	r3, r1, r3
801009b6:	eb62 0404 	sbc.w	r4, r2, r4
801009ba:	e008      	b.n	801009ce <UART_SetBaudRate+0x242>
801009bc:	687b      	ldr	r3, [r7, #4]
801009be:	4619      	mov	r1, r3
801009c0:	f04f 0200 	mov.w	r2, #0
801009c4:	e9d7 3406 	ldrd	r3, r4, [r7, #24]
801009c8:	1acb      	subs	r3, r1, r3
801009ca:	eb62 0404 	sbc.w	r4, r2, r4
801009ce:	e9c7 3406 	strd	r3, r4, [r7, #24]
801009d2:	2300      	movs	r3, #0
801009d4:	f2c0 2302 	movt	r3, #514	; 0x202
801009d8:	2200      	movs	r2, #0
801009da:	f2c0 2202 	movt	r2, #514	; 0x202
801009de:	f8d2 2090 	ldr.w	r2, [r2, #144]	; 0x90
801009e2:	f422 7260 	bic.w	r2, r2, #896	; 0x380
801009e6:	f8c3 2090 	str.w	r2, [r3, #144]	; 0x90
801009ea:	2300      	movs	r3, #0
801009ec:	f2c0 2302 	movt	r3, #514	; 0x202
801009f0:	2200      	movs	r2, #0
801009f2:	f2c0 2202 	movt	r2, #514	; 0x202
801009f6:	f8d2 1090 	ldr.w	r1, [r2, #144]	; 0x90
801009fa:	6b3a      	ldr	r2, [r7, #48]	; 0x30
801009fc:	01d2      	lsls	r2, r2, #7
801009fe:	f402 7260 	and.w	r2, r2, #896	; 0x380
80100a02:	430a      	orrs	r2, r1
80100a04:	f8c3 2090 	str.w	r2, [r3, #144]	; 0x90
80100a08:	2300      	movs	r3, #0
80100a0a:	f2c0 2302 	movt	r3, #514	; 0x202
80100a0e:	6bba      	ldr	r2, [r7, #56]	; 0x38
80100a10:	3a01      	subs	r2, #1
80100a12:	b292      	uxth	r2, r2
80100a14:	f8c3 20a4 	str.w	r2, [r3, #164]	; 0xa4
80100a18:	2400      	movs	r4, #0
80100a1a:	f2c0 2402 	movt	r4, #514	; 0x202
80100a1e:	6a39      	ldr	r1, [r7, #32]
80100a20:	6bf8      	ldr	r0, [r7, #60]	; 0x3c
80100a22:	f000 fc01 	bl	80101228 <__aeabi_uidiv>
80100a26:	4603      	mov	r3, r0
80100a28:	3b01      	subs	r3, #1
80100a2a:	b29b      	uxth	r3, r3
80100a2c:	f8c4 30a8 	str.w	r3, [r4, #168]	; 0xa8
80100a30:	2400      	movs	r4, #0
80100a32:	f2c0 2402 	movt	r4, #514	; 0x202
80100a36:	6a3b      	ldr	r3, [r7, #32]
80100a38:	f44f 727a 	mov.w	r2, #1000	; 0x3e8
80100a3c:	fb02 f303 	mul.w	r3, r2, r3
80100a40:	4619      	mov	r1, r3
80100a42:	6838      	ldr	r0, [r7, #0]
80100a44:	f000 fbf0 	bl	80101228 <__aeabi_uidiv>
80100a48:	4603      	mov	r3, r0
80100a4a:	f023 437f 	bic.w	r3, r3, #4278190080	; 0xff000000
80100a4e:	f8c4 30b0 	str.w	r3, [r4, #176]	; 0xb0
80100a52:	bf00      	nop
80100a54:	3744      	adds	r7, #68	; 0x44
80100a56:	46bd      	mov	sp, r7
80100a58:	bd90      	pop	{r4, r7, pc}

80100a5a <uart1_init>:
80100a5a:	b580      	push	{r7, lr}
80100a5c:	af00      	add	r7, sp, #0
80100a5e:	2300      	movs	r3, #0
80100a60:	f2c0 2302 	movt	r3, #514	; 0x202
80100a64:	2200      	movs	r2, #0
80100a66:	f2c0 2202 	movt	r2, #514	; 0x202
80100a6a:	f8d2 2080 	ldr.w	r2, [r2, #128]	; 0x80
80100a6e:	f022 0201 	bic.w	r2, r2, #1
80100a72:	f8c3 2080 	str.w	r2, [r3, #128]	; 0x80
80100a76:	2300      	movs	r3, #0
80100a78:	f2c0 2302 	movt	r3, #514	; 0x202
80100a7c:	2200      	movs	r2, #0
80100a7e:	f2c0 2202 	movt	r2, #514	; 0x202
80100a82:	f8d2 2084 	ldr.w	r2, [r2, #132]	; 0x84
80100a86:	f022 0201 	bic.w	r2, r2, #1
80100a8a:	f8c3 2084 	str.w	r2, [r3, #132]	; 0x84
80100a8e:	bf00      	nop
80100a90:	2300      	movs	r3, #0
80100a92:	f2c0 2302 	movt	r3, #514	; 0x202
80100a96:	f8d3 3084 	ldr.w	r3, [r3, #132]	; 0x84
80100a9a:	f003 0301 	and.w	r3, r3, #1
80100a9e:	2b00      	cmp	r3, #0
80100aa0:	d0f6      	beq.n	80100a90 <uart1_init+0x36>
80100aa2:	2300      	movs	r3, #0
80100aa4:	f2c0 2302 	movt	r3, #514	; 0x202
80100aa8:	2200      	movs	r2, #0
80100aaa:	f8c3 2080 	str.w	r2, [r3, #128]	; 0x80
80100aae:	2300      	movs	r3, #0
80100ab0:	f2c0 2302 	movt	r3, #514	; 0x202
80100ab4:	2201      	movs	r2, #1
80100ab6:	f8c3 2084 	str.w	r2, [r3, #132]	; 0x84
80100aba:	2300      	movs	r3, #0
80100abc:	f2c0 2302 	movt	r3, #514	; 0x202
80100ac0:	f44f 62e0 	mov.w	r2, #1792	; 0x700
80100ac4:	f8c3 2088 	str.w	r2, [r3, #136]	; 0x88
80100ac8:	2300      	movs	r3, #0
80100aca:	f2c0 2302 	movt	r3, #514	; 0x202
80100ace:	f44f 4200 	mov.w	r2, #32768	; 0x8000
80100ad2:	f8c3 208c 	str.w	r2, [r3, #140]	; 0x8c
80100ad6:	2300      	movs	r3, #0
80100ad8:	f2c0 2302 	movt	r3, #514	; 0x202
80100adc:	f640 0201 	movw	r2, #2049	; 0x801
80100ae0:	f8c3 2090 	str.w	r2, [r3, #144]	; 0x90
80100ae4:	2300      	movs	r3, #0
80100ae6:	f2c0 2302 	movt	r3, #514	; 0x202
80100aea:	222b      	movs	r2, #43	; 0x2b
80100aec:	f8c3 209c 	str.w	r2, [r3, #156]	; 0x9c
80100af0:	2300      	movs	r3, #0
80100af2:	f2c0 2302 	movt	r3, #514	; 0x202
80100af6:	2200      	movs	r2, #0
80100af8:	f8c3 20a0 	str.w	r2, [r3, #160]	; 0xa0
80100afc:	2300      	movs	r3, #0
80100afe:	f2c0 2302 	movt	r3, #514	; 0x202
80100b02:	2200      	movs	r2, #0
80100b04:	f8c3 20b0 	str.w	r2, [r3, #176]	; 0xb0
80100b08:	2300      	movs	r3, #0
80100b0a:	f2c0 2302 	movt	r3, #514	; 0x202
80100b0e:	2260      	movs	r2, #96	; 0x60
80100b10:	f8c3 20b4 	str.w	r2, [r3, #180]	; 0xb4
80100b14:	2300      	movs	r3, #0
80100b16:	f2c0 2302 	movt	r3, #514	; 0x202
80100b1a:	2200      	movs	r2, #0
80100b1c:	f8c3 20b8 	str.w	r2, [r3, #184]	; 0xb8
80100b20:	2200      	movs	r2, #0
80100b22:	f2c0 2202 	movt	r2, #514	; 0x202
80100b26:	2300      	movs	r3, #0
80100b28:	f2c0 2302 	movt	r3, #514	; 0x202
80100b2c:	f8d3 3084 	ldr.w	r3, [r3, #132]	; 0x84
80100b30:	f443 4380 	orr.w	r3, r3, #16384	; 0x4000
80100b34:	f043 0366 	orr.w	r3, r3, #102	; 0x66
80100b38:	f8c2 3084 	str.w	r3, [r2, #132]	; 0x84
80100b3c:	2300      	movs	r3, #0
80100b3e:	f2c0 2302 	movt	r3, #514	; 0x202
80100b42:	2200      	movs	r2, #0
80100b44:	f2c0 2202 	movt	r2, #514	; 0x202
80100b48:	f8d2 2088 	ldr.w	r2, [r2, #136]	; 0x88
80100b4c:	f042 0204 	orr.w	r2, r2, #4
80100b50:	f8c3 2088 	str.w	r2, [r3, #136]	; 0x88
80100b54:	2300      	movs	r3, #0
80100b56:	f2c0 2302 	movt	r3, #514	; 0x202
80100b5a:	2200      	movs	r2, #0
80100b5c:	f2c0 2202 	movt	r2, #514	; 0x202
80100b60:	f8d2 2080 	ldr.w	r2, [r2, #128]	; 0x80
80100b64:	f422 4280 	bic.w	r2, r2, #16384	; 0x4000
80100b68:	f8c3 2080 	str.w	r2, [r3, #128]	; 0x80
80100b6c:	f44f 4134 	mov.w	r1, #46080	; 0xb400
80100b70:	f2c0 41c4 	movt	r1, #1220	; 0x4c4
80100b74:	f44f 30e1 	mov.w	r0, #115200	; 0x1c200
80100b78:	f7ff fe08 	bl	8010078c <UART_SetBaudRate>
80100b7c:	2300      	movs	r3, #0
80100b7e:	f2c0 2302 	movt	r3, #514	; 0x202
80100b82:	2200      	movs	r2, #0
80100b84:	f2c0 2202 	movt	r2, #514	; 0x202
80100b88:	f8d2 2080 	ldr.w	r2, [r2, #128]	; 0x80
80100b8c:	f042 0201 	orr.w	r2, r2, #1
80100b90:	f8c3 2080 	str.w	r2, [r3, #128]	; 0x80
80100b94:	bf00      	nop
80100b96:	bd80      	pop	{r7, pc}

80100b98 <putchar>:
80100b98:	b480      	push	{r7}
80100b9a:	b083      	sub	sp, #12
80100b9c:	af00      	add	r7, sp, #0
80100b9e:	6078      	str	r0, [r7, #4]
80100ba0:	bf00      	nop
80100ba2:	2300      	movs	r3, #0
80100ba4:	f2c0 2302 	movt	r3, #514	; 0x202
80100ba8:	f8d3 3098 	ldr.w	r3, [r3, #152]	; 0x98
80100bac:	f003 0308 	and.w	r3, r3, #8
80100bb0:	2b00      	cmp	r3, #0
80100bb2:	d0f6      	beq.n	80100ba2 <putchar+0xa>
80100bb4:	2300      	movs	r3, #0
80100bb6:	f2c0 2302 	movt	r3, #514	; 0x202
80100bba:	687a      	ldr	r2, [r7, #4]
80100bbc:	b2d2      	uxtb	r2, r2
80100bbe:	641a      	str	r2, [r3, #64]	; 0x40
80100bc0:	bf00      	nop
80100bc2:	370c      	adds	r7, #12
80100bc4:	46bd      	mov	sp, r7
80100bc6:	f85d 7b04 	ldr.w	r7, [sp], #4
80100bca:	4770      	bx	lr

80100bcc <getchar>:
80100bcc:	b480      	push	{r7}
80100bce:	af00      	add	r7, sp, #0
80100bd0:	bf00      	nop
80100bd2:	2300      	movs	r3, #0
80100bd4:	f2c0 2302 	movt	r3, #514	; 0x202
80100bd8:	f8d3 3098 	ldr.w	r3, [r3, #152]	; 0x98
80100bdc:	f003 0301 	and.w	r3, r3, #1
80100be0:	2b00      	cmp	r3, #0
80100be2:	d0f6      	beq.n	80100bd2 <getchar+0x6>
80100be4:	2300      	movs	r3, #0
80100be6:	f2c0 2302 	movt	r3, #514	; 0x202
80100bea:	681b      	ldr	r3, [r3, #0]
80100bec:	b2db      	uxtb	r3, r3
80100bee:	4618      	mov	r0, r3
80100bf0:	46bd      	mov	sp, r7
80100bf2:	f85d 7b04 	ldr.w	r7, [sp], #4
80100bf6:	4770      	bx	lr

80100bf8 <puts>:
80100bf8:	b580      	push	{r7, lr}
80100bfa:	b082      	sub	sp, #8
80100bfc:	af00      	add	r7, sp, #0
80100bfe:	6078      	str	r0, [r7, #4]
80100c00:	e007      	b.n	80100c12 <puts+0x1a>
80100c02:	687b      	ldr	r3, [r7, #4]
80100c04:	781b      	ldrb	r3, [r3, #0]
80100c06:	4618      	mov	r0, r3
80100c08:	f7ff ffc6 	bl	80100b98 <putchar>
80100c0c:	687b      	ldr	r3, [r7, #4]
80100c0e:	3301      	adds	r3, #1
80100c10:	607b      	str	r3, [r7, #4]
80100c12:	687b      	ldr	r3, [r7, #4]
80100c14:	781b      	ldrb	r3, [r3, #0]
80100c16:	2b00      	cmp	r3, #0
80100c18:	d1f3      	bne.n	80100c02 <puts+0xa>
80100c1a:	bf00      	nop
80100c1c:	3708      	adds	r7, #8
80100c1e:	46bd      	mov	sp, r7
80100c20:	bd80      	pop	{r7, pc}
80100c22:	bf00      	nop

80100c24 <raise>:
80100c24:	b480      	push	{r7}
80100c26:	b083      	sub	sp, #12
80100c28:	af00      	add	r7, sp, #0
80100c2a:	6078      	str	r0, [r7, #4]
80100c2c:	2300      	movs	r3, #0
80100c2e:	4618      	mov	r0, r3
80100c30:	370c      	adds	r7, #12
80100c32:	46bd      	mov	sp, r7
80100c34:	f85d 7b04 	ldr.w	r7, [sp], #4
80100c38:	4770      	bx	lr
	...

80100c3c <outc>:
80100c3c:	b580      	push	{r7, lr}
80100c3e:	b082      	sub	sp, #8
80100c40:	af00      	add	r7, sp, #0
80100c42:	6078      	str	r0, [r7, #4]
80100c44:	6878      	ldr	r0, [r7, #4]
80100c46:	f7ff ffa7 	bl	80100b98 <putchar>
80100c4a:	2300      	movs	r3, #0
80100c4c:	4618      	mov	r0, r3
80100c4e:	3708      	adds	r7, #8
80100c50:	46bd      	mov	sp, r7
80100c52:	bd80      	pop	{r7, pc}

80100c54 <outs>:
80100c54:	b580      	push	{r7, lr}
80100c56:	b082      	sub	sp, #8
80100c58:	af00      	add	r7, sp, #0
80100c5a:	6078      	str	r0, [r7, #4]
80100c5c:	e006      	b.n	80100c6c <outs+0x18>
80100c5e:	687b      	ldr	r3, [r7, #4]
80100c60:	1c5a      	adds	r2, r3, #1
80100c62:	607a      	str	r2, [r7, #4]
80100c64:	781b      	ldrb	r3, [r3, #0]
80100c66:	4618      	mov	r0, r3
80100c68:	f7ff ff96 	bl	80100b98 <putchar>
80100c6c:	687b      	ldr	r3, [r7, #4]
80100c6e:	781b      	ldrb	r3, [r3, #0]
80100c70:	2b00      	cmp	r3, #0
80100c72:	d1f4      	bne.n	80100c5e <outs+0xa>
80100c74:	2300      	movs	r3, #0
80100c76:	4618      	mov	r0, r3
80100c78:	3708      	adds	r7, #8
80100c7a:	46bd      	mov	sp, r7
80100c7c:	bd80      	pop	{r7, pc}

80100c7e <out_num>:
80100c7e:	b590      	push	{r4, r7, lr}
80100c80:	b099      	sub	sp, #100	; 0x64
80100c82:	af00      	add	r7, sp, #0
80100c84:	e9c7 0102 	strd	r0, r1, [r7, #8]
80100c88:	607a      	str	r2, [r7, #4]
80100c8a:	70fb      	strb	r3, [r7, #3]
80100c8c:	2300      	movs	r3, #0
80100c8e:	65fb      	str	r3, [r7, #92]	; 0x5c
80100c90:	f107 0310 	add.w	r3, r7, #16
80100c94:	3340      	adds	r3, #64	; 0x40
80100c96:	65bb      	str	r3, [r7, #88]	; 0x58
80100c98:	2300      	movs	r3, #0
80100c9a:	657b      	str	r3, [r7, #84]	; 0x54
80100c9c:	2300      	movs	r3, #0
80100c9e:	653b      	str	r3, [r7, #80]	; 0x50
80100ca0:	6dbb      	ldr	r3, [r7, #88]	; 0x58
80100ca2:	3b01      	subs	r3, #1
80100ca4:	65bb      	str	r3, [r7, #88]	; 0x58
80100ca6:	6dbb      	ldr	r3, [r7, #88]	; 0x58
80100ca8:	2200      	movs	r2, #0
80100caa:	701a      	strb	r2, [r3, #0]
80100cac:	e9d7 3402 	ldrd	r3, r4, [r7, #8]
80100cb0:	2b00      	cmp	r3, #0
80100cb2:	f174 0300 	sbcs.w	r3, r4, #0
80100cb6:	da03      	bge.n	80100cc0 <out_num+0x42>
80100cb8:	68bb      	ldr	r3, [r7, #8]
80100cba:	425b      	negs	r3, r3
80100cbc:	65fb      	str	r3, [r7, #92]	; 0x5c
80100cbe:	e001      	b.n	80100cc4 <out_num+0x46>
80100cc0:	68bb      	ldr	r3, [r7, #8]
80100cc2:	65fb      	str	r3, [r7, #92]	; 0x5c
80100cc4:	6dbb      	ldr	r3, [r7, #88]	; 0x58
80100cc6:	3b01      	subs	r3, #1
80100cc8:	65bb      	str	r3, [r7, #88]	; 0x58
80100cca:	687a      	ldr	r2, [r7, #4]
80100ccc:	6dfb      	ldr	r3, [r7, #92]	; 0x5c
80100cce:	4611      	mov	r1, r2
80100cd0:	4618      	mov	r0, r3
80100cd2:	f000 fbd7 	bl	80101484 <__aeabi_uidivmod>
80100cd6:	460b      	mov	r3, r1
80100cd8:	461a      	mov	r2, r3
80100cda:	f241 73c4 	movw	r3, #6084	; 0x17c4
80100cde:	f2c8 0310 	movt	r3, #32784	; 0x8010
80100ce2:	5c9a      	ldrb	r2, [r3, r2]
80100ce4:	6dbb      	ldr	r3, [r7, #88]	; 0x58
80100ce6:	701a      	strb	r2, [r3, #0]
80100ce8:	6d7b      	ldr	r3, [r7, #84]	; 0x54
80100cea:	3301      	adds	r3, #1
80100cec:	657b      	str	r3, [r7, #84]	; 0x54
80100cee:	687b      	ldr	r3, [r7, #4]
80100cf0:	4619      	mov	r1, r3
80100cf2:	6df8      	ldr	r0, [r7, #92]	; 0x5c
80100cf4:	f000 fa98 	bl	80101228 <__aeabi_uidiv>
80100cf8:	4603      	mov	r3, r0
80100cfa:	65fb      	str	r3, [r7, #92]	; 0x5c
80100cfc:	6dfb      	ldr	r3, [r7, #92]	; 0x5c
80100cfe:	2b00      	cmp	r3, #0
80100d00:	d1e0      	bne.n	80100cc4 <out_num+0x46>
80100d02:	6f3b      	ldr	r3, [r7, #112]	; 0x70
80100d04:	2b00      	cmp	r3, #0
80100d06:	d014      	beq.n	80100d32 <out_num+0xb4>
80100d08:	6d7a      	ldr	r2, [r7, #84]	; 0x54
80100d0a:	6f3b      	ldr	r3, [r7, #112]	; 0x70
80100d0c:	429a      	cmp	r2, r3
80100d0e:	da10      	bge.n	80100d32 <out_num+0xb4>
80100d10:	6f3a      	ldr	r2, [r7, #112]	; 0x70
80100d12:	6d7b      	ldr	r3, [r7, #84]	; 0x54
80100d14:	1ad3      	subs	r3, r2, r3
80100d16:	653b      	str	r3, [r7, #80]	; 0x50
80100d18:	e008      	b.n	80100d2c <out_num+0xae>
80100d1a:	6dbb      	ldr	r3, [r7, #88]	; 0x58
80100d1c:	3b01      	subs	r3, #1
80100d1e:	65bb      	str	r3, [r7, #88]	; 0x58
80100d20:	6dbb      	ldr	r3, [r7, #88]	; 0x58
80100d22:	78fa      	ldrb	r2, [r7, #3]
80100d24:	701a      	strb	r2, [r3, #0]
80100d26:	6d3b      	ldr	r3, [r7, #80]	; 0x50
80100d28:	3b01      	subs	r3, #1
80100d2a:	653b      	str	r3, [r7, #80]	; 0x50
80100d2c:	6d3b      	ldr	r3, [r7, #80]	; 0x50
80100d2e:	2b00      	cmp	r3, #0
80100d30:	d1f3      	bne.n	80100d1a <out_num+0x9c>
80100d32:	e9d7 3402 	ldrd	r3, r4, [r7, #8]
80100d36:	2b00      	cmp	r3, #0
80100d38:	f174 0300 	sbcs.w	r3, r4, #0
80100d3c:	da05      	bge.n	80100d4a <out_num+0xcc>
80100d3e:	6dbb      	ldr	r3, [r7, #88]	; 0x58
80100d40:	3b01      	subs	r3, #1
80100d42:	65bb      	str	r3, [r7, #88]	; 0x58
80100d44:	6dbb      	ldr	r3, [r7, #88]	; 0x58
80100d46:	222d      	movs	r2, #45	; 0x2d
80100d48:	701a      	strb	r2, [r3, #0]
80100d4a:	6db8      	ldr	r0, [r7, #88]	; 0x58
80100d4c:	f7ff ff82 	bl	80100c54 <outs>
80100d50:	4603      	mov	r3, r0
80100d52:	4618      	mov	r0, r3
80100d54:	3764      	adds	r7, #100	; 0x64
80100d56:	46bd      	mov	sp, r7
80100d58:	bd90      	pop	{r4, r7, pc}

80100d5a <my_vprintf>:
80100d5a:	b580      	push	{r7, lr}
80100d5c:	b086      	sub	sp, #24
80100d5e:	af02      	add	r7, sp, #8
80100d60:	6078      	str	r0, [r7, #4]
80100d62:	6039      	str	r1, [r7, #0]
80100d64:	2320      	movs	r3, #32
80100d66:	72fb      	strb	r3, [r7, #11]
80100d68:	2300      	movs	r3, #0
80100d6a:	60fb      	str	r3, [r7, #12]
80100d6c:	e0c7      	b.n	80100efe <my_vprintf+0x1a4>
80100d6e:	687b      	ldr	r3, [r7, #4]
80100d70:	781b      	ldrb	r3, [r3, #0]
80100d72:	2b25      	cmp	r3, #37	; 0x25
80100d74:	d005      	beq.n	80100d82 <my_vprintf+0x28>
80100d76:	687b      	ldr	r3, [r7, #4]
80100d78:	781b      	ldrb	r3, [r3, #0]
80100d7a:	4618      	mov	r0, r3
80100d7c:	f7ff ff5e 	bl	80100c3c <outc>
80100d80:	e0ba      	b.n	80100ef8 <my_vprintf+0x19e>
80100d82:	687b      	ldr	r3, [r7, #4]
80100d84:	3301      	adds	r3, #1
80100d86:	607b      	str	r3, [r7, #4]
80100d88:	687b      	ldr	r3, [r7, #4]
80100d8a:	781b      	ldrb	r3, [r3, #0]
80100d8c:	2b30      	cmp	r3, #48	; 0x30
80100d8e:	d104      	bne.n	80100d9a <my_vprintf+0x40>
80100d90:	2330      	movs	r3, #48	; 0x30
80100d92:	72fb      	strb	r3, [r7, #11]
80100d94:	687b      	ldr	r3, [r7, #4]
80100d96:	3301      	adds	r3, #1
80100d98:	607b      	str	r3, [r7, #4]
80100d9a:	2320      	movs	r3, #32
80100d9c:	72fb      	strb	r3, [r7, #11]
80100d9e:	2300      	movs	r3, #0
80100da0:	60fb      	str	r3, [r7, #12]
80100da2:	e00e      	b.n	80100dc2 <my_vprintf+0x68>
80100da4:	68fa      	ldr	r2, [r7, #12]
80100da6:	4613      	mov	r3, r2
80100da8:	009b      	lsls	r3, r3, #2
80100daa:	4413      	add	r3, r2
80100dac:	005b      	lsls	r3, r3, #1
80100dae:	60fb      	str	r3, [r7, #12]
80100db0:	687b      	ldr	r3, [r7, #4]
80100db2:	781b      	ldrb	r3, [r3, #0]
80100db4:	3b30      	subs	r3, #48	; 0x30
80100db6:	68fa      	ldr	r2, [r7, #12]
80100db8:	4413      	add	r3, r2
80100dba:	60fb      	str	r3, [r7, #12]
80100dbc:	687b      	ldr	r3, [r7, #4]
80100dbe:	3301      	adds	r3, #1
80100dc0:	607b      	str	r3, [r7, #4]
80100dc2:	687b      	ldr	r3, [r7, #4]
80100dc4:	781b      	ldrb	r3, [r3, #0]
80100dc6:	2b2f      	cmp	r3, #47	; 0x2f
80100dc8:	d903      	bls.n	80100dd2 <my_vprintf+0x78>
80100dca:	687b      	ldr	r3, [r7, #4]
80100dcc:	781b      	ldrb	r3, [r3, #0]
80100dce:	2b39      	cmp	r3, #57	; 0x39
80100dd0:	d9e8      	bls.n	80100da4 <my_vprintf+0x4a>
80100dd2:	687b      	ldr	r3, [r7, #4]
80100dd4:	781b      	ldrb	r3, [r3, #0]
80100dd6:	3b63      	subs	r3, #99	; 0x63
80100dd8:	2b15      	cmp	r3, #21
80100dda:	f200 8087 	bhi.w	80100eec <my_vprintf+0x192>
80100dde:	a201      	add	r2, pc, #4	; (adr r2, 80100de4 <my_vprintf+0x8a>)
80100de0:	f852 f023 	ldr.w	pc, [r2, r3, lsl #2]
80100de4:	80100ec5 	andshi	r0, r0, r5, asr #29
80100de8:	80100e3d 	andshi	r0, r0, sp, lsr lr
80100dec:	80100eed 	andshi	r0, r0, sp, ror #29
80100df0:	80100eed 	andshi	r0, r0, sp, ror #29
80100df4:	80100eed 	andshi	r0, r0, sp, ror #29
80100df8:	80100eed 	andshi	r0, r0, sp, ror #29
80100dfc:	80100eed 	andshi	r0, r0, sp, ror #29
80100e00:	80100eed 	andshi	r0, r0, sp, ror #29
80100e04:	80100eed 	andshi	r0, r0, sp, ror #29
80100e08:	80100eed 	andshi	r0, r0, sp, ror #29
80100e0c:	80100eed 	andshi	r0, r0, sp, ror #29
80100e10:	80100eed 	andshi	r0, r0, sp, ror #29
80100e14:	80100e5f 	andshi	r0, r0, pc, asr lr
80100e18:	80100eed 	andshi	r0, r0, sp, ror #29
80100e1c:	80100eed 	andshi	r0, r0, sp, ror #29
80100e20:	80100eed 	andshi	r0, r0, sp, ror #29
80100e24:	80100ed9 			; <UNDEFINED> instruction: 0x80100ed9
80100e28:	80100eed 	andshi	r0, r0, sp, ror #29
80100e2c:	80100e81 	andshi	r0, r0, r1, lsl #29
80100e30:	80100eed 	andshi	r0, r0, sp, ror #29
80100e34:	80100eed 	andshi	r0, r0, sp, ror #29
80100e38:	80100ea3 	andshi	r0, r0, r3, lsr #29
80100e3c:	683b      	ldr	r3, [r7, #0]
80100e3e:	3304      	adds	r3, #4
80100e40:	603b      	str	r3, [r7, #0]
80100e42:	683b      	ldr	r3, [r7, #0]
80100e44:	3b04      	subs	r3, #4
80100e46:	681b      	ldr	r3, [r3, #0]
80100e48:	4618      	mov	r0, r3
80100e4a:	ea4f 71e0 	mov.w	r1, r0, asr #31
80100e4e:	7afa      	ldrb	r2, [r7, #11]
80100e50:	68fb      	ldr	r3, [r7, #12]
80100e52:	9300      	str	r3, [sp, #0]
80100e54:	4613      	mov	r3, r2
80100e56:	220a      	movs	r2, #10
80100e58:	f7ff ff11 	bl	80100c7e <out_num>
80100e5c:	e04c      	b.n	80100ef8 <my_vprintf+0x19e>
80100e5e:	683b      	ldr	r3, [r7, #0]
80100e60:	3304      	adds	r3, #4
80100e62:	603b      	str	r3, [r7, #0]
80100e64:	683b      	ldr	r3, [r7, #0]
80100e66:	3b04      	subs	r3, #4
80100e68:	681b      	ldr	r3, [r3, #0]
80100e6a:	4618      	mov	r0, r3
80100e6c:	f04f 0100 	mov.w	r1, #0
80100e70:	7afa      	ldrb	r2, [r7, #11]
80100e72:	68fb      	ldr	r3, [r7, #12]
80100e74:	9300      	str	r3, [sp, #0]
80100e76:	4613      	mov	r3, r2
80100e78:	2208      	movs	r2, #8
80100e7a:	f7ff ff00 	bl	80100c7e <out_num>
80100e7e:	e03b      	b.n	80100ef8 <my_vprintf+0x19e>
80100e80:	683b      	ldr	r3, [r7, #0]
80100e82:	3304      	adds	r3, #4
80100e84:	603b      	str	r3, [r7, #0]
80100e86:	683b      	ldr	r3, [r7, #0]
80100e88:	3b04      	subs	r3, #4
80100e8a:	681b      	ldr	r3, [r3, #0]
80100e8c:	4618      	mov	r0, r3
80100e8e:	f04f 0100 	mov.w	r1, #0
80100e92:	7afa      	ldrb	r2, [r7, #11]
80100e94:	68fb      	ldr	r3, [r7, #12]
80100e96:	9300      	str	r3, [sp, #0]
80100e98:	4613      	mov	r3, r2
80100e9a:	220a      	movs	r2, #10
80100e9c:	f7ff feef 	bl	80100c7e <out_num>
80100ea0:	e02a      	b.n	80100ef8 <my_vprintf+0x19e>
80100ea2:	683b      	ldr	r3, [r7, #0]
80100ea4:	3304      	adds	r3, #4
80100ea6:	603b      	str	r3, [r7, #0]
80100ea8:	683b      	ldr	r3, [r7, #0]
80100eaa:	3b04      	subs	r3, #4
80100eac:	681b      	ldr	r3, [r3, #0]
80100eae:	4618      	mov	r0, r3
80100eb0:	f04f 0100 	mov.w	r1, #0
80100eb4:	7afa      	ldrb	r2, [r7, #11]
80100eb6:	68fb      	ldr	r3, [r7, #12]
80100eb8:	9300      	str	r3, [sp, #0]
80100eba:	4613      	mov	r3, r2
80100ebc:	2210      	movs	r2, #16
80100ebe:	f7ff fede 	bl	80100c7e <out_num>
80100ec2:	e019      	b.n	80100ef8 <my_vprintf+0x19e>
80100ec4:	683b      	ldr	r3, [r7, #0]
80100ec6:	3304      	adds	r3, #4
80100ec8:	603b      	str	r3, [r7, #0]
80100eca:	683b      	ldr	r3, [r7, #0]
80100ecc:	3b04      	subs	r3, #4
80100ece:	681b      	ldr	r3, [r3, #0]
80100ed0:	4618      	mov	r0, r3
80100ed2:	f7ff feb3 	bl	80100c3c <outc>
80100ed6:	e00f      	b.n	80100ef8 <my_vprintf+0x19e>
80100ed8:	683b      	ldr	r3, [r7, #0]
80100eda:	3304      	adds	r3, #4
80100edc:	603b      	str	r3, [r7, #0]
80100ede:	683b      	ldr	r3, [r7, #0]
80100ee0:	3b04      	subs	r3, #4
80100ee2:	681b      	ldr	r3, [r3, #0]
80100ee4:	4618      	mov	r0, r3
80100ee6:	f7ff feb5 	bl	80100c54 <outs>
80100eea:	e005      	b.n	80100ef8 <my_vprintf+0x19e>
80100eec:	687b      	ldr	r3, [r7, #4]
80100eee:	781b      	ldrb	r3, [r3, #0]
80100ef0:	4618      	mov	r0, r3
80100ef2:	f7ff fea3 	bl	80100c3c <outc>
80100ef6:	bf00      	nop
80100ef8:	687b      	ldr	r3, [r7, #4]
80100efa:	3301      	adds	r3, #1
80100efc:	607b      	str	r3, [r7, #4]
80100efe:	687b      	ldr	r3, [r7, #4]
80100f00:	781b      	ldrb	r3, [r3, #0]
80100f02:	2b00      	cmp	r3, #0
80100f04:	f47f af33 	bne.w	80100d6e <my_vprintf+0x14>
80100f08:	2300      	movs	r3, #0
80100f0a:	4618      	mov	r0, r3
80100f0c:	3710      	adds	r7, #16
80100f0e:	46bd      	mov	sp, r7
80100f10:	bd80      	pop	{r7, pc}

80100f12 <printf>:
80100f12:	b40f      	push	{r0, r1, r2, r3}
80100f14:	b580      	push	{r7, lr}
80100f16:	b082      	sub	sp, #8
80100f18:	af00      	add	r7, sp, #0
80100f1a:	f107 0314 	add.w	r3, r7, #20
80100f1e:	607b      	str	r3, [r7, #4]
80100f20:	693b      	ldr	r3, [r7, #16]
80100f22:	6879      	ldr	r1, [r7, #4]
80100f24:	4618      	mov	r0, r3
80100f26:	f7ff ff18 	bl	80100d5a <my_vprintf>
80100f2a:	2300      	movs	r3, #0
80100f2c:	607b      	str	r3, [r7, #4]
80100f2e:	2300      	movs	r3, #0
80100f30:	4618      	mov	r0, r3
80100f32:	3708      	adds	r7, #8
80100f34:	46bd      	mov	sp, r7
80100f36:	e8bd 4080 	ldmia.w	sp!, {r7, lr}
80100f3a:	b004      	add	sp, #16
80100f3c:	4770      	bx	lr

80100f3e <my_printf_test>:
80100f3e:	b580      	push	{r7, lr}
80100f40:	af00      	add	r7, sp, #0
80100f42:	f241 603c 	movw	r0, #5692	; 0x163c
80100f46:	f2c8 0010 	movt	r0, #32784	; 0x8010
80100f4a:	f7ff ffe2 	bl	80100f12 <printf>
80100f4e:	2261      	movs	r2, #97	; 0x61
80100f50:	2141      	movs	r1, #65	; 0x41
80100f52:	f241 6068 	movw	r0, #5736	; 0x1668
80100f56:	f2c8 0010 	movt	r0, #32784	; 0x8010
80100f5a:	f7ff ffda 	bl	80100f12 <printf>
80100f5e:	f24e 2140 	movw	r1, #57920	; 0xe240
80100f62:	f2c0 0101 	movt	r1, #1
80100f66:	f241 6088 	movw	r0, #5768	; 0x1688
80100f6a:	f2c8 0010 	movt	r0, #32784	; 0x8010
80100f6e:	f7ff ffd0 	bl	80100f12 <printf>
80100f72:	f44f 51ee 	mov.w	r1, #7616	; 0x1dc0
80100f76:	f6cf 71fe 	movt	r1, #65534	; 0xfffe
80100f7a:	f241 6088 	movw	r0, #5768	; 0x1688
80100f7e:	f2c8 0010 	movt	r0, #32784	; 0x8010
80100f82:	f7ff ffc6 	bl	80100f12 <printf>
80100f86:	f245 51aa 	movw	r1, #21930	; 0x55aa
80100f8a:	f2c5 51aa 	movt	r1, #21930	; 0x55aa
80100f8e:	f241 60a4 	movw	r0, #5796	; 0x16a4
80100f92:	f2c8 0010 	movt	r0, #32784	; 0x8010
80100f96:	f7ff ffbc 	bl	80100f12 <printf>
80100f9a:	f241 61c0 	movw	r1, #5824	; 0x16c0
80100f9e:	f2c8 0110 	movt	r1, #32784	; 0x8010
80100fa2:	f241 60d0 	movw	r0, #5840	; 0x16d0
80100fa6:	f2c8 0010 	movt	r0, #32784	; 0x8010
80100faa:	f7ff ffb2 	bl	80100f12 <printf>
80100fae:	f243 0139 	movw	r1, #12345	; 0x3039
80100fb2:	f241 60ec 	movw	r0, #5868	; 0x16ec
80100fb6:	f2c8 0010 	movt	r0, #32784	; 0x8010
80100fba:	f7ff ffaa 	bl	80100f12 <printf>
80100fbe:	f243 0139 	movw	r1, #12345	; 0x3039
80100fc2:	f241 60f8 	movw	r0, #5880	; 0x16f8
80100fc6:	f2c8 0010 	movt	r0, #32784	; 0x8010
80100fca:	f7ff ffa2 	bl	80100f12 <printf>
80100fce:	f242 3145 	movw	r1, #9029	; 0x2345
80100fd2:	f2c0 0101 	movt	r1, #1
80100fd6:	f241 7004 	movw	r0, #5892	; 0x1704
80100fda:	f2c8 0010 	movt	r0, #32784	; 0x8010
80100fde:	f7ff ff98 	bl	80100f12 <printf>
80100fe2:	f242 3145 	movw	r1, #9029	; 0x2345
80100fe6:	f2c0 0101 	movt	r1, #1
80100fea:	f241 7014 	movw	r0, #5908	; 0x1714
80100fee:	f2c8 0010 	movt	r0, #32784	; 0x8010
80100ff2:	f7ff ff8e 	bl	80100f12 <printf>
80100ff6:	2101      	movs	r1, #1
80100ff8:	f241 7020 	movw	r0, #5920	; 0x1720
80100ffc:	f2c8 0010 	movt	r0, #32784	; 0x8010
80101000:	f7ff ff87 	bl	80100f12 <printf>
80101004:	2101      	movs	r1, #1
80101006:	f241 7030 	movw	r0, #5936	; 0x1730
8010100a:	f2c8 0010 	movt	r0, #32784	; 0x8010
8010100e:	f7ff ff80 	bl	80100f12 <printf>
80101012:	2101      	movs	r1, #1
80101014:	f241 703c 	movw	r0, #5948	; 0x173c
80101018:	f2c8 0010 	movt	r0, #32784	; 0x8010
8010101c:	f7ff ff79 	bl	80100f12 <printf>
80101020:	2101      	movs	r1, #1
80101022:	f241 7048 	movw	r0, #5960	; 0x1748
80101026:	f2c8 0010 	movt	r0, #32784	; 0x8010
8010102a:	f7ff ff72 	bl	80100f12 <printf>
8010102e:	2300      	movs	r3, #0
80101030:	4618      	mov	r0, r3
80101032:	bd80      	pop	{r7, pc}

80101034 <get_gic_base>:
80101034:	b480      	push	{r7}
80101036:	b083      	sub	sp, #12
80101038:	af00      	add	r7, sp, #0
8010103a:	ee9f 3f10 	mrc	15, 4, r3, cr15, cr0, {0}
8010103e:	607b      	str	r3, [r7, #4]
80101040:	687b      	ldr	r3, [r7, #4]
80101042:	4618      	mov	r0, r3
80101044:	370c      	adds	r7, #12
80101046:	46bd      	mov	sp, r7
80101048:	f85d 7b04 	ldr.w	r7, [sp], #4
8010104c:	4770      	bx	lr

8010104e <gic_init>:
8010104e:	b580      	push	{r7, lr}
80101050:	b084      	sub	sp, #16
80101052:	af00      	add	r7, sp, #0
80101054:	f7ff ffee 	bl	80101034 <get_gic_base>
80101058:	60b8      	str	r0, [r7, #8]
8010105a:	68bb      	ldr	r3, [r7, #8]
8010105c:	f503 5380 	add.w	r3, r3, #4096	; 0x1000
80101060:	3304      	adds	r3, #4
80101062:	681b      	ldr	r3, [r3, #0]
80101064:	f003 031f 	and.w	r3, r3, #31
80101068:	3301      	adds	r3, #1
8010106a:	607b      	str	r3, [r7, #4]
8010106c:	2300      	movs	r3, #0
8010106e:	60fb      	str	r3, [r7, #12]
80101070:	e00a      	b.n	80101088 <gic_init+0x3a>
80101072:	68bb      	ldr	r3, [r7, #8]
80101074:	68fa      	ldr	r2, [r7, #12]
80101076:	f502 628c 	add.w	r2, r2, #1120	; 0x460
8010107a:	f04f 31ff 	mov.w	r1, #4294967295	; 0xffffffff
8010107e:	f843 1022 	str.w	r1, [r3, r2, lsl #2]
80101082:	68fb      	ldr	r3, [r7, #12]
80101084:	3301      	adds	r3, #1
80101086:	60fb      	str	r3, [r7, #12]
80101088:	68fa      	ldr	r2, [r7, #12]
8010108a:	687b      	ldr	r3, [r7, #4]
8010108c:	429a      	cmp	r2, r3
8010108e:	d3f0      	bcc.n	80101072 <gic_init+0x24>
80101090:	68bb      	ldr	r3, [r7, #8]
80101092:	f503 5300 	add.w	r3, r3, #8192	; 0x2000
80101096:	3304      	adds	r3, #4
80101098:	22f8      	movs	r2, #248	; 0xf8
8010109a:	601a      	str	r2, [r3, #0]
8010109c:	68bb      	ldr	r3, [r7, #8]
8010109e:	f503 5300 	add.w	r3, r3, #8192	; 0x2000
801010a2:	3308      	adds	r3, #8
801010a4:	2202      	movs	r2, #2
801010a6:	601a      	str	r2, [r3, #0]
801010a8:	68bb      	ldr	r3, [r7, #8]
801010aa:	f503 5380 	add.w	r3, r3, #4096	; 0x1000
801010ae:	2201      	movs	r2, #1
801010b0:	601a      	str	r2, [r3, #0]
801010b2:	68bb      	ldr	r3, [r7, #8]
801010b4:	f503 5300 	add.w	r3, r3, #8192	; 0x2000
801010b8:	2201      	movs	r2, #1
801010ba:	601a      	str	r2, [r3, #0]
801010bc:	bf00      	nop
801010be:	3710      	adds	r7, #16
801010c0:	46bd      	mov	sp, r7
801010c2:	bd80      	pop	{r7, pc}

801010c4 <gic_enable_irq>:
801010c4:	b580      	push	{r7, lr}
801010c6:	b084      	sub	sp, #16
801010c8:	af00      	add	r7, sp, #0
801010ca:	6078      	str	r0, [r7, #4]
801010cc:	f7ff ffb2 	bl	80101034 <get_gic_base>
801010d0:	60f8      	str	r0, [r7, #12]
801010d2:	687b      	ldr	r3, [r7, #4]
801010d4:	115a      	asrs	r2, r3, #5
801010d6:	687b      	ldr	r3, [r7, #4]
801010d8:	f003 031f 	and.w	r3, r3, #31
801010dc:	2101      	movs	r1, #1
801010de:	4099      	lsls	r1, r3
801010e0:	68fb      	ldr	r3, [r7, #12]
801010e2:	f502 6288 	add.w	r2, r2, #1088	; 0x440
801010e6:	f843 1022 	str.w	r1, [r3, r2, lsl #2]
801010ea:	bf00      	nop
801010ec:	3710      	adds	r7, #16
801010ee:	46bd      	mov	sp, r7
801010f0:	bd80      	pop	{r7, pc}

801010f2 <gic_disable_irq>:
801010f2:	b580      	push	{r7, lr}
801010f4:	b084      	sub	sp, #16
801010f6:	af00      	add	r7, sp, #0
801010f8:	6078      	str	r0, [r7, #4]
801010fa:	f7ff ff9b 	bl	80101034 <get_gic_base>
801010fe:	60f8      	str	r0, [r7, #12]
80101100:	687b      	ldr	r3, [r7, #4]
80101102:	115a      	asrs	r2, r3, #5
80101104:	687b      	ldr	r3, [r7, #4]
80101106:	f003 031f 	and.w	r3, r3, #31
8010110a:	2101      	movs	r1, #1
8010110c:	4099      	lsls	r1, r3
8010110e:	68fb      	ldr	r3, [r7, #12]
80101110:	f502 628c 	add.w	r2, r2, #1120	; 0x460
80101114:	f843 1022 	str.w	r1, [r3, r2, lsl #2]
80101118:	bf00      	nop
8010111a:	3710      	adds	r7, #16
8010111c:	46bd      	mov	sp, r7
8010111e:	bd80      	pop	{r7, pc}

80101120 <handle_irq_c>:
80101120:	b580      	push	{r7, lr}
80101122:	b082      	sub	sp, #8
80101124:	af00      	add	r7, sp, #0
80101126:	f7ff ff85 	bl	80101034 <get_gic_base>
8010112a:	6078      	str	r0, [r7, #4]
8010112c:	687b      	ldr	r3, [r7, #4]
8010112e:	f503 5300 	add.w	r3, r3, #8192	; 0x2000
80101132:	330c      	adds	r3, #12
80101134:	681b      	ldr	r3, [r3, #0]
80101136:	603b      	str	r3, [r7, #0]
80101138:	6839      	ldr	r1, [r7, #0]
8010113a:	f241 7054 	movw	r0, #5972	; 0x1754
8010113e:	f2c8 0010 	movt	r0, #32784	; 0x8010
80101142:	f7ff fee6 	bl	80100f12 <printf>
80101146:	683b      	ldr	r3, [r7, #0]
80101148:	2b68      	cmp	r3, #104	; 0x68
8010114a:	d03e      	beq.n	801011ca <handle_irq_c+0xaa>
8010114c:	2b6a      	cmp	r3, #106	; 0x6a
8010114e:	d000      	beq.n	80101152 <handle_irq_c+0x32>
80101150:	e05f      	b.n	80101212 <handle_irq_c+0xf2>
80101152:	f44f 4340 	mov.w	r3, #49152	; 0xc000
80101156:	f2c0 230a 	movt	r3, #522	; 0x20a
8010115a:	681b      	ldr	r3, [r3, #0]
8010115c:	085b      	lsrs	r3, r3, #1
8010115e:	f003 0301 	and.w	r3, r3, #1
80101162:	2b00      	cmp	r3, #0
80101164:	d012      	beq.n	8010118c <handle_irq_c+0x6c>
80101166:	f241 706c 	movw	r0, #5996	; 0x176c
8010116a:	f2c8 0010 	movt	r0, #32784	; 0x8010
8010116e:	f7ff fed0 	bl	80100f12 <printf>
80101172:	f44f 4340 	mov.w	r3, #49152	; 0xc000
80101176:	f2c0 230a 	movt	r3, #522	; 0x20a
8010117a:	f44f 4240 	mov.w	r2, #49152	; 0xc000
8010117e:	f2c0 220a 	movt	r2, #522	; 0x20a
80101182:	6812      	ldr	r2, [r2, #0]
80101184:	f042 0208 	orr.w	r2, r2, #8
80101188:	601a      	str	r2, [r3, #0]
8010118a:	e011      	b.n	801011b0 <handle_irq_c+0x90>
8010118c:	f241 7080 	movw	r0, #6016	; 0x1780
80101190:	f2c8 0010 	movt	r0, #32784	; 0x8010
80101194:	f7ff febd 	bl	80100f12 <printf>
80101198:	f44f 4340 	mov.w	r3, #49152	; 0xc000
8010119c:	f2c0 230a 	movt	r3, #522	; 0x20a
801011a0:	f44f 4240 	mov.w	r2, #49152	; 0xc000
801011a4:	f2c0 220a 	movt	r2, #522	; 0x20a
801011a8:	6812      	ldr	r2, [r2, #0]
801011aa:	f022 0208 	bic.w	r2, r2, #8
801011ae:	601a      	str	r2, [r3, #0]
801011b0:	f44f 4340 	mov.w	r3, #49152	; 0xc000
801011b4:	f2c0 230a 	movt	r3, #522	; 0x20a
801011b8:	f44f 4240 	mov.w	r2, #49152	; 0xc000
801011bc:	f2c0 220a 	movt	r2, #522	; 0x20a
801011c0:	6992      	ldr	r2, [r2, #24]
801011c2:	f042 0202 	orr.w	r2, r2, #2
801011c6:	619a      	str	r2, [r3, #24]
801011c8:	e023      	b.n	80101212 <handle_irq_c+0xf2>
801011ca:	f44f 4300 	mov.w	r3, #32768	; 0x8000
801011ce:	f2c0 230a 	movt	r3, #522	; 0x20a
801011d2:	681b      	ldr	r3, [r3, #0]
801011d4:	0b9b      	lsrs	r3, r3, #14
801011d6:	f003 0301 	and.w	r3, r3, #1
801011da:	2b00      	cmp	r3, #0
801011dc:	d006      	beq.n	801011ec <handle_irq_c+0xcc>
801011de:	f241 7094 	movw	r0, #6036	; 0x1794
801011e2:	f2c8 0010 	movt	r0, #32784	; 0x8010
801011e6:	f7ff fe94 	bl	80100f12 <printf>
801011ea:	e005      	b.n	801011f8 <handle_irq_c+0xd8>
801011ec:	f241 70a8 	movw	r0, #6056	; 0x17a8
801011f0:	f2c8 0010 	movt	r0, #32784	; 0x8010
801011f4:	f7ff fe8d 	bl	80100f12 <printf>
801011f8:	f44f 4300 	mov.w	r3, #32768	; 0x8000
801011fc:	f2c0 230a 	movt	r3, #522	; 0x20a
80101200:	f44f 4200 	mov.w	r2, #32768	; 0x8000
80101204:	f2c0 220a 	movt	r2, #522	; 0x20a
80101208:	6992      	ldr	r2, [r2, #24]
8010120a:	f442 4280 	orr.w	r2, r2, #16384	; 0x4000
8010120e:	619a      	str	r2, [r3, #24]
80101210:	bf00      	nop
80101212:	683a      	ldr	r2, [r7, #0]
80101214:	687b      	ldr	r3, [r7, #4]
80101216:	f503 5300 	add.w	r3, r3, #8192	; 0x2000
8010121a:	3310      	adds	r3, #16
8010121c:	601a      	str	r2, [r3, #0]
8010121e:	bf00      	nop
80101220:	3708      	adds	r7, #8
80101222:	46bd      	mov	sp, r7
80101224:	bd80      	pop	{r7, pc}
	...

80101228 <__aeabi_uidiv>:
80101228:	1e4a      	subs	r2, r1, #1
8010122a:	bf08      	it	eq
8010122c:	4770      	bxeq	lr
8010122e:	f0c0 8124 	bcc.w	8010147a <__aeabi_uidiv+0x252>
80101232:	4288      	cmp	r0, r1
80101234:	f240 8116 	bls.w	80101464 <__aeabi_uidiv+0x23c>
80101238:	4211      	tst	r1, r2
8010123a:	f000 8117 	beq.w	8010146c <__aeabi_uidiv+0x244>
8010123e:	fab0 f380 	clz	r3, r0
80101242:	fab1 f281 	clz	r2, r1
80101246:	eba2 0303 	sub.w	r3, r2, r3
8010124a:	f1c3 031f 	rsb	r3, r3, #31
8010124e:	a204      	add	r2, pc, #16	; (adr r2, 80101260 <__aeabi_uidiv+0x38>)
80101250:	eb02 1303 	add.w	r3, r2, r3, lsl #4
80101254:	f04f 0200 	mov.w	r2, #0
80101258:	469f      	mov	pc, r3
8010125a:	bf00      	nop
8010125c:	f3af 8000 	nop.w
80101260:	ebb0 7fc1 	cmp.w	r0, r1, lsl #31
80101264:	bf00      	nop
80101266:	eb42 0202 	adc.w	r2, r2, r2
8010126a:	bf28      	it	cs
8010126c:	eba0 70c1 	subcs.w	r0, r0, r1, lsl #31
80101270:	ebb0 7f81 	cmp.w	r0, r1, lsl #30
80101274:	bf00      	nop
80101276:	eb42 0202 	adc.w	r2, r2, r2
8010127a:	bf28      	it	cs
8010127c:	eba0 7081 	subcs.w	r0, r0, r1, lsl #30
80101280:	ebb0 7f41 	cmp.w	r0, r1, lsl #29
80101284:	bf00      	nop
80101286:	eb42 0202 	adc.w	r2, r2, r2
8010128a:	bf28      	it	cs
8010128c:	eba0 7041 	subcs.w	r0, r0, r1, lsl #29
80101290:	ebb0 7f01 	cmp.w	r0, r1, lsl #28
80101294:	bf00      	nop
80101296:	eb42 0202 	adc.w	r2, r2, r2
8010129a:	bf28      	it	cs
8010129c:	eba0 7001 	subcs.w	r0, r0, r1, lsl #28
801012a0:	ebb0 6fc1 	cmp.w	r0, r1, lsl #27
801012a4:	bf00      	nop
801012a6:	eb42 0202 	adc.w	r2, r2, r2
801012aa:	bf28      	it	cs
801012ac:	eba0 60c1 	subcs.w	r0, r0, r1, lsl #27
801012b0:	ebb0 6f81 	cmp.w	r0, r1, lsl #26
801012b4:	bf00      	nop
801012b6:	eb42 0202 	adc.w	r2, r2, r2
801012ba:	bf28      	it	cs
801012bc:	eba0 6081 	subcs.w	r0, r0, r1, lsl #26
801012c0:	ebb0 6f41 	cmp.w	r0, r1, lsl #25
801012c4:	bf00      	nop
801012c6:	eb42 0202 	adc.w	r2, r2, r2
801012ca:	bf28      	it	cs
801012cc:	eba0 6041 	subcs.w	r0, r0, r1, lsl #25
801012d0:	ebb0 6f01 	cmp.w	r0, r1, lsl #24
801012d4:	bf00      	nop
801012d6:	eb42 0202 	adc.w	r2, r2, r2
801012da:	bf28      	it	cs
801012dc:	eba0 6001 	subcs.w	r0, r0, r1, lsl #24
801012e0:	ebb0 5fc1 	cmp.w	r0, r1, lsl #23
801012e4:	bf00      	nop
801012e6:	eb42 0202 	adc.w	r2, r2, r2
801012ea:	bf28      	it	cs
801012ec:	eba0 50c1 	subcs.w	r0, r0, r1, lsl #23
801012f0:	ebb0 5f81 	cmp.w	r0, r1, lsl #22
801012f4:	bf00      	nop
801012f6:	eb42 0202 	adc.w	r2, r2, r2
801012fa:	bf28      	it	cs
801012fc:	eba0 5081 	subcs.w	r0, r0, r1, lsl #22
80101300:	ebb0 5f41 	cmp.w	r0, r1, lsl #21
80101304:	bf00      	nop
80101306:	eb42 0202 	adc.w	r2, r2, r2
8010130a:	bf28      	it	cs
8010130c:	eba0 5041 	subcs.w	r0, r0, r1, lsl #21
80101310:	ebb0 5f01 	cmp.w	r0, r1, lsl #20
80101314:	bf00      	nop
80101316:	eb42 0202 	adc.w	r2, r2, r2
8010131a:	bf28      	it	cs
8010131c:	eba0 5001 	subcs.w	r0, r0, r1, lsl #20
80101320:	ebb0 4fc1 	cmp.w	r0, r1, lsl #19
80101324:	bf00      	nop
80101326:	eb42 0202 	adc.w	r2, r2, r2
8010132a:	bf28      	it	cs
8010132c:	eba0 40c1 	subcs.w	r0, r0, r1, lsl #19
80101330:	ebb0 4f81 	cmp.w	r0, r1, lsl #18
80101334:	bf00      	nop
80101336:	eb42 0202 	adc.w	r2, r2, r2
8010133a:	bf28      	it	cs
8010133c:	eba0 4081 	subcs.w	r0, r0, r1, lsl #18
80101340:	ebb0 4f41 	cmp.w	r0, r1, lsl #17
80101344:	bf00      	nop
80101346:	eb42 0202 	adc.w	r2, r2, r2
8010134a:	bf28      	it	cs
8010134c:	eba0 4041 	subcs.w	r0, r0, r1, lsl #17
80101350:	ebb0 4f01 	cmp.w	r0, r1, lsl #16
80101354:	bf00      	nop
80101356:	eb42 0202 	adc.w	r2, r2, r2
8010135a:	bf28      	it	cs
8010135c:	eba0 4001 	subcs.w	r0, r0, r1, lsl #16
80101360:	ebb0 3fc1 	cmp.w	r0, r1, lsl #15
80101364:	bf00      	nop
80101366:	eb42 0202 	adc.w	r2, r2, r2
8010136a:	bf28      	it	cs
8010136c:	eba0 30c1 	subcs.w	r0, r0, r1, lsl #15
80101370:	ebb0 3f81 	cmp.w	r0, r1, lsl #14
80101374:	bf00      	nop
80101376:	eb42 0202 	adc.w	r2, r2, r2
8010137a:	bf28      	it	cs
8010137c:	eba0 3081 	subcs.w	r0, r0, r1, lsl #14
80101380:	ebb0 3f41 	cmp.w	r0, r1, lsl #13
80101384:	bf00      	nop
80101386:	eb42 0202 	adc.w	r2, r2, r2
8010138a:	bf28      	it	cs
8010138c:	eba0 3041 	subcs.w	r0, r0, r1, lsl #13
80101390:	ebb0 3f01 	cmp.w	r0, r1, lsl #12
80101394:	bf00      	nop
80101396:	eb42 0202 	adc.w	r2, r2, r2
8010139a:	bf28      	it	cs
8010139c:	eba0 3001 	subcs.w	r0, r0, r1, lsl #12
801013a0:	ebb0 2fc1 	cmp.w	r0, r1, lsl #11
801013a4:	bf00      	nop
801013a6:	eb42 0202 	adc.w	r2, r2, r2
801013aa:	bf28      	it	cs
801013ac:	eba0 20c1 	subcs.w	r0, r0, r1, lsl #11
801013b0:	ebb0 2f81 	cmp.w	r0, r1, lsl #10
801013b4:	bf00      	nop
801013b6:	eb42 0202 	adc.w	r2, r2, r2
801013ba:	bf28      	it	cs
801013bc:	eba0 2081 	subcs.w	r0, r0, r1, lsl #10
801013c0:	ebb0 2f41 	cmp.w	r0, r1, lsl #9
801013c4:	bf00      	nop
801013c6:	eb42 0202 	adc.w	r2, r2, r2
801013ca:	bf28      	it	cs
801013cc:	eba0 2041 	subcs.w	r0, r0, r1, lsl #9
801013d0:	ebb0 2f01 	cmp.w	r0, r1, lsl #8
801013d4:	bf00      	nop
801013d6:	eb42 0202 	adc.w	r2, r2, r2
801013da:	bf28      	it	cs
801013dc:	eba0 2001 	subcs.w	r0, r0, r1, lsl #8
801013e0:	ebb0 1fc1 	cmp.w	r0, r1, lsl #7
801013e4:	bf00      	nop
801013e6:	eb42 0202 	adc.w	r2, r2, r2
801013ea:	bf28      	it	cs
801013ec:	eba0 10c1 	subcs.w	r0, r0, r1, lsl #7
801013f0:	ebb0 1f81 	cmp.w	r0, r1, lsl #6
801013f4:	bf00      	nop
801013f6:	eb42 0202 	adc.w	r2, r2, r2
801013fa:	bf28      	it	cs
801013fc:	eba0 1081 	subcs.w	r0, r0, r1, lsl #6
80101400:	ebb0 1f41 	cmp.w	r0, r1, lsl #5
80101404:	bf00      	nop
80101406:	eb42 0202 	adc.w	r2, r2, r2
8010140a:	bf28      	it	cs
8010140c:	eba0 1041 	subcs.w	r0, r0, r1, lsl #5
80101410:	ebb0 1f01 	cmp.w	r0, r1, lsl #4
80101414:	bf00      	nop
80101416:	eb42 0202 	adc.w	r2, r2, r2
8010141a:	bf28      	it	cs
8010141c:	eba0 1001 	subcs.w	r0, r0, r1, lsl #4
80101420:	ebb0 0fc1 	cmp.w	r0, r1, lsl #3
80101424:	bf00      	nop
80101426:	eb42 0202 	adc.w	r2, r2, r2
8010142a:	bf28      	it	cs
8010142c:	eba0 00c1 	subcs.w	r0, r0, r1, lsl #3
80101430:	ebb0 0f81 	cmp.w	r0, r1, lsl #2
80101434:	bf00      	nop
80101436:	eb42 0202 	adc.w	r2, r2, r2
8010143a:	bf28      	it	cs
8010143c:	eba0 0081 	subcs.w	r0, r0, r1, lsl #2
80101440:	ebb0 0f41 	cmp.w	r0, r1, lsl #1
80101444:	bf00      	nop
80101446:	eb42 0202 	adc.w	r2, r2, r2
8010144a:	bf28      	it	cs
8010144c:	eba0 0041 	subcs.w	r0, r0, r1, lsl #1
80101450:	ebb0 0f01 	cmp.w	r0, r1
80101454:	bf00      	nop
80101456:	eb42 0202 	adc.w	r2, r2, r2
8010145a:	bf28      	it	cs
8010145c:	eba0 0001 	subcs.w	r0, r0, r1
80101460:	4610      	mov	r0, r2
80101462:	4770      	bx	lr
80101464:	bf0c      	ite	eq
80101466:	2001      	moveq	r0, #1
80101468:	2000      	movne	r0, #0
8010146a:	4770      	bx	lr
8010146c:	fab1 f281 	clz	r2, r1
80101470:	f1c2 021f 	rsb	r2, r2, #31
80101474:	fa20 f002 	lsr.w	r0, r0, r2
80101478:	4770      	bx	lr
8010147a:	b108      	cbz	r0, 80101480 <__aeabi_uidiv+0x258>
8010147c:	f04f 30ff 	mov.w	r0, #4294967295	; 0xffffffff
80101480:	f000 b826 	b.w	801014d0 <__aeabi_idiv0>

80101484 <__aeabi_uidivmod>:
80101484:	2900      	cmp	r1, #0
80101486:	d0f8      	beq.n	8010147a <__aeabi_uidiv+0x252>
80101488:	e92d 4003 	stmdb	sp!, {r0, r1, lr}
8010148c:	f7ff fecc 	bl	80101228 <__aeabi_uidiv>
80101490:	e8bd 4006 	ldmia.w	sp!, {r1, r2, lr}
80101494:	fb02 f300 	mul.w	r3, r2, r0
80101498:	eba1 0103 	sub.w	r1, r1, r3
8010149c:	4770      	bx	lr
8010149e:	bf00      	nop

801014a0 <__aeabi_uldivmod>:
801014a0:	b953      	cbnz	r3, 801014b8 <__aeabi_uldivmod+0x18>
801014a2:	b94a      	cbnz	r2, 801014b8 <__aeabi_uldivmod+0x18>
801014a4:	2900      	cmp	r1, #0
801014a6:	bf08      	it	eq
801014a8:	2800      	cmpeq	r0, #0
801014aa:	bf1c      	itt	ne
801014ac:	f04f 31ff 	movne.w	r1, #4294967295	; 0xffffffff
801014b0:	f04f 30ff 	movne.w	r0, #4294967295	; 0xffffffff
801014b4:	f000 b80c 	b.w	801014d0 <__aeabi_idiv0>
801014b8:	f1ad 0c08 	sub.w	ip, sp, #8
801014bc:	e96d ce04 	strd	ip, lr, [sp, #-16]!
801014c0:	f000 f80c 	bl	801014dc <__udivmoddi4>
801014c4:	f8dd e004 	ldr.w	lr, [sp, #4]
801014c8:	e9dd 2302 	ldrd	r2, r3, [sp, #8]
801014cc:	b004      	add	sp, #16
801014ce:	4770      	bx	lr

801014d0 <__aeabi_idiv0>:
801014d0:	b502      	push	{r1, lr}
801014d2:	f04f 0008 	mov.w	r0, #8
801014d6:	f7ff fba5 	bl	80100c24 <raise>
801014da:	bd02      	pop	{r1, pc}

801014dc <__udivmoddi4>:
801014dc:	4299      	cmp	r1, r3
801014de:	e92d 47f0 	stmdb	sp!, {r4, r5, r6, r7, r8, r9, sl, lr}
801014e2:	bf08      	it	eq
801014e4:	4290      	cmpeq	r0, r2
801014e6:	4604      	mov	r4, r0
801014e8:	460d      	mov	r5, r1
801014ea:	bf38      	it	cc
801014ec:	2000      	movcc	r0, #0
801014ee:	f8dd a020 	ldr.w	sl, [sp, #32]
801014f2:	bf38      	it	cc
801014f4:	2100      	movcc	r1, #0
801014f6:	d369      	bcc.n	801015cc <__udivmoddi4+0xf0>
801014f8:	fab3 f683 	clz	r6, r3
801014fc:	2b00      	cmp	r3, #0
801014fe:	d070      	beq.n	801015e2 <__udivmoddi4+0x106>
80101500:	fab5 f185 	clz	r1, r5
80101504:	2d00      	cmp	r5, #0
80101506:	d068      	beq.n	801015da <__udivmoddi4+0xfe>
80101508:	1a76      	subs	r6, r6, r1
8010150a:	f1a6 0e20 	sub.w	lr, r6, #32
8010150e:	fa03 f906 	lsl.w	r9, r3, r6
80101512:	fa02 f10e 	lsl.w	r1, r2, lr
80101516:	f1c6 0720 	rsb	r7, r6, #32
8010151a:	fa22 f307 	lsr.w	r3, r2, r7
8010151e:	fa02 f806 	lsl.w	r8, r2, r6
80101522:	ea49 0901 	orr.w	r9, r9, r1
80101526:	ea49 0903 	orr.w	r9, r9, r3
8010152a:	454d      	cmp	r5, r9
8010152c:	bf08      	it	eq
8010152e:	4544      	cmpeq	r4, r8
80101530:	bf3c      	itt	cc
80101532:	2000      	movcc	r0, #0
80101534:	2100      	movcc	r1, #0
80101536:	d30c      	bcc.n	80101552 <__udivmoddi4+0x76>
80101538:	2301      	movs	r3, #1
8010153a:	ebb4 0408 	subs.w	r4, r4, r8
8010153e:	fa03 f10e 	lsl.w	r1, r3, lr
80101542:	fa23 f207 	lsr.w	r2, r3, r7
80101546:	fa03 f006 	lsl.w	r0, r3, r6
8010154a:	ea41 0102 	orr.w	r1, r1, r2
8010154e:	eb65 0509 	sbc.w	r5, r5, r9
80101552:	2e00      	cmp	r6, #0
80101554:	d03a      	beq.n	801015cc <__udivmoddi4+0xf0>
80101556:	ea5f 0959 	movs.w	r9, r9, lsr #1
8010155a:	ea4f 0838 	mov.w	r8, r8, rrx
8010155e:	46b4      	mov	ip, r6
80101560:	e00b      	b.n	8010157a <__udivmoddi4+0x9e>
80101562:	ebb4 0408 	subs.w	r4, r4, r8
80101566:	eb65 0509 	sbc.w	r5, r5, r9
8010156a:	1924      	adds	r4, r4, r4
8010156c:	416d      	adcs	r5, r5
8010156e:	3401      	adds	r4, #1
80101570:	f145 0500 	adc.w	r5, r5, #0
80101574:	f1bc 0c01 	subs.w	ip, ip, #1
80101578:	d008      	beq.n	8010158c <__udivmoddi4+0xb0>
8010157a:	454d      	cmp	r5, r9
8010157c:	bf08      	it	eq
8010157e:	4544      	cmpeq	r4, r8
80101580:	d2ef      	bcs.n	80101562 <__udivmoddi4+0x86>
80101582:	1924      	adds	r4, r4, r4
80101584:	416d      	adcs	r5, r5
80101586:	f1bc 0c01 	subs.w	ip, ip, #1
8010158a:	d1f6      	bne.n	8010157a <__udivmoddi4+0x9e>
8010158c:	fa05 f707 	lsl.w	r7, r5, r7
80101590:	fa24 f306 	lsr.w	r3, r4, r6
80101594:	fa25 fe0e 	lsr.w	lr, r5, lr
80101598:	fa25 fc06 	lsr.w	ip, r5, r6
8010159c:	433b      	orrs	r3, r7
8010159e:	1900      	adds	r0, r0, r4
801015a0:	ea43 040e 	orr.w	r4, r3, lr
801015a4:	f1a6 0e20 	sub.w	lr, r6, #32
801015a8:	fa0c f306 	lsl.w	r3, ip, r6
801015ac:	fa04 fe0e 	lsl.w	lr, r4, lr
801015b0:	fa04 f206 	lsl.w	r2, r4, r6
801015b4:	f1c6 0720 	rsb	r7, r6, #32
801015b8:	fa24 f707 	lsr.w	r7, r4, r7
801015bc:	ea43 030e 	orr.w	r3, r3, lr
801015c0:	4169      	adcs	r1, r5
801015c2:	433b      	orrs	r3, r7
801015c4:	1a80      	subs	r0, r0, r2
801015c6:	4665      	mov	r5, ip
801015c8:	eb61 0103 	sbc.w	r1, r1, r3
801015cc:	f1ba 0f00 	cmp.w	sl, #0
801015d0:	d001      	beq.n	801015d6 <__udivmoddi4+0xfa>
801015d2:	e9ca 4500 	strd	r4, r5, [sl]
801015d6:	e8bd 87f0 	ldmia.w	sp!, {r4, r5, r6, r7, r8, r9, sl, pc}
801015da:	fab4 f184 	clz	r1, r4
801015de:	3120      	adds	r1, #32
801015e0:	e792      	b.n	80101508 <__udivmoddi4+0x2c>
801015e2:	fab2 f682 	clz	r6, r2
801015e6:	fab5 f185 	clz	r1, r5
801015ea:	3620      	adds	r6, #32
801015ec:	2d00      	cmp	r5, #0
801015ee:	d18b      	bne.n	80101508 <__udivmoddi4+0x2c>
801015f0:	e7f3      	b.n	801015da <__udivmoddi4+0xfe>
801015f2:	bf00      	nop

Disassembly of section .rodata:

801015f4 <.LC0>:
801015f4:	65637845 	strbvs	r7, [r3, #-2117]!	; 0xfffff7bb
801015f8:	6f697470 	svcvs	0x00697470
801015fc:	6320216e 			; <UNDEFINED> instruction: 0x6320216e
80101600:	20727370 	rsbscs	r7, r2, r0, ror r3
80101604:	30207369 	eorcc	r7, r0, r9, ror #6
80101608:	0d782578 	cfldr64eq	mvdx2, [r8, #-480]!	; 0xfffffe20
8010160c:	0000000a 	andeq	r0, r0, sl

80101610 <.LC1>:
80101610:	0a0d7325 	beq	8045e2ac <__bss_end+0x35cad8>
80101614:	00000000 	andeq	r0, r0, r0

80101618 <.LC2>:
80101618:	20495753 	subcs	r5, r9, r3, asr r7
8010161c:	206c6176 	rsbcs	r6, ip, r6, ror r1
80101620:	7830203d 	ldmdavc	r0!, {r0, r2, r3, r4, r5, sp}
80101624:	0a0d7825 	beq	8045f6c0 <__bss_end+0x35deec>
80101628:	00000000 	andeq	r0, r0, r0

8010162c <.LC3>:
8010162c:	6c6c6568 	cfstr64vs	mvdx6, [ip], #-416	; 0xfffffe60
80101630:	6f77206f 	svcvs	0x0077206f
80101634:	0d646c72 	stcleq	12, cr6, [r4, #-456]!	; 0xfffffe38
80101638:	0000000a 	andeq	r0, r0, sl

8010163c <.LC0>:
8010163c:	73696854 	cmnvc	r9, #84, 16	; 0x540000
80101640:	20736920 	rsbscs	r6, r3, r0, lsr #18
80101644:	2e777777 	mrccs	7, 3, r7, cr7, cr7, {3}
80101648:	61303031 	teqvs	r0, r1, lsr r0
8010164c:	6f2e6b73 	svcvs	0x002e6b73
80101650:	20206772 	eorcs	r6, r0, r2, ror r7
80101654:	5f796d20 	svcpl	0x00796d20
80101658:	6e697270 	mcrvs	2, 3, r7, cr9, cr0, {3}
8010165c:	74206674 	strtvc	r6, [r0], #-1652	; 0xfffff98c
80101660:	0a747365 	beq	81e1e3fc <__bss_end+0x1d1cc28>
80101664:	0000000d 	andeq	r0, r0, sp

80101668 <.LC1>:
80101668:	74736574 	ldrbtvc	r6, [r3], #-1396	; 0xfffffa8c
8010166c:	61686320 	cmnvs	r8, r0, lsr #6
80101670:	20202072 	eorcs	r2, r0, r2, ror r0
80101674:	20202020 	eorcs	r2, r0, r0, lsr #32
80101678:	20202020 	eorcs	r2, r0, r0, lsr #32
8010167c:	2c63253d 	cfstr64cs	mvdx2, [r3], #-244	; 0xffffff0c
80101680:	0d0a6325 	stceq	3, cr6, [sl, #-148]	; 0xffffff6c
80101684:	00000000 	andeq	r0, r0, r0

80101688 <.LC2>:
80101688:	74736574 	ldrbtvc	r6, [r3], #-1396	; 0xfffffa8c
8010168c:	63656420 	cmnvs	r5, #32, 8	; 0x20000000
80101690:	6c616d69 	stclvs	13, cr6, [r1], #-420	; 0xfffffe5c
80101694:	6d756e20 	ldclvs	14, cr6, [r5, #-128]!	; 0xffffff80
80101698:	20726562 	rsbscs	r6, r2, r2, ror #10
8010169c:	0a64253d 	beq	81a0ab98 <__bss_end+0x19093c4>
801016a0:	0000000d 	andeq	r0, r0, sp

801016a4 <.LC3>:
801016a4:	74736574 	ldrbtvc	r6, [r3], #-1396	; 0xfffffa8c
801016a8:	78656820 	stmdavc	r5!, {r5, fp, sp, lr}^
801016ac:	20202020 	eorcs	r2, r0, r0, lsr #32
801016b0:	6d756e20 	ldclvs	14, cr6, [r5, #-128]!	; 0xffffff80
801016b4:	20726562 	rsbscs	r6, r2, r2, ror #10
801016b8:	2578303d 	ldrbcs	r3, [r8, #-61]!	; 0xffffffc3
801016bc:	000d0a78 	andeq	r0, sp, r8, ror sl

801016c0 <.LC4>:
801016c0:	2e777777 	mrccs	7, 3, r7, cr7, cr7, {3}
801016c4:	61303031 	teqvs	r0, r1, lsr r0
801016c8:	6f2e6b73 	svcvs	0x002e6b73
801016cc:	00006772 	andeq	r6, r0, r2, ror r7

801016d0 <.LC5>:
801016d0:	74736574 	ldrbtvc	r6, [r3], #-1396	; 0xfffffa8c
801016d4:	72747320 	rsbsvc	r7, r4, #32, 6	; 0x80000000
801016d8:	20676e69 	rsbcs	r6, r7, r9, ror #28
801016dc:	20202020 	eorcs	r2, r0, r0, lsr #32
801016e0:	20202020 	eorcs	r2, r0, r0, lsr #32
801016e4:	0a73253d 	beq	81dcabe0 <__bss_end+0x1cc940c>
801016e8:	0000000d 	andeq	r0, r0, sp

801016ec <.LC6>:
801016ec:	3d6d756e 	cfstr64cc	mvdx7, [sp, #-440]!	; 0xfffffe48
801016f0:	64383025 	ldrtvs	r3, [r8], #-37	; 0xffffffdb
801016f4:	00000d0a 	andeq	r0, r0, sl, lsl #26

801016f8 <.LC7>:
801016f8:	3d6d756e 	cfstr64cc	mvdx7, [sp, #-440]!	; 0xfffffe48
801016fc:	0a643825 	beq	81a0f798 <__bss_end+0x190dfc4>
80101700:	0000000d 	andeq	r0, r0, sp

80101704 <.LC8>:
80101704:	3d6d756e 	cfstr64cc	mvdx7, [sp, #-440]!	; 0xfffffe48
80101708:	30257830 	eorcc	r7, r5, r0, lsr r8
8010170c:	0d0a7838 	stceq	8, cr7, [sl, #-224]	; 0xffffff20
80101710:	00000000 	andeq	r0, r0, r0

80101714 <.LC9>:
80101714:	3d6d756e 	cfstr64cc	mvdx7, [sp, #-440]!	; 0xfffffe48
80101718:	38257830 	stmdacc	r5!, {r4, r5, fp, ip, sp, lr}
8010171c:	000d0a78 	andeq	r0, sp, r8, ror sl

80101720 <.LC10>:
80101720:	3d6d756e 	cfstr64cc	mvdx7, [sp, #-440]!	; 0xfffffe48
80101724:	30257830 	eorcc	r7, r5, r0, lsr r8
80101728:	0d0a7832 	stceq	8, cr7, [sl, #-200]	; 0xffffff38
8010172c:	00000000 	andeq	r0, r0, r0

80101730 <.LC11>:
80101730:	3d6d756e 	cfstr64cc	mvdx7, [sp, #-440]!	; 0xfffffe48
80101734:	32257830 	eorcc	r7, r5, #48, 16	; 0x300000
80101738:	000d0a78 	andeq	r0, sp, r8, ror sl

8010173c <.LC12>:
8010173c:	3d6d756e 	cfstr64cc	mvdx7, [sp, #-440]!	; 0xfffffe48
80101740:	64353025 	ldrtvs	r3, [r5], #-37	; 0xffffffdb
80101744:	00000d0a 	andeq	r0, r0, sl, lsl #26

80101748 <.LC13>:
80101748:	3d6d756e 	cfstr64cc	mvdx7, [sp, #-440]!	; 0xfffffe48
8010174c:	0a643525 	beq	81a0ebe8 <__bss_end+0x190d414>
80101750:	0000000d 	andeq	r0, r0, sp

80101754 <.LC0>:
80101754:	20717269 	rsbscs	r7, r1, r9, ror #4
80101758:	69206425 	stmdbvs	r0!, {r0, r2, r5, sl, sp, lr}
8010175c:	61682073 	smcvs	33283	; 0x8203
80101760:	6e657070 	mcrvs	0, 3, r7, cr5, cr0, {3}
80101764:	0a0d6465 	beq	8045a900 <__bss_end+0x35912c>
80101768:	00000000 	andeq	r0, r0, r0

8010176c <.LC1>:
8010176c:	2079656b 	rsbscs	r6, r9, fp, ror #10
80101770:	73692031 	cmnvc	r9, #49	; 0x31
80101774:	6c657220 	sfmvs	f7, 2, [r5], #-128	; 0xffffff80
80101778:	65736165 	ldrbvs	r6, [r3, #-357]!	; 0xfffffe9b
8010177c:	00000a0d 	andeq	r0, r0, sp, lsl #20

80101780 <.LC2>:
80101780:	2079656b 	rsbscs	r6, r9, fp, ror #10
80101784:	73692031 	cmnvc	r9, #49	; 0x31
80101788:	65727020 	ldrbvs	r7, [r2, #-32]!	; 0xffffffe0
8010178c:	0a0d7373 	beq	8045e560 <__bss_end+0x35cd8c>
80101790:	00000000 	andeq	r0, r0, r0

80101794 <.LC3>:
80101794:	2079656b 	rsbscs	r6, r9, fp, ror #10
80101798:	73692032 	cmnvc	r9, #50	; 0x32
8010179c:	6c657220 	sfmvs	f7, 2, [r5], #-128	; 0xffffff80
801017a0:	65736165 	ldrbvs	r6, [r3, #-357]!	; 0xfffffe9b
801017a4:	00000a0d 	andeq	r0, r0, sp, lsl #20

801017a8 <.LC4>:
801017a8:	2079656b 	rsbscs	r6, r9, fp, ror #10
801017ac:	73692032 	cmnvc	r9, #50	; 0x32
801017b0:	65727020 	ldrbvs	r7, [r2, #-32]!	; 0xffffffe0
801017b4:	0a0d7373 	beq	8045e588 <__bss_end+0x35cdb4>
	...

Disassembly of section .ARM.exidx:

801017bc <.ARM.exidx>:
801017bc:	7ffffd20 	svcvc	0x00fffd20
801017c0:	00000001 	andeq	r0, r0, r1

Disassembly of section .data:

801017c4 <hex_tab>:
801017c4:	33323130 	teqcc	r2, #48, 2
801017c8:	37363534 			; <UNDEFINED> instruction: 0x37363534
801017cc:	62613938 	rsbvs	r3, r1, #56, 18	; 0xe0000
801017d0:	66656463 	strbtvs	r6, [r5], -r3, ror #8

