
uart.elf:     file format elf32-littlearm


Disassembly of section .text:

80100000 <_start>:
80100000:	e59fd028 	ldr	sp, [pc, #40]	; 80100030 <clean+0x14>
80100004:	eb000001 	bl	80100010 <clean_bss>
80100008:	fb000058 	blx	80100172 <main>

8010000c <halt>:
8010000c:	eafffffe 	b	8010000c <halt>

80100010 <clean_bss>:
80100010:	e59f101c 	ldr	r1, [pc, #28]	; 80100034 <clean+0x18>
80100014:	e59f201c 	ldr	r2, [pc, #28]	; 80100038 <clean+0x1c>
80100018:	e3a03000 	mov	r3, #0

8010001c <clean>:
8010001c:	e5813000 	str	r3, [r1]
80100020:	e2811004 	add	r1, r1, #4
80100024:	e1510002 	cmp	r1, r2
80100028:	1afffffb 	bne	8010001c <clean>
8010002c:	e1a0f00e 	mov	pc, lr
80100030:	80200000 	eorhi	r0, r0, r0
80100034:	801001a8 	andshi	r0, r0, r8, lsr #3
80100038:	801001b0 			; <UNDEFINED> instruction: 0x801001b0

8010003c <Uart_Init>:
8010003c:	b480      	push	{r7}
8010003e:	af00      	add	r7, sp, #0
80100040:	f240 12a8 	movw	r2, #424	; 0x1a8
80100044:	f2c8 0210 	movt	r2, #32784	; 0x8010
80100048:	2384      	movs	r3, #132	; 0x84
8010004a:	f2c0 230e 	movt	r3, #526	; 0x20e
8010004e:	6013      	str	r3, [r2, #0]
80100050:	f240 12ac 	movw	r2, #428	; 0x1ac
80100054:	f2c8 0210 	movt	r2, #32784	; 0x8010
80100058:	2388      	movs	r3, #136	; 0x88
8010005a:	f2c0 230e 	movt	r3, #526	; 0x20e
8010005e:	6013      	str	r3, [r2, #0]
80100060:	f240 13ac 	movw	r3, #428	; 0x1ac
80100064:	f2c8 0310 	movt	r3, #32784	; 0x8010
80100068:	681b      	ldr	r3, [r3, #0]
8010006a:	2200      	movs	r2, #0
8010006c:	601a      	str	r2, [r3, #0]
8010006e:	f240 13a8 	movw	r3, #424	; 0x1a8
80100072:	f2c8 0310 	movt	r3, #32784	; 0x8010
80100076:	681b      	ldr	r3, [r3, #0]
80100078:	2200      	movs	r2, #0
8010007a:	601a      	str	r2, [r3, #0]
8010007c:	2300      	movs	r3, #0
8010007e:	f2c0 2302 	movt	r3, #514	; 0x202
80100082:	2200      	movs	r2, #0
80100084:	f2c0 2202 	movt	r2, #514	; 0x202
80100088:	f8d2 2080 	ldr.w	r2, [r2, #128]	; 0x80
8010008c:	f042 0201 	orr.w	r2, r2, #1
80100090:	f8c3 2080 	str.w	r2, [r3, #128]	; 0x80
80100094:	2200      	movs	r2, #0
80100096:	f2c0 2202 	movt	r2, #514	; 0x202
8010009a:	2300      	movs	r3, #0
8010009c:	f2c0 2302 	movt	r3, #514	; 0x202
801000a0:	f8d3 3084 	ldr.w	r3, [r3, #132]	; 0x84
801000a4:	f443 4380 	orr.w	r3, r3, #16384	; 0x4000
801000a8:	f043 0326 	orr.w	r3, r3, #38	; 0x26
801000ac:	f8c2 3084 	str.w	r3, [r2, #132]	; 0x84
801000b0:	2300      	movs	r3, #0
801000b2:	f2c0 2302 	movt	r3, #514	; 0x202
801000b6:	2200      	movs	r2, #0
801000b8:	f2c0 2202 	movt	r2, #514	; 0x202
801000bc:	f8d2 2088 	ldr.w	r2, [r2, #136]	; 0x88
801000c0:	f042 0204 	orr.w	r2, r2, #4
801000c4:	f8c3 2088 	str.w	r2, [r3, #136]	; 0x88
801000c8:	2300      	movs	r3, #0
801000ca:	f2c0 2302 	movt	r3, #514	; 0x202
801000ce:	f44f 7220 	mov.w	r2, #640	; 0x280
801000d2:	f8c3 2090 	str.w	r2, [r3, #144]	; 0x90
801000d6:	2300      	movs	r3, #0
801000d8:	f2c0 2302 	movt	r3, #514	; 0x202
801000dc:	2247      	movs	r2, #71	; 0x47
801000de:	f8c3 20a4 	str.w	r2, [r3, #164]	; 0xa4
801000e2:	2300      	movs	r3, #0
801000e4:	f2c0 2302 	movt	r3, #514	; 0x202
801000e8:	f640 4234 	movw	r2, #3124	; 0xc34
801000ec:	f8c3 20a8 	str.w	r2, [r3, #168]	; 0xa8
801000f0:	2300      	movs	r3, #0
801000f2:	f2c0 2302 	movt	r3, #514	; 0x202
801000f6:	2200      	movs	r2, #0
801000f8:	f2c0 2202 	movt	r2, #514	; 0x202
801000fc:	f8d2 2080 	ldr.w	r2, [r2, #128]	; 0x80
80100100:	f042 0201 	orr.w	r2, r2, #1
80100104:	f8c3 2080 	str.w	r2, [r3, #128]	; 0x80
80100108:	bf00      	nop
8010010a:	46bd      	mov	sp, r7
8010010c:	f85d 7b04 	ldr.w	r7, [sp], #4
80100110:	4770      	bx	lr

80100112 <PutChar>:
80100112:	b480      	push	{r7}
80100114:	b083      	sub	sp, #12
80100116:	af00      	add	r7, sp, #0
80100118:	6078      	str	r0, [r7, #4]
8010011a:	bf00      	nop
8010011c:	2300      	movs	r3, #0
8010011e:	f2c0 2302 	movt	r3, #514	; 0x202
80100122:	f8d3 3098 	ldr.w	r3, [r3, #152]	; 0x98
80100126:	f003 0308 	and.w	r3, r3, #8
8010012a:	2b00      	cmp	r3, #0
8010012c:	d0f6      	beq.n	8010011c <PutChar+0xa>
8010012e:	2300      	movs	r3, #0
80100130:	f2c0 2302 	movt	r3, #514	; 0x202
80100134:	687a      	ldr	r2, [r7, #4]
80100136:	b2d2      	uxtb	r2, r2
80100138:	641a      	str	r2, [r3, #64]	; 0x40
8010013a:	bf00      	nop
8010013c:	370c      	adds	r7, #12
8010013e:	46bd      	mov	sp, r7
80100140:	f85d 7b04 	ldr.w	r7, [sp], #4
80100144:	4770      	bx	lr

80100146 <GetChar>:
80100146:	b480      	push	{r7}
80100148:	af00      	add	r7, sp, #0
8010014a:	bf00      	nop
8010014c:	2300      	movs	r3, #0
8010014e:	f2c0 2302 	movt	r3, #514	; 0x202
80100152:	f8d3 3098 	ldr.w	r3, [r3, #152]	; 0x98
80100156:	f003 0301 	and.w	r3, r3, #1
8010015a:	2b00      	cmp	r3, #0
8010015c:	d0f6      	beq.n	8010014c <GetChar+0x6>
8010015e:	2300      	movs	r3, #0
80100160:	f2c0 2302 	movt	r3, #514	; 0x202
80100164:	681b      	ldr	r3, [r3, #0]
80100166:	b2db      	uxtb	r3, r3
80100168:	4618      	mov	r0, r3
8010016a:	46bd      	mov	sp, r7
8010016c:	f85d 7b04 	ldr.w	r7, [sp], #4
80100170:	4770      	bx	lr

80100172 <main>:
80100172:	b580      	push	{r7, lr}
80100174:	b082      	sub	sp, #8
80100176:	af00      	add	r7, sp, #0
80100178:	f7ff ff60 	bl	8010003c <Uart_Init>
8010017c:	f7ff ffe3 	bl	80100146 <GetChar>
80100180:	4603      	mov	r3, r0
80100182:	71fb      	strb	r3, [r7, #7]
80100184:	79fb      	ldrb	r3, [r7, #7]
80100186:	2b0d      	cmp	r3, #13
80100188:	d102      	bne.n	80100190 <main+0x1e>
8010018a:	200a      	movs	r0, #10
8010018c:	f7ff ffc1 	bl	80100112 <PutChar>
80100190:	79fb      	ldrb	r3, [r7, #7]
80100192:	2b0a      	cmp	r3, #10
80100194:	d102      	bne.n	8010019c <main+0x2a>
80100196:	200d      	movs	r0, #13
80100198:	f7ff ffbb 	bl	80100112 <PutChar>
8010019c:	79fb      	ldrb	r3, [r7, #7]
8010019e:	4618      	mov	r0, r3
801001a0:	f7ff ffb7 	bl	80100112 <PutChar>
801001a4:	e7ea      	b.n	8010017c <main+0xa>

Disassembly of section .bss:

801001a8 <__bss_start>:
801001a8:	00000000 	andeq	r0, r0, r0

801001ac <IOMUXC_SW_MUX_CTL_PAD_UART1_RX_DATA>:
801001ac:	00000000 	andeq	r0, r0, r0

