
eint.elf:     file format elf32-littlearm


Disassembly of section .text:

80100000 <_start>:
80100000:	e59ff09c 	ldr	pc, [pc, #156]	; 801000a4 <clean+0x14>
80100004:	ea00001d 	b	80100080 <halt>
80100008:	ea00001c 	b	80100080 <halt>
8010000c:	ea00001b 	b	80100080 <halt>
80100010:	ea00001a 	b	80100080 <halt>
80100014:	00000000 	andeq	r0, r0, r0
80100018:	e59ff088 	ldr	pc, [pc, #136]	; 801000a8 <clean+0x18>
8010001c:	ea000017 	b	80100080 <halt>

80100020 <IRQ_Handler>:
80100020:	e24ee004 	sub	lr, lr, #4
80100024:	e92d5fff 	push	{r0, r1, r2, r3, r4, r5, r6, r7, r8, r9, sl, fp, ip, lr}
80100028:	fb00011b 	blx	8010049e <handle_irq_c>
8010002c:	e8fd9fff 	ldm	sp!, {r0, r1, r2, r3, r4, r5, r6, r7, r8, r9, sl, fp, ip, pc}^

80100030 <Reset_Handler>:
80100030:	ee110f10 	mrc	15, 0, r0, cr1, cr0, {0}
80100034:	e3c00a02 	bic	r0, r0, #8192	; 0x2000
80100038:	e3c00a01 	bic	r0, r0, #4096	; 0x1000
8010003c:	e3c00004 	bic	r0, r0, #4
80100040:	e3c00002 	bic	r0, r0, #2
80100044:	e3c00b02 	bic	r0, r0, #2048	; 0x800
80100048:	e3c00001 	bic	r0, r0, #1
8010004c:	ee010f10 	mcr	15, 0, r0, cr1, cr0, {0}
80100050:	f102001b 	cps	#27
80100054:	e59fd050 	ldr	sp, [pc, #80]	; 801000ac <clean+0x1c>
80100058:	f1020012 	cps	#18
8010005c:	e59fd04c 	ldr	sp, [pc, #76]	; 801000b0 <clean+0x20>
80100060:	f1020013 	cps	#19
80100064:	e59fd048 	ldr	sp, [pc, #72]	; 801000b4 <clean+0x24>
80100068:	e59f0048 	ldr	r0, [pc, #72]	; 801000b8 <clean+0x28>
8010006c:	ee0c0f10 	mcr	15, 0, r0, cr12, cr0, {0}
80100070:	eb000003 	bl	80100084 <clean_bss>
80100074:	fa000012 	blx	801000c4 <system_init>
80100078:	f1080080 	cpsie	i
8010007c:	fb000016 	blx	801000de <main>

80100080 <halt>:
80100080:	eafffffe 	b	80100080 <halt>

80100084 <clean_bss>:
80100084:	e59f1030 	ldr	r1, [pc, #48]	; 801000bc <clean+0x2c>
80100088:	e59f2030 	ldr	r2, [pc, #48]	; 801000c0 <clean+0x30>
8010008c:	e3a03000 	mov	r3, #0

80100090 <clean>:
80100090:	e1510002 	cmp	r1, r2
80100094:	b5813000 	strlt	r3, [r1]
80100098:	e2811004 	add	r1, r1, #4
8010009c:	bafffffb 	blt	80100090 <clean>
801000a0:	e1a0f00e 	mov	pc, lr
801000a4:	80100030 	andshi	r0, r0, r0, lsr r0
801000a8:	80100020 	andshi	r0, r0, r0, lsr #32
801000ac:	80300000 	eorshi	r0, r0, r0
801000b0:	80400000 	subhi	r0, r0, r0
801000b4:	80200000 	eorhi	r0, r0, r0
801000b8:	80100000 	andshi	r0, r0, r0
801000bc:	80101494 	mulshi	r0, r4, r4
801000c0:	801014e4 	andshi	r1, r0, r4, ror #9

801000c4 <system_init>:
801000c4:	b580      	push	{r7, lr}
801000c6:	af00      	add	r7, sp, #0
801000c8:	f000 f821 	bl	8010010e <led_init>
801000cc:	2000      	movs	r0, #0
801000ce:	f000 f87c 	bl	801001ca <led_ctl>
801000d2:	f000 f8a4 	bl	8010021e <buttons_init>
801000d6:	f000 f956 	bl	80100386 <key_exit_init>
801000da:	bf00      	nop
801000dc:	bd80      	pop	{r7, pc}

801000de <main>:
801000de:	b580      	push	{r7, lr}
801000e0:	b082      	sub	sp, #8
801000e2:	af00      	add	r7, sp, #0
801000e4:	f000 fc78 	bl	801009d8 <getchar>
801000e8:	4603      	mov	r3, r0
801000ea:	71fb      	strb	r3, [r7, #7]
801000ec:	79fb      	ldrb	r3, [r7, #7]
801000ee:	2b0d      	cmp	r3, #13
801000f0:	d102      	bne.n	801000f8 <main+0x1a>
801000f2:	200a      	movs	r0, #10
801000f4:	f000 fc56 	bl	801009a4 <putchar>
801000f8:	79fb      	ldrb	r3, [r7, #7]
801000fa:	2b0a      	cmp	r3, #10
801000fc:	d102      	bne.n	80100104 <main+0x26>
801000fe:	200d      	movs	r0, #13
80100100:	f000 fc50 	bl	801009a4 <putchar>
80100104:	79fb      	ldrb	r3, [r7, #7]
80100106:	4618      	mov	r0, r3
80100108:	f000 fc4c 	bl	801009a4 <putchar>
8010010c:	e7ea      	b.n	801000e4 <main+0x6>

8010010e <led_init>:
8010010e:	b480      	push	{r7}
80100110:	b083      	sub	sp, #12
80100112:	af00      	add	r7, sp, #0
80100114:	f241 4294 	movw	r2, #5268	; 0x1494
80100118:	f2c8 0210 	movt	r2, #32784	; 0x8010
8010011c:	f244 036c 	movw	r3, #16492	; 0x406c
80100120:	f2c0 230c 	movt	r3, #524	; 0x20c
80100124:	6013      	str	r3, [r2, #0]
80100126:	f241 4298 	movw	r2, #5272	; 0x1498
8010012a:	f2c8 0210 	movt	r2, #32784	; 0x8010
8010012e:	2314      	movs	r3, #20
80100130:	f2c0 2329 	movt	r3, #553	; 0x229
80100134:	6013      	str	r3, [r2, #0]
80100136:	f241 429c 	movw	r2, #5276	; 0x149c
8010013a:	f2c8 0210 	movt	r2, #32784	; 0x8010
8010013e:	f24c 0304 	movw	r3, #49156	; 0xc004
80100142:	f2c0 230a 	movt	r3, #522	; 0x20a
80100146:	6013      	str	r3, [r2, #0]
80100148:	f241 42a0 	movw	r2, #5280	; 0x14a0
8010014c:	f2c8 0210 	movt	r2, #32784	; 0x8010
80100150:	f44f 4340 	mov.w	r3, #49152	; 0xc000
80100154:	f2c0 230a 	movt	r3, #522	; 0x20a
80100158:	6013      	str	r3, [r2, #0]
8010015a:	f241 4394 	movw	r3, #5268	; 0x1494
8010015e:	f2c8 0310 	movt	r3, #32784	; 0x8010
80100162:	681a      	ldr	r2, [r3, #0]
80100164:	f241 4394 	movw	r3, #5268	; 0x1494
80100168:	f2c8 0310 	movt	r3, #32784	; 0x8010
8010016c:	681b      	ldr	r3, [r3, #0]
8010016e:	681b      	ldr	r3, [r3, #0]
80100170:	f043 4340 	orr.w	r3, r3, #3221225472	; 0xc0000000
80100174:	6013      	str	r3, [r2, #0]
80100176:	f241 4398 	movw	r3, #5272	; 0x1498
8010017a:	f2c8 0310 	movt	r3, #32784	; 0x8010
8010017e:	681b      	ldr	r3, [r3, #0]
80100180:	681b      	ldr	r3, [r3, #0]
80100182:	607b      	str	r3, [r7, #4]
80100184:	687b      	ldr	r3, [r7, #4]
80100186:	f023 030f 	bic.w	r3, r3, #15
8010018a:	607b      	str	r3, [r7, #4]
8010018c:	687b      	ldr	r3, [r7, #4]
8010018e:	f043 0305 	orr.w	r3, r3, #5
80100192:	607b      	str	r3, [r7, #4]
80100194:	f241 4398 	movw	r3, #5272	; 0x1498
80100198:	f2c8 0310 	movt	r3, #32784	; 0x8010
8010019c:	681b      	ldr	r3, [r3, #0]
8010019e:	687a      	ldr	r2, [r7, #4]
801001a0:	601a      	str	r2, [r3, #0]
801001a2:	f241 439c 	movw	r3, #5276	; 0x149c
801001a6:	f2c8 0310 	movt	r3, #32784	; 0x8010
801001aa:	681a      	ldr	r2, [r3, #0]
801001ac:	f241 439c 	movw	r3, #5276	; 0x149c
801001b0:	f2c8 0310 	movt	r3, #32784	; 0x8010
801001b4:	681b      	ldr	r3, [r3, #0]
801001b6:	681b      	ldr	r3, [r3, #0]
801001b8:	f043 0308 	orr.w	r3, r3, #8
801001bc:	6013      	str	r3, [r2, #0]
801001be:	bf00      	nop
801001c0:	370c      	adds	r7, #12
801001c2:	46bd      	mov	sp, r7
801001c4:	f85d 7b04 	ldr.w	r7, [sp], #4
801001c8:	4770      	bx	lr

801001ca <led_ctl>:
801001ca:	b480      	push	{r7}
801001cc:	b083      	sub	sp, #12
801001ce:	af00      	add	r7, sp, #0
801001d0:	6078      	str	r0, [r7, #4]
801001d2:	687b      	ldr	r3, [r7, #4]
801001d4:	2b00      	cmp	r3, #0
801001d6:	d00e      	beq.n	801001f6 <led_ctl+0x2c>
801001d8:	f241 43a0 	movw	r3, #5280	; 0x14a0
801001dc:	f2c8 0310 	movt	r3, #32784	; 0x8010
801001e0:	681a      	ldr	r2, [r3, #0]
801001e2:	f241 43a0 	movw	r3, #5280	; 0x14a0
801001e6:	f2c8 0310 	movt	r3, #32784	; 0x8010
801001ea:	681b      	ldr	r3, [r3, #0]
801001ec:	681b      	ldr	r3, [r3, #0]
801001ee:	f023 0308 	bic.w	r3, r3, #8
801001f2:	6013      	str	r3, [r2, #0]
801001f4:	e00d      	b.n	80100212 <led_ctl+0x48>
801001f6:	f241 43a0 	movw	r3, #5280	; 0x14a0
801001fa:	f2c8 0310 	movt	r3, #32784	; 0x8010
801001fe:	681a      	ldr	r2, [r3, #0]
80100200:	f241 43a0 	movw	r3, #5280	; 0x14a0
80100204:	f2c8 0310 	movt	r3, #32784	; 0x8010
80100208:	681b      	ldr	r3, [r3, #0]
8010020a:	681b      	ldr	r3, [r3, #0]
8010020c:	f043 0308 	orr.w	r3, r3, #8
80100210:	6013      	str	r3, [r2, #0]
80100212:	bf00      	nop
80100214:	370c      	adds	r7, #12
80100216:	46bd      	mov	sp, r7
80100218:	f85d 7b04 	ldr.w	r7, [sp], #4
8010021c:	4770      	bx	lr

8010021e <buttons_init>:
8010021e:	b480      	push	{r7}
80100220:	b083      	sub	sp, #12
80100222:	af00      	add	r7, sp, #0
80100224:	f241 42a4 	movw	r2, #5284	; 0x14a4
80100228:	f2c8 0210 	movt	r2, #32784	; 0x8010
8010022c:	f244 036c 	movw	r3, #16492	; 0x406c
80100230:	f2c0 230c 	movt	r3, #524	; 0x20c
80100234:	6013      	str	r3, [r2, #0]
80100236:	f241 42a8 	movw	r2, #5288	; 0x14a8
8010023a:	f2c8 0210 	movt	r2, #32784	; 0x8010
8010023e:	230c      	movs	r3, #12
80100240:	f2c0 2329 	movt	r3, #553	; 0x229
80100244:	6013      	str	r3, [r2, #0]
80100246:	f241 42ac 	movw	r2, #5292	; 0x14ac
8010024a:	f2c8 0210 	movt	r2, #32784	; 0x8010
8010024e:	f24c 0304 	movw	r3, #49156	; 0xc004
80100252:	f2c0 230a 	movt	r3, #522	; 0x20a
80100256:	6013      	str	r3, [r2, #0]
80100258:	f241 42b0 	movw	r2, #5296	; 0x14b0
8010025c:	f2c8 0210 	movt	r2, #32784	; 0x8010
80100260:	f44f 4340 	mov.w	r3, #49152	; 0xc000
80100264:	f2c0 230a 	movt	r3, #522	; 0x20a
80100268:	6013      	str	r3, [r2, #0]
8010026a:	f241 42b4 	movw	r2, #5300	; 0x14b4
8010026e:	f2c8 0210 	movt	r2, #32784	; 0x8010
80100272:	f244 0374 	movw	r3, #16500	; 0x4074
80100276:	f2c0 230c 	movt	r3, #524	; 0x20c
8010027a:	6013      	str	r3, [r2, #0]
8010027c:	f241 42b8 	movw	r2, #5304	; 0x14b8
80100280:	f2c8 0210 	movt	r2, #32784	; 0x8010
80100284:	f44f 73d8 	mov.w	r3, #432	; 0x1b0
80100288:	f2c0 230e 	movt	r3, #526	; 0x20e
8010028c:	6013      	str	r3, [r2, #0]
8010028e:	f241 42bc 	movw	r2, #5308	; 0x14bc
80100292:	f2c8 0210 	movt	r2, #32784	; 0x8010
80100296:	f248 0304 	movw	r3, #32772	; 0x8004
8010029a:	f2c0 230a 	movt	r3, #522	; 0x20a
8010029e:	6013      	str	r3, [r2, #0]
801002a0:	f241 42c0 	movw	r2, #5312	; 0x14c0
801002a4:	f2c8 0210 	movt	r2, #32784	; 0x8010
801002a8:	f44f 4300 	mov.w	r3, #32768	; 0x8000
801002ac:	f2c0 230a 	movt	r3, #522	; 0x20a
801002b0:	6013      	str	r3, [r2, #0]
801002b2:	f241 43a4 	movw	r3, #5284	; 0x14a4
801002b6:	f2c8 0310 	movt	r3, #32784	; 0x8010
801002ba:	681a      	ldr	r2, [r3, #0]
801002bc:	f241 43a4 	movw	r3, #5284	; 0x14a4
801002c0:	f2c8 0310 	movt	r3, #32784	; 0x8010
801002c4:	681b      	ldr	r3, [r3, #0]
801002c6:	681b      	ldr	r3, [r3, #0]
801002c8:	f043 4340 	orr.w	r3, r3, #3221225472	; 0xc0000000
801002cc:	6013      	str	r3, [r2, #0]
801002ce:	f241 43b4 	movw	r3, #5300	; 0x14b4
801002d2:	f2c8 0310 	movt	r3, #32784	; 0x8010
801002d6:	681a      	ldr	r2, [r3, #0]
801002d8:	f241 43b4 	movw	r3, #5300	; 0x14b4
801002dc:	f2c8 0310 	movt	r3, #32784	; 0x8010
801002e0:	681b      	ldr	r3, [r3, #0]
801002e2:	681b      	ldr	r3, [r3, #0]
801002e4:	f443 5340 	orr.w	r3, r3, #12288	; 0x3000
801002e8:	6013      	str	r3, [r2, #0]
801002ea:	f241 43a8 	movw	r3, #5288	; 0x14a8
801002ee:	f2c8 0310 	movt	r3, #32784	; 0x8010
801002f2:	681b      	ldr	r3, [r3, #0]
801002f4:	681b      	ldr	r3, [r3, #0]
801002f6:	607b      	str	r3, [r7, #4]
801002f8:	687b      	ldr	r3, [r7, #4]
801002fa:	f023 030f 	bic.w	r3, r3, #15
801002fe:	607b      	str	r3, [r7, #4]
80100300:	687b      	ldr	r3, [r7, #4]
80100302:	f043 0305 	orr.w	r3, r3, #5
80100306:	607b      	str	r3, [r7, #4]
80100308:	f241 43a8 	movw	r3, #5288	; 0x14a8
8010030c:	f2c8 0310 	movt	r3, #32784	; 0x8010
80100310:	681b      	ldr	r3, [r3, #0]
80100312:	687a      	ldr	r2, [r7, #4]
80100314:	601a      	str	r2, [r3, #0]
80100316:	f241 43b8 	movw	r3, #5304	; 0x14b8
8010031a:	f2c8 0310 	movt	r3, #32784	; 0x8010
8010031e:	681b      	ldr	r3, [r3, #0]
80100320:	681b      	ldr	r3, [r3, #0]
80100322:	607b      	str	r3, [r7, #4]
80100324:	687b      	ldr	r3, [r7, #4]
80100326:	f023 030f 	bic.w	r3, r3, #15
8010032a:	607b      	str	r3, [r7, #4]
8010032c:	687b      	ldr	r3, [r7, #4]
8010032e:	f043 0305 	orr.w	r3, r3, #5
80100332:	607b      	str	r3, [r7, #4]
80100334:	f241 43b8 	movw	r3, #5304	; 0x14b8
80100338:	f2c8 0310 	movt	r3, #32784	; 0x8010
8010033c:	681b      	ldr	r3, [r3, #0]
8010033e:	687a      	ldr	r2, [r7, #4]
80100340:	601a      	str	r2, [r3, #0]
80100342:	f241 43ac 	movw	r3, #5292	; 0x14ac
80100346:	f2c8 0310 	movt	r3, #32784	; 0x8010
8010034a:	681a      	ldr	r2, [r3, #0]
8010034c:	f241 43ac 	movw	r3, #5292	; 0x14ac
80100350:	f2c8 0310 	movt	r3, #32784	; 0x8010
80100354:	681b      	ldr	r3, [r3, #0]
80100356:	681b      	ldr	r3, [r3, #0]
80100358:	f023 0302 	bic.w	r3, r3, #2
8010035c:	6013      	str	r3, [r2, #0]
8010035e:	f241 43bc 	movw	r3, #5308	; 0x14bc
80100362:	f2c8 0310 	movt	r3, #32784	; 0x8010
80100366:	681a      	ldr	r2, [r3, #0]
80100368:	f241 43bc 	movw	r3, #5308	; 0x14bc
8010036c:	f2c8 0310 	movt	r3, #32784	; 0x8010
80100370:	681b      	ldr	r3, [r3, #0]
80100372:	681b      	ldr	r3, [r3, #0]
80100374:	f423 4380 	bic.w	r3, r3, #16384	; 0x4000
80100378:	6013      	str	r3, [r2, #0]
8010037a:	bf00      	nop
8010037c:	370c      	adds	r7, #12
8010037e:	46bd      	mov	sp, r7
80100380:	f85d 7b04 	ldr.w	r7, [sp], #4
80100384:	4770      	bx	lr

80100386 <key_exit_init>:
80100386:	b580      	push	{r7, lr}
80100388:	af00      	add	r7, sp, #0
8010038a:	f241 42c4 	movw	r2, #5316	; 0x14c4
8010038e:	f2c8 0210 	movt	r2, #32784	; 0x8010
80100392:	f24c 0314 	movw	r3, #49172	; 0xc014
80100396:	f2c0 230a 	movt	r3, #522	; 0x20a
8010039a:	6013      	str	r3, [r2, #0]
8010039c:	f241 42c8 	movw	r2, #5320	; 0x14c8
801003a0:	f2c8 0210 	movt	r2, #32784	; 0x8010
801003a4:	f24c 031c 	movw	r3, #49180	; 0xc01c
801003a8:	f2c0 230a 	movt	r3, #522	; 0x20a
801003ac:	6013      	str	r3, [r2, #0]
801003ae:	f241 42cc 	movw	r2, #5324	; 0x14cc
801003b2:	f2c8 0210 	movt	r2, #32784	; 0x8010
801003b6:	f24c 0318 	movw	r3, #49176	; 0xc018
801003ba:	f2c0 230a 	movt	r3, #522	; 0x20a
801003be:	6013      	str	r3, [r2, #0]
801003c0:	f241 42d0 	movw	r2, #5328	; 0x14d0
801003c4:	f2c8 0210 	movt	r2, #32784	; 0x8010
801003c8:	f44f 4340 	mov.w	r3, #49152	; 0xc000
801003cc:	f2c0 230a 	movt	r3, #522	; 0x20a
801003d0:	6013      	str	r3, [r2, #0]
801003d2:	f241 42d4 	movw	r2, #5332	; 0x14d4
801003d6:	f2c8 0210 	movt	r2, #32784	; 0x8010
801003da:	f248 0314 	movw	r3, #32788	; 0x8014
801003de:	f2c0 230a 	movt	r3, #522	; 0x20a
801003e2:	6013      	str	r3, [r2, #0]
801003e4:	f241 42d8 	movw	r2, #5336	; 0x14d8
801003e8:	f2c8 0210 	movt	r2, #32784	; 0x8010
801003ec:	f248 031c 	movw	r3, #32796	; 0x801c
801003f0:	f2c0 230a 	movt	r3, #522	; 0x20a
801003f4:	6013      	str	r3, [r2, #0]
801003f6:	f241 42dc 	movw	r2, #5340	; 0x14dc
801003fa:	f2c8 0210 	movt	r2, #32784	; 0x8010
801003fe:	f248 0318 	movw	r3, #32792	; 0x8018
80100402:	f2c0 230a 	movt	r3, #522	; 0x20a
80100406:	6013      	str	r3, [r2, #0]
80100408:	f241 42e0 	movw	r2, #5344	; 0x14e0
8010040c:	f2c8 0210 	movt	r2, #32784	; 0x8010
80100410:	f44f 4300 	mov.w	r3, #32768	; 0x8000
80100414:	f2c0 230a 	movt	r3, #522	; 0x20a
80100418:	6013      	str	r3, [r2, #0]
8010041a:	f000 fd1e 	bl	80100e5a <gic_init>
8010041e:	206a      	movs	r0, #106	; 0x6a
80100420:	f000 fd56 	bl	80100ed0 <gic_enable_irq>
80100424:	2068      	movs	r0, #104	; 0x68
80100426:	f000 fd53 	bl	80100ed0 <gic_enable_irq>
8010042a:	f241 43c8 	movw	r3, #5320	; 0x14c8
8010042e:	f2c8 0310 	movt	r3, #32784	; 0x8010
80100432:	681a      	ldr	r2, [r3, #0]
80100434:	f241 43c8 	movw	r3, #5320	; 0x14c8
80100438:	f2c8 0310 	movt	r3, #32784	; 0x8010
8010043c:	681b      	ldr	r3, [r3, #0]
8010043e:	681b      	ldr	r3, [r3, #0]
80100440:	f043 0302 	orr.w	r3, r3, #2
80100444:	6013      	str	r3, [r2, #0]
80100446:	f241 43d8 	movw	r3, #5336	; 0x14d8
8010044a:	f2c8 0310 	movt	r3, #32784	; 0x8010
8010044e:	681a      	ldr	r2, [r3, #0]
80100450:	f241 43d8 	movw	r3, #5336	; 0x14d8
80100454:	f2c8 0310 	movt	r3, #32784	; 0x8010
80100458:	681b      	ldr	r3, [r3, #0]
8010045a:	681b      	ldr	r3, [r3, #0]
8010045c:	f443 4380 	orr.w	r3, r3, #16384	; 0x4000
80100460:	6013      	str	r3, [r2, #0]
80100462:	f241 43c4 	movw	r3, #5316	; 0x14c4
80100466:	f2c8 0310 	movt	r3, #32784	; 0x8010
8010046a:	681a      	ldr	r2, [r3, #0]
8010046c:	f241 43c4 	movw	r3, #5316	; 0x14c4
80100470:	f2c8 0310 	movt	r3, #32784	; 0x8010
80100474:	681b      	ldr	r3, [r3, #0]
80100476:	681b      	ldr	r3, [r3, #0]
80100478:	f043 0302 	orr.w	r3, r3, #2
8010047c:	6013      	str	r3, [r2, #0]
8010047e:	f241 43d4 	movw	r3, #5332	; 0x14d4
80100482:	f2c8 0310 	movt	r3, #32784	; 0x8010
80100486:	681a      	ldr	r2, [r3, #0]
80100488:	f241 43d4 	movw	r3, #5332	; 0x14d4
8010048c:	f2c8 0310 	movt	r3, #32784	; 0x8010
80100490:	681b      	ldr	r3, [r3, #0]
80100492:	681b      	ldr	r3, [r3, #0]
80100494:	f443 4380 	orr.w	r3, r3, #16384	; 0x4000
80100498:	6013      	str	r3, [r2, #0]
8010049a:	bf00      	nop
8010049c:	bd80      	pop	{r7, pc}

8010049e <handle_irq_c>:
8010049e:	b580      	push	{r7, lr}
801004a0:	b082      	sub	sp, #8
801004a2:	af00      	add	r7, sp, #0
801004a4:	f000 fccc 	bl	80100e40 <get_gic_base>
801004a8:	6078      	str	r0, [r7, #4]
801004aa:	687b      	ldr	r3, [r7, #4]
801004ac:	f503 5300 	add.w	r3, r3, #8192	; 0x2000
801004b0:	330c      	adds	r3, #12
801004b2:	681b      	ldr	r3, [r3, #0]
801004b4:	603b      	str	r3, [r7, #0]
801004b6:	6839      	ldr	r1, [r7, #0]
801004b8:	f241 20fc 	movw	r0, #4860	; 0x12fc
801004bc:	f2c8 0010 	movt	r0, #32784	; 0x8010
801004c0:	f000 fc2d 	bl	80100d1e <printf>
801004c4:	683b      	ldr	r3, [r7, #0]
801004c6:	2b68      	cmp	r3, #104	; 0x68
801004c8:	d02f      	beq.n	8010052a <handle_irq_c+0x8c>
801004ca:	2b6a      	cmp	r3, #106	; 0x6a
801004cc:	d000      	beq.n	801004d0 <handle_irq_c+0x32>
801004ce:	e059      	b.n	80100584 <handle_irq_c+0xe6>
801004d0:	f241 43d0 	movw	r3, #5328	; 0x14d0
801004d4:	f2c8 0310 	movt	r3, #32784	; 0x8010
801004d8:	681b      	ldr	r3, [r3, #0]
801004da:	681b      	ldr	r3, [r3, #0]
801004dc:	085b      	lsrs	r3, r3, #1
801004de:	f003 0301 	and.w	r3, r3, #1
801004e2:	2b00      	cmp	r3, #0
801004e4:	d009      	beq.n	801004fa <handle_irq_c+0x5c>
801004e6:	f241 3014 	movw	r0, #4884	; 0x1314
801004ea:	f2c8 0010 	movt	r0, #32784	; 0x8010
801004ee:	f000 fc16 	bl	80100d1e <printf>
801004f2:	2000      	movs	r0, #0
801004f4:	f7ff fe69 	bl	801001ca <led_ctl>
801004f8:	e008      	b.n	8010050c <handle_irq_c+0x6e>
801004fa:	f241 3028 	movw	r0, #4904	; 0x1328
801004fe:	f2c8 0010 	movt	r0, #32784	; 0x8010
80100502:	f000 fc0c 	bl	80100d1e <printf>
80100506:	2001      	movs	r0, #1
80100508:	f7ff fe5f 	bl	801001ca <led_ctl>
8010050c:	f241 43cc 	movw	r3, #5324	; 0x14cc
80100510:	f2c8 0310 	movt	r3, #32784	; 0x8010
80100514:	681a      	ldr	r2, [r3, #0]
80100516:	f241 43cc 	movw	r3, #5324	; 0x14cc
8010051a:	f2c8 0310 	movt	r3, #32784	; 0x8010
8010051e:	681b      	ldr	r3, [r3, #0]
80100520:	681b      	ldr	r3, [r3, #0]
80100522:	f043 0302 	orr.w	r3, r3, #2
80100526:	6013      	str	r3, [r2, #0]
80100528:	e02c      	b.n	80100584 <handle_irq_c+0xe6>
8010052a:	f241 43e0 	movw	r3, #5344	; 0x14e0
8010052e:	f2c8 0310 	movt	r3, #32784	; 0x8010
80100532:	681b      	ldr	r3, [r3, #0]
80100534:	681b      	ldr	r3, [r3, #0]
80100536:	0b9b      	lsrs	r3, r3, #14
80100538:	f003 0301 	and.w	r3, r3, #1
8010053c:	2b00      	cmp	r3, #0
8010053e:	d009      	beq.n	80100554 <handle_irq_c+0xb6>
80100540:	f241 303c 	movw	r0, #4924	; 0x133c
80100544:	f2c8 0010 	movt	r0, #32784	; 0x8010
80100548:	f000 fbe9 	bl	80100d1e <printf>
8010054c:	2000      	movs	r0, #0
8010054e:	f7ff fe3c 	bl	801001ca <led_ctl>
80100552:	e008      	b.n	80100566 <handle_irq_c+0xc8>
80100554:	f241 3050 	movw	r0, #4944	; 0x1350
80100558:	f2c8 0010 	movt	r0, #32784	; 0x8010
8010055c:	f000 fbdf 	bl	80100d1e <printf>
80100560:	2001      	movs	r0, #1
80100562:	f7ff fe32 	bl	801001ca <led_ctl>
80100566:	f241 43dc 	movw	r3, #5340	; 0x14dc
8010056a:	f2c8 0310 	movt	r3, #32784	; 0x8010
8010056e:	681a      	ldr	r2, [r3, #0]
80100570:	f241 43dc 	movw	r3, #5340	; 0x14dc
80100574:	f2c8 0310 	movt	r3, #32784	; 0x8010
80100578:	681b      	ldr	r3, [r3, #0]
8010057a:	681b      	ldr	r3, [r3, #0]
8010057c:	f443 4380 	orr.w	r3, r3, #16384	; 0x4000
80100580:	6013      	str	r3, [r2, #0]
80100582:	bf00      	nop
80100584:	683a      	ldr	r2, [r7, #0]
80100586:	687b      	ldr	r3, [r7, #4]
80100588:	f503 5300 	add.w	r3, r3, #8192	; 0x2000
8010058c:	3310      	adds	r3, #16
8010058e:	601a      	str	r2, [r3, #0]
80100590:	bf00      	nop
80100592:	3708      	adds	r7, #8
80100594:	46bd      	mov	sp, r7
80100596:	bd80      	pop	{r7, pc}

80100598 <UART_SetBaudRate>:
80100598:	b590      	push	{r4, r7, lr}
8010059a:	b091      	sub	sp, #68	; 0x44
8010059c:	af00      	add	r7, sp, #0
8010059e:	6078      	str	r0, [r7, #4]
801005a0:	6039      	str	r1, [r7, #0]
801005a2:	2300      	movs	r3, #0
801005a4:	63fb      	str	r3, [r7, #60]	; 0x3c
801005a6:	2300      	movs	r3, #0
801005a8:	63bb      	str	r3, [r7, #56]	; 0x38
801005aa:	2300      	movs	r3, #0
801005ac:	637b      	str	r3, [r7, #52]	; 0x34
801005ae:	2300      	movs	r3, #0
801005b0:	633b      	str	r3, [r7, #48]	; 0x30
801005b2:	2301      	movs	r3, #1
801005b4:	623b      	str	r3, [r7, #32]
801005b6:	f04f 0300 	mov.w	r3, #0
801005ba:	f04f 0400 	mov.w	r4, #0
801005be:	e9c7 3406 	strd	r3, r4, [r7, #24]
801005c2:	f04f 0300 	mov.w	r3, #0
801005c6:	f04f 0400 	mov.w	r4, #0
801005ca:	e9c7 340a 	strd	r3, r4, [r7, #40]	; 0x28
801005ce:	2300      	movs	r3, #0
801005d0:	627b      	str	r3, [r7, #36]	; 0x24
801005d2:	683b      	ldr	r3, [r7, #0]
801005d4:	63fb      	str	r3, [r7, #60]	; 0x3c
801005d6:	687b      	ldr	r3, [r7, #4]
801005d8:	011b      	lsls	r3, r3, #4
801005da:	63bb      	str	r3, [r7, #56]	; 0x38
801005dc:	2301      	movs	r3, #1
801005de:	637b      	str	r3, [r7, #52]	; 0x34
801005e0:	e00a      	b.n	801005f8 <UART_SetBaudRate+0x60>
801005e2:	6bbb      	ldr	r3, [r7, #56]	; 0x38
801005e4:	637b      	str	r3, [r7, #52]	; 0x34
801005e6:	6bfb      	ldr	r3, [r7, #60]	; 0x3c
801005e8:	6bb9      	ldr	r1, [r7, #56]	; 0x38
801005ea:	4618      	mov	r0, r3
801005ec:	f000 fdce 	bl	8010118c <__aeabi_uidivmod>
801005f0:	460b      	mov	r3, r1
801005f2:	63bb      	str	r3, [r7, #56]	; 0x38
801005f4:	6b7b      	ldr	r3, [r7, #52]	; 0x34
801005f6:	63fb      	str	r3, [r7, #60]	; 0x3c
801005f8:	6bbb      	ldr	r3, [r7, #56]	; 0x38
801005fa:	2b00      	cmp	r3, #0
801005fc:	d1f1      	bne.n	801005e2 <UART_SetBaudRate+0x4a>
801005fe:	6b79      	ldr	r1, [r7, #52]	; 0x34
80100600:	6838      	ldr	r0, [r7, #0]
80100602:	f000 fc95 	bl	80100f30 <__aeabi_uidiv>
80100606:	4603      	mov	r3, r0
80100608:	63fb      	str	r3, [r7, #60]	; 0x3c
8010060a:	687b      	ldr	r3, [r7, #4]
8010060c:	011b      	lsls	r3, r3, #4
8010060e:	6b79      	ldr	r1, [r7, #52]	; 0x34
80100610:	4618      	mov	r0, r3
80100612:	f000 fc8d 	bl	80100f30 <__aeabi_uidiv>
80100616:	4603      	mov	r3, r0
80100618:	63bb      	str	r3, [r7, #56]	; 0x38
8010061a:	6bfa      	ldr	r2, [r7, #60]	; 0x3c
8010061c:	f64f 73f9 	movw	r3, #65529	; 0xfff9
80100620:	f2c0 0306 	movt	r3, #6
80100624:	429a      	cmp	r2, r3
80100626:	d803      	bhi.n	80100630 <UART_SetBaudRate+0x98>
80100628:	6bbb      	ldr	r3, [r7, #56]	; 0x38
8010062a:	f5b3 3f80 	cmp.w	r3, #65536	; 0x10000
8010062e:	d334      	bcc.n	8010069a <UART_SetBaudRate+0x102>
80100630:	6bfb      	ldr	r3, [r7, #60]	; 0x3c
80100632:	1e5a      	subs	r2, r3, #1
80100634:	f646 53b9 	movw	r3, #28089	; 0x6db9
80100638:	f2c2 4393 	movt	r3, #9363	; 0x2493
8010063c:	fba2 3403 	umull	r3, r4, r2, r3
80100640:	1b12      	subs	r2, r2, r4
80100642:	0852      	lsrs	r2, r2, #1
80100644:	1913      	adds	r3, r2, r4
80100646:	0c9b      	lsrs	r3, r3, #18
80100648:	3301      	adds	r3, #1
8010064a:	617b      	str	r3, [r7, #20]
8010064c:	6bbb      	ldr	r3, [r7, #56]	; 0x38
8010064e:	1e5a      	subs	r2, r3, #1
80100650:	f248 0301 	movw	r3, #32769	; 0x8001
80100654:	f2c8 0300 	movt	r3, #32768	; 0x8000
80100658:	fba2 3403 	umull	r3, r4, r2, r3
8010065c:	0be3      	lsrs	r3, r4, #15
8010065e:	3301      	adds	r3, #1
80100660:	613b      	str	r3, [r7, #16]
80100662:	693a      	ldr	r2, [r7, #16]
80100664:	697b      	ldr	r3, [r7, #20]
80100666:	4293      	cmp	r3, r2
80100668:	bf38      	it	cc
8010066a:	4613      	movcc	r3, r2
8010066c:	60fb      	str	r3, [r7, #12]
8010066e:	68f9      	ldr	r1, [r7, #12]
80100670:	6bf8      	ldr	r0, [r7, #60]	; 0x3c
80100672:	f000 fc5d 	bl	80100f30 <__aeabi_uidiv>
80100676:	4603      	mov	r3, r0
80100678:	63fb      	str	r3, [r7, #60]	; 0x3c
8010067a:	68f9      	ldr	r1, [r7, #12]
8010067c:	6bb8      	ldr	r0, [r7, #56]	; 0x38
8010067e:	f000 fc57 	bl	80100f30 <__aeabi_uidiv>
80100682:	4603      	mov	r3, r0
80100684:	63bb      	str	r3, [r7, #56]	; 0x38
80100686:	6bfb      	ldr	r3, [r7, #60]	; 0x3c
80100688:	2b00      	cmp	r3, #0
8010068a:	d101      	bne.n	80100690 <UART_SetBaudRate+0xf8>
8010068c:	2301      	movs	r3, #1
8010068e:	63fb      	str	r3, [r7, #60]	; 0x3c
80100690:	6bbb      	ldr	r3, [r7, #56]	; 0x38
80100692:	2b00      	cmp	r3, #0
80100694:	d101      	bne.n	8010069a <UART_SetBaudRate+0x102>
80100696:	2301      	movs	r3, #1
80100698:	63bb      	str	r3, [r7, #56]	; 0x38
8010069a:	6bfb      	ldr	r3, [r7, #60]	; 0x3c
8010069c:	1e5a      	subs	r2, r3, #1
8010069e:	f248 0301 	movw	r3, #32769	; 0x8001
801006a2:	f2c8 0300 	movt	r3, #32768	; 0x8000
801006a6:	fba2 3403 	umull	r3, r4, r2, r3
801006aa:	0be3      	lsrs	r3, r4, #15
801006ac:	3301      	adds	r3, #1
801006ae:	623b      	str	r3, [r7, #32]
801006b0:	6a3b      	ldr	r3, [r7, #32]
801006b2:	3b01      	subs	r3, #1
801006b4:	2b06      	cmp	r3, #6
801006b6:	d826      	bhi.n	80100706 <UART_SetBaudRate+0x16e>
801006b8:	a201      	add	r2, pc, #4	; (adr r2, 801006c0 <UART_SetBaudRate+0x128>)
801006ba:	f852 f023 	ldr.w	pc, [r2, r3, lsl #2]
801006be:	bf00      	nop
801006c0:	801006dd 			; <UNDEFINED> instruction: 0x801006dd
801006c4:	801006e3 	andshi	r0, r0, r3, ror #13
801006c8:	801006e9 	andshi	r0, r0, r9, ror #13
801006cc:	801006ef 	andshi	r0, r0, pc, ror #13
801006d0:	801006f5 			; <UNDEFINED> instruction: 0x801006f5
801006d4:	801006fb 			; <UNDEFINED> instruction: 0x801006fb
801006d8:	80100701 	andshi	r0, r0, r1, lsl #14
801006dc:	2305      	movs	r3, #5
801006de:	633b      	str	r3, [r7, #48]	; 0x30
801006e0:	e014      	b.n	8010070c <UART_SetBaudRate+0x174>
801006e2:	2304      	movs	r3, #4
801006e4:	633b      	str	r3, [r7, #48]	; 0x30
801006e6:	e011      	b.n	8010070c <UART_SetBaudRate+0x174>
801006e8:	2303      	movs	r3, #3
801006ea:	633b      	str	r3, [r7, #48]	; 0x30
801006ec:	e00e      	b.n	8010070c <UART_SetBaudRate+0x174>
801006ee:	2302      	movs	r3, #2
801006f0:	633b      	str	r3, [r7, #48]	; 0x30
801006f2:	e00b      	b.n	8010070c <UART_SetBaudRate+0x174>
801006f4:	2301      	movs	r3, #1
801006f6:	633b      	str	r3, [r7, #48]	; 0x30
801006f8:	e008      	b.n	8010070c <UART_SetBaudRate+0x174>
801006fa:	2300      	movs	r3, #0
801006fc:	633b      	str	r3, [r7, #48]	; 0x30
801006fe:	e005      	b.n	8010070c <UART_SetBaudRate+0x174>
80100700:	2306      	movs	r3, #6
80100702:	633b      	str	r3, [r7, #48]	; 0x30
80100704:	e002      	b.n	8010070c <UART_SetBaudRate+0x174>
80100706:	2305      	movs	r3, #5
80100708:	633b      	str	r3, [r7, #48]	; 0x30
8010070a:	bf00      	nop
8010070c:	683b      	ldr	r3, [r7, #0]
8010070e:	f04f 0400 	mov.w	r4, #0
80100712:	e9c7 340a 	strd	r3, r4, [r7, #40]	; 0x28
80100716:	6bfb      	ldr	r3, [r7, #60]	; 0x3c
80100718:	011b      	lsls	r3, r3, #4
8010071a:	627b      	str	r3, [r7, #36]	; 0x24
8010071c:	2301      	movs	r3, #1
8010071e:	637b      	str	r3, [r7, #52]	; 0x34
80100720:	e012      	b.n	80100748 <UART_SetBaudRate+0x1b0>
80100722:	6a7b      	ldr	r3, [r7, #36]	; 0x24
80100724:	637b      	str	r3, [r7, #52]	; 0x34
80100726:	6a7b      	ldr	r3, [r7, #36]	; 0x24
80100728:	f04f 0400 	mov.w	r4, #0
8010072c:	e9d7 010a 	ldrd	r0, r1, [r7, #40]	; 0x28
80100730:	461a      	mov	r2, r3
80100732:	4623      	mov	r3, r4
80100734:	f000 fd38 	bl	801011a8 <__aeabi_uldivmod>
80100738:	461c      	mov	r4, r3
8010073a:	4613      	mov	r3, r2
8010073c:	627b      	str	r3, [r7, #36]	; 0x24
8010073e:	6b7b      	ldr	r3, [r7, #52]	; 0x34
80100740:	f04f 0400 	mov.w	r4, #0
80100744:	e9c7 340a 	strd	r3, r4, [r7, #40]	; 0x28
80100748:	6a7b      	ldr	r3, [r7, #36]	; 0x24
8010074a:	2b00      	cmp	r3, #0
8010074c:	d1e9      	bne.n	80100722 <UART_SetBaudRate+0x18a>
8010074e:	6b79      	ldr	r1, [r7, #52]	; 0x34
80100750:	6838      	ldr	r0, [r7, #0]
80100752:	f000 fbed 	bl	80100f30 <__aeabi_uidiv>
80100756:	4603      	mov	r3, r0
80100758:	f04f 0400 	mov.w	r4, #0
8010075c:	e9c7 340a 	strd	r3, r4, [r7, #40]	; 0x28
80100760:	6bfb      	ldr	r3, [r7, #60]	; 0x3c
80100762:	011b      	lsls	r3, r3, #4
80100764:	6b79      	ldr	r1, [r7, #52]	; 0x34
80100766:	4618      	mov	r0, r3
80100768:	f000 fbe2 	bl	80100f30 <__aeabi_uidiv>
8010076c:	4603      	mov	r3, r0
8010076e:	627b      	str	r3, [r7, #36]	; 0x24
80100770:	6bbb      	ldr	r3, [r7, #56]	; 0x38
80100772:	f04f 0400 	mov.w	r4, #0
80100776:	6aba      	ldr	r2, [r7, #40]	; 0x28
80100778:	fb04 f102 	mul.w	r1, r4, r2
8010077c:	6afa      	ldr	r2, [r7, #44]	; 0x2c
8010077e:	fb03 f202 	mul.w	r2, r3, r2
80100782:	440a      	add	r2, r1
80100784:	6ab9      	ldr	r1, [r7, #40]	; 0x28
80100786:	fba1 0103 	umull	r0, r1, r1, r3
8010078a:	1853      	adds	r3, r2, r1
8010078c:	4619      	mov	r1, r3
8010078e:	6a7b      	ldr	r3, [r7, #36]	; 0x24
80100790:	f04f 0400 	mov.w	r4, #0
80100794:	461a      	mov	r2, r3
80100796:	4623      	mov	r3, r4
80100798:	f000 fd06 	bl	801011a8 <__aeabi_uldivmod>
8010079c:	4603      	mov	r3, r0
8010079e:	460c      	mov	r4, r1
801007a0:	e9c7 3406 	strd	r3, r4, [r7, #24]
801007a4:	687b      	ldr	r3, [r7, #4]
801007a6:	f04f 0400 	mov.w	r4, #0
801007aa:	e9d7 1206 	ldrd	r1, r2, [r7, #24]
801007ae:	42a2      	cmp	r2, r4
801007b0:	bf08      	it	eq
801007b2:	4299      	cmpeq	r1, r3
801007b4:	d308      	bcc.n	801007c8 <UART_SetBaudRate+0x230>
801007b6:	687b      	ldr	r3, [r7, #4]
801007b8:	f04f 0400 	mov.w	r4, #0
801007bc:	e9d7 1206 	ldrd	r1, r2, [r7, #24]
801007c0:	1acb      	subs	r3, r1, r3
801007c2:	eb62 0404 	sbc.w	r4, r2, r4
801007c6:	e008      	b.n	801007da <UART_SetBaudRate+0x242>
801007c8:	687b      	ldr	r3, [r7, #4]
801007ca:	4619      	mov	r1, r3
801007cc:	f04f 0200 	mov.w	r2, #0
801007d0:	e9d7 3406 	ldrd	r3, r4, [r7, #24]
801007d4:	1acb      	subs	r3, r1, r3
801007d6:	eb62 0404 	sbc.w	r4, r2, r4
801007da:	e9c7 3406 	strd	r3, r4, [r7, #24]
801007de:	2300      	movs	r3, #0
801007e0:	f2c0 2302 	movt	r3, #514	; 0x202
801007e4:	2200      	movs	r2, #0
801007e6:	f2c0 2202 	movt	r2, #514	; 0x202
801007ea:	f8d2 2090 	ldr.w	r2, [r2, #144]	; 0x90
801007ee:	f422 7260 	bic.w	r2, r2, #896	; 0x380
801007f2:	f8c3 2090 	str.w	r2, [r3, #144]	; 0x90
801007f6:	2300      	movs	r3, #0
801007f8:	f2c0 2302 	movt	r3, #514	; 0x202
801007fc:	2200      	movs	r2, #0
801007fe:	f2c0 2202 	movt	r2, #514	; 0x202
80100802:	f8d2 1090 	ldr.w	r1, [r2, #144]	; 0x90
80100806:	6b3a      	ldr	r2, [r7, #48]	; 0x30
80100808:	01d2      	lsls	r2, r2, #7
8010080a:	f402 7260 	and.w	r2, r2, #896	; 0x380
8010080e:	430a      	orrs	r2, r1
80100810:	f8c3 2090 	str.w	r2, [r3, #144]	; 0x90
80100814:	2300      	movs	r3, #0
80100816:	f2c0 2302 	movt	r3, #514	; 0x202
8010081a:	6bba      	ldr	r2, [r7, #56]	; 0x38
8010081c:	3a01      	subs	r2, #1
8010081e:	b292      	uxth	r2, r2
80100820:	f8c3 20a4 	str.w	r2, [r3, #164]	; 0xa4
80100824:	2400      	movs	r4, #0
80100826:	f2c0 2402 	movt	r4, #514	; 0x202
8010082a:	6a39      	ldr	r1, [r7, #32]
8010082c:	6bf8      	ldr	r0, [r7, #60]	; 0x3c
8010082e:	f000 fb7f 	bl	80100f30 <__aeabi_uidiv>
80100832:	4603      	mov	r3, r0
80100834:	3b01      	subs	r3, #1
80100836:	b29b      	uxth	r3, r3
80100838:	f8c4 30a8 	str.w	r3, [r4, #168]	; 0xa8
8010083c:	2400      	movs	r4, #0
8010083e:	f2c0 2402 	movt	r4, #514	; 0x202
80100842:	6a3b      	ldr	r3, [r7, #32]
80100844:	f44f 727a 	mov.w	r2, #1000	; 0x3e8
80100848:	fb02 f303 	mul.w	r3, r2, r3
8010084c:	4619      	mov	r1, r3
8010084e:	6838      	ldr	r0, [r7, #0]
80100850:	f000 fb6e 	bl	80100f30 <__aeabi_uidiv>
80100854:	4603      	mov	r3, r0
80100856:	f023 437f 	bic.w	r3, r3, #4278190080	; 0xff000000
8010085a:	f8c4 30b0 	str.w	r3, [r4, #176]	; 0xb0
8010085e:	bf00      	nop
80100860:	3744      	adds	r7, #68	; 0x44
80100862:	46bd      	mov	sp, r7
80100864:	bd90      	pop	{r4, r7, pc}

80100866 <uart1_init>:
80100866:	b580      	push	{r7, lr}
80100868:	af00      	add	r7, sp, #0
8010086a:	2300      	movs	r3, #0
8010086c:	f2c0 2302 	movt	r3, #514	; 0x202
80100870:	2200      	movs	r2, #0
80100872:	f2c0 2202 	movt	r2, #514	; 0x202
80100876:	f8d2 2080 	ldr.w	r2, [r2, #128]	; 0x80
8010087a:	f022 0201 	bic.w	r2, r2, #1
8010087e:	f8c3 2080 	str.w	r2, [r3, #128]	; 0x80
80100882:	2300      	movs	r3, #0
80100884:	f2c0 2302 	movt	r3, #514	; 0x202
80100888:	2200      	movs	r2, #0
8010088a:	f2c0 2202 	movt	r2, #514	; 0x202
8010088e:	f8d2 2084 	ldr.w	r2, [r2, #132]	; 0x84
80100892:	f022 0201 	bic.w	r2, r2, #1
80100896:	f8c3 2084 	str.w	r2, [r3, #132]	; 0x84
8010089a:	bf00      	nop
8010089c:	2300      	movs	r3, #0
8010089e:	f2c0 2302 	movt	r3, #514	; 0x202
801008a2:	f8d3 3084 	ldr.w	r3, [r3, #132]	; 0x84
801008a6:	f003 0301 	and.w	r3, r3, #1
801008aa:	2b00      	cmp	r3, #0
801008ac:	d0f6      	beq.n	8010089c <uart1_init+0x36>
801008ae:	2300      	movs	r3, #0
801008b0:	f2c0 2302 	movt	r3, #514	; 0x202
801008b4:	2200      	movs	r2, #0
801008b6:	f8c3 2080 	str.w	r2, [r3, #128]	; 0x80
801008ba:	2300      	movs	r3, #0
801008bc:	f2c0 2302 	movt	r3, #514	; 0x202
801008c0:	2201      	movs	r2, #1
801008c2:	f8c3 2084 	str.w	r2, [r3, #132]	; 0x84
801008c6:	2300      	movs	r3, #0
801008c8:	f2c0 2302 	movt	r3, #514	; 0x202
801008cc:	f44f 62e0 	mov.w	r2, #1792	; 0x700
801008d0:	f8c3 2088 	str.w	r2, [r3, #136]	; 0x88
801008d4:	2300      	movs	r3, #0
801008d6:	f2c0 2302 	movt	r3, #514	; 0x202
801008da:	f44f 4200 	mov.w	r2, #32768	; 0x8000
801008de:	f8c3 208c 	str.w	r2, [r3, #140]	; 0x8c
801008e2:	2300      	movs	r3, #0
801008e4:	f2c0 2302 	movt	r3, #514	; 0x202
801008e8:	f640 0201 	movw	r2, #2049	; 0x801
801008ec:	f8c3 2090 	str.w	r2, [r3, #144]	; 0x90
801008f0:	2300      	movs	r3, #0
801008f2:	f2c0 2302 	movt	r3, #514	; 0x202
801008f6:	222b      	movs	r2, #43	; 0x2b
801008f8:	f8c3 209c 	str.w	r2, [r3, #156]	; 0x9c
801008fc:	2300      	movs	r3, #0
801008fe:	f2c0 2302 	movt	r3, #514	; 0x202
80100902:	2200      	movs	r2, #0
80100904:	f8c3 20a0 	str.w	r2, [r3, #160]	; 0xa0
80100908:	2300      	movs	r3, #0
8010090a:	f2c0 2302 	movt	r3, #514	; 0x202
8010090e:	2200      	movs	r2, #0
80100910:	f8c3 20b0 	str.w	r2, [r3, #176]	; 0xb0
80100914:	2300      	movs	r3, #0
80100916:	f2c0 2302 	movt	r3, #514	; 0x202
8010091a:	2260      	movs	r2, #96	; 0x60
8010091c:	f8c3 20b4 	str.w	r2, [r3, #180]	; 0xb4
80100920:	2300      	movs	r3, #0
80100922:	f2c0 2302 	movt	r3, #514	; 0x202
80100926:	2200      	movs	r2, #0
80100928:	f8c3 20b8 	str.w	r2, [r3, #184]	; 0xb8
8010092c:	2200      	movs	r2, #0
8010092e:	f2c0 2202 	movt	r2, #514	; 0x202
80100932:	2300      	movs	r3, #0
80100934:	f2c0 2302 	movt	r3, #514	; 0x202
80100938:	f8d3 3084 	ldr.w	r3, [r3, #132]	; 0x84
8010093c:	f443 4380 	orr.w	r3, r3, #16384	; 0x4000
80100940:	f043 0366 	orr.w	r3, r3, #102	; 0x66
80100944:	f8c2 3084 	str.w	r3, [r2, #132]	; 0x84
80100948:	2300      	movs	r3, #0
8010094a:	f2c0 2302 	movt	r3, #514	; 0x202
8010094e:	2200      	movs	r2, #0
80100950:	f2c0 2202 	movt	r2, #514	; 0x202
80100954:	f8d2 2088 	ldr.w	r2, [r2, #136]	; 0x88
80100958:	f042 0204 	orr.w	r2, r2, #4
8010095c:	f8c3 2088 	str.w	r2, [r3, #136]	; 0x88
80100960:	2300      	movs	r3, #0
80100962:	f2c0 2302 	movt	r3, #514	; 0x202
80100966:	2200      	movs	r2, #0
80100968:	f2c0 2202 	movt	r2, #514	; 0x202
8010096c:	f8d2 2080 	ldr.w	r2, [r2, #128]	; 0x80
80100970:	f422 4280 	bic.w	r2, r2, #16384	; 0x4000
80100974:	f8c3 2080 	str.w	r2, [r3, #128]	; 0x80
80100978:	f44f 4134 	mov.w	r1, #46080	; 0xb400
8010097c:	f2c0 41c4 	movt	r1, #1220	; 0x4c4
80100980:	f44f 30e1 	mov.w	r0, #115200	; 0x1c200
80100984:	f7ff fe08 	bl	80100598 <UART_SetBaudRate>
80100988:	2300      	movs	r3, #0
8010098a:	f2c0 2302 	movt	r3, #514	; 0x202
8010098e:	2200      	movs	r2, #0
80100990:	f2c0 2202 	movt	r2, #514	; 0x202
80100994:	f8d2 2080 	ldr.w	r2, [r2, #128]	; 0x80
80100998:	f042 0201 	orr.w	r2, r2, #1
8010099c:	f8c3 2080 	str.w	r2, [r3, #128]	; 0x80
801009a0:	bf00      	nop
801009a2:	bd80      	pop	{r7, pc}

801009a4 <putchar>:
801009a4:	b480      	push	{r7}
801009a6:	b083      	sub	sp, #12
801009a8:	af00      	add	r7, sp, #0
801009aa:	6078      	str	r0, [r7, #4]
801009ac:	bf00      	nop
801009ae:	2300      	movs	r3, #0
801009b0:	f2c0 2302 	movt	r3, #514	; 0x202
801009b4:	f8d3 3098 	ldr.w	r3, [r3, #152]	; 0x98
801009b8:	f003 0308 	and.w	r3, r3, #8
801009bc:	2b00      	cmp	r3, #0
801009be:	d0f6      	beq.n	801009ae <putchar+0xa>
801009c0:	2300      	movs	r3, #0
801009c2:	f2c0 2302 	movt	r3, #514	; 0x202
801009c6:	687a      	ldr	r2, [r7, #4]
801009c8:	b2d2      	uxtb	r2, r2
801009ca:	641a      	str	r2, [r3, #64]	; 0x40
801009cc:	bf00      	nop
801009ce:	370c      	adds	r7, #12
801009d0:	46bd      	mov	sp, r7
801009d2:	f85d 7b04 	ldr.w	r7, [sp], #4
801009d6:	4770      	bx	lr

801009d8 <getchar>:
801009d8:	b480      	push	{r7}
801009da:	af00      	add	r7, sp, #0
801009dc:	bf00      	nop
801009de:	2300      	movs	r3, #0
801009e0:	f2c0 2302 	movt	r3, #514	; 0x202
801009e4:	f8d3 3098 	ldr.w	r3, [r3, #152]	; 0x98
801009e8:	f003 0301 	and.w	r3, r3, #1
801009ec:	2b00      	cmp	r3, #0
801009ee:	d0f6      	beq.n	801009de <getchar+0x6>
801009f0:	2300      	movs	r3, #0
801009f2:	f2c0 2302 	movt	r3, #514	; 0x202
801009f6:	681b      	ldr	r3, [r3, #0]
801009f8:	b2db      	uxtb	r3, r3
801009fa:	4618      	mov	r0, r3
801009fc:	46bd      	mov	sp, r7
801009fe:	f85d 7b04 	ldr.w	r7, [sp], #4
80100a02:	4770      	bx	lr

80100a04 <puts>:
80100a04:	b580      	push	{r7, lr}
80100a06:	b082      	sub	sp, #8
80100a08:	af00      	add	r7, sp, #0
80100a0a:	6078      	str	r0, [r7, #4]
80100a0c:	e007      	b.n	80100a1e <puts+0x1a>
80100a0e:	687b      	ldr	r3, [r7, #4]
80100a10:	781b      	ldrb	r3, [r3, #0]
80100a12:	4618      	mov	r0, r3
80100a14:	f7ff ffc6 	bl	801009a4 <putchar>
80100a18:	687b      	ldr	r3, [r7, #4]
80100a1a:	3301      	adds	r3, #1
80100a1c:	607b      	str	r3, [r7, #4]
80100a1e:	687b      	ldr	r3, [r7, #4]
80100a20:	781b      	ldrb	r3, [r3, #0]
80100a22:	2b00      	cmp	r3, #0
80100a24:	d1f3      	bne.n	80100a0e <puts+0xa>
80100a26:	bf00      	nop
80100a28:	3708      	adds	r7, #8
80100a2a:	46bd      	mov	sp, r7
80100a2c:	bd80      	pop	{r7, pc}
80100a2e:	bf00      	nop

80100a30 <raise>:
80100a30:	b480      	push	{r7}
80100a32:	b083      	sub	sp, #12
80100a34:	af00      	add	r7, sp, #0
80100a36:	6078      	str	r0, [r7, #4]
80100a38:	2300      	movs	r3, #0
80100a3a:	4618      	mov	r0, r3
80100a3c:	370c      	adds	r7, #12
80100a3e:	46bd      	mov	sp, r7
80100a40:	f85d 7b04 	ldr.w	r7, [sp], #4
80100a44:	4770      	bx	lr
	...

80100a48 <outc>:
80100a48:	b580      	push	{r7, lr}
80100a4a:	b082      	sub	sp, #8
80100a4c:	af00      	add	r7, sp, #0
80100a4e:	6078      	str	r0, [r7, #4]
80100a50:	6878      	ldr	r0, [r7, #4]
80100a52:	f7ff ffa7 	bl	801009a4 <putchar>
80100a56:	2300      	movs	r3, #0
80100a58:	4618      	mov	r0, r3
80100a5a:	3708      	adds	r7, #8
80100a5c:	46bd      	mov	sp, r7
80100a5e:	bd80      	pop	{r7, pc}

80100a60 <outs>:
80100a60:	b580      	push	{r7, lr}
80100a62:	b082      	sub	sp, #8
80100a64:	af00      	add	r7, sp, #0
80100a66:	6078      	str	r0, [r7, #4]
80100a68:	e006      	b.n	80100a78 <outs+0x18>
80100a6a:	687b      	ldr	r3, [r7, #4]
80100a6c:	1c5a      	adds	r2, r3, #1
80100a6e:	607a      	str	r2, [r7, #4]
80100a70:	781b      	ldrb	r3, [r3, #0]
80100a72:	4618      	mov	r0, r3
80100a74:	f7ff ff96 	bl	801009a4 <putchar>
80100a78:	687b      	ldr	r3, [r7, #4]
80100a7a:	781b      	ldrb	r3, [r3, #0]
80100a7c:	2b00      	cmp	r3, #0
80100a7e:	d1f4      	bne.n	80100a6a <outs+0xa>
80100a80:	2300      	movs	r3, #0
80100a82:	4618      	mov	r0, r3
80100a84:	3708      	adds	r7, #8
80100a86:	46bd      	mov	sp, r7
80100a88:	bd80      	pop	{r7, pc}

80100a8a <out_num>:
80100a8a:	b590      	push	{r4, r7, lr}
80100a8c:	b099      	sub	sp, #100	; 0x64
80100a8e:	af00      	add	r7, sp, #0
80100a90:	e9c7 0102 	strd	r0, r1, [r7, #8]
80100a94:	607a      	str	r2, [r7, #4]
80100a96:	70fb      	strb	r3, [r7, #3]
80100a98:	2300      	movs	r3, #0
80100a9a:	65fb      	str	r3, [r7, #92]	; 0x5c
80100a9c:	f107 0310 	add.w	r3, r7, #16
80100aa0:	3340      	adds	r3, #64	; 0x40
80100aa2:	65bb      	str	r3, [r7, #88]	; 0x58
80100aa4:	2300      	movs	r3, #0
80100aa6:	657b      	str	r3, [r7, #84]	; 0x54
80100aa8:	2300      	movs	r3, #0
80100aaa:	653b      	str	r3, [r7, #80]	; 0x50
80100aac:	6dbb      	ldr	r3, [r7, #88]	; 0x58
80100aae:	3b01      	subs	r3, #1
80100ab0:	65bb      	str	r3, [r7, #88]	; 0x58
80100ab2:	6dbb      	ldr	r3, [r7, #88]	; 0x58
80100ab4:	2200      	movs	r2, #0
80100ab6:	701a      	strb	r2, [r3, #0]
80100ab8:	e9d7 3402 	ldrd	r3, r4, [r7, #8]
80100abc:	2b00      	cmp	r3, #0
80100abe:	f174 0300 	sbcs.w	r3, r4, #0
80100ac2:	da03      	bge.n	80100acc <out_num+0x42>
80100ac4:	68bb      	ldr	r3, [r7, #8]
80100ac6:	425b      	negs	r3, r3
80100ac8:	65fb      	str	r3, [r7, #92]	; 0x5c
80100aca:	e001      	b.n	80100ad0 <out_num+0x46>
80100acc:	68bb      	ldr	r3, [r7, #8]
80100ace:	65fb      	str	r3, [r7, #92]	; 0x5c
80100ad0:	6dbb      	ldr	r3, [r7, #88]	; 0x58
80100ad2:	3b01      	subs	r3, #1
80100ad4:	65bb      	str	r3, [r7, #88]	; 0x58
80100ad6:	687a      	ldr	r2, [r7, #4]
80100ad8:	6dfb      	ldr	r3, [r7, #92]	; 0x5c
80100ada:	4611      	mov	r1, r2
80100adc:	4618      	mov	r0, r3
80100ade:	f000 fb55 	bl	8010118c <__aeabi_uidivmod>
80100ae2:	460b      	mov	r3, r1
80100ae4:	461a      	mov	r2, r3
80100ae6:	f241 4384 	movw	r3, #5252	; 0x1484
80100aea:	f2c8 0310 	movt	r3, #32784	; 0x8010
80100aee:	5c9a      	ldrb	r2, [r3, r2]
80100af0:	6dbb      	ldr	r3, [r7, #88]	; 0x58
80100af2:	701a      	strb	r2, [r3, #0]
80100af4:	6d7b      	ldr	r3, [r7, #84]	; 0x54
80100af6:	3301      	adds	r3, #1
80100af8:	657b      	str	r3, [r7, #84]	; 0x54
80100afa:	687b      	ldr	r3, [r7, #4]
80100afc:	4619      	mov	r1, r3
80100afe:	6df8      	ldr	r0, [r7, #92]	; 0x5c
80100b00:	f000 fa16 	bl	80100f30 <__aeabi_uidiv>
80100b04:	4603      	mov	r3, r0
80100b06:	65fb      	str	r3, [r7, #92]	; 0x5c
80100b08:	6dfb      	ldr	r3, [r7, #92]	; 0x5c
80100b0a:	2b00      	cmp	r3, #0
80100b0c:	d1e0      	bne.n	80100ad0 <out_num+0x46>
80100b0e:	6f3b      	ldr	r3, [r7, #112]	; 0x70
80100b10:	2b00      	cmp	r3, #0
80100b12:	d014      	beq.n	80100b3e <out_num+0xb4>
80100b14:	6d7a      	ldr	r2, [r7, #84]	; 0x54
80100b16:	6f3b      	ldr	r3, [r7, #112]	; 0x70
80100b18:	429a      	cmp	r2, r3
80100b1a:	da10      	bge.n	80100b3e <out_num+0xb4>
80100b1c:	6f3a      	ldr	r2, [r7, #112]	; 0x70
80100b1e:	6d7b      	ldr	r3, [r7, #84]	; 0x54
80100b20:	1ad3      	subs	r3, r2, r3
80100b22:	653b      	str	r3, [r7, #80]	; 0x50
80100b24:	e008      	b.n	80100b38 <out_num+0xae>
80100b26:	6dbb      	ldr	r3, [r7, #88]	; 0x58
80100b28:	3b01      	subs	r3, #1
80100b2a:	65bb      	str	r3, [r7, #88]	; 0x58
80100b2c:	6dbb      	ldr	r3, [r7, #88]	; 0x58
80100b2e:	78fa      	ldrb	r2, [r7, #3]
80100b30:	701a      	strb	r2, [r3, #0]
80100b32:	6d3b      	ldr	r3, [r7, #80]	; 0x50
80100b34:	3b01      	subs	r3, #1
80100b36:	653b      	str	r3, [r7, #80]	; 0x50
80100b38:	6d3b      	ldr	r3, [r7, #80]	; 0x50
80100b3a:	2b00      	cmp	r3, #0
80100b3c:	d1f3      	bne.n	80100b26 <out_num+0x9c>
80100b3e:	e9d7 3402 	ldrd	r3, r4, [r7, #8]
80100b42:	2b00      	cmp	r3, #0
80100b44:	f174 0300 	sbcs.w	r3, r4, #0
80100b48:	da05      	bge.n	80100b56 <out_num+0xcc>
80100b4a:	6dbb      	ldr	r3, [r7, #88]	; 0x58
80100b4c:	3b01      	subs	r3, #1
80100b4e:	65bb      	str	r3, [r7, #88]	; 0x58
80100b50:	6dbb      	ldr	r3, [r7, #88]	; 0x58
80100b52:	222d      	movs	r2, #45	; 0x2d
80100b54:	701a      	strb	r2, [r3, #0]
80100b56:	6db8      	ldr	r0, [r7, #88]	; 0x58
80100b58:	f7ff ff82 	bl	80100a60 <outs>
80100b5c:	4603      	mov	r3, r0
80100b5e:	4618      	mov	r0, r3
80100b60:	3764      	adds	r7, #100	; 0x64
80100b62:	46bd      	mov	sp, r7
80100b64:	bd90      	pop	{r4, r7, pc}

80100b66 <my_vprintf>:
80100b66:	b580      	push	{r7, lr}
80100b68:	b086      	sub	sp, #24
80100b6a:	af02      	add	r7, sp, #8
80100b6c:	6078      	str	r0, [r7, #4]
80100b6e:	6039      	str	r1, [r7, #0]
80100b70:	2320      	movs	r3, #32
80100b72:	72fb      	strb	r3, [r7, #11]
80100b74:	2300      	movs	r3, #0
80100b76:	60fb      	str	r3, [r7, #12]
80100b78:	e0c7      	b.n	80100d0a <my_vprintf+0x1a4>
80100b7a:	687b      	ldr	r3, [r7, #4]
80100b7c:	781b      	ldrb	r3, [r3, #0]
80100b7e:	2b25      	cmp	r3, #37	; 0x25
80100b80:	d005      	beq.n	80100b8e <my_vprintf+0x28>
80100b82:	687b      	ldr	r3, [r7, #4]
80100b84:	781b      	ldrb	r3, [r3, #0]
80100b86:	4618      	mov	r0, r3
80100b88:	f7ff ff5e 	bl	80100a48 <outc>
80100b8c:	e0ba      	b.n	80100d04 <my_vprintf+0x19e>
80100b8e:	687b      	ldr	r3, [r7, #4]
80100b90:	3301      	adds	r3, #1
80100b92:	607b      	str	r3, [r7, #4]
80100b94:	687b      	ldr	r3, [r7, #4]
80100b96:	781b      	ldrb	r3, [r3, #0]
80100b98:	2b30      	cmp	r3, #48	; 0x30
80100b9a:	d104      	bne.n	80100ba6 <my_vprintf+0x40>
80100b9c:	2330      	movs	r3, #48	; 0x30
80100b9e:	72fb      	strb	r3, [r7, #11]
80100ba0:	687b      	ldr	r3, [r7, #4]
80100ba2:	3301      	adds	r3, #1
80100ba4:	607b      	str	r3, [r7, #4]
80100ba6:	2320      	movs	r3, #32
80100ba8:	72fb      	strb	r3, [r7, #11]
80100baa:	2300      	movs	r3, #0
80100bac:	60fb      	str	r3, [r7, #12]
80100bae:	e00e      	b.n	80100bce <my_vprintf+0x68>
80100bb0:	68fa      	ldr	r2, [r7, #12]
80100bb2:	4613      	mov	r3, r2
80100bb4:	009b      	lsls	r3, r3, #2
80100bb6:	4413      	add	r3, r2
80100bb8:	005b      	lsls	r3, r3, #1
80100bba:	60fb      	str	r3, [r7, #12]
80100bbc:	687b      	ldr	r3, [r7, #4]
80100bbe:	781b      	ldrb	r3, [r3, #0]
80100bc0:	3b30      	subs	r3, #48	; 0x30
80100bc2:	68fa      	ldr	r2, [r7, #12]
80100bc4:	4413      	add	r3, r2
80100bc6:	60fb      	str	r3, [r7, #12]
80100bc8:	687b      	ldr	r3, [r7, #4]
80100bca:	3301      	adds	r3, #1
80100bcc:	607b      	str	r3, [r7, #4]
80100bce:	687b      	ldr	r3, [r7, #4]
80100bd0:	781b      	ldrb	r3, [r3, #0]
80100bd2:	2b2f      	cmp	r3, #47	; 0x2f
80100bd4:	d903      	bls.n	80100bde <my_vprintf+0x78>
80100bd6:	687b      	ldr	r3, [r7, #4]
80100bd8:	781b      	ldrb	r3, [r3, #0]
80100bda:	2b39      	cmp	r3, #57	; 0x39
80100bdc:	d9e8      	bls.n	80100bb0 <my_vprintf+0x4a>
80100bde:	687b      	ldr	r3, [r7, #4]
80100be0:	781b      	ldrb	r3, [r3, #0]
80100be2:	3b63      	subs	r3, #99	; 0x63
80100be4:	2b15      	cmp	r3, #21
80100be6:	f200 8087 	bhi.w	80100cf8 <my_vprintf+0x192>
80100bea:	a201      	add	r2, pc, #4	; (adr r2, 80100bf0 <my_vprintf+0x8a>)
80100bec:	f852 f023 	ldr.w	pc, [r2, r3, lsl #2]
80100bf0:	80100cd1 			; <UNDEFINED> instruction: 0x80100cd1
80100bf4:	80100c49 	andshi	r0, r0, r9, asr #24
80100bf8:	80100cf9 			; <UNDEFINED> instruction: 0x80100cf9
80100bfc:	80100cf9 			; <UNDEFINED> instruction: 0x80100cf9
80100c00:	80100cf9 			; <UNDEFINED> instruction: 0x80100cf9
80100c04:	80100cf9 			; <UNDEFINED> instruction: 0x80100cf9
80100c08:	80100cf9 			; <UNDEFINED> instruction: 0x80100cf9
80100c0c:	80100cf9 			; <UNDEFINED> instruction: 0x80100cf9
80100c10:	80100cf9 			; <UNDEFINED> instruction: 0x80100cf9
80100c14:	80100cf9 			; <UNDEFINED> instruction: 0x80100cf9
80100c18:	80100cf9 			; <UNDEFINED> instruction: 0x80100cf9
80100c1c:	80100cf9 			; <UNDEFINED> instruction: 0x80100cf9
80100c20:	80100c6b 	andshi	r0, r0, fp, ror #24
80100c24:	80100cf9 			; <UNDEFINED> instruction: 0x80100cf9
80100c28:	80100cf9 			; <UNDEFINED> instruction: 0x80100cf9
80100c2c:	80100cf9 			; <UNDEFINED> instruction: 0x80100cf9
80100c30:	80100ce5 	andshi	r0, r0, r5, ror #25
80100c34:	80100cf9 			; <UNDEFINED> instruction: 0x80100cf9
80100c38:	80100c8d 	andshi	r0, r0, sp, lsl #25
80100c3c:	80100cf9 			; <UNDEFINED> instruction: 0x80100cf9
80100c40:	80100cf9 			; <UNDEFINED> instruction: 0x80100cf9
80100c44:	80100caf 	andshi	r0, r0, pc, lsr #25
80100c48:	683b      	ldr	r3, [r7, #0]
80100c4a:	3304      	adds	r3, #4
80100c4c:	603b      	str	r3, [r7, #0]
80100c4e:	683b      	ldr	r3, [r7, #0]
80100c50:	3b04      	subs	r3, #4
80100c52:	681b      	ldr	r3, [r3, #0]
80100c54:	4618      	mov	r0, r3
80100c56:	ea4f 71e0 	mov.w	r1, r0, asr #31
80100c5a:	7afa      	ldrb	r2, [r7, #11]
80100c5c:	68fb      	ldr	r3, [r7, #12]
80100c5e:	9300      	str	r3, [sp, #0]
80100c60:	4613      	mov	r3, r2
80100c62:	220a      	movs	r2, #10
80100c64:	f7ff ff11 	bl	80100a8a <out_num>
80100c68:	e04c      	b.n	80100d04 <my_vprintf+0x19e>
80100c6a:	683b      	ldr	r3, [r7, #0]
80100c6c:	3304      	adds	r3, #4
80100c6e:	603b      	str	r3, [r7, #0]
80100c70:	683b      	ldr	r3, [r7, #0]
80100c72:	3b04      	subs	r3, #4
80100c74:	681b      	ldr	r3, [r3, #0]
80100c76:	4618      	mov	r0, r3
80100c78:	f04f 0100 	mov.w	r1, #0
80100c7c:	7afa      	ldrb	r2, [r7, #11]
80100c7e:	68fb      	ldr	r3, [r7, #12]
80100c80:	9300      	str	r3, [sp, #0]
80100c82:	4613      	mov	r3, r2
80100c84:	2208      	movs	r2, #8
80100c86:	f7ff ff00 	bl	80100a8a <out_num>
80100c8a:	e03b      	b.n	80100d04 <my_vprintf+0x19e>
80100c8c:	683b      	ldr	r3, [r7, #0]
80100c8e:	3304      	adds	r3, #4
80100c90:	603b      	str	r3, [r7, #0]
80100c92:	683b      	ldr	r3, [r7, #0]
80100c94:	3b04      	subs	r3, #4
80100c96:	681b      	ldr	r3, [r3, #0]
80100c98:	4618      	mov	r0, r3
80100c9a:	f04f 0100 	mov.w	r1, #0
80100c9e:	7afa      	ldrb	r2, [r7, #11]
80100ca0:	68fb      	ldr	r3, [r7, #12]
80100ca2:	9300      	str	r3, [sp, #0]
80100ca4:	4613      	mov	r3, r2
80100ca6:	220a      	movs	r2, #10
80100ca8:	f7ff feef 	bl	80100a8a <out_num>
80100cac:	e02a      	b.n	80100d04 <my_vprintf+0x19e>
80100cae:	683b      	ldr	r3, [r7, #0]
80100cb0:	3304      	adds	r3, #4
80100cb2:	603b      	str	r3, [r7, #0]
80100cb4:	683b      	ldr	r3, [r7, #0]
80100cb6:	3b04      	subs	r3, #4
80100cb8:	681b      	ldr	r3, [r3, #0]
80100cba:	4618      	mov	r0, r3
80100cbc:	f04f 0100 	mov.w	r1, #0
80100cc0:	7afa      	ldrb	r2, [r7, #11]
80100cc2:	68fb      	ldr	r3, [r7, #12]
80100cc4:	9300      	str	r3, [sp, #0]
80100cc6:	4613      	mov	r3, r2
80100cc8:	2210      	movs	r2, #16
80100cca:	f7ff fede 	bl	80100a8a <out_num>
80100cce:	e019      	b.n	80100d04 <my_vprintf+0x19e>
80100cd0:	683b      	ldr	r3, [r7, #0]
80100cd2:	3304      	adds	r3, #4
80100cd4:	603b      	str	r3, [r7, #0]
80100cd6:	683b      	ldr	r3, [r7, #0]
80100cd8:	3b04      	subs	r3, #4
80100cda:	681b      	ldr	r3, [r3, #0]
80100cdc:	4618      	mov	r0, r3
80100cde:	f7ff feb3 	bl	80100a48 <outc>
80100ce2:	e00f      	b.n	80100d04 <my_vprintf+0x19e>
80100ce4:	683b      	ldr	r3, [r7, #0]
80100ce6:	3304      	adds	r3, #4
80100ce8:	603b      	str	r3, [r7, #0]
80100cea:	683b      	ldr	r3, [r7, #0]
80100cec:	3b04      	subs	r3, #4
80100cee:	681b      	ldr	r3, [r3, #0]
80100cf0:	4618      	mov	r0, r3
80100cf2:	f7ff feb5 	bl	80100a60 <outs>
80100cf6:	e005      	b.n	80100d04 <my_vprintf+0x19e>
80100cf8:	687b      	ldr	r3, [r7, #4]
80100cfa:	781b      	ldrb	r3, [r3, #0]
80100cfc:	4618      	mov	r0, r3
80100cfe:	f7ff fea3 	bl	80100a48 <outc>
80100d02:	bf00      	nop
80100d04:	687b      	ldr	r3, [r7, #4]
80100d06:	3301      	adds	r3, #1
80100d08:	607b      	str	r3, [r7, #4]
80100d0a:	687b      	ldr	r3, [r7, #4]
80100d0c:	781b      	ldrb	r3, [r3, #0]
80100d0e:	2b00      	cmp	r3, #0
80100d10:	f47f af33 	bne.w	80100b7a <my_vprintf+0x14>
80100d14:	2300      	movs	r3, #0
80100d16:	4618      	mov	r0, r3
80100d18:	3710      	adds	r7, #16
80100d1a:	46bd      	mov	sp, r7
80100d1c:	bd80      	pop	{r7, pc}

80100d1e <printf>:
80100d1e:	b40f      	push	{r0, r1, r2, r3}
80100d20:	b580      	push	{r7, lr}
80100d22:	b082      	sub	sp, #8
80100d24:	af00      	add	r7, sp, #0
80100d26:	f107 0314 	add.w	r3, r7, #20
80100d2a:	607b      	str	r3, [r7, #4]
80100d2c:	693b      	ldr	r3, [r7, #16]
80100d2e:	6879      	ldr	r1, [r7, #4]
80100d30:	4618      	mov	r0, r3
80100d32:	f7ff ff18 	bl	80100b66 <my_vprintf>
80100d36:	2300      	movs	r3, #0
80100d38:	607b      	str	r3, [r7, #4]
80100d3a:	2300      	movs	r3, #0
80100d3c:	4618      	mov	r0, r3
80100d3e:	3708      	adds	r7, #8
80100d40:	46bd      	mov	sp, r7
80100d42:	e8bd 4080 	ldmia.w	sp!, {r7, lr}
80100d46:	b004      	add	sp, #16
80100d48:	4770      	bx	lr

80100d4a <my_printf_test>:
80100d4a:	b580      	push	{r7, lr}
80100d4c:	af00      	add	r7, sp, #0
80100d4e:	f241 3064 	movw	r0, #4964	; 0x1364
80100d52:	f2c8 0010 	movt	r0, #32784	; 0x8010
80100d56:	f7ff ffe2 	bl	80100d1e <printf>
80100d5a:	2261      	movs	r2, #97	; 0x61
80100d5c:	2141      	movs	r1, #65	; 0x41
80100d5e:	f241 3090 	movw	r0, #5008	; 0x1390
80100d62:	f2c8 0010 	movt	r0, #32784	; 0x8010
80100d66:	f7ff ffda 	bl	80100d1e <printf>
80100d6a:	f24e 2140 	movw	r1, #57920	; 0xe240
80100d6e:	f2c0 0101 	movt	r1, #1
80100d72:	f241 30b0 	movw	r0, #5040	; 0x13b0
80100d76:	f2c8 0010 	movt	r0, #32784	; 0x8010
80100d7a:	f7ff ffd0 	bl	80100d1e <printf>
80100d7e:	f44f 51ee 	mov.w	r1, #7616	; 0x1dc0
80100d82:	f6cf 71fe 	movt	r1, #65534	; 0xfffe
80100d86:	f241 30b0 	movw	r0, #5040	; 0x13b0
80100d8a:	f2c8 0010 	movt	r0, #32784	; 0x8010
80100d8e:	f7ff ffc6 	bl	80100d1e <printf>
80100d92:	f245 51aa 	movw	r1, #21930	; 0x55aa
80100d96:	f2c5 51aa 	movt	r1, #21930	; 0x55aa
80100d9a:	f241 30cc 	movw	r0, #5068	; 0x13cc
80100d9e:	f2c8 0010 	movt	r0, #32784	; 0x8010
80100da2:	f7ff ffbc 	bl	80100d1e <printf>
80100da6:	f241 31e8 	movw	r1, #5096	; 0x13e8
80100daa:	f2c8 0110 	movt	r1, #32784	; 0x8010
80100dae:	f241 30f8 	movw	r0, #5112	; 0x13f8
80100db2:	f2c8 0010 	movt	r0, #32784	; 0x8010
80100db6:	f7ff ffb2 	bl	80100d1e <printf>
80100dba:	f243 0139 	movw	r1, #12345	; 0x3039
80100dbe:	f241 4014 	movw	r0, #5140	; 0x1414
80100dc2:	f2c8 0010 	movt	r0, #32784	; 0x8010
80100dc6:	f7ff ffaa 	bl	80100d1e <printf>
80100dca:	f243 0139 	movw	r1, #12345	; 0x3039
80100dce:	f241 4020 	movw	r0, #5152	; 0x1420
80100dd2:	f2c8 0010 	movt	r0, #32784	; 0x8010
80100dd6:	f7ff ffa2 	bl	80100d1e <printf>
80100dda:	f242 3145 	movw	r1, #9029	; 0x2345
80100dde:	f2c0 0101 	movt	r1, #1
80100de2:	f241 402c 	movw	r0, #5164	; 0x142c
80100de6:	f2c8 0010 	movt	r0, #32784	; 0x8010
80100dea:	f7ff ff98 	bl	80100d1e <printf>
80100dee:	f242 3145 	movw	r1, #9029	; 0x2345
80100df2:	f2c0 0101 	movt	r1, #1
80100df6:	f241 403c 	movw	r0, #5180	; 0x143c
80100dfa:	f2c8 0010 	movt	r0, #32784	; 0x8010
80100dfe:	f7ff ff8e 	bl	80100d1e <printf>
80100e02:	2101      	movs	r1, #1
80100e04:	f241 4048 	movw	r0, #5192	; 0x1448
80100e08:	f2c8 0010 	movt	r0, #32784	; 0x8010
80100e0c:	f7ff ff87 	bl	80100d1e <printf>
80100e10:	2101      	movs	r1, #1
80100e12:	f241 4058 	movw	r0, #5208	; 0x1458
80100e16:	f2c8 0010 	movt	r0, #32784	; 0x8010
80100e1a:	f7ff ff80 	bl	80100d1e <printf>
80100e1e:	2101      	movs	r1, #1
80100e20:	f241 4064 	movw	r0, #5220	; 0x1464
80100e24:	f2c8 0010 	movt	r0, #32784	; 0x8010
80100e28:	f7ff ff79 	bl	80100d1e <printf>
80100e2c:	2101      	movs	r1, #1
80100e2e:	f241 4070 	movw	r0, #5232	; 0x1470
80100e32:	f2c8 0010 	movt	r0, #32784	; 0x8010
80100e36:	f7ff ff72 	bl	80100d1e <printf>
80100e3a:	2300      	movs	r3, #0
80100e3c:	4618      	mov	r0, r3
80100e3e:	bd80      	pop	{r7, pc}

80100e40 <get_gic_base>:
80100e40:	b480      	push	{r7}
80100e42:	b083      	sub	sp, #12
80100e44:	af00      	add	r7, sp, #0
80100e46:	ee9f 3f10 	mrc	15, 4, r3, cr15, cr0, {0}
80100e4a:	607b      	str	r3, [r7, #4]
80100e4c:	687b      	ldr	r3, [r7, #4]
80100e4e:	4618      	mov	r0, r3
80100e50:	370c      	adds	r7, #12
80100e52:	46bd      	mov	sp, r7
80100e54:	f85d 7b04 	ldr.w	r7, [sp], #4
80100e58:	4770      	bx	lr

80100e5a <gic_init>:
80100e5a:	b580      	push	{r7, lr}
80100e5c:	b084      	sub	sp, #16
80100e5e:	af00      	add	r7, sp, #0
80100e60:	f7ff ffee 	bl	80100e40 <get_gic_base>
80100e64:	60b8      	str	r0, [r7, #8]
80100e66:	68bb      	ldr	r3, [r7, #8]
80100e68:	f503 5380 	add.w	r3, r3, #4096	; 0x1000
80100e6c:	3304      	adds	r3, #4
80100e6e:	681b      	ldr	r3, [r3, #0]
80100e70:	f003 031f 	and.w	r3, r3, #31
80100e74:	3301      	adds	r3, #1
80100e76:	607b      	str	r3, [r7, #4]
80100e78:	2300      	movs	r3, #0
80100e7a:	60fb      	str	r3, [r7, #12]
80100e7c:	e00a      	b.n	80100e94 <gic_init+0x3a>
80100e7e:	68bb      	ldr	r3, [r7, #8]
80100e80:	68fa      	ldr	r2, [r7, #12]
80100e82:	f502 628c 	add.w	r2, r2, #1120	; 0x460
80100e86:	f04f 31ff 	mov.w	r1, #4294967295	; 0xffffffff
80100e8a:	f843 1022 	str.w	r1, [r3, r2, lsl #2]
80100e8e:	68fb      	ldr	r3, [r7, #12]
80100e90:	3301      	adds	r3, #1
80100e92:	60fb      	str	r3, [r7, #12]
80100e94:	68fa      	ldr	r2, [r7, #12]
80100e96:	687b      	ldr	r3, [r7, #4]
80100e98:	429a      	cmp	r2, r3
80100e9a:	d3f0      	bcc.n	80100e7e <gic_init+0x24>
80100e9c:	68bb      	ldr	r3, [r7, #8]
80100e9e:	f503 5300 	add.w	r3, r3, #8192	; 0x2000
80100ea2:	3304      	adds	r3, #4
80100ea4:	22f8      	movs	r2, #248	; 0xf8
80100ea6:	601a      	str	r2, [r3, #0]
80100ea8:	68bb      	ldr	r3, [r7, #8]
80100eaa:	f503 5300 	add.w	r3, r3, #8192	; 0x2000
80100eae:	3308      	adds	r3, #8
80100eb0:	2202      	movs	r2, #2
80100eb2:	601a      	str	r2, [r3, #0]
80100eb4:	68bb      	ldr	r3, [r7, #8]
80100eb6:	f503 5380 	add.w	r3, r3, #4096	; 0x1000
80100eba:	2201      	movs	r2, #1
80100ebc:	601a      	str	r2, [r3, #0]
80100ebe:	68bb      	ldr	r3, [r7, #8]
80100ec0:	f503 5300 	add.w	r3, r3, #8192	; 0x2000
80100ec4:	2201      	movs	r2, #1
80100ec6:	601a      	str	r2, [r3, #0]
80100ec8:	bf00      	nop
80100eca:	3710      	adds	r7, #16
80100ecc:	46bd      	mov	sp, r7
80100ece:	bd80      	pop	{r7, pc}

80100ed0 <gic_enable_irq>:
80100ed0:	b580      	push	{r7, lr}
80100ed2:	b084      	sub	sp, #16
80100ed4:	af00      	add	r7, sp, #0
80100ed6:	6078      	str	r0, [r7, #4]
80100ed8:	f7ff ffb2 	bl	80100e40 <get_gic_base>
80100edc:	60f8      	str	r0, [r7, #12]
80100ede:	687b      	ldr	r3, [r7, #4]
80100ee0:	115a      	asrs	r2, r3, #5
80100ee2:	687b      	ldr	r3, [r7, #4]
80100ee4:	f003 031f 	and.w	r3, r3, #31
80100ee8:	2101      	movs	r1, #1
80100eea:	4099      	lsls	r1, r3
80100eec:	68fb      	ldr	r3, [r7, #12]
80100eee:	f502 6288 	add.w	r2, r2, #1088	; 0x440
80100ef2:	f843 1022 	str.w	r1, [r3, r2, lsl #2]
80100ef6:	bf00      	nop
80100ef8:	3710      	adds	r7, #16
80100efa:	46bd      	mov	sp, r7
80100efc:	bd80      	pop	{r7, pc}

80100efe <gic_disable_irq>:
80100efe:	b580      	push	{r7, lr}
80100f00:	b084      	sub	sp, #16
80100f02:	af00      	add	r7, sp, #0
80100f04:	6078      	str	r0, [r7, #4]
80100f06:	f7ff ff9b 	bl	80100e40 <get_gic_base>
80100f0a:	60f8      	str	r0, [r7, #12]
80100f0c:	687b      	ldr	r3, [r7, #4]
80100f0e:	115a      	asrs	r2, r3, #5
80100f10:	687b      	ldr	r3, [r7, #4]
80100f12:	f003 031f 	and.w	r3, r3, #31
80100f16:	2101      	movs	r1, #1
80100f18:	4099      	lsls	r1, r3
80100f1a:	68fb      	ldr	r3, [r7, #12]
80100f1c:	f502 628c 	add.w	r2, r2, #1120	; 0x460
80100f20:	f843 1022 	str.w	r1, [r3, r2, lsl #2]
80100f24:	bf00      	nop
80100f26:	3710      	adds	r7, #16
80100f28:	46bd      	mov	sp, r7
80100f2a:	bd80      	pop	{r7, pc}
80100f2c:	0000      	movs	r0, r0
	...

80100f30 <__aeabi_uidiv>:
80100f30:	1e4a      	subs	r2, r1, #1
80100f32:	bf08      	it	eq
80100f34:	4770      	bxeq	lr
80100f36:	f0c0 8124 	bcc.w	80101182 <__aeabi_uidiv+0x252>
80100f3a:	4288      	cmp	r0, r1
80100f3c:	f240 8116 	bls.w	8010116c <__aeabi_uidiv+0x23c>
80100f40:	4211      	tst	r1, r2
80100f42:	f000 8117 	beq.w	80101174 <__aeabi_uidiv+0x244>
80100f46:	fab0 f380 	clz	r3, r0
80100f4a:	fab1 f281 	clz	r2, r1
80100f4e:	eba2 0303 	sub.w	r3, r2, r3
80100f52:	f1c3 031f 	rsb	r3, r3, #31
80100f56:	a204      	add	r2, pc, #16	; (adr r2, 80100f68 <__aeabi_uidiv+0x38>)
80100f58:	eb02 1303 	add.w	r3, r2, r3, lsl #4
80100f5c:	f04f 0200 	mov.w	r2, #0
80100f60:	469f      	mov	pc, r3
80100f62:	bf00      	nop
80100f64:	f3af 8000 	nop.w
80100f68:	ebb0 7fc1 	cmp.w	r0, r1, lsl #31
80100f6c:	bf00      	nop
80100f6e:	eb42 0202 	adc.w	r2, r2, r2
80100f72:	bf28      	it	cs
80100f74:	eba0 70c1 	subcs.w	r0, r0, r1, lsl #31
80100f78:	ebb0 7f81 	cmp.w	r0, r1, lsl #30
80100f7c:	bf00      	nop
80100f7e:	eb42 0202 	adc.w	r2, r2, r2
80100f82:	bf28      	it	cs
80100f84:	eba0 7081 	subcs.w	r0, r0, r1, lsl #30
80100f88:	ebb0 7f41 	cmp.w	r0, r1, lsl #29
80100f8c:	bf00      	nop
80100f8e:	eb42 0202 	adc.w	r2, r2, r2
80100f92:	bf28      	it	cs
80100f94:	eba0 7041 	subcs.w	r0, r0, r1, lsl #29
80100f98:	ebb0 7f01 	cmp.w	r0, r1, lsl #28
80100f9c:	bf00      	nop
80100f9e:	eb42 0202 	adc.w	r2, r2, r2
80100fa2:	bf28      	it	cs
80100fa4:	eba0 7001 	subcs.w	r0, r0, r1, lsl #28
80100fa8:	ebb0 6fc1 	cmp.w	r0, r1, lsl #27
80100fac:	bf00      	nop
80100fae:	eb42 0202 	adc.w	r2, r2, r2
80100fb2:	bf28      	it	cs
80100fb4:	eba0 60c1 	subcs.w	r0, r0, r1, lsl #27
80100fb8:	ebb0 6f81 	cmp.w	r0, r1, lsl #26
80100fbc:	bf00      	nop
80100fbe:	eb42 0202 	adc.w	r2, r2, r2
80100fc2:	bf28      	it	cs
80100fc4:	eba0 6081 	subcs.w	r0, r0, r1, lsl #26
80100fc8:	ebb0 6f41 	cmp.w	r0, r1, lsl #25
80100fcc:	bf00      	nop
80100fce:	eb42 0202 	adc.w	r2, r2, r2
80100fd2:	bf28      	it	cs
80100fd4:	eba0 6041 	subcs.w	r0, r0, r1, lsl #25
80100fd8:	ebb0 6f01 	cmp.w	r0, r1, lsl #24
80100fdc:	bf00      	nop
80100fde:	eb42 0202 	adc.w	r2, r2, r2
80100fe2:	bf28      	it	cs
80100fe4:	eba0 6001 	subcs.w	r0, r0, r1, lsl #24
80100fe8:	ebb0 5fc1 	cmp.w	r0, r1, lsl #23
80100fec:	bf00      	nop
80100fee:	eb42 0202 	adc.w	r2, r2, r2
80100ff2:	bf28      	it	cs
80100ff4:	eba0 50c1 	subcs.w	r0, r0, r1, lsl #23
80100ff8:	ebb0 5f81 	cmp.w	r0, r1, lsl #22
80100ffc:	bf00      	nop
80100ffe:	eb42 0202 	adc.w	r2, r2, r2
80101002:	bf28      	it	cs
80101004:	eba0 5081 	subcs.w	r0, r0, r1, lsl #22
80101008:	ebb0 5f41 	cmp.w	r0, r1, lsl #21
8010100c:	bf00      	nop
8010100e:	eb42 0202 	adc.w	r2, r2, r2
80101012:	bf28      	it	cs
80101014:	eba0 5041 	subcs.w	r0, r0, r1, lsl #21
80101018:	ebb0 5f01 	cmp.w	r0, r1, lsl #20
8010101c:	bf00      	nop
8010101e:	eb42 0202 	adc.w	r2, r2, r2
80101022:	bf28      	it	cs
80101024:	eba0 5001 	subcs.w	r0, r0, r1, lsl #20
80101028:	ebb0 4fc1 	cmp.w	r0, r1, lsl #19
8010102c:	bf00      	nop
8010102e:	eb42 0202 	adc.w	r2, r2, r2
80101032:	bf28      	it	cs
80101034:	eba0 40c1 	subcs.w	r0, r0, r1, lsl #19
80101038:	ebb0 4f81 	cmp.w	r0, r1, lsl #18
8010103c:	bf00      	nop
8010103e:	eb42 0202 	adc.w	r2, r2, r2
80101042:	bf28      	it	cs
80101044:	eba0 4081 	subcs.w	r0, r0, r1, lsl #18
80101048:	ebb0 4f41 	cmp.w	r0, r1, lsl #17
8010104c:	bf00      	nop
8010104e:	eb42 0202 	adc.w	r2, r2, r2
80101052:	bf28      	it	cs
80101054:	eba0 4041 	subcs.w	r0, r0, r1, lsl #17
80101058:	ebb0 4f01 	cmp.w	r0, r1, lsl #16
8010105c:	bf00      	nop
8010105e:	eb42 0202 	adc.w	r2, r2, r2
80101062:	bf28      	it	cs
80101064:	eba0 4001 	subcs.w	r0, r0, r1, lsl #16
80101068:	ebb0 3fc1 	cmp.w	r0, r1, lsl #15
8010106c:	bf00      	nop
8010106e:	eb42 0202 	adc.w	r2, r2, r2
80101072:	bf28      	it	cs
80101074:	eba0 30c1 	subcs.w	r0, r0, r1, lsl #15
80101078:	ebb0 3f81 	cmp.w	r0, r1, lsl #14
8010107c:	bf00      	nop
8010107e:	eb42 0202 	adc.w	r2, r2, r2
80101082:	bf28      	it	cs
80101084:	eba0 3081 	subcs.w	r0, r0, r1, lsl #14
80101088:	ebb0 3f41 	cmp.w	r0, r1, lsl #13
8010108c:	bf00      	nop
8010108e:	eb42 0202 	adc.w	r2, r2, r2
80101092:	bf28      	it	cs
80101094:	eba0 3041 	subcs.w	r0, r0, r1, lsl #13
80101098:	ebb0 3f01 	cmp.w	r0, r1, lsl #12
8010109c:	bf00      	nop
8010109e:	eb42 0202 	adc.w	r2, r2, r2
801010a2:	bf28      	it	cs
801010a4:	eba0 3001 	subcs.w	r0, r0, r1, lsl #12
801010a8:	ebb0 2fc1 	cmp.w	r0, r1, lsl #11
801010ac:	bf00      	nop
801010ae:	eb42 0202 	adc.w	r2, r2, r2
801010b2:	bf28      	it	cs
801010b4:	eba0 20c1 	subcs.w	r0, r0, r1, lsl #11
801010b8:	ebb0 2f81 	cmp.w	r0, r1, lsl #10
801010bc:	bf00      	nop
801010be:	eb42 0202 	adc.w	r2, r2, r2
801010c2:	bf28      	it	cs
801010c4:	eba0 2081 	subcs.w	r0, r0, r1, lsl #10
801010c8:	ebb0 2f41 	cmp.w	r0, r1, lsl #9
801010cc:	bf00      	nop
801010ce:	eb42 0202 	adc.w	r2, r2, r2
801010d2:	bf28      	it	cs
801010d4:	eba0 2041 	subcs.w	r0, r0, r1, lsl #9
801010d8:	ebb0 2f01 	cmp.w	r0, r1, lsl #8
801010dc:	bf00      	nop
801010de:	eb42 0202 	adc.w	r2, r2, r2
801010e2:	bf28      	it	cs
801010e4:	eba0 2001 	subcs.w	r0, r0, r1, lsl #8
801010e8:	ebb0 1fc1 	cmp.w	r0, r1, lsl #7
801010ec:	bf00      	nop
801010ee:	eb42 0202 	adc.w	r2, r2, r2
801010f2:	bf28      	it	cs
801010f4:	eba0 10c1 	subcs.w	r0, r0, r1, lsl #7
801010f8:	ebb0 1f81 	cmp.w	r0, r1, lsl #6
801010fc:	bf00      	nop
801010fe:	eb42 0202 	adc.w	r2, r2, r2
80101102:	bf28      	it	cs
80101104:	eba0 1081 	subcs.w	r0, r0, r1, lsl #6
80101108:	ebb0 1f41 	cmp.w	r0, r1, lsl #5
8010110c:	bf00      	nop
8010110e:	eb42 0202 	adc.w	r2, r2, r2
80101112:	bf28      	it	cs
80101114:	eba0 1041 	subcs.w	r0, r0, r1, lsl #5
80101118:	ebb0 1f01 	cmp.w	r0, r1, lsl #4
8010111c:	bf00      	nop
8010111e:	eb42 0202 	adc.w	r2, r2, r2
80101122:	bf28      	it	cs
80101124:	eba0 1001 	subcs.w	r0, r0, r1, lsl #4
80101128:	ebb0 0fc1 	cmp.w	r0, r1, lsl #3
8010112c:	bf00      	nop
8010112e:	eb42 0202 	adc.w	r2, r2, r2
80101132:	bf28      	it	cs
80101134:	eba0 00c1 	subcs.w	r0, r0, r1, lsl #3
80101138:	ebb0 0f81 	cmp.w	r0, r1, lsl #2
8010113c:	bf00      	nop
8010113e:	eb42 0202 	adc.w	r2, r2, r2
80101142:	bf28      	it	cs
80101144:	eba0 0081 	subcs.w	r0, r0, r1, lsl #2
80101148:	ebb0 0f41 	cmp.w	r0, r1, lsl #1
8010114c:	bf00      	nop
8010114e:	eb42 0202 	adc.w	r2, r2, r2
80101152:	bf28      	it	cs
80101154:	eba0 0041 	subcs.w	r0, r0, r1, lsl #1
80101158:	ebb0 0f01 	cmp.w	r0, r1
8010115c:	bf00      	nop
8010115e:	eb42 0202 	adc.w	r2, r2, r2
80101162:	bf28      	it	cs
80101164:	eba0 0001 	subcs.w	r0, r0, r1
80101168:	4610      	mov	r0, r2
8010116a:	4770      	bx	lr
8010116c:	bf0c      	ite	eq
8010116e:	2001      	moveq	r0, #1
80101170:	2000      	movne	r0, #0
80101172:	4770      	bx	lr
80101174:	fab1 f281 	clz	r2, r1
80101178:	f1c2 021f 	rsb	r2, r2, #31
8010117c:	fa20 f002 	lsr.w	r0, r0, r2
80101180:	4770      	bx	lr
80101182:	b108      	cbz	r0, 80101188 <__aeabi_uidiv+0x258>
80101184:	f04f 30ff 	mov.w	r0, #4294967295	; 0xffffffff
80101188:	f000 b826 	b.w	801011d8 <__aeabi_idiv0>

8010118c <__aeabi_uidivmod>:
8010118c:	2900      	cmp	r1, #0
8010118e:	d0f8      	beq.n	80101182 <__aeabi_uidiv+0x252>
80101190:	e92d 4003 	stmdb	sp!, {r0, r1, lr}
80101194:	f7ff fecc 	bl	80100f30 <__aeabi_uidiv>
80101198:	e8bd 4006 	ldmia.w	sp!, {r1, r2, lr}
8010119c:	fb02 f300 	mul.w	r3, r2, r0
801011a0:	eba1 0103 	sub.w	r1, r1, r3
801011a4:	4770      	bx	lr
801011a6:	bf00      	nop

801011a8 <__aeabi_uldivmod>:
801011a8:	b953      	cbnz	r3, 801011c0 <__aeabi_uldivmod+0x18>
801011aa:	b94a      	cbnz	r2, 801011c0 <__aeabi_uldivmod+0x18>
801011ac:	2900      	cmp	r1, #0
801011ae:	bf08      	it	eq
801011b0:	2800      	cmpeq	r0, #0
801011b2:	bf1c      	itt	ne
801011b4:	f04f 31ff 	movne.w	r1, #4294967295	; 0xffffffff
801011b8:	f04f 30ff 	movne.w	r0, #4294967295	; 0xffffffff
801011bc:	f000 b80c 	b.w	801011d8 <__aeabi_idiv0>
801011c0:	f1ad 0c08 	sub.w	ip, sp, #8
801011c4:	e96d ce04 	strd	ip, lr, [sp, #-16]!
801011c8:	f000 f80c 	bl	801011e4 <__udivmoddi4>
801011cc:	f8dd e004 	ldr.w	lr, [sp, #4]
801011d0:	e9dd 2302 	ldrd	r2, r3, [sp, #8]
801011d4:	b004      	add	sp, #16
801011d6:	4770      	bx	lr

801011d8 <__aeabi_idiv0>:
801011d8:	b502      	push	{r1, lr}
801011da:	f04f 0008 	mov.w	r0, #8
801011de:	f7ff fc27 	bl	80100a30 <raise>
801011e2:	bd02      	pop	{r1, pc}

801011e4 <__udivmoddi4>:
801011e4:	4299      	cmp	r1, r3
801011e6:	e92d 47f0 	stmdb	sp!, {r4, r5, r6, r7, r8, r9, sl, lr}
801011ea:	bf08      	it	eq
801011ec:	4290      	cmpeq	r0, r2
801011ee:	4604      	mov	r4, r0
801011f0:	460d      	mov	r5, r1
801011f2:	bf38      	it	cc
801011f4:	2000      	movcc	r0, #0
801011f6:	f8dd a020 	ldr.w	sl, [sp, #32]
801011fa:	bf38      	it	cc
801011fc:	2100      	movcc	r1, #0
801011fe:	d369      	bcc.n	801012d4 <__udivmoddi4+0xf0>
80101200:	fab3 f683 	clz	r6, r3
80101204:	2b00      	cmp	r3, #0
80101206:	d070      	beq.n	801012ea <__udivmoddi4+0x106>
80101208:	fab5 f185 	clz	r1, r5
8010120c:	2d00      	cmp	r5, #0
8010120e:	d068      	beq.n	801012e2 <__udivmoddi4+0xfe>
80101210:	1a76      	subs	r6, r6, r1
80101212:	f1a6 0e20 	sub.w	lr, r6, #32
80101216:	fa03 f906 	lsl.w	r9, r3, r6
8010121a:	fa02 f10e 	lsl.w	r1, r2, lr
8010121e:	f1c6 0720 	rsb	r7, r6, #32
80101222:	fa22 f307 	lsr.w	r3, r2, r7
80101226:	fa02 f806 	lsl.w	r8, r2, r6
8010122a:	ea49 0901 	orr.w	r9, r9, r1
8010122e:	ea49 0903 	orr.w	r9, r9, r3
80101232:	454d      	cmp	r5, r9
80101234:	bf08      	it	eq
80101236:	4544      	cmpeq	r4, r8
80101238:	bf3c      	itt	cc
8010123a:	2000      	movcc	r0, #0
8010123c:	2100      	movcc	r1, #0
8010123e:	d30c      	bcc.n	8010125a <__udivmoddi4+0x76>
80101240:	2301      	movs	r3, #1
80101242:	ebb4 0408 	subs.w	r4, r4, r8
80101246:	fa03 f10e 	lsl.w	r1, r3, lr
8010124a:	fa23 f207 	lsr.w	r2, r3, r7
8010124e:	fa03 f006 	lsl.w	r0, r3, r6
80101252:	ea41 0102 	orr.w	r1, r1, r2
80101256:	eb65 0509 	sbc.w	r5, r5, r9
8010125a:	2e00      	cmp	r6, #0
8010125c:	d03a      	beq.n	801012d4 <__udivmoddi4+0xf0>
8010125e:	ea5f 0959 	movs.w	r9, r9, lsr #1
80101262:	ea4f 0838 	mov.w	r8, r8, rrx
80101266:	46b4      	mov	ip, r6
80101268:	e00b      	b.n	80101282 <__udivmoddi4+0x9e>
8010126a:	ebb4 0408 	subs.w	r4, r4, r8
8010126e:	eb65 0509 	sbc.w	r5, r5, r9
80101272:	1924      	adds	r4, r4, r4
80101274:	416d      	adcs	r5, r5
80101276:	3401      	adds	r4, #1
80101278:	f145 0500 	adc.w	r5, r5, #0
8010127c:	f1bc 0c01 	subs.w	ip, ip, #1
80101280:	d008      	beq.n	80101294 <__udivmoddi4+0xb0>
80101282:	454d      	cmp	r5, r9
80101284:	bf08      	it	eq
80101286:	4544      	cmpeq	r4, r8
80101288:	d2ef      	bcs.n	8010126a <__udivmoddi4+0x86>
8010128a:	1924      	adds	r4, r4, r4
8010128c:	416d      	adcs	r5, r5
8010128e:	f1bc 0c01 	subs.w	ip, ip, #1
80101292:	d1f6      	bne.n	80101282 <__udivmoddi4+0x9e>
80101294:	fa05 f707 	lsl.w	r7, r5, r7
80101298:	fa24 f306 	lsr.w	r3, r4, r6
8010129c:	fa25 fe0e 	lsr.w	lr, r5, lr
801012a0:	fa25 fc06 	lsr.w	ip, r5, r6
801012a4:	433b      	orrs	r3, r7
801012a6:	1900      	adds	r0, r0, r4
801012a8:	ea43 040e 	orr.w	r4, r3, lr
801012ac:	f1a6 0e20 	sub.w	lr, r6, #32
801012b0:	fa0c f306 	lsl.w	r3, ip, r6
801012b4:	fa04 fe0e 	lsl.w	lr, r4, lr
801012b8:	fa04 f206 	lsl.w	r2, r4, r6
801012bc:	f1c6 0720 	rsb	r7, r6, #32
801012c0:	fa24 f707 	lsr.w	r7, r4, r7
801012c4:	ea43 030e 	orr.w	r3, r3, lr
801012c8:	4169      	adcs	r1, r5
801012ca:	433b      	orrs	r3, r7
801012cc:	1a80      	subs	r0, r0, r2
801012ce:	4665      	mov	r5, ip
801012d0:	eb61 0103 	sbc.w	r1, r1, r3
801012d4:	f1ba 0f00 	cmp.w	sl, #0
801012d8:	d001      	beq.n	801012de <__udivmoddi4+0xfa>
801012da:	e9ca 4500 	strd	r4, r5, [sl]
801012de:	e8bd 87f0 	ldmia.w	sp!, {r4, r5, r6, r7, r8, r9, sl, pc}
801012e2:	fab4 f184 	clz	r1, r4
801012e6:	3120      	adds	r1, #32
801012e8:	e792      	b.n	80101210 <__udivmoddi4+0x2c>
801012ea:	fab2 f682 	clz	r6, r2
801012ee:	fab5 f185 	clz	r1, r5
801012f2:	3620      	adds	r6, #32
801012f4:	2d00      	cmp	r5, #0
801012f6:	d18b      	bne.n	80101210 <__udivmoddi4+0x2c>
801012f8:	e7f3      	b.n	801012e2 <__udivmoddi4+0xfe>
801012fa:	bf00      	nop

Disassembly of section .rodata:

801012fc <.LC0>:
801012fc:	20717269 	rsbscs	r7, r1, r9, ror #4
80101300:	69206425 	stmdbvs	r0!, {r0, r2, r5, sl, sp, lr}
80101304:	61682073 	smcvs	33283	; 0x8203
80101308:	6e657070 	mcrvs	0, 3, r7, cr5, cr0, {3}
8010130c:	0a0d6465 	beq	8045a4a8 <__bss_end+0x358fc4>
80101310:	00000000 	andeq	r0, r0, r0

80101314 <.LC1>:
80101314:	2079656b 	rsbscs	r6, r9, fp, ror #10
80101318:	73692031 	cmnvc	r9, #49	; 0x31
8010131c:	6c657220 	sfmvs	f7, 2, [r5], #-128	; 0xffffff80
80101320:	65736165 	ldrbvs	r6, [r3, #-357]!	; 0xfffffe9b
80101324:	00000a0d 	andeq	r0, r0, sp, lsl #20

80101328 <.LC2>:
80101328:	2079656b 	rsbscs	r6, r9, fp, ror #10
8010132c:	73692031 	cmnvc	r9, #49	; 0x31
80101330:	65727020 	ldrbvs	r7, [r2, #-32]!	; 0xffffffe0
80101334:	0a0d7373 	beq	8045e108 <__bss_end+0x35cc24>
80101338:	00000000 	andeq	r0, r0, r0

8010133c <.LC3>:
8010133c:	2079656b 	rsbscs	r6, r9, fp, ror #10
80101340:	73692032 	cmnvc	r9, #50	; 0x32
80101344:	6c657220 	sfmvs	f7, 2, [r5], #-128	; 0xffffff80
80101348:	65736165 	ldrbvs	r6, [r3, #-357]!	; 0xfffffe9b
8010134c:	00000a0d 	andeq	r0, r0, sp, lsl #20

80101350 <.LC4>:
80101350:	2079656b 	rsbscs	r6, r9, fp, ror #10
80101354:	73692032 	cmnvc	r9, #50	; 0x32
80101358:	65727020 	ldrbvs	r7, [r2, #-32]!	; 0xffffffe0
8010135c:	0a0d7373 	beq	8045e130 <__bss_end+0x35cc4c>
80101360:	00000000 	andeq	r0, r0, r0

80101364 <.LC0>:
80101364:	73696854 	cmnvc	r9, #84, 16	; 0x540000
80101368:	20736920 	rsbscs	r6, r3, r0, lsr #18
8010136c:	2e777777 	mrccs	7, 3, r7, cr7, cr7, {3}
80101370:	61303031 	teqvs	r0, r1, lsr r0
80101374:	6f2e6b73 	svcvs	0x002e6b73
80101378:	20206772 	eorcs	r6, r0, r2, ror r7
8010137c:	5f796d20 	svcpl	0x00796d20
80101380:	6e697270 	mcrvs	2, 3, r7, cr9, cr0, {3}
80101384:	74206674 	strtvc	r6, [r0], #-1652	; 0xfffff98c
80101388:	0a747365 	beq	81e1e124 <__bss_end+0x1d1cc40>
8010138c:	0000000d 	andeq	r0, r0, sp

80101390 <.LC1>:
80101390:	74736574 	ldrbtvc	r6, [r3], #-1396	; 0xfffffa8c
80101394:	61686320 	cmnvs	r8, r0, lsr #6
80101398:	20202072 	eorcs	r2, r0, r2, ror r0
8010139c:	20202020 	eorcs	r2, r0, r0, lsr #32
801013a0:	20202020 	eorcs	r2, r0, r0, lsr #32
801013a4:	2c63253d 	cfstr64cs	mvdx2, [r3], #-244	; 0xffffff0c
801013a8:	0d0a6325 	stceq	3, cr6, [sl, #-148]	; 0xffffff6c
801013ac:	00000000 	andeq	r0, r0, r0

801013b0 <.LC2>:
801013b0:	74736574 	ldrbtvc	r6, [r3], #-1396	; 0xfffffa8c
801013b4:	63656420 	cmnvs	r5, #32, 8	; 0x20000000
801013b8:	6c616d69 	stclvs	13, cr6, [r1], #-420	; 0xfffffe5c
801013bc:	6d756e20 	ldclvs	14, cr6, [r5, #-128]!	; 0xffffff80
801013c0:	20726562 	rsbscs	r6, r2, r2, ror #10
801013c4:	0a64253d 	beq	81a0a8c0 <__bss_end+0x19093dc>
801013c8:	0000000d 	andeq	r0, r0, sp

801013cc <.LC3>:
801013cc:	74736574 	ldrbtvc	r6, [r3], #-1396	; 0xfffffa8c
801013d0:	78656820 	stmdavc	r5!, {r5, fp, sp, lr}^
801013d4:	20202020 	eorcs	r2, r0, r0, lsr #32
801013d8:	6d756e20 	ldclvs	14, cr6, [r5, #-128]!	; 0xffffff80
801013dc:	20726562 	rsbscs	r6, r2, r2, ror #10
801013e0:	2578303d 	ldrbcs	r3, [r8, #-61]!	; 0xffffffc3
801013e4:	000d0a78 	andeq	r0, sp, r8, ror sl

801013e8 <.LC4>:
801013e8:	2e777777 	mrccs	7, 3, r7, cr7, cr7, {3}
801013ec:	61303031 	teqvs	r0, r1, lsr r0
801013f0:	6f2e6b73 	svcvs	0x002e6b73
801013f4:	00006772 	andeq	r6, r0, r2, ror r7

801013f8 <.LC5>:
801013f8:	74736574 	ldrbtvc	r6, [r3], #-1396	; 0xfffffa8c
801013fc:	72747320 	rsbsvc	r7, r4, #32, 6	; 0x80000000
80101400:	20676e69 	rsbcs	r6, r7, r9, ror #28
80101404:	20202020 	eorcs	r2, r0, r0, lsr #32
80101408:	20202020 	eorcs	r2, r0, r0, lsr #32
8010140c:	0a73253d 	beq	81dca908 <__bss_end+0x1cc9424>
80101410:	0000000d 	andeq	r0, r0, sp

80101414 <.LC6>:
80101414:	3d6d756e 	cfstr64cc	mvdx7, [sp, #-440]!	; 0xfffffe48
80101418:	64383025 	ldrtvs	r3, [r8], #-37	; 0xffffffdb
8010141c:	00000d0a 	andeq	r0, r0, sl, lsl #26

80101420 <.LC7>:
80101420:	3d6d756e 	cfstr64cc	mvdx7, [sp, #-440]!	; 0xfffffe48
80101424:	0a643825 	beq	81a0f4c0 <__bss_end+0x190dfdc>
80101428:	0000000d 	andeq	r0, r0, sp

8010142c <.LC8>:
8010142c:	3d6d756e 	cfstr64cc	mvdx7, [sp, #-440]!	; 0xfffffe48
80101430:	30257830 	eorcc	r7, r5, r0, lsr r8
80101434:	0d0a7838 	stceq	8, cr7, [sl, #-224]	; 0xffffff20
80101438:	00000000 	andeq	r0, r0, r0

8010143c <.LC9>:
8010143c:	3d6d756e 	cfstr64cc	mvdx7, [sp, #-440]!	; 0xfffffe48
80101440:	38257830 	stmdacc	r5!, {r4, r5, fp, ip, sp, lr}
80101444:	000d0a78 	andeq	r0, sp, r8, ror sl

80101448 <.LC10>:
80101448:	3d6d756e 	cfstr64cc	mvdx7, [sp, #-440]!	; 0xfffffe48
8010144c:	30257830 	eorcc	r7, r5, r0, lsr r8
80101450:	0d0a7832 	stceq	8, cr7, [sl, #-200]	; 0xffffff38
80101454:	00000000 	andeq	r0, r0, r0

80101458 <.LC11>:
80101458:	3d6d756e 	cfstr64cc	mvdx7, [sp, #-440]!	; 0xfffffe48
8010145c:	32257830 	eorcc	r7, r5, #48, 16	; 0x300000
80101460:	000d0a78 	andeq	r0, sp, r8, ror sl

80101464 <.LC12>:
80101464:	3d6d756e 	cfstr64cc	mvdx7, [sp, #-440]!	; 0xfffffe48
80101468:	64353025 	ldrtvs	r3, [r5], #-37	; 0xffffffdb
8010146c:	00000d0a 	andeq	r0, r0, sl, lsl #26

80101470 <.LC13>:
80101470:	3d6d756e 	cfstr64cc	mvdx7, [sp, #-440]!	; 0xfffffe48
80101474:	0a643525 	beq	81a0e910 <__bss_end+0x190d42c>
80101478:	Address 0x0000000080101478 is out of bounds.


Disassembly of section .ARM.exidx:

8010147c <.ARM.exidx>:
8010147c:	7ffffd68 	svcvc	0x00fffd68
80101480:	00000001 	andeq	r0, r0, r1

Disassembly of section .data:

80101484 <hex_tab>:
80101484:	33323130 	teqcc	r2, #48, 2
80101488:	37363534 			; <UNDEFINED> instruction: 0x37363534
8010148c:	62613938 	rsbvs	r3, r1, #56, 18	; 0xe0000
80101490:	66656463 	strbtvs	r6, [r5], -r3, ror #8

Disassembly of section .bss:

80101494 <__bss_start>:
80101494:	00000000 	andeq	r0, r0, r0

80101498 <IOMUXC_SNVS_SW_MUX_CTL_PAD_SNVS_TAMPER3>:
80101498:	00000000 	andeq	r0, r0, r0

8010149c <GPIO5_GDIR>:
8010149c:	00000000 	andeq	r0, r0, r0

801014a0 <GPIO5_DR>:
801014a0:	00000000 	andeq	r0, r0, r0

801014a4 <CCM_CCGR1>:
801014a4:	00000000 	andeq	r0, r0, r0

801014a8 <IOMUXC_SNVS_SW_MUX_CTL_PAD_SNVS_TAMPER1>:
801014a8:	00000000 	andeq	r0, r0, r0

801014ac <GPIO5_GDIR>:
801014ac:	00000000 	andeq	r0, r0, r0

801014b0 <GPIO5_DR>:
801014b0:	00000000 	andeq	r0, r0, r0

801014b4 <CCM_CCGR3>:
801014b4:	00000000 	andeq	r0, r0, r0

801014b8 <IOMUXC_SW_MUX_CTL_PAD_NAND_CE1_B>:
801014b8:	00000000 	andeq	r0, r0, r0

801014bc <GPIO4_GDIR>:
801014bc:	00000000 	andeq	r0, r0, r0

801014c0 <GPIO4_DR>:
801014c0:	00000000 	andeq	r0, r0, r0

801014c4 <GPIO5_IMR>:
801014c4:	00000000 	andeq	r0, r0, r0

801014c8 <GPIO5_EDGE_SEL>:
801014c8:	00000000 	andeq	r0, r0, r0

801014cc <GPIO5_ISR>:
801014cc:	00000000 	andeq	r0, r0, r0

801014d0 <GPIO5_DR>:
801014d0:	00000000 	andeq	r0, r0, r0

801014d4 <GPIO4_IMR>:
801014d4:	00000000 	andeq	r0, r0, r0

801014d8 <GPIO4_EDGE_SEL>:
801014d8:	00000000 	andeq	r0, r0, r0

801014dc <GPIO4_ISR>:
801014dc:	00000000 	andeq	r0, r0, r0

801014e0 <GPIO4_DR>:
801014e0:	00000000 	andeq	r0, r0, r0

